:100000000C949D020C94E6020C94E6020C94E60219
:100010000C94520D0C94E6020C94E6020C94E60249
:100020000C94E6020C94E6020C9492240C94642541
:100030000C94FC1A0C94E6020C94E6020C94E60272
:100040000C94E6020C94E6020C94E6020C94E60290
:100050000C94E6020C94641B0C94E6020C94E602E9
:100060000C94E6020C94E6020C94E6020C94E60270
:100070000C94E6020C94E6020C94E6020C94E60260
:100080000C94E6020C94E6020C94E6020C94E60250
:100090000C94E6020C94E6020C94E6020C94E60240
:1000A0000C94E6020C94E6020C94E6028E04900492
:1000B0009B0492049404960498049A049D049F045B
:1000C000A104AC04A304A504A704A904AB04AE04D2
:1000D00013111311451145118311A11107130713B2
:1000E000E311071386128612F71207130713001382
:1000F00093129312931293129312931293129312D8
:1001000093129312931293129312931293129312C7
:10011000A412B212B912C012CA129A139A13AC13D3
:10012000AC13A313AC13AC13AC139A139A13A81308
:10013000AC13AC13A813D125F825F026F825F0262A
:1001400044266726F026BE26CD26165C1E001F001C
:1001500020002100220000002B0014001A000800DB
:1001600015001700C45C394204001600070009009E
:100170000A004C00E1001D001B00060019000500EC
:100180002C00E000E300E200C25C02512C004C00B5
:100190002A0027002600250024002300000031004B
:1001A000130012000C0018001C00C35C3400330064
:1001B0000F000E000D000B0028002800380037004B
:1001C0003600100011002C004E004B002E002D00B8
:1001D00002512C0028000000000000000000000078
:1001E000000000000000000000000000000000000F
:1001F00000000000000000000000000000000000FF
:1002000000000000000000000000000000000000EE
:1002100000000000000000000000000000000000DE
:1002200000000000000000000000000000000000CE
:1002300000000000000000000000000000000000BE
:1002400000000000000000000000000000000000AE
:10025000000000000000000000000000000000009E
:1002600000003A003B003C003D003E003F00000023
:100270000100C75CC95CC85C005C2F000100010084
:10028000C65CCA5CC55C010001000100E100010020
:1002900001000100010001000100E000E300E200B4
:1002A000C35C01000100010045004400430042001E
:1002B0004100400000004A0049004E0052004B003F
:1002C000300001004D004C004F0051005000010073
:1002D0000100AB00AC00AE00010001000100010014
:1002E000AA00A900A800010001000100010000000F
:1002F00000000001010101010101010102020202ED
:1003000002020202020303030303030303040404BF
:100310000404040505050505060606060607070785
:1003200007080808080909090A0A0A0A0B0B0B0C36
:100330000C0C0D0D0D0E0E0F0F0F101011111112D0
:100340001213131414151516161717181819191A4D
:100350001A1B1C1C1D1D1E1F1F20202122222324AE
:10036000252526272728292A2B2B2C2D2E2F2F30E9
:10037000313233343536363738393A3B3C3D3E3FFF
:100380004041424344464748494A4B4C4D4F5051E7
:100390005253555657585A5B5C5E5F6062636466A1
:1003A00067696A6C6D6E707173747678797B7C7E28
:1003B0008081838486888A8B8D8F91929496989A77
:1003C0009B9D9FA1A3A5A7A9ABADAFB1B3B5B7B98D
:1003D000BBBDBFC1C4C6C8CACCCFD1D3D6D8DADC66
:1003E000DFE1E4E6E8EBEDF0F2F5F7FAFCFF0403F9
:1003F000300000001C032200500072006F006A00F1
:1004000065006300740020005A0065006E00220041
:10041000000010034C00650067006F006E0075005F
:10042000740000000403090409023B00020100A05B
:10043000FA09040000010301010009211101000172
:100440002240000705810308000A09040100010396
:100450000000000921110100012285000705820327
:1004600020000A1201100100000008EDFE613002B8
:10047000000102030105010902A10185020901A190
:10048000000509190129051500250195057501814A
:100490000295017503810105010930093115812596
:1004A0007F95027508810609381581257F950175AC
:1004B000088106050C0A38021581257F950175080B
:1004C0008106C0C005010980A1018503160100262F
:1004D00003001A81002A8300751095018100C00570
:1004E0000C0901A1018504160100269C021A0100D5
:1004F0002A9C02751095018100C005010906A10121
:10050000050719E029E71500250195087501810205
:1005100095017508810105081901290595057501E1
:1005200091029501750391010507190029FF150036
:1005300026FF00950675088100C011241FBECFEF6D
:10054000DAE0DEBFCDBF04B603FE29C08091980279
:1005500090919902A0919A02B0919B028730904BA2
:10056000A740B04BE1F410929802109299021092B9
:100570009A0210929B0214BE84B7877F84BF0FB685
:10058000F894A89580916000886180936000109233
:1005900060000FBEE0918702F0918802099411E09B
:1005A000A0E0B1E0E8E3FFE402C005900D92A834BA
:1005B000B107D9F722E0A8E4B1E001C01D92A83943
:1005C000B207E1F70E94BC210C949A270C9400001A
:1005D0000C94D307CF93DF93EC010E94051ABE0160
:1005E00080E090E0DF91CF910C949017811106C0CC
:1005F000662311F08EE409C08BE407C0813039F422
:10060000662311F082E501C081E50C94C8100895BD
:10061000853E9C4551F4FB018281882339F081E0BD
:1006200090E00E94EA0280E0089581E0089581E070
:1006300008950C9408030E94F219811102C00E94CF
:10064000651A0E945A0C0C94E8020E946A0C0C94E1
:10065000D10708950C9429030C942A0308950E944D
:1006600086130E942E032FEF84E39CE021508040EC
:100670009040E1F700C000000C948A1BFF920F939A
:100680001F93CF93DF938C01FC01C081D1818091B6
:100690008001811113C08281882349F0CE010E941C
:1006A000E518F82E682FCE010E948E1804C0CE01E6
:1006B0000E94B918F82EBE018F2D04C0CE010E94F1
:1006C000E518BE010E946205EC01B8010E94190301
:1006D000882309F4ECC1C93CFCE5DF0709F4C5C077
:1006E000C0F5C23C9CE5D90709F486C0C0F4C53109
:1006F000FCE5DF0778F4C2308CE5D80708F0ECC0E1
:10070000C1159CE5D90709F45CC0C130DC4509F48A
:1007100060C0C0C1C631DC4509F495C1BBC1C53C50
:100720008CE5D80709F488C050F4C33CECE5DE073B
:1007300009F469C0C43CDC4509F46FC0ABC1F801E1
:100740008281C73CFCE5DF0709F485C008F47EC060
:1007500087C0C63DECE5DE07B0F4CE3CFCE5DF0724
:1007600008F0A5C1CB3C8CE5D80709F48CC008F48F
:1007700083C0CC3CECE5DE0709F48DC0CD3CDC4504
:1007800009F491C087C1C83D8CE5D80709F440C180
:1007900050F4C63DECE5DE0709F4F0C0C73DDC458A
:1007A00009F40FC177C1CC3D8CE5D80709F48BC0A3
:1007B000CD3D9CE5D907C1F0CB3DDC4509F06AC1D0
:1007C0007BC0F8018281882309F471C10E942F0344
:1007D0006EC1F8018281882309F469C18091FB010F
:1007E00081608093FB0163C1F8018281882309F451
:1007F0005EC10E94651A5BC1F8018281811157C1F7
:100800000E94EB0B1FC0F8018281882309F44FC1BD
:100810000E94B619827251F00CC0F80182818823BF
:1008200009F445C10E94B619827219F00E94CE0BDC
:1008300009C00E94DC0B06C0F8018281811137C11A
:100840000E94F90A81E08093630131C181112FC1B7
:100850000E941C0BF7CF81112AC10E943C0BF2CFE2
:10086000811125C10E945C0BEDCFF80182818111BD
:100870001EC10E947C0BE6CFF8018281811117C155
:100880000E949C0BDFCFF8018281882309F40FC1FD
:100890000E942B0A0CC1F8018281882309F407C148
:1008A0000E94400A04C1F8018281882309F4FFC034
:1008B00081E00E94DF0BC6CFF8018281882309F412
:1008C000F6C080E006C0F8018281882309F4EFC0F9
:1008D00082E00E945922EBC0F8018281882309F44A
:1008E000DEC00E94F219811102C00E94651A0E94A6
:1008F0000A1A90E090938A0280938902FE01E350E5
:10090000FC45E231F10530F4EA5AFF4F809189024B
:100910000C944C2780918902816027C0826025C099
:10092000846023C0806121C080621FC080641DC0BC
:1009300080681BC08460886018C08E7F16C08D7F61
:1009400014C08B7F12C08F7E10C08F7D0EC08F7B36
:100950000CC08F770AC08B7F877F07C087FB222759
:1009600020F991E0922790FB87F98093890280918A
:1009700089020E940E1A0E94861399C0F801828192
:10098000882351F010924D010E942E1B90934A0132
:100990008093490182E022C080914D0181110FC0F6
:1009A0008091490190914A010E943A1B883C91052F
:1009B00030F486E20E94360F86E20E94601082E0E8
:1009C00024C0F8018281882361F010924E010E94B8
:1009D0002E1B90934C0180934B0180E20E94D0101B
:1009E00066C080914E0181110FC080914B019091A2
:1009F0004C010E943A1B883C910530F487E20E942A
:100A0000360F87E20E94601080E20E94D7104FC02C
:100A1000F80182818111D9CF80914E018111F4CFEB
:100A200080914B0190914C010E943A1B883C9105AA
:100A300058F780E20E94D71088E20E94360F88E2C1
:100A40000E94601034C00E94B619982FF80182816C
:100A50002091090130910A01882379F09A7A81E086
:100A600009F480E080934801911102C069E201C05D
:100A700065E3C9010E949A1A0AC080914801811158
:100A800002C069E201C065E3C9010E949C1A0E948C
:100A900083190DC081E080934D0180934E01C80100
:100AA000DF91CF911F910F91FF900C94170380E07D
:100AB000DF91CF911F910F91FF90089580E090E01A
:100AC0000895089526E4829FC0011124FC0127E0C7
:100AD000729FE00DF11D1124E60FF11DEE0FFF1FB7
:100AE000E65BFE4F859194910895880F991FFC0154
:100AF000E251FD4F859194910895CF93DF930E9429
:100B000062050E942F07EC018115904508F041C055
:100B1000C11580E4D80708F024C1C83ED10510F5FE
:100B2000C03ED10508F097C1C83AD10578F4C53A5E
:100B3000D10508F09EC0C130D10509F48CC108F47C
:100B40003DC1C430D10508F086C138C1CF3BD105C5
:100B500008F49AC0C03CD10508F430C1CE01805CD5
:100B60009109F1C0C11590E2D90758F4C11521E0EF
:100B7000D20708F070C1C03FD10508F41FC1D0658D
:100B80006AC1C11580E3D80708F0E1C0CE019F70AB
:100B9000DAC0C11595E5D90708F044C0C11524E5B0
:100BA000D20708F0F5C0C11582E5D80710F5C115C8
:100BB00091E5D90708F0D8C0CE0174E096958795E5
:100BC0007A95E1F7282F23703C2F337081E090E075
:100BD00002C0880F991F3A95E2F79C68922BCF705C
:100BE000C695C69520E2C29FE0011124C82BD92BDF
:100BF00032C19E01237033278C2F86958695C115AF
:100C0000D34508F0B6C0C1E0D0E002C0CC0FDD1F74
:100C10002A95E2F720E2829FC0011124C82BD92B2C
:100C2000DC6819C1C11529E5D20780F4C11588E532
:100C3000D80708F0B2C0C11596E5D90708F0BEC0C4
:100C4000CF71DD27DC2FCC27D06205C1CE01C115C5
:100C50002AE5D20708F4A6C090568115904208F004
:100C6000ADC08D2F8F710E94AB07DD27D0628F71D1
:100C7000A3C0C53AD10509F4A4C0C63AD10509F00C
:100C8000A3C0C2E8D0E4E7C0C83AD10509F49FC0C8
:100C9000C93AD10509F49EC0CA3AD10509F49DC0EC
:100CA000CB3AD10509F49CC0CC3AD10509F49BC0DC
:100CB000CB3BD10509F49AC0CC3BD10509F499C0CE
:100CC000CD3AD10509F498C0C03BD10509F497C0CD
:100CD000CE3AD10509F496C0CF3AD10509F495C0B2
:100CE000C13BD10509F494C0C23BD10509F493C0BE
:100CF000C33BD10509F492C0C43BD10509F491C0AE
:100D0000C53BD10509F490C0C63BD10509F48FC09D
:100D1000C73BD10509F48EC0C83BD10509F48DC08D
:100D2000C93BD10509F48CC0CD3BD10509F48BC07A
:100D3000CE3BD10509F48AC0CA3BD10509F489C06C
:100D4000C0E0D4E488C00E947505EC0184C0CE01E7
:100D50009927D3FF03C0EC01D86C7DC0EC01D06CA7
:100D60007AC0DF70D06A77C0DC2FCC27C16FD06A21
:100D700072C0C1E0D0E002C0CC0FDD1F2A95E2F7BF
:100D800020E2829FC0011124C82BD92BDA6863C0EE
:100D9000DC2FCC27C46FD06A5EC0DC2FCC27C06F9D
:100DA000D06A59C024E0969587952A95E1F78F700F
:100DB000CF70C06ED0E0D06AD82B4DC0C0E0D0E07C
:100DC0004AC0C1E8D0E447C0C3E8D0E444C0C2EEA2
:100DD000D4E441C0C9EED4E43EC0CAEED4E43BC082
:100DE000C5EBD4E438C0C6EBD4E435C0C3EBD4E4DF
:100DF00032C0C4EBD4E42FC0C7EBD4E42CC0CCEC9D
:100E0000D4E429C0CDECD4E426C0C3E8D5E423C0A3
:100E1000CAE8D5E420C0C2E9D5E41DC0C4E9D5E4E0
:100E20001AC0C1E2D6E417C0C3E2D6E414C0C4E2DB
:100E3000D6E411C0C5E2D6E40EC0C6E2D6E40BC0CB
:100E4000C7E2D6E408C0CFE6D4E405C0C0E7D4E4E6
:100E500002C0CAE2D6E4CE01DF91CF910895823874
:100E6000910549F1B0F48133910509F459C048F472
:100E70008932910509F44FC08A32910509F455C0B1
:100E800008958533910509F441C08933910599F09E
:100E90000895833E910531F138F4803E910591F03B
:100EA000823E9105A9F00895863E910501F1873EA5
:100EB000910539F108952091890220FD3BC021FD63
:100EC00039C008958091890280FF34C089E341C010
:100ED0008091890282FF30C08091890284FD2EC0FA
:100EE00083EE37C08091890282FD26C0F5CF8091C4
:100EF000890283FF25C08091890284FD1FC087EE8F
:100F000028C08091890283FD1BC0F5CF80918902A2
:100F100085FD18C019C08091890285FD15C012C0D9
:100F20008091890286FD12C013C08091890286FDDE
:100F30000FC00CC080EE0DC082EE0BC080E009C077
:100F400086EE07C089E205C085E303C08AE201C0DE
:100F500081E390E008959091890292FF0DC0282FBF
:100F60002871283019F4877F846006C0282F2471E7
:100F7000243011F48B7F886093FF0DC0282F2871D7
:100F8000283119F4877E846106C0282F247124310A
:100F900011F48B7E886194FD877E089508950C94EA
:100FA000CE070C94CF070C94CE07E82FF0E0EB5A55
:100FB000FE4F808108950895CF93DF938091FB01C8
:100FC000836088608093FB01809100018091000123
:100FD000811102C095E001C090E09093150285E078
:100FE000891B80931402A3E2B1E048E251E061E082
:100FF00070E08D91E82FE295EF70F0E021A18F7005
:10100000EB0102C0CC0FDD1F8A95E2F7CE019C2FC9
:101010009095922391A392A1892B82A34A175B07F3
:1010200041F7ACE1B1E043E251E061E070E08D9165
:10103000E82FE295EF70F0E021A18F70EB0102C084
:10104000CC0FDD1F8A95E2F7CE019C2F909592235D
:1010500091A392A1892B82A34A175B0741F7E5E58B
:10106000F1E08FE591E011928E179F07E1F785E09F
:101070000E940209DF91CF910C941B036F927F9223
:101080008F929F92AF92BF92CF92DF92EF92FF9298
:101090000F931F93CF93DF9323E2622E21E0722EF2
:1010A000A0E5B1E035E5C32E31E0D32E20E001E02C
:1010B00010E05D019C901C92E30189913E01E82FB4
:1010C000E295EF70F0E042A18F70B80102C0660FA8
:1010D000771F8A95E2F7CB01362F3095432342A341
:1010E00041A1462B41A370EA7A95F1F79CE1E92EE4
:1010F00091E0F92E40E050E0E70189907E01682DF3
:1011000062956F7070E0EB0168A170E0D82DDF7020
:1011100002C075956795DA95E2F760FD07C0B801E2
:10112000042E01C0660F0A94EAF702C060E070E086
:101130007C91672B6C934F5F5F4F47305105E1F611
:1011400091A1392331A392A1892B82A3119681E029
:10115000F5019081991101C080E0282BCA16DB06A9
:1011600009F0A7CF6091150270E06B5A7E4F45E001
:1011700080E591E00E94030981E0DF91CF911F910A
:101180000F91FF90EF90DF90CF90BF90AF909F9026
:101190008F907F906F900895CF930E943E08C82F44
:1011A0000E943809882311F18091140290E08B5A33
:1011B0009E4F0E947309811114C080914F018F5F6F
:1011C00080934F01863078F0E0911402F0E0EB5A02
:1011D000FE4F80E090E01192019685309105D9F79D
:1011E00002C010924F010E94250309C08091150290
:1011F00090E08B5A9E4F0E948E090E94CE078C2F42
:10120000CF9108950895FF920F931F93CF93DF938B
:10121000C82F192FF62E072FD42F222349F081E053
:10122000809361010E942E1B9093600180935F0167
:10123000809161018823B1F080915F0190916001FC
:101240000E943A1B069770F09C2FAF2DB02FEC2F09
:10125000F12F8E2F891B8D1718F481918D93F9CF63
:1012600010926101DF91CF911F910F91FF9008952E
:1012700080916401811112C08091D80080618093B7
:10128000D8008AE18A95F1F700C08091D90080FDED
:1012900002C082E001C081E08093640181E090910E
:1012A0006401913009F080E008950C9438090E949F
:1012B0005509809300010E943809882331F00E946B
:1012C000670981E08093620108950C946D0961E0E3
:1012D00070E081E091E00C94040D61E070E081E049
:1012E00091E00C940B0DCF93DF93D82FC92F0E9460
:1012F000A30D892B79F4ED2FFC2F80E090E0DC0129
:10130000AA59BE4F2C912193019685309105B9F7CA
:1013100081E001C080E0DF91CF91089520E030E0CE
:10132000FC014191CF01F901EA59FE4F40832F5F43
:101330003F4F25303105A1F70895EF92FF920F93AB
:101340001F93CF93DF93E901662309F44BC0242F49
:1013500030E0EFEFF0E0E61BF109B901E69F900104
:10136000E79F300DF69F300D1124232F8B01031BB7
:1013700011095CE3E52EF12CB7010E942427FB0143
:10138000BC01069FC001079F900D169F900D112470
:10139000B7010E942427E230F105B1F040F4309704
:1013A00079F0319711F5832F242F461B21C0E430AB
:1013B000F105A1F068F03597C1F4842F861B18C0A1
:1013C000832F262F230F14C0862F830FE42F03C0F3
:1013D000E42FE61B842F432F2E2F0AC0842F462F85
:1013E000430F06C0842F242F03C080E020E040E09C
:1013F000E42FF0E0E251FD4F4491E22FF0E0E251A2
:10140000FD4F9491E82FF0E0E251FD4FE4914983C4
:101410009883EA83DF91CF911F910F91FF90EF9016
:10142000089588E090E00C945A27AB01BC0188E055
:1014300090E00C947827E6E1F2E083E0808310925C
:1014400017028FEF8283838314826081718182818E
:1014500093810C94150A80911A0290E001968430D1
:10146000910514F083E090E080931A0260911602D7
:101470007091170280911802909119020C94150A2C
:1014800080911A0290E0019797FF02C080E090E0FF
:101490008430910514F083E090E080931A0260910B
:1014A00016027091170280911802909119020C9403
:1014B000150A8091160280FF06C062E270E08BE19F
:1014C00092E00C94550CEBE1F2E011821082128252
:1014D000339682E0E138F807C1F7EFCFE6E1F2E0BA
:1014E00080818E7F808360817181828193810E945F
:1014F000150A2FEF80E792E0215080409040E1F7FD
:1015000000C000000C94590A9091160290FF0CC084
:10151000EBE1F2E0818360834283339692E0E1382D
:10152000F907C1F70C94590A0895DF92EF92FF92E0
:101530000F931F93CF93DF9300D01F92CDB7DEB7E9
:101540003091160230FF31C0D22E042FF62EE92E34
:10155000182F3E77323051F49E012F5F3F4F0E948B
:101560009D094B8169818A810E94840A80911602BB
:1015700010FB87F9809316021695809117028078E8
:10158000182BE0FA17F910931702F0921802009343
:101590001902DD2051F060911602709117028091BE
:1015A0001802909119020E94150A0F900F900F9047
:1015B000DF91CF911F910F91FF90EF90DF900895F1
:1015C000282FE6E1F2E03081331F3327331F4091AB
:1015D0001702542F550F852F832B47FB992790F91E
:1015E0000A9668E671E00E943827438162810C9474
:1015F000950A81E00C94E00A282F30911602331FDF
:101600003327331F40911702542F550F852F832BFB
:1016100047FB992790F98A3091051CF4825A9E4F16
:1016200005C00A9768E671E00E94382740911902C8
:10163000609118020C94950A81E00C94FC0A609168
:101640001802262F30E02F3E310514F46F5E01C0E2
:101650006FEF30911602331F3327331F909117021B
:10166000592F550F97FB992790F9282F4091190270
:10167000852F832B0C94950A81E00C941F0B6091AD
:101680001802262F30E02131310514F0615101C0DC
:1016900060E030911602331F3327331F90911702F9
:1016A000592F550F97FB992790F9282F4091190230
:1016B000852F832B0C94950A81E00C943F0B40916D
:1016C0001902242F30E02F3E310514F44F5E01C083
:1016D0004FEF30911602331F3327331F90911702BB
:1016E000592F550F97FB992790F9282F60911802D1
:1016F000852F832B0C94950A81E00C945F0B40910D
:101700001902242F30E02131310514F0415101C07C
:1017100040E030911602331F3327331F9091170298
:10172000592F550F97FB992790F9282F6091180290
:10173000852F832B0C94950A81E00C947F0B20E07D
:101740000C94950A8091160280FF23C081788260F4
:1017500080931602662351F0609116027091170271
:1017600080911802909119020E94150A8091160228
:10177000881F8827881F90911702292F220F97FB17
:10178000992790F94091190260911802822B0C94CC
:101790009F0B0895682F81E00C94A20B81E00C94BC
:1017A000CA0B682F9091160296959F738FEF890F41
:1017B00009F481E00C94A20B81E00C94D10B61E060
:1017C0000C94A20BE6E1F2E0808181608083869533
:1017D0008F730C94DF0B8091160280FD0C946E0ABF
:1017E0000C94E20B60E00C94A20B8091FB018160F1
:1017F0008093FB010E94F219811104C00E94651AB6
:101800000E941B0A0E94110A60931602709317022D
:1018100080931802909319026E7761F40E941B0A5C
:101820000E94110A609316027093170280931802A7
:10183000909319028091160280FF04C086958F73E1
:101840000C94F20B089525B1342F3095232335B134
:10185000432B3FB7F894FC01680F791FE617F70791
:1018600089F0819198E045B9000000C087FF25B953
:10187000880F000000C000C000C025B900C09A95C4
:1018800091F7ECCF3FBF089524B1242B24B99B01DD
:10189000220F331F620F731F0E94230C87EC90E00E
:1018A0000197F1F700C00000089540E40C94440C47
:1018B0000C94F60254985C9A52985A9A89B182957F
:1018C00081704A9902C090E001C092E0892B809318
:1018D0006C010895E0916C01EE0FEE0FE0936C0146
:1018E00049B144FB222720F930E049B142FB882767
:1018F00080F990E042FF02C082E090E0822B932BBF
:101900008E2B80936C018F70E82FF0E0E35DFE4F2B
:10191000908180916B01890F80936B01843024F05A
:1019200060E080E00E94580C80916B018D3F24F4B0
:1019300061E080E00E94580C80916B01837887FF02
:1019400003C081508C6F8F5F80936B0108958EE18F
:101950004B9B02C08150E1F74B9BFECF08955B98F3
:1019600080E28A95F1F75B9A0895FC012AE02A95B6
:10197000F1F728E090E080E031E040E14A95F1F7AE
:10198000880F4B9B02C08160932700C0000040E19C
:101990004A95F1F7215089F720E12A95F1F729B10D
:1019A00000C0000030E13A95F1F723FB222720F92F
:1019B00092272081920F90830895EF92FF920F93C8
:1019C0001F93CF93DF931F92CDB7DEB719828C019F
:1019D0007C01E60EF11C0E151F0551F00E94A70CAC
:1019E000CE0101960E94B50CF80181938F01F3CFCF
:1019F00081E09981911180E00F90DF91CF911F914B
:101A00000F91FF90EF90089590936E0180936D0178
:101A1000539A5B9A089590936E0180936D01539849
:101A20005B9AEB9AE9E6F0E080818F7380830895FA
:101A3000615091E001C0990F6A95EAF720E031E02A
:101A4000992361F0492F482319F05B9A232701C09D
:101A50005B9840E24A95F1F79695F2CF222311F078
:101A60005B9A01C05B9880E28A95F1F75B980895D4
:101A7000FF920F931F93CF93DF93EC018C01060F1E
:101A8000111DC017D10741F0F9900E94AF0C68E01A
:101A90008F2D0E94180DF5CFDF91CF911F910F91DF
:101AA000FF9008951F920F920FB60F9211242F935B
:101AB0003F934F935F936F937F938F939F93AF93D6
:101AC000BF93CF93DF93EF93FF935B98539AC091AB
:101AD0006D01D0916E016D81662321F08E819F8111
:101AE0000E94380D0E94AF0C80E18A95F1F75B9857
:101AF00053985B9A80E18A95F1F76A81662351F0E9
:101B00008B819C810E94DD0CE881F981811104C0E8
:101B100082E003C0E881F98188E080830E94A70CFD
:101B2000FF91EF91DF91CF91BF91AF919F918F91F5
:101B30007F916F915F914F913F912F910F900FBEC9
:101B40000F901F901895CF93DF93C0916D01D091A6
:101B50006E01F894539A5B9885E08A95F1F700003E
:101B600053985B9A80E28A95F1F74B9B0AC0539A8F
:101B70005B9AE881F98181E08083789481E090E04C
:101B80002CC06D81662381F08E819F810E94DD0CC7
:101B900081110AC0539A5B9AE881F98182E08083BF
:101BA000789482E090E019C00E94A70C80E28A95A8
:101BB000F1F75B98539A80E18A95F1F76A81662381
:101BC00021F08B819C810E94380D0E94AF0CE8812E
:101BD000F9811082789480E090E0DF91CF910895B0
:101BE00090937401809373010895E0917301F091D3
:101BF0007401309721F00190F081E02D099480E08C
:101C00000895E0917301F0917401309721F0028002
:101C1000F381E02D09940895E0917301F09174012E
:101C2000309739F022E0DC012C930480F581E02D1F
:101C30000994089520917101309172012817390794
:101C400071F09093720180937101E0917301F091B2
:101C50007401309721F00680F781E02D09940895F2
:101C600020916F01309170012817390771F090931E
:101C7000700180936F01E0917301F09174013097CE
:101C800021F00084F185E02D0994089585B78068DE
:101C900085BF85B7806885BF08950E94460E0C9465
:101CA00057090E94251B0E94DC070E94CA1B0C9446
:101CB000F50BBF92CF92DF92EF92FF920F931F939B
:101CC000CF93DF93CDB7DEB72A970FB6F894DEBF78
:101CD0000FBECDBF0E94CC080E943809811111C0EF
:101CE0008FEF89838A831B820E942E1B8160782F4D
:101CF0009D838C8349815A816B818D810E94020F63
:101D000054C086E7C82E81E0D82E00E010E0B02E47
:101D1000802F0E94D507E82EF60121916F01F82E41
:101D2000F22631F40F5F1F4F0A30110581F7D8CF2B
:101D30008091FB0181FD0E94DB0780E090E02F2D68
:101D400030E0482FB901082E02C0759567950A94B6
:101D5000E2F760FF25C08E83BF8281E090E06C01D6
:101D600002C0CC0CDD1C4A95E2F72E2D30E02C2170
:101D70003D21232B09F480E088870E942E1B81607F
:101D8000782F9A8789874E815F8168858A850E942E
:101D9000020FF801EA58FE4F80818C25808305C030
:101DA00001968730910569F6BDCF0E945D1D0E94A6
:101DB000F50D909175018917A9F00E94F50D80939A
:101DC00075012A960FB6F894DEBF0FBECDBFDF9126
:101DD000CF911F910F91FF90EF90DF90CF90BF9028
:101DE0000C942C032A960FB6F894DEBF0FBECDBF1D
:101DF000DF91CF911F910F91FF90EF90DF90CF90E7
:101E0000BF900895CF93DF93CDB7DEB72B970FB672
:101E1000F894DEBF0FBECDBF4F83588769877A879E
:101E20008B87DE01119686E0FD0111928A95E9F714
:101E300085E0FE01379601900D928A95E1F7498180
:101E40005A816B817C818D819E810E9453162B96D5
:101E50000FB6F894DEBF0FBECDBFDF91CF910895CE
:101E6000FC01808191810E9424190895CF938823D9
:101E700009F424C1C82F8238C1F40E94F50D81FDF8
:101E80001DC169E38091090190910A010E949A1A8B
:101E90000E9483192FEF81EE94E021508040904002
:101EA000E1F700C0000069E319C0833801F50E9422
:101EB000F50D80FD03C163E58091090190910A0150
:101EC0000E949A1A0E9483192FEF81EE94E021500C
:101ED00080409040E1F700C0000063E58091090177
:101EE00090910A010E949C1ACF910C948319843816
:101EF000C1F40E94F50D82FDE1C067E48091090103
:101F000090910A010E949A1A0E9483192FEF81EE84
:101F100094E0215080409040E1F700C0000067E469
:101F2000DDCF8CEF8C0F813A68F48C2F0E94771FE5
:101F30008111C4C06C2F8091090190910A010E9407
:101F40009A1AD2CF80E28C0F883048F4C77081E0B3
:101F500001C0880FCA95EAF70E94B919C5CF8BE571
:101F60008C0F833078F4C53A29F0C63A31F083E813
:101F700090E005C081E890E002C082E890E0CF9157
:101F80000C941A0E88E58C0F873108F08FC0C83A80
:101F900009F445C0C93A09F445C0CA3A09F445C034
:101FA000CB3A09F445C0CC3A09F445C0CB3B09F41F
:101FB00045C0CC3B09F445C0CD3A09F445C0C03B0F
:101FC00009F445C0CE3A09F445C0CF3A09F445C0FA
:101FD000C13B09F445C0C23B09F445C0C33B09F409
:101FE00045C0C43B09F445C0C53B09F445C0C63BE8
:101FF00009F445C0C73B09F445C0C83B09F445C0D6
:10200000C93B09F445C0CD3B09F445C0CE3B09F4BA
:1020100045C0CA3B09F445C080E090E044C082EE70
:1020200090E041C089EE90E03EC08AEE90E03BC077
:1020300085EB90E038C086EB90E035C083EB90E014
:1020400032C084EB90E02FC087EB90E02CC08CEC8A
:1020500090E029C08DEC90E026C083E891E023C099
:102060008AE891E020C082E991E01DC084E991E016
:102070001AC081E292E017C083E292E014C084E2C9
:1020800092E011C085E292E00EC086E292E00BC0C1
:1020900087E292E008C08FE690E005C080E790E01C
:1020A00002C08AE292E0CF910C94300EC03F30F033
:1020B0008C2F0E94651CCF910C94521DCF910895D6
:1020C000882309F464C0823879F40E94F50D81FFF9
:1020D0005EC069E38091090190910A010E949A1AF9
:1020E0000E94831969E310C08338B1F40E94F50D92
:1020F00080FF4DC063E58091090190910A010E9423
:102100009A1A0E94831963E58091090190910A014E
:102110000E949C1A0C948319843879F40E94F50D5E
:1021200082FF35C067E48091090190910A010E9405
:102130009A1A0E94831967E4E7CF9CEF980F913AAF
:1021400010F4682FE1CF90E2980F983050F4877028
:1021500091E001C0990F8A95EAF7892F0E94BF1973
:10216000D9CF9BE5980F933020F480E090E00C9459
:102170001A0E98E5980F973120F480E090E00C94C7
:10218000300E803F20F00E94CD1C0C94521D08950B
:10219000CF93C82F0E94360F8C2FCF910C946010D4
:1021A000882321F00E94B9190C948319089588237B
:1021B00021F00E94BF190C94831908958F929F9269
:1021C000AF92BF92DF92EF92FF920F931F93CF9344
:1021D000DF937C01D62FC72FFC01058102950F707C
:1021E000128111110E94D6190E947C19882379F05E
:1021F000112369F080E28D0F883048F082E00E9460
:1022000065190E947C1991E0D82ED92601C0D12CE5
:10221000BC2EB2948FE0B8228B2D90E0FC01E859DF
:10222000FF4F0C944C278C2F807FCF70882311F0A8
:10223000C295C07F112399F0CC2309F4C3C180E279
:102240008D0F883010F0D11104C08C2F0E94B91965
:1022500003C08C2F0E94C9190E948319B3C18D2F0E
:102260000E946010CC2309F4D2C180E28D0F883027
:1022700010F0D11104C08C2F0E94BF1903C08C2F05
:102280000E94CF190E948319C2C18C2F807FCF700A
:10229000803211F0C295C07FDD2319F0D130C9F032
:1022A00022C0112371F0002341F0013031F40E946B
:1022B000EF198C2B0E94E919AAC10E94EF198C2BEF
:1022C0003AC1002319F0013009F4A1C10E94EC19B0
:1022D00018C0112321F0063008F099C10EC0053056
:1022E00008F095C10EC0112351F0002331F0F70121
:1022F000858180FF67C18F7085838C2F1CC1011180
:1023000072C18C2F1EC18C2F86958695837019F013
:10231000813061F07CC1112321F08D2F9C2F9370AF
:1023200002C080E090E00E941A0E7EC1112321F0CD
:102330008D2F9C2F937002C080E090E00E94300EA1
:1023400073C11123F9F0D53F51F0D63F71F0D43F5E
:10235000A9F4809181029091820281600BC08091EA
:10236000810290918202826005C0809181029091E9
:102370008202846090938202809381028D2F0E945A
:10238000651C1EC0D53F51F0D63F71F0D43FA9F473
:1023900080918102909182028E7F0BC08091810298
:1023A000909182028D7F05C080918102909182027E
:1023B0008B7F90938202809381028D2F0E94CD1C8F
:1023C0000E94521D31C18C2F837009F04CC0111135
:1023D00027C12D2F229526952770220F220F6D2FB2
:1023E0006F70862F90E0A0E0B0E04C015D01022EFE
:1023F00004C0880C991CAA1CBB1C0A94D2F7D4FFF9
:1024000012C08FE090E0A0E0B0E004C0880F991FF8
:10241000AA1FBB1F2A95D2F7BC01CD01609570950C
:102420008095909503C060E070E0CB01C695C6959D
:10243000C370C23051F080F4682979298A299B2918
:10244000C13071F00E94A417EBC0682979298A294C
:102450009B290E94B617E4C00E94A417C501B401CD
:102460000E949217DDC0112319F08C2F817001C0DA
:102470008695882309F4D4C02D2F229526952770A0
:10248000220F220F6D2F6F70862F90E0A0E0B0E03A
:102490004C015D01022E04C0880C991CAA1CBB1CB7
:1024A0000A94D2F7D4FF12C08FE090E0A0E0B0E031
:1024B00004C0880F991FAA1FBB1F2A95D2F7BC0121
:1024C000CD01609570958095909503C060E070E0B7
:1024D000CB01C695C695C370C23051F080F468290F
:1024E00079298A299B29C13071F00E94691898C006
:1024F000682979298A299B290E947B1891C00E940A
:102500006918C501B4010E9457188AC08D2F90E048
:10251000FC01E05EF109E531F10508F04FC0E85833
:10252000FF4F0C944C27DF708C2F8F71112331F0EB
:102530000E94F0178D2F0E94D01069C00E941118C0
:102540008D2F0E94D71063C0112341F0053008F091
:102550005EC08C2F8F710E94361859C0063008F06B
:1025600056C0F7CF112339F08C2F8F710E94F017CE
:102570004EC01123C9F38C2F8F710E94111847C0D0
:10258000112329F08C2F8F710E94DB1740C00E940D
:10259000D6173DC0112349F0CF718C2F0E94F01740
:1025A00063E08C2F0E945C1932C081E00E946519A3
:1025B000023068F182E00E94651929C0112331F0D0
:1025C000002391F28D2F0E94360F21C0002399F233
:1025D000D93349F4FFEF27EE83E0F15020408040EB
:1025E000E1F700C000008D2F0E94601010C04C2F3A
:1025F0004F706D2FC7010E945E050E94011714C025
:102600004C2F4F706D2FC7010E9461050DC098E0DF
:10261000B91631F0B91640F086EF8B0D823020F4F8
:102620000E94F50D0E942C03DD20E1F00E94581954
:1026300080FD18C0F70112820E9452190E94F01703
:10264000C7010E943E130E945219DF91CF911F9142
:102650000F91FF90EF90DF90BF90AF909F908F9081
:102660000C941118DF91CF911F910F91FF90EF9073
:10267000DF90BF90AF909F908F9008950F931F931E
:10268000CF93DF93EC01988189812B813C81232BAF
:1026900031F08F3F31F481E09F3F19F403C081E0B6
:1026A00001C080E080FD13C0CE010E943E0388235C
:1026B00071F0688179818A810E942F198C010E94B2
:1026C0008D180E947E17B801CE010E94DE10DF91A6
:1026D000CF911F910F9108950E94D6190E94E6197B
:1026E0000E9483190E94F41D0E94521D80E090E018
:1026F0000E941A0E80E090E00C94300E8091090147
:1027000090910A010E949E1A0C946C130E94C619A3
:102710000C947E130E942419E92FE295EF704E2F3E
:1027200050E0FA013297EE30F105B0F4E357FF4F75
:102730000C944C27803F91F018F4803E68F40EC052
:10274000843F51F40BC0803E48F0813F29F406C01D
:1027500093FB882780F9089580E0089581E008952B
:10276000CF93DF9300D000D01F92CDB7DEB70F908C
:102770000F900F900F900F90DF91CF910895CF930E
:10278000DF9300D000D000D0CDB7DEB726960FB6CD
:10279000F894DEBF0FBECDBFDF91CF9108951F9398
:1027A000CF93DF93C091810116E080918201C81719
:1027B00099F0D0E01C9FF0011D9FF00D1124ED5702
:1027C000FE4F4081518162817381848195810E9495
:1027D000BF132196C770E9CFDF91CF911F91089564
:1027E0004091B3015091B4016091B5017091B6016F
:1027F0008091B7019091B8010C94BF13CF93809151
:10280000B80182958F7009F05FC08091B50188236F
:1028100009F45AC080918101B09182017091B30195
:10282000A091B4014091B6015091B70191E07F3F72
:1028300009F090E0692FC6E08B1709F445C04115F7
:10284000510521F0AF3F21F020E003C021E001C09D
:10285000262F90E020FD35C0C89FF001C99FF00DE4
:102860001124ED57FE4F21812A132BC020812713FD
:1028700028C02281211125C02381348124173507E6
:1028800010F421503109241B350B283C3105C8F4C4
:102890002091B8012F7020612093B80126E0289F75
:1028A000F001299FF00D1124E857FE4F80818F70B1
:1028B0008061808383EB91E00E943E13CF910C9462
:1028C000CF1301968770B8CFCF910895AF92BF9282
:1028D000CF92DF92EF92FF920F931F93CF93DF93EC
:1028E000CDB7DEB761970FB6F894DEBF0FBECDBF90
:1028F0008C0185E0F801DE011D9601900D928A950C
:10290000E1F7D8014C9111965C9111971296EC90D9
:102910003091B3016091B4018091B6019091B701FB
:10292000009731F06F3F31F421E03F3F19F403C0CD
:1029300021E001C020E0B22FB170BB2E20FD60C1AC
:10294000F801C380D480A090B501AA2009F4EEC09C
:102950002091B801C816D90628F0D601A81BB90BDA
:10296000CD0104C0809590958C0D9D1DFF24F3949E
:10297000883C910580F0F12C207F09F09CC07C2DD3
:10298000D98AC88A6E2D89890E94B01383EB91E0A1
:102990000E943E132DC1822F807F09F054C0561330
:1029A00014C0431312C0FE2CE1100FC02F70206121
:1029B0002093B8010E94F01383EB91E00E943E1334
:1029C0008091B801F80185835CC1CD2831F05F3F6B
:1029D00031F481E04F3F19F403C081E001C080E091
:1029E00080FD03C081E08E2502C080E090E0F82FDA
:1029F000F170FF2E80FF1CC0809181012091820127
:102A000036E0821709F41AC190E0389FF001399F2F
:102A1000F00D1124ED57FE4F6181561306C0608101
:102A2000461303C06281E61203C001968770E9CFA6
:102A3000FE2CEE2009F425C18091B80181608093BD
:102A4000B801F12C1EC1561309C0431307C0E11091
:102A500005C08091B801F8018583A4C04D875E87C9
:102A60008D859E850E948A13882379F1EE2069F175
:102A70002091B801822F82958F7090E0029774F0B8
:102A80008091B3019091B40198878F831986DB867A
:102A9000CA862C87CE0107960E943E1386E0F80175
:102AA000A3EBB1E001900D928A95E1F70E94FE132D
:102AB0000E94F0130DC0561771F04D875E878D850B
:102AC0009E850E948A1381111AC0C8010E943E137C
:102AD000FF24F394D6C04313F0CFE110EECF8091E2
:102AE000B801F8018583C8010E943E1386E0E3EB3C
:102AF000F1E0DF011D928A95E9F7FA2CC2C0EE20C1
:102B000021F32091B801822F82958F7090E0029777
:102B10002CF28091B3019091B4019A8389831B8236
:102B2000DD82CC822E83CE010196B6CFC816D9069F
:102B300028F0F601E81BF90BCF0104C080959095B1
:102B40008C0D9D1D883C910548F0F12C7C2DD98A77
:102B5000C88A6E2D89890E94B0134AC0FE2CEE20CF
:102B600009F4B3CF561333C0431331C02091B801D9
:102B700020FD24C0822F82958F70482F50E0411590
:102B80005105E1F0D80115962C9315974F3051055A
:102B900049F08F5F982F9295907F822F8F70892BAD
:102BA00015968C93C8010E943E1386E0F801A3EBB2
:102BB000B1E001900D928A95E1F73DC086E0F80101
:102BC000A3EBB1E001900D928A95E1F75AC04D87D1
:102BD0005E878D859E850E948A1381115FCF8091CB
:102BE000B80181608093B801C8010E943E1349C0BA
:102BF000E3EBF1E086E0DF011D928A95E9F71BC067
:102C0000EE2009F462CF4D875E878D859E850E94F8
:102C10008A13F82E882309F458CF86E0F801A3EB35
:102C2000B1E001900D928A95E1F783EB91E00E946B
:102C3000300F0E94FE130E94F01323C04D875E8761
:102C40008D859E850E942419292F22952F70223070
:102C500028F49F7039F0811105C00BC0243028F48E
:102C60009F7049F4805E883020F0C8010E943E13B6
:102C7000BF2CFB2C06C0D80115969C91907F91F734
:102C8000F8CF8F2D61960FB6F894DEBF0FBECDBF83
:102C9000DF91CF911F910F91FF90EF90DF90CF9038
:102CA000BF90AF9008951F93CF93DF93CDB7DEB75A
:102CB0002C970FB6F894DEBF0FBECDBF4F83588759
:102CC00069877A878B879C87CE0107960E94661456
:102CD0008823D1F09F8188852A853B85232B31F07D
:102CE0008F3F31F481E09F3F19F403C081E001C0C0
:102CF00080E080FD47C04F81588569857A858B8546
:102D00009C850E94BF133EC086E0FE013796DE011F
:102D1000119601900D928A95E1F7FF81E8856A8509
:102D20007B856115710531F0EF3F31F481E0FF3FA4
:102D300019F403C081E001C080E080FD23C0209130
:102D4000820130E0C9010196877099274091810185
:102D500050E084179507F1F1F983EA837D836C8352
:102D600096E0929FD001939FB00D1124AD57BE4FB6
:102D7000FE01319601900D929A95E1F780938201C0
:102D80000E94CF1316E080918101909182018917F2
:102D900071F1189FC00111248D579E4F0E94661437
:102DA000882329F1E09181011E9FF0011124ED5744
:102DB000FE4F4081518162817381848195810E949F
:102DC000BF138091810190E00196877099278093CD
:102DD0008101D9CF0E948613109282011092810145
:102DE000E3EBF1E086E0DF011D928A95E9F72C968E
:102DF0000FB6F894DEBF0FBECDBFDF91CF911F910C
:102E00000895EF92FF920F931F93CF93DF938C015E
:102E1000892B09F46CC0F12CEE24E394E80121968F
:102E2000F8018491843740F4843008F051C0813037
:102E300081F0823019F15BC0853709F444C0A8F1F4
:102E40009CE7980F903708F052C08F770E9460106F
:102E500041C00E5F1F4FFE01849190E2980F9830A1
:102E600050F48770FE2D01C0FF0F8A95EAF78F2F6F
:102E70000E94D91914C00E94360F2DC00E5F1F4F3B
:102E8000FE01849190E2980F983060F48770FE2DD7
:102E900001C0FF0F8A95EAF78F2F0E94DF190E9469
:102EA000831919C00E94601016C00E5F1F4FFE01EB
:102EB000C491CC2381F08FE99FE00197F1F700C026
:102EC0000000C150F6CF0E5F1F4FFE01F49003C00B
:102ED0000E94360F8E018F2D882309F49FCFEFE9D2
:102EE000FFE03197F1F700C000008150F5CFDF918E
:102EF000CF911F910F91FF90EF900895089508953D
:102F00000C947F170C9480170E9482176093EA013B
:102F10007093EB018093EC019093ED010C946C1392
:102F20000C9484170F931F930091EA011091EB0109
:102F30002091EC013091ED01602B712B822B932BB2
:102F40001F910F910C9484170F931F930091EA0126
:102F50001091EB012091EC013091ED016023712380
:102F6000822393231F910F910C9484170F931F9327
:102F70000091EA011091EB012091EC013091ED01FB
:102F800060277127822793271F910F910C94841734
:102F90000C947F170E94C8176093E6017093E701B5
:102FA0008093E8019093E9010C946C1360E070E069
:102FB000CB010C94CA170F931F9341E050E060E0DF
:102FC00070E08A019B0104C0000F111F221F331FF4
:102FD0008A95D2F7C901B8011F910F910C94CA17B5
:102FE0000F931F9341E050E060E070E004C0440F95
:102FF000551F661F771F8A95D2F78091E601909141
:10300000E701A091E801B091E9018A019B01082B39
:10301000192B2A2B3B2BC901B8011F910F910C943E
:10302000CA170F931F9341E050E060E070E004C0C6
:10303000440F551F661F771F8A95D2F7409550950C
:10304000609570958091E6019091E701A091E8016B
:10305000B091E9018A019B01082319232A233B230C
:10306000C901B8011F910F910C94CA170F931F93B8
:1030700041E050E060E070E004C0440F551F661F5F
:10308000771F8A95D2F78091E6019091E701A09190
:10309000E801B091E9018A019B01082719272A2735
:1030A0003B27C901B8011F910F910C94CA170F93C8
:1030B0001F930091E6011091E7012091E801309102
:1030C000E901602B712B822B932B1F910F910C9494
:1030D000CA170F931F930091E6011091E701209109
:1030E000E8013091E90160237123822393231F912A
:1030F0000F910C94CA170F931F930091E601109142
:10310000E7012091E8013091E901602771278227CA
:1031100093271F910F910C94CA17089527E0929F4F
:10312000800D1124E82FE695E695E695877051E02D
:1031300001C0550F8A95EAF785E0E89FF001112458
:10314000E754FE4F20E030E070E04081CB01022EDA
:1031500002C0969587950A94E2F78170819584273D
:103160008523842781932F5F3F4F2530310569F7F1
:10317000089527E0929F800D1124682F669566952B
:103180006695982F977085E0689FB001112440E004
:1031900050E080E0FB01E40FF51FE754FE4F208173
:1031A00030E0092E02C0369527950A94E2F7217087
:1031B0003327042E01C0220F0A94EAF7822B4F5FB7
:1031C0005F4F4530510531F70895CF92DF92EF926E
:1031D000FF920F931F93CF93DF938C01C090E60172
:1031E000D090E701E090E801F090E9018091EA01D8
:1031F0009091EB01A091EC01B091ED01C82AD92A80
:10320000EA2AFB2ACFE1D0E0D701C6010C2E04C088
:10321000B695A795979587950A94D2F780FD04C037
:10322000219790F780E007C0B8018C2F0E947D05A0
:103230000197B1F38C2FDF91CF911F910F91FF90E8
:10324000EF90DF90CF900895CF93DF93EC010E9431
:10325000E518BE010E947D05DF91CF9108951F936F
:10326000CF93DF93EB0190918001992321F0CB0163
:103270000E94241913C0882349F0CB010E94E5184D
:10328000182F682FCE010E948E1804C0CB010E9417
:10329000B918182FBE01812F0E947D05DF91CF91B3
:1032A0001F9108958091EE018595859585950895E6
:1032B0008091EE018770089598E0899F9001112414
:1032C000262B2093EE010C94F0172091EE018095AF
:1032D00082238093EE01982F977069F430E0482F95
:1032E000082E000C550B2417350729F08595859578
:1032F00085950C94111808959091EE01977081E0D6
:1033000009F480E00895E0910901F0910A018091AB
:10331000FA018083E0910901F0910A019081809186
:10332000F901892B8083E0910901F0910A019081D4
:103330008091F801892B80838091EF01882381F0AF
:10334000E0910901F0910A019081892B808380919D
:10335000090190910A010E94671A81111092EF01F0
:103360008091090190910A010C94010E8091FA015B
:1033700008959091FA01892B8093FA010895809520
:103380009091FA0189238093FA0108951092FA012D
:1033900008959091F901892B8093F9010895809502
:1033A0009091F90189238093F90108951092F90110
:1033B00008959091F801892B8093F80108958095E4
:1033C0009091F80189238093F80108951092F801F3
:1033D00008958093EF0108951092EF010895809170
:1033E000EF01089580E090E00E94602721E08D3E8B
:1033F0009E4F09F020E0822F089582E090E00C9427
:10340000522783E090E00C945227682F83E090E0ED
:103410000C94662784E090E00C945227682F84E097
:1034200090E00C946627AB01BC018FE090E00C9417
:103430007827AB01BC0183E190E00C94782760E031
:1034400070E0CB010C94191A60E070E0CB010E948F
:10345000131A0C941F1A6DEE7EEF80E090E00E942C
:10346000842760E082E090E00E94662760E083E0CD
:1034700090E00E9466271092EA011092EB011092F0
:10348000EC011092ED0160E084E090E00E9466277C
:1034900060E085E090E00E94662760E086E090E0D2
:1034A0000E9466276FEF87E090E00E94662740E069
:1034B00050E0BA0188E090E00E94782760E08DE05B
:1034C00090E00E9466270C94241A0C942B1AFC019D
:1034D000329697E080E0915029F021912223D9F390
:1034E0008F5FF9CF08959C01FC0132969FEF80E039
:1034F0004191461789F09F3F19F4411101C0982F5F
:103500008F5F8630A9F79F3F39F0F901E90FF11D70
:1035100097FDFA956283089508959C012A5F3F4FB5
:10352000FC014281461301C0128201968217930763
:10353000B9F708950C94731A0C948D1A029626E02C
:10354000FC0111922A95E9F7089508950C94A51AA3
:103550000C94A51ACF930E94A81A0E94CC080E942E
:10356000A61AC0E08C2F0E94D507811104C0CF5F3E
:10357000CA30C1F701C081E0CF9108950C94A51A1B
:103580000C94BE1A0E94C01A80918F02843049F1B7
:103590001092FC0120E488E190E00FB6F894A89521
:1035A000809360000FBE2093600080E00E942C0397
:1035B0000E94C01A83B7817F846083BF83B7816014
:1035C00083BF7894889583B78E7F83BF0FB6F894B6
:1035D000A8958091600088618093600010926000DF
:1035E0000FBE08950C94A51A0E9486130E94F50D33
:1035F0000E942C030C94F21A1F920F920FB60F9296
:1036000011248F939F93AF93BF938091FC018111FD
:1036100013C08091830290918402A0918502B091A1
:1036200086024196A11DB11D80938302909384026E
:10363000A0938502B0938602BF91AF919F918F9125
:103640000F900FBE0F901F90189582E084BD93E0FD
:1036500095BD9AEF97BD80936E0008952FB7F894AB
:103660008091830290918402A0918502B09186029C
:103670002FBF0895CF92DF92EF92FF920F931F9387
:103680002FB7F89440918302509184026091850293
:10369000709186022FBF6A017B01EE24FF248C010A
:1036A00020E030E0C016D106E206F30610F44150E7
:1036B00051099A01281B390BC9011F910F91FF90E5
:1036C000EF90DF90CF90089578941F920F920FB6ED
:1036D0000F9211248F939F93AF93BF938091830296
:1036E00090918402A0918502B09186020196A11D5D
:1036F000B11D8093830290938402A0938502B093BE
:103700008602BF91AF919F918F910F900FBE0F9046
:103710001F901895E3E0F0E089E080935700E49172
:103720008E2F867019F080E09FE30CC0E2FF03C08B
:1037300080E09EE307C0E1FF03C080E09CE302C09D
:1037400080E098E3909388028093870281E08093E1
:10375000E00080E28093D8001092C9008FE19EE4DF
:103760000197F1F700C0000087E090EBDC01809347
:10377000980290939902A0939A02B0939B029CE0C6
:1037800088E10FB6F894A895809360000FBE9093DF
:103790006000FFCF0E94F219811102C00E94651AD9
:1037A0000E94FD198093FB010E940A1A90E09093F9
:1037B0008A02809389020E94011A682F70E080E0DB
:1037C00090E00C9490178091FF0180FF0BC06091F6
:1037D0000E0185E0689FB001112475956795759578
:1037E00067952BC081FF09C060910E0185E0689F3D
:1037F000B00111247595679520C082FF07C06091C4
:103800000E0185E0689FB001112417C0909100025D
:103810009923D1F060910D01961788F720910E0140
:1038200085E0289F90011124929FA001939F500D45
:10383000112470E0CA010E9438276038710540F4F5
:103840006115710519F406C065E070E0862F0895D2
:103850008FE7089581E008958091FF0180FF08C0FF
:1038600060910C0170E0759567957595679521C01D
:1038700081FF06C060910C0170E07595679519C0D5
:1038800082FF04C060910C0170E010C090910002B2
:10389000992399F060910B019617A0F780910C0184
:1038A000899FC001112470E00E943827603871059B
:1038B00040F46115710519F406C061E070E0862FCF
:1038C00008958FE7089581E00895803F21F40E94D4
:1038D000E31B819504C0813F29F40E94E31B809380
:1038E00004020895823F21F40E94E31B819504C0E5
:1038F000833F29F40E94E31B809303020895893FCC
:1039000019F40E942C1C05C08A3F31F40E942C1C23
:1039100081958093050208958B3F21F40E942C1C11
:10392000819504C08C3F29F40E942C1C80930602D0
:103930000895843F21F480910202816017C0853F81
:1039400021F480910202826011C0863F21F48091AF
:10395000020284600BC0873F21F4809102028860DC
:1039600005C0883F31F48091020280618093020299
:1039700008958D3F21F48091FF0181600BC08E3F3F
:1039800021F48091FF01826005C08F3F29F480916E
:10399000FF0184608093FF010895803F39F4809196
:1039A000040287FF6CC01092040269C0813F29F4B1
:1039B000809104021816BCF362C090910302823F0A
:1039C00029F497FF5CC01092030259C0833F19F499
:1039D0001916CCF354C0893F41F4809105021816A2
:1039E0000CF04DC0109205024AC08A3F29F4809124
:1039F000050287FF44C0F6CF8B3F39F48091060261
:103A000087FF3DC0109206023AC08C3F29F4809196
:103A100006021816BCF333C0843F21F480910202E1
:103A20008E7F17C0853F21F4809102028D7F11C0E7
:103A3000863F21F4809102028B7F0BC0873F21F4E7
:103A400080910202877F05C0883F31F48091020295
:103A50008F7E8093020213C08D3F21F48091FF017D
:103A60008E7F0BC08E3F21F48091FF018D7F05C0BA
:103A70008F3F29F48091FF018B7F8093FF0180911C
:103A8000030281110EC08091040281110AC080914D
:103A90000502811106C080910602811102C01092B8
:103AA0000002089581E092E00E940C0E0E942E1BFD
:103AB0009093FE018093FD0108951F93CF93DF93B0
:103AC0008091FD019091FE010E943A1BAC01909102
:103AD0000002992321F020910F0130E006C02091CF
:103AE00010018AE0289F900111244217530708F41F
:103AF00077C080910302C0910402D0910502109119
:103B00000602811107C0C11167C0D11165C0111132
:103B100063C066C09F3F19F09F5F90930002181624
:103B200024F40E94E31B809303028091030287FF29
:103B300005C00E94E31B8195809303021C1624F4A8
:103B40000E94E31B809304028091040287FF05C05A
:103B50000E94E31B8195809304023091030233237A
:103B6000C1F0209104022223A1F045EB3403C001EF
:103B70001124892F911101C081E08093030235EB5C
:103B80002303C0011124892F911101C081E080938A
:103B900004021D1624F40E942C1C809305028091BF
:103BA000050287FF05C00E942C1C819580930502A9
:103BB000111624F40E942C1C8093060280910602A8
:103BC00087FF05C00E942C1C819580930602DF911F
:103BD000CF911F910C94521D9F3F09F09DCFAECF06
:103BE000DF91CF911F910895E1E0F2E086E0DF01DF
:103BF0001D928A95E9F7109200021092FF01089534
:103C0000833081F128F4813059F08230D1F0089569
:103C1000853009F449C0B8F1863009F456C00895DA
:103C200080911001262F30E0280F311D2F3F3105E4
:103C300024F4680F6093100108958FEF80931001B2
:103C4000089580910F01262F30E0280F311D2F3F5E
:103C5000310524F4680F60930F0108958FEF80936E
:103C60000F01089580910E01262F30E0280F311D9D
:103C70002F3F310524F4680F60930E0108958FEFF4
:103C800080930E01089580910D01262F30E0280FBA
:103C9000311D2F3F310524F4680F60930D01089505
:103CA0008FEF80930D01089580910C01262F30E055
:103CB000280F311D2F3F310524F4680F60930C014C
:103CC00008958FEF80930C01089580910B01262FAA
:103CD00030E0280F311D2F3F310524F4680F609329
:103CE0000B0108958FEF80930B010895833011F13C
:103CF00028F4813049F0823091F00895853081F1C7
:103D000020F18630C1F1089580911001681720F4E8
:103D1000861B8093100108951092100108958091E0
:103D20000F01681720F4861B80930F0108951092ED
:103D30000F01089580910E01681720F4861B80936F
:103D40000E01089510920E01089580910D016817DB
:103D500020F4861B80930D01089510920D010895A3
:103D600080910C01681720F4861B80930C01089544
:103D700010920C01089580910B01681720F4861BA6
:103D800080930B01089510920B0108950F931F93D8
:103D900041E050E060E070E08A019B0104C0000F48
:103DA000111F221F331F8A95D2F7C901B8010E9443
:103DB00090171F910F910C9486138732D8F58E318E
:103DC00008F07DC08E3009F467C098F4873009F49C
:103DD00055C08B3009F476C0863009F077C08091E9
:103DE000FB01817F8E7F8093FB0181E0809308023D
:103DF0000895863109F466C068F4803109F066C020
:103E00008091FB0183FB222720F991E0922790FB10
:103E100083F94BC0893109F455C08B3109F056C084
:103E20008091FB0181FB222720F991E0922790FBF2
:103E300081F93BC0883309F445C048F4893209F45C
:103E400043C0853309F440C08732F1F13FC0833469
:103E5000D9F120F48A33D0F1895332C08834B1F5D6
:103E60000E9486132FEF83ED90E321508040904015
:103E7000E1F700C000000E948A1B24C08091FB0172
:103E8000982F9095917090FB80F98093FB01911190
:103E900019C0897F877F10C08091FB0182FB222798
:103EA00020F991E0922790FB82F98093FB019923FE
:103EB00049F08091FB0181608093FB0103C08D512B
:103EC0000E94C61E81E0089580E0FACF80E0089548
:103ED00080E008950C94681F8E518A3030F4E82FEA
:103EE000F0E0E35CFE4F8081089580E00895CF9379
:103EF000C82F80910802813069F018F08230C9F132
:103F000083C0E0910901F0910A018081823209F0B9
:103F10007DC007C0E0910901F0910A0180818232E1
:103F200061F48C2F0E946A1F811104C08C2F0E94A3
:103F3000DD1E1DC081E090E01AC08C2F0E94681F1A
:103F4000811114C0C43179F048F4CB3079F0C0311C
:103F500009F060C082E08093080208C0C93219F0FD
:103F6000C83321F057C01092080254C081E081701C
:103F700053C0C93289F118F5C43171F1B0F4C730BA
:103F800009F046C08EE18093100182E380930F0117
:103F90008AE080930E0184E180930D0188E0809394
:103FA0000C0188E280930B0133C082EE8C0F8630C7
:103FB00078F58C2F0E946C1F8093070229C0CE34A5
:103FC000E9F020F4CB3421F56AE013C0C13579F073
:103FD000C235F1F461E00DC080910702882319F029
:103FE0001092070215C081E08093080215C061E0BD
:103FF00006C0809107020E94001E0AC06AE08091FC
:1040000007020E94761E04C01092080280E004C0DD
:1040100081E002C080E0ABCFCF9108958091110282
:1040200008950F931F93CF93DF9300D01F92CDB7C6
:10403000DEB78C010E946922823011F0843021F5B4
:1040400084E089831B830A8382E08093E9008FEFF9
:104050009091E800815095FD06C095ED9A95F1F795
:1040600000008111F5CF8091E80085FF0DC040E090
:1040700050E063E070E0CE0101960E9486228091BC
:10408000E8008E778093E8000F900F900F90DF91FB
:10409000CF911F910F910895CF93DF9300D01F927E
:1040A000CDB7DEB720918F02243031F523E029838C
:1040B000805891099B838A8382E08093E9008FEF87
:1040C0009091E800815095FD06C095ED9A95F1F725
:1040D00000008111F5CF8091E80085FF0DC040E020
:1040E00050E063E070E0CE0101960E94862280914C
:1040F000E8008E778093E8000F900F900F90DF918B
:10410000CF910895CF93DF93EC010E946922823012
:1041100011F08430F9F482E08093E9008FEF909100
:10412000E800815095FD06C095ED9A95F1F70000E5
:104130008111F5CF8091E80085FF0CC040E050E090
:1041400066E070E0CE010E9486228091E8008E77C2
:104150008093E800DF91CF910895CF93DF93EC0136
:104160000E946922823011F0843039F581E0809319
:10417000E9008FEF9091E800815095FD06C095ED24
:104180009A95F1F700008111F5CF8091E80085FF45
:1041900014C040E050E068E070E0CE010E9486224A
:1041A0008091E8008E778093E80088E0FE01A9E026
:1041B000B2E001900D928A95E1F7DF91CF910895D9
:1041C00080918E02811109C00E9417240E947424DC
:1041D0008091E20084608093E200089510928E0244
:1041E0000895089508950C94F41A42E061EC81E07A
:1041F0000E94902342E261EC82E00C949023809133
:104200009102833009F460C030F4813071F0823063
:1042100009F499C008958A3009F485C08B3009F4F7
:104220006BC0893009F0A7C020C080919002813A0C
:1042300009F0A1C08091E800877F8093E800809119
:10424000940290919502892B21F468E089E092E034
:1042500003C060E080E090E070E00E94D122809195
:10426000E8008B778093E800089580919002813276
:1042700009F081C08091940290919502029708F014
:104280007AC08091E800877F8093E8008091E80001
:1042900082FD05C080918F028111F8CF6CC0209102
:1042A000F3008091F20090E0922B029729F4809124
:1042B000F1008B7F813021F48091F1008093110215
:1042C0008091E8008B7753C080919002813A09F089
:1042D00052C08091940290919502892B09F04BC0B5
:1042E0008091E800877F8093E8008091E80080FF5C
:1042F000FCCF80911B0136C0809190028132D9F5AC
:104300008091940290919502892BA9F58091E80003
:10431000877F8093E8000E94C5238091920280935A
:104320001B010C94861380919002813221F58091BB
:10433000E800877F8093E8000E94C5238091930264
:1043400080931202089580919002813AA1F48091A5
:10435000E800877F8093E8008091E80080FFFCCF31
:10436000809112028093F1008091E8008E77809313
:10437000E8000C94C523089584B7877F84BF0FB6E7
:10438000F894A895809160008861809360001092F5
:1043900060000FBE80E880936100109261000E946F
:1043A0004D0E0E9417240E9474248091E2008460C4
:1043B0008093E20078940E9409270E94510E81E1C7
:1043C00091E00E94F00D80918F02853069F40E9487
:1043D000C21A80918D028823B1F30E94AA1A882301
:1043E00091F30E947022EFCF0E94590EECCF0C94F3
:1043F000F921292F332723303105C9F060F421300A
:10440000310581F02230310509F04AC08BE390E09C
:1044100028E234E049C02132310511F12232310560
:1044200079F13EC082E190E023E634E03DC0992777
:104430008130910561F040F08230910559F0039789
:1044400079F5EEEEF3E008C0E4E2F4E005C0E2E165
:10445000F4E002C0E4EFF3E0849190E09F0124C017
:104460006115710541F061307105D1F489E090E08A
:1044700023E534E019C089E090E02AE334E014C079
:104480006115710541F06130710551F485E890E0E6
:1044900025E734E009C080E490E02AEF34E004C06E
:1044A00080E090E020E030E0FA013183208308953D
:1044B0000895CF93C82F0E945822C0931302CF9122
:1044C000089580918F02843011F081E0089582E098
:1044D000089580911302811102C00C946122089505
:1044E00080E189BD82E189BD09B400FEFDCF8091E4
:1044F000D8008F7D8093D8008091E0008260809307
:10450000E0008091E00081FDFCCF0895CF92DF9222
:10451000EF92FF920F931F93CF93DF93EC018B01E8
:104520007A010E94E423811133C0E114F10439F0CF
:10453000F70180819181081B190BC80FD91FC12C6D
:10454000D12C0115110519F18091E80085FD16C0E7
:104550008091E8008E778093E800E114F10449F03F
:10456000F70180819181C80ED91ED182C08285E079
:104570000FC00E94E423882321F30AC0899180930D
:10458000F10001501109FFEFCF1ADF0ADACF80E006
:10459000DF91CF911F910F91FF90EF90DF90CF901F
:1045A000089520919602309197022617370748F018
:1045B0006115710539F42091E8002E772093E80009
:1045C00001C0B901FC0120E06115710579F180910C
:1045D0008F028823F1F18530F1F18091E80083FDAD
:1045E0003CC08091E80082FD2EC08091E80080FFF1
:1045F000EBCF2091F3008091F20090E0922B6115B7
:10460000710551F08830910538F421912093F10023
:10461000615071090196F3CF21E0089709F020E07D
:104620008091E8008E778093E800CECF2111CFCF24
:104630000AC080918F02882361F0853061F08091FB
:10464000E80083FD0AC08091E80082FFF2CF80E09D
:10465000089582E0089583E0089581E0089520910F
:104660009602309197022617370748F061157105B9
:1046700039F42091E8002E772093E80001C0B901B9
:10468000FC0120E06115710591F180918F02882372
:1046900009F440C0853009F43FC08091E80083FDF3
:1046A0003DC08091E80082FD2FC08091E80080FF2E
:1046B000E9CF2091F3008091F20090E0922B6115F8
:1046C000710559F08830910540F424912093F10050
:1046D0003196615071090196F2CF21E0089709F0F7
:1046E00020E08091E8008E778093E800CBCF211105
:1046F000CCCF0AC080918F02882361F0853061F0B1
:104700008091E80083FD0AC08091E80082FFF2CF2B
:1047100080E0089582E0089583E0089581E008959F
:10472000982F973068F59093E900981739F07091B9
:10473000EC002091ED005091F00003C0242F762F63
:1047400050E021FD02C09F5FECCF3091EB003E7F37
:104750003093EB003091ED003D7F3093ED003091D0
:10476000EB0031603093EB007093EC002093ED0090
:104770005093F0002091EE0027FDE5CF80E00895F2
:104780008F708093E90081E008958091900287FF07
:1047900011C08091E80082FD05C080918F028111D7
:1047A000F8CF11C08091E8008B770BC080918F0209
:1047B000882349F08091E80080FFF8CF8091E800DD
:1047C0008E778093E80008952091E4003091E50011
:1047D00095E64091EC00842F817040FF23C08091CA
:1047E000E80080FD1DC080918F02882399F08530FC
:1047F00099F08091EB0085FD11C04091E40050914B
:10480000E5002417350729F3915011F09A01E1CF03
:1048100084E0089582E0089583E0089581E008959A
:1048200080E008954091E80042FFDDCF08950E94A6
:1048300085240E948D24E0EEF0E0808181608083F9
:10484000E8EDF0E080818F77808319BCA7EDB0E0C0
:104850008C918E7F8C9380818F7E808310928E02CC
:1048600008950F931F93CF93DF930E9485240E9496
:104870008D24C8EDD0E088818F7788838881806817
:10488000888388818F7D888319BC10928F02109253
:104890008B0210928D0210928C0200EE10E0F80153
:1048A00080818B7F808388818160888342E060E0A3
:1048B00080E00E949023E1EEF0E080818E7F808393
:1048C000E2EEF0E080818160808380818860808377
:1048D000F80180818E7F8083888180618883DF9169
:1048E000CF911F910F910895E8EDF0E080818F7EC8
:1048F0008083E7EDF0E080818160808384E082BF87
:1049000081E080938E020C943124E8EDF0E0808108
:104910008E7F80831092E20008951092DA00109248
:10492000E10008951F920F920FB60F9211242F935A
:104930003F934F935F936F937F938F939F93AF9327
:10494000BF93EF93FF938091E10082FF0BC08091B2
:10495000E20082FF07C08091E1008B7F8093E1003D
:104960000E9408278091DA0080FF1FC08091D80044
:1049700080FF1BC08091DA008E7F8093DA008091E7
:10498000D90080FF0DC080E189BD82E189BD09B4F5
:1049900000FEFDCF81E080938F020E94E02005C0E1
:1049A00019BC10928F020E94EE208091E10080FFDE
:1049B00019C08091E20080FF15C08091E2008E7FD7
:1049C0008093E2008091E20080618093E200809118
:1049D000D80080628093D80019BC85E080938F0254
:1049E0000E94F2208091E10084FF30C08091E200BB
:1049F00084FF2CC080E189BD82E189BD09B400FE3D
:104A0000FDCF8091D8008F7D8093D8008091E10008
:104A10008F7E8093E1008091E2008F7E8093E200A0
:104A20008091E20081608093E20080918B02882374
:104A300011F084E007C08091E30087FD02C081E0AF
:104A400001C083E080938F020E94F3208091E100F7
:104A500083FF29C08091E20083FF25C08091E1009F
:104A6000877F8093E10082E080938F0210928B0217
:104A70008091E1008E7F8093E1008091E2008E7F43
:104A80008093E2008091E20080618093E20042E046
:104A900060E080E00E9490238091F0008860809325
:104AA000F0000E94F120FF91EF91BF91AF919F9193
:104AB0008F917F916F915F914F913F912F910F90C7
:104AC0000FBE0F901F9018951F920F920FB60F9266
:104AD00011242F933F934F935F936F937F938F9303
:104AE0009F93AF93BF93CF93DF93EF93FF93C091C7
:104AF000E900CF708091EC00D82FD17080FDD0E814
:104B00001092E9008091F000877F8093F000789404
:104B10000E94A8251092E9008091F000886080939F
:104B2000F000CD2BCF70C093E900FF91EF91DF91A2
:104B3000CF91BF91AF919F918F917F916F915F9135
:104B40004F913F912F910F900FBE0F901F9018958E
:104B50001F93CF93DF93CDB7DEB7AA970FB6F89424
:104B6000DEBF0FBECDBFE0E9F2E08091F10081939E
:104B700022E0E839F207C9F70E94FF208091E8009F
:104B800083FF2EC18091900290919102492F50E0B5
:104B90004A30510508F024C1FA01E556FF4F0C9444
:104BA0004C27803821F0823809F01AC108C0809162
:104BB0008C0290918D02992389F082600FC08091C0
:104BC00094028F70873008F00BC18093E9008091C8
:104BD000EB0085FB882780F91092E9009091E800AE
:104BE000977F9093E8008093F1001092F100D1C07C
:104BF000282F2D7F09F0F4C0882319F0823061F04E
:104C0000EFC080919202813009F0EAC0933009F040
:104C100080E080938D022EC08091920281112AC083
:104C2000809194028F702FEF280F263008F0D8C0A3
:104C30008093E9002091EB0020FF1CC0933021F409
:104C40008091EB00806214C09091EB009061909392
:104C5000EB0021E030E0A90102C0440F551F8A9506
:104C6000E2F74093EA001092EA008091EB0088603E
:104C70008093EB001092E9008091E800877F809399
:104C8000E8000E94C523ACC08111AAC01091920215
:104C90001F778091E3008078812B8093E3008091DF
:104CA000E800877F8093E8000E94C5238091E80098
:104CB00080FFFCCF8091E30080688093E3001111B6
:104CC00002C082E001C083E080938F0289C08058D7
:104CD000823008F085C080919202909193028C3DC1
:104CE00053E0950779F583E08A838AE289834FB799
:104CF000F894DE01139620E03EE051E2E32FF0E06D
:104D000050935700E49120FF03C0E295EF703F5F9E
:104D1000EF708E2F90E0EA3010F0C79601C0C09679
:104D20008D939D932F5F243149F74FBF8091E80009
:104D3000877F8093E8006AE270E0CE0101960E94CE
:104D4000D12216C06091940270919502AE014F5F1E
:104D50005F4F0E94F721BC01892B09F441C090915B
:104D6000E800977F9093E80089819A810E942F2321
:104D70008091E8008B778093E80032C0803881F51D
:104D80008091E800877F8093E80080918B02809378
:104D9000F1008091E8008E7772CF811121C080915F
:104DA00092029091930299270297D4F48091E8009F
:104DB000877F8093E8008091920280938B020E940B
:104DC000C52380918B02811106C08091E30087FD8D
:104DD00002C081E001C084E080938F020E94F52030
:104DE0008091E80083FF0AC08091E800877F80936C
:104DF000E8008091EB0080628093EB00AA960FB6EA
:104E0000F894DEBF0FBECDBFDF91CF911F91089503
:104E10000895CF9380918F028823A1F0C091E9007B
:104E2000CF709091EC00892F817090FD80E8C82BA5
:104E30001092E9008091E80083FD0E94A825CF70C0
:104E4000C093E900CF910895AA1BBB1B51E107C095
:104E5000AA1FBB1FA617B70710F0A61BB70B881F0A
:104E6000991F5A95A9F780959095BC01CD01089599
:104E700097FB072E16F4009407D077FD09D00E9407
:104E8000242707FC05D03EF4909581959F4F089507
:104E9000709561957F4F0895EE0FFF1F0590F49177
:104EA000E02D0994F999FECF92BD81BDF89A99271A
:104EB00080B50895A6E1B0E044E050E00C948C2762
:104EC000A8E1B0E042E050E00C948C27262FF9993D
:104ED000FECF92BD81BDF89A019700B4021639F059
:104EE0001FBA20BD0FB6F894FA9AF99A0FBE08952A
:104EF0000396272F0E9467270E946627252F0E946E
:104F00006727242F0C9467270196272F0E94672775
:104F10000C946627DC01CB01FC01F999FECF06C099
:104F2000F2BDE1BDF89A319600B40D924150504067
:084F3000B8F70895F894FFCFD3
:104F3800016501006601056601F0012808140A32BE
:104F48001E0E20AD2082204C20112001F4F5F6F72A
:104F580033313266C6359734000000000000FF0187
:104F680000010000FFFF0000010001FF0001020333
:084F780004050607080900000A
:00000001FF
