:100000000C94E5020C942C030C942C030C942C03FC
:100010000C94C9270C942C030C942C030C942C03E3
:100020000C942C030C942C030C94B8130C948C1289
:100030000C94E01C0C942C030C942C030C942C03B7
:100040000C942C030C942C030C942C030C942C0374
:100050000C942C030C94C5160C942C030C942C03B8
:100060000C942C030C942C030C942C030C942C0354
:100070000C942C030C942C030C942C030C942C0344
:100080000C942C030C942C030C942C030C942C0334
:100090000C942C030C942C030C942C030C942C0324
:1000A0000C942C030C942C030C942C030C050C05C1
:1000B0004605460599053C073C073C07B5059306F0
:1000C000A406A406270C410C6C0CA90CE70C2E0D01
:1000D000310D360D390D3C0D3F0D420D450D480DCE
:1000E0004B0D4E0D510D540D590D5E0D610D640DEE
:1000F000690DAB0DC123E8238A25E8238A25302426
:1001000053248A254E256125EE25EE25012601265C
:10011000F725012601260126EE25EE25FC250126E0
:100120000126FC25165C1E001F0020002100220075
:100130002D002B0014001A000800150017002F00D6
:10014000394204001600070009000A002602E100F7
:100150001D001B000600190005002F02E000E3004F
:10016000E200C25C03512C004C00000000000000C3
:10017000000000002C004C002A002700260025006B
:10018000240023002E003100130012000C00180080
:100190001C003000340033000F000E000D000B0077
:1001A0002702280038003700360010001100300206
:1001B0004F0052005100500002512C002800000056
:1001C00000000000000000002C002800165C1E004B
:1001D0001F002000210022002D002B0014001A0017
:1001E000090013000A002F00394204001500160010
:1001F000170007002602E1001D001B000600190081
:1002000005002F02E000E300E200C25C03512C0075
:100210004C00000000000000000000002C004C001A
:100220002A00270026002500240023002E0031008C
:1002300033001C0018000F000D00300034001200C5
:100240000C00080011000B002702280038003700BE
:10025000360010000E0030024F00520051005000D6
:1002600002512C00280000000000000000000000E7
:100270002C0028003A003B003C003D003E003F00BF
:10028000010001004E0052004B000100010001007E
:100290000100500051004F00010001000100010069
:1002A0000100010001000100010001000100010046
:1002B0000100C35C0100010001000000000000001B
:1002C000000000000100010045004400430042001E
:1002D0004100400046004A0046004B0052004E00DC
:1002E000010047004D0049004F005100500001003F
:1002F00053000100010001000100010001000100A4
:10030000A900AA00A800AB00AE0001000100000097
:100310000000000000000000010001003A003B0066
:100320003C003D003E003F0001000100C85CC95C8C
:10033000C75C005C010001000100C65CCA5CC55CD2
:10034000035D010001000100CC5C0100CB5C0100F9
:1003500001000100010001000100C35C0100010077
:10036000010000000000000000000000010001008A
:1003700045004400430042004100400001000100EC
:100380000100010001000100010001000100010065
:1003900001000152005201000100C95CC75CC55C4C
:1003A000C25CCB5C01000100CA5CC85CC65CC45C7A
:1003B000CC5C010001000000000000000000000013
:1003C00001000100A900AA00A900AA000100010083
:1003D0000100010001000100010001000100010015
:1003E00001000100000101010101010101010202FE
:1003F00002020202020202030303030303030304D3
:10040000040404040404050505050506060606069D
:10041000070707070708080808090909090A0A0A57
:100420000B0B0B0C0C0C0D0D0D0E0E0E0F0F0F10F9
:100430001011111112121313141415151616171783
:10044000181819191A1A1B1B1C1D1D1E1E1F2020EF
:10045000212222232424252626272829292A2B2C39
:100460002D2D2E2F30313232333435363738393A5C
:100470003B3C3D3E3F404142434445464748494A54
:100480004C4D4E4F50515354555658595A5B5D5E22
:100490005F616264656668696B6C6D6F70727375BD
:1004A00077787A7B7D7E8082838587888A8C8E8F21
:1004B00091939596989A9C9EA0A2A3A5A7A9ABAD4F
:1004C000AFB1B3B5B7BABCBEC0C2C4C6C9CBCDCF3D
:1004D000D1D4D6D8DBDDDFE2E4E7E9EBEEF0F3F5EB
:1004E000F8FAFDFF05010980A10185031A81002AA0
:1004F0008300160100260300950175108100C005D8
:100500000C0901A10185041A01002A9C02160100B0
:10051000269C02950175108100C005010906A10104
:10052000050719E029E715002501950875018102E5
:100530009501750881010507190029FF150026FF9F
:1005400000950675088100050819012905950575AE
:10055000019102950175039101C009023B0002015E
:1005600000A032090400000103010100092111016A
:1005700000012240000705810308000A0904010068
:1005800001030000000921110100012236000705C6
:10059000820320000A1201100100000008EDFE6035
:1005A000300200010203010403300000000803537D
:1005B000006F006C0000000C035200470042004B2B
:1005C0000042000000040309040011241FBECFEF05
:1005D000DAE0DEBFCDBF04B603FE27C080910E0671
:1005E00090910F06A0911006B09111068730904BA4
:1005F000A740B04BD1F410920E0610920F06109245
:1006000010061092110614BE84B7877F84BF0FB600
:10061000F894A895809160008861809360001092A2
:1006200060000FBEE0E0F8E3099526E0ACE5B3E03A
:1006300001C01D92AE30B207E1F713E0A0E0B1E0D7
:10064000E0E5F3E502C005900D92AC35B107D9F7AE
:100650000E94EF140C94A6290C9400008F929F9294
:10066000AF92BF92CF92DF92EF92FF920F931F93C0
:10067000CF93DF9300D000D01F92CDB7DEB7FC013F
:100680000081D18083819481892B39F01FEFD112B1
:1006900006C091E00F3F19F403C091E001C090E063
:1006A00090FDE0C67F0185E0DE01119601900D927C
:1006B0008A95E1F7F701228189819A81222349F005
:1006C0000E94D51D182F682F89819A810E944E1E85
:1006D00003C00E94221E182F24E5129FF00111244E
:1006E00037E0D39EE00DF11D1124E00FF11DEE0F58
:1006F000FF1FEC5DFE4F05911491023C8CE518073D
:10070000F1F128F40115ECE51E0719F179C0033069
:10071000FDE51F0731F004302DE5120709F4A2C6EC
:100720006FC0F7018281882309F49CC60F900F9057
:100730000F900F900F90DF91CF911F910F91FF902D
:10074000EF90DF90CF90BF90AF909F908F900C94E0
:10075000041BF7018281882339F00E94D41C9093F6
:100760005D0380935C037EC680915C0390915D0382
:100770000E94AA1C843F914008F474C603C4F70188
:100780008281882309F46EC690911C01953049F04E
:100790009F3F29F080910706923029F51BC085E024
:1007A00001C082E080931C0140E060E080E00F9097
:1007B0000F900F900F900F90DF91CF911F910F919D
:1007C000FF90EF90DF90CF90BF90AF909F908F9071
:1007D0000C94C01A10921C01982F937011F0109273
:1007E00004018C7F0AC09FEF90931C01982F937097
:1007F00011F4109204018C7F81608093070632C649
:10080000033FFCE51F07B9F426E241EE60EEC701A5
:100810000F900F900F900F900F90DF91CF911F913D
:100820000F91FF90EF90DF90CF90BF90AF909F908F
:100830008F900C94FC19043F2CE5120708F096C029
:10084000083D3CE5130721F427E245EE65EEDFCFD6
:10085000093D8CE5180719F428E241E0F7CF073D80
:100860009CE5190721F426E241EE61EED0CFF701B5
:100870008281882309F42FC310925E030D3CFCE5AE
:100880001F0709F421C4D8F5023C3CE5130709F41D
:10089000E9C5C0F406319CE5190778F40230ECE5AF
:1008A0001E0708F07AC40115FCE51F0709F46AC3A6
:1008B00001301C4509F073C078C306311C4509F0AE
:1008C0006EC098C50B3C8CE5180778F4053C9CE598
:1008D000190708F0C7C5033CECE51E0709F481C3FE
:1008E000043C1C4509F05BC093C30B3C2CE512078C
:1008F00009F4C8C30C3C1C4509F051C0CAC3043DEF
:100900008CE5180709F41BC4B8F4003DECE51E079C
:1009100009F4F2C348F40E3C2CE5120709F4D6C3DF
:100920000F3C1C45E1F5DDC3023D8CE5180709F4D9
:10093000F9C308F4ECC301C40D3DECE51E0709F44E
:1009400020C448F4053D2CE5120709F403C40C3D0E
:100950001C4529F513C40E3D8CE5180709F42EC378
:10096000C8018A5F9C450997D0F417C4053FECE5A0
:100970001E0721F426E241EE62EE49CF053FFCE579
:100980001F0720F427E245EE64EE41CF063F2CE539
:10099000120709F06CCF27E245EE66EE38CFF7017B
:1009A00000811181C8010E94D51DD82E682FC80171
:1009B0000E944E1EB8018D2D0E94570E8C01982E5C
:1009C000F701A580A2949FE0A922D280D1101092B5
:1009D000E2058091E005877079F0DD2069F080E222
:1009E000800F883048F082E00E94A81E8091E005C8
:1009F0008770CC24C3948111C12CB12EB2948FE0A6
:100A0000B8228B2D90E08C30910508F035C2FC01A6
:100A1000EA5AFF4F0C94A029812F807F1F708823F2
:100A200011F01295107FDD20B9F0112309F40FC2E7
:100A300080E2800F883010F0911006C08091E305AD
:100A4000182B1093E30505C08091E205182B109335
:100A5000E2050E94A81DFBC1802F0E941E261123C3
:100A600009F40AC2005E1095083010F0911006C01B
:100A70008091E30518231093E30505C08091E205FA
:100A800018231093E2050E94A81DF6C1812F807FD4
:100A90001F70803211F01295107F992021F0F1E043
:100AA0009F16E1F02AC0DD2081F08091E405AA20A4
:100AB00051F001E0A01207C0182B181709F4DCC18F
:100AC0001093E405D9C1812B10C0AA2021F021E0A8
:100AD000A21609F4D1C10E94A21D27C0DD2041F059
:100AE00035E03A1508F4C8C1812F0E94D225C4C14F
:100AF00084E08A1508F4C0C118C0DD2049F0AA209E
:100B000099F3F701858180FFA2C18F708583ECCFB7
:100B1000AA2059F0093309F0ACC1FFEF17EE23E02A
:100B2000F15010402040E1F7A2C1812F0E94C7255B
:100B3000A3C1812F86958695837019F0813059F075
:100B40009BC1DD2019F0C801937002C080E090E0E5
:100B50000E94DA1997C1DD2019F0C801937002C014
:100B600080E090E00E94C4198DC1812F837009F04C
:100B700069C0D11085C1902F929596959770990F65
:100B8000990F802F8F70882E912CA12CB12C092EBB
:100B900004C0880C991CAA1CBB1C0A94D2F704FF41
:100BA00012C04FE050E060E070E004C0440F551FF9
:100BB000661F771F9A95D2F7DB01CA018095909541
:100BC000A095B09503C080E090E0DC0116951695E5
:100BD000412F4370423019F1C8F40091E50510919E
:100BE000E6052091E7053091E805413059F0882964
:100BF0009929AA29BB29BC01CD0160237123822335
:100C000093230AC0802A912AA22AB32ABC01CD01CB
:100C1000682979298A299B290E94E21E31C18829E5
:100C20009929AA29BB290091E5051091E605209193
:100C3000E7053091E805BC01CD01602771278227C7
:100C40009327EACFDD2019F0812F817001C08695AE
:100C5000882309F415C1902F929596959770990F56
:100C6000990F802F8F70882E912CA12CB12C092EDA
:100C700004C0880C991CAA1CBB1C0A94D2F704FF60
:100C800012C04FE050E060E070E004C0440F551F18
:100C9000661F771F9A95D2F7DB01CA018095909560
:100CA000A095B09503C080E090E0DC011695169504
:100CB000412F43704230D9F068F50091DC05109166
:100CC000DD052091DE053091DF05413059F088299E
:100CD0009929AA29BB29BC01CD0160237123822354
:100CE00093231EC0802A912AA22AB32A13C08829DE
:100CF0009929AA29BB290091DC051091DD052091D5
:100D0000DE053091DF05BC01CD0160277127822708
:100D1000932706C0BC01CD01682979298A299B291E
:100D20000E94791EADC01F70DD2039F0812F0E9416
:100D3000C11E802F0E94D225A3C0802F0E94C725EC
:100D4000812F0E94831E9CC0802F32EF931609F4DE
:100D500040C0391538F090EF991661F0E1EF9E161A
:100D600099F170C0F3EF9F16D9F124EF921609F4B0
:100D70004EC068C0DD2019F134E03A1508F47CC09B
:100D80001F7181E090E0A0E0B0E0AC01BD0104C0C3
:100D9000440F551F661F771F1A95D2F78091DC0507
:100DA0009091DD05A091DE05B091DF058A019B01E0
:100DB000082719272A273B27C901B80125C025E0A4
:100DC0002A1508F459C0DCCFDD2029F0812F8F715E
:100DD0002CC0DD20D9F3812F8F710E94831E4CC05F
:100DE000DD2079F01F7181E090E0A0E0B0E0BC016F
:100DF000CD0104C0660F771F881F991F1A95D2F77F
:100E000003C060E070E0CB010E94791E35C0DD2098
:100E100079F01F71812F0E94C11E38E0139FC0011D
:100E2000112483608093E005812F0E94C11E24C09D
:100E300081E00E94A81E81E08A15F0F482E00E9401
:100E4000A81E1AC0DD2039F0AA2009F4BFCF802FD8
:100E50000E94562611C0AA2009F4BDCF893349F457
:100E60009FEFE7EEF3E09150E040F040E1F700C083
:100E70000000802F0E941E2688EF8B0D843010F416
:100E80000E94F019CC2009F4EDC28091E00580FDAC
:100E9000E9C2F70112828595859585950E94C11E4C
:100EA000C7010E942E038091E00585958595859563
:100EB0000F900F900F900F900F90DF91CF911F9197
:100EC0000F91FF90EF90DF90CF90BF90AF909F90E9
:100ED0008F900C94831E063CFCE51F0709F4B3C0F9
:100EE00038F506313CE5130709F494C250F40115B6
:100EF0009CE5190708F449C102301C4508F045C1BA
:100F0000B1C2053CFCE51F0708F099C0033C2CE585
:100F1000120708F0A7C2023C1C4509F036C19091A7
:100F2000070681E089278093070610920401B9C063
:100F3000063D8CE51807E0F40B3C9CE5190708F02A
:100F400091C2083CECE51E0709F48AC008F481C090
:100F5000093C2CE5120709F48CC00A3C1C4509F039
:100F600014C120910A0630E1231B08F420E087C059
:100F70000C3D8CE5180708F408C10F3D1C4508F02E
:100F800004C170C20F900F900F900F900F90DF91DF
:100F9000CF911F910F91FF90EF90DF90CF90BF9076
:100FA000AF909F908F900C94C21080919203982FD5
:100FB000909590FB80F98093920354C20F900F900C
:100FC0000F900F900F90DF91CF911F910F91FF9095
:100FD000EF90DF90CF90BF90AF909F908F900C9448
:100FE0003F1D8091E3058272B9F00F900F900F9032
:100FF0000F900F90DF91CF911F910F91FF90EF9085
:10100000DF90CF90BF90AF909F908F900C94D81AA4
:101010008091E305827249F30F900F900F900F902B
:101020000F90DF91CF911F910F91FF90EF90DF9084
:10103000CF90BF90AF909F908F900C94EE1A8091BC
:101040000806885F03C080910806885080930806D0
:1010500028C02091090630E1230F08F42FEF06C0C5
:101060002091090630E1231B08F420E020930906B3
:1010700018C020910A0630E1230F08F42FEF2093C7
:101080000A060FC020910B0630E1230F08F42FEF62
:1010900006C020910B0630E1231B08F420E02093CA
:1010A0000B060F900F900F900F900F90DF91CF9144
:1010B0001F910F91FF90EF90DF90CF90BF90AF9076
:1010C0009F908F900C94C41A81E045C080910706D0
:1010D00086958695825C8F73833008F49DCF82E07D
:1010E0003AC08091070686958695865C8F7382301C
:1010F00008F492CF86E02FC08091070686958695EA
:10110000895C8F73853008F487CF89E024C0809193
:101110000706869586958F5C8F73853008F47CCFA3
:101120008FE019C08091070686958695855D8F733F
:10113000823008F471CF85E10EC088E10CC0809147
:10114000070686958695895D8F73893008F464CF8C
:1011500089E101C083E20F900F900F900F900F90E4
:10116000DF91CF911F910F91FF90EF90DF90CF9083
:10117000BF90AF909F908F900C94CC1A10927A03EE
:1011800071C182E080937A036DC1F7010081118102
:10119000C8010E94221ED82E0DCC0E94341D811140
:1011A00002C00E943F1D0E94231D909381038093E3
:1011B000800300319CE5190709F4C3C008F041C061
:1011C0000830FCE51F0709F49AC0F0F404303CE550
:1011D000130709F487C068F402309CE5190709F485
:1011E00077C003301C4509F0E5C080918003826020
:1011F00076C00630FCE51F0709F46EC008F07BC01E
:101200008091800388606BC00C303CE5130709F4C3
:1012100085C068F40A309CE5190709F474C008F029
:1012200079C00E94132680918003806858C00E30D8
:10123000FCE51F0709F476C008F07FC080918003A9
:101240008BC00B3F3CE5130709F44FC018F5033181
:101250009CE5190709F47DC078F40131FCE51F070E
:1012600009F473C002311C4509F0A4C00E94132682
:10127000809180038F7733C005313CE5130709F473
:1012800072C008F486C00A3F1C4509F093C08091E3
:1012900081033EC00F3FECE51E0709F45FC058F420
:1012A0000D3F2CE5120709F444C008F43FC08091BB
:1012B000810382602DC001308DE5180709F475C0E7
:1012C00008F45DC002301D4509F074C060E06EC0D6
:1012D00080918003816003C080918003806180934E
:1012E000800368C08091800311C080918103826077
:1012F000809381035FC0809180038062F0CF8091F2
:1013000080038064ECCF8091800388608460E7CFA5
:101310008160EECF809180038E7FE1CF809180034A
:101320008D7FDDCF80918003877FD9CF809181032E
:1013300018C0809181038D7FDBCF809180038F7EE9
:10134000CECF809180038F7DCACF809180038F7B29
:10135000C6CF80918003877F8B7FC1CF809181032F
:101360008D7F8E7FC5CF8091800382FB222720F95D
:1013700091E0922790FB82F990FB83F9B0CF8091A6
:101380008103982F909591708E7F892B90FB81F926
:10139000AFCF0E9413268091800387FB222720F97C
:1013A00091E0922790FB87F99ACF61E08EE090E080
:1013B0000E94F128609180031091810384E090E005
:1013C0000E94F128612F81E290E00E94F1280F90A5
:1013D0000F900F900F900F90DF91CF911F910F9171
:1013E000FF90EF90DF90CF90BF90AF909F908F9045
:1013F0000C9413268091E3058A7A91E009F490E039
:1014000090935F0381112AC069E285E695E00E940E
:10141000091D11C080915F03811122C089E2E5E6B8
:10142000F5E02BE635E09281891301C012823196F6
:101430002E173F07C1F70F900F900F900F900F904E
:10144000DF91CF911F910F91FF90EF90DF90CF90A0
:10145000BF90AF909F908F900C94A81D65E3D5CF5F
:1014600085E3DDCF0F900F900F900F900F90DF91DD
:10147000CF911F910F91FF90EF90DF90CF90BF9091
:10148000AF909F908F9008959091800392FF0DC030
:10149000282F2871283019F4877F846006C0282FF0
:1014A0002471243011F48B7F886093FF0DC0282FA6
:1014B0002871283119F4877E846106C0282F247191
:1014C000243111F48B7E88612091810320FF0DC0AF
:1014D000382F3871383019F4877F816006C0382F73
:1014E0003171313011F48E7F886021FF0DC0282FBB
:1014F0002871283119F4877E816106C0282F217157
:10150000213111F48E7E886194FD877E08959C01BF
:101510003A9521153F4138F5DC01AA27B270AC019C
:10152000442754709C012227387094FF0FC090FF0D
:1015300002C080E101C080E0AB2B09F08062452B46
:1015400009F08064232B69F080680BC0892F8170BB
:10155000AB2B09F08260452B09F08460232B09F046
:101560008860FB01099408954F925F926F927F9279
:101570008F929F92AF92BF92CF92DF92EF92FF92A3
:101580000F931F93CF93DF9361E271E003E613E0C3
:10159000D9E68D2ED3E09D2ED801512CEE24E39474
:1015A000F12C5D017C901C92EB018991BE01E82F2A
:1015B000E295EF70F0E021A18F70A70102C0440F07
:1015C000551F8A95E2F7CA01242B21A322A1442E9C
:1015D0004094242122A350EA5A95F1F7CDE2CC2E73
:1015E000C1E0DC2E40E050E0E60169906E01262D5E
:1015F00022952F7030E0E90128A130E0D62DDF7070
:1016000002C035952795DA95E2F720FD07C09701CE
:10161000042E01C0220F0A94EAF702C020E030E055
:101620003C91232B2C934F5F5F4F47305105E1F6E0
:1016300091A1D42DD923D1A392A1892B82A3119654
:1016400081E0F5019081971101C080E0582AF3E014
:10165000A936BF0709F0A5CFD0917F03552049F0E7
:1016600081E0809362030E94D41C90936103809375
:101670006003809162038823A9F0809160039091B8
:1016800061030E94AA1C069768F0ED2FF0E0EB576B
:10169000FC4FD8018D918D0181938A169B06C9F765
:1016A000109262030E948D1C882309F4D8C2D09145
:1016B0007E030E941A28892BC1F4ED2FF0E0EB572E
:1016C000FC4F80E090E0DC01A259BC4F2C912193AB
:1016D000019686309105B9F76091740380917B0380
:1016E0000E94771A10926D0313C080916D038F5F73
:1016F00080936D03863060F0E0917E03F0E0EB575D
:10170000FC4F80E090E01192019686309105D9F768
:101710000091690310916A0320916B0330916C036F
:101720008FB7F894409176035091770360917803D6
:10173000709179038FBFDB01CA01801B910BA20B53
:10174000B30B401751076207730718F40197A109FB
:10175000B1092FB7F894C0907603D0907703E0904A
:101760007803F09079032FBFC0926903D0926A0387
:10177000E0926B03F0926C034091030650910406D3
:1017800060910506709106064F3FCFEF5C076C072E
:101790007C07E9F0AA27BB278C019D0100951095D5
:1017A00020953095041715072607370720F48FEF8B
:1017B0009FEFDC0104C0840F951FA61FB71F809305
:1017C000030690930406A0930506B09306062091A5
:1017D0000706822F837021F0D22FD695D69501C0AF
:1017E000D0E0809104018130A1F038F0823009F41A
:1017F00003C2833009F40BC246C210921B01C0928F
:10180000FF05D0920006E0920106F092020681E008
:10181000FBC180910601D8130BC0237030E04091CA
:10182000050150E081E02417350719F480E001C07C
:1018300081E0817080931D014D2F50E048315105AA
:1018400008F0C8C1FA01EE59FF4F0C94A029882373
:1018500009F4C0C180911B011EE1819F102D11244C
:101860000EE1010F053908F004E9101708F0F1C086
:1018700020E040E060E0812F90E00E94C21A1F5FEC
:10188000F4CF80911B011EE1819F102D11240EE1E8
:10189000010F053908F004E9609108067091090606
:1018A00080910A060E949A1BF62EE72ED82E10175A
:1018B00008F0CFC0E12FF0E0DF01A853BD4F8C91BD
:1018C00090911C01982331F02D2D4F2D6E2DCF01BD
:1018D0000E94C21A1F5FEBCF10911B018EE1189F6F
:1018E000102D11240EE1010F053908F004E9E090F4
:1018F0000906F0900A06D09008066D2D7E2D8F2DDA
:101900000E949A1BC62EB72EA82E60910B066D0D55
:101910007E2D8F2D0E949A1BF62EE72ED82E1017A3
:1019200008F097C0812F90E0FC01E853FD4F308113
:1019300020911C01232359F030FF04C02D2D4F2D81
:101940006E2D03C02A2D4C2D6B2D0E94C21A1F5FD5
:10195000E6CF10911B018EE1189F102D11240EE18E
:10196000010F053908F004E9E0900906B0900A0675
:1019700020910B0650E4F52E3F2D329F312D11247E
:10198000F32E101708F065C0C12ED12CF601E853D4
:10199000FD4F908180911C018923B9F0F601EE0F73
:1019A000FF1FEF55FE4F808182958F706091080672
:1019B0008F9D600D11247E2D8B2D0E949A1B462F2A
:1019C000282F672FC6010E94C21A1F5FDACF10911D
:1019D0001B018EE1189F102D11240EE1010F053916
:1019E00008F004E9E0900806F0900906D0900A0695
:1019F00060910B066695669566958091FF059091BE
:101A000000060E94901B0E94151B805887FD81953F
:101A1000880F482F5D2D459F412D1124842FB7013C
:101A20000E949A1BF62EE72ED82E101790F4E12F65
:101A3000F0E0DF01A853BD4F8C9190911C019823D9
:101A400031F02D2D4F2D6E2DCF010E94C21A1F5F38
:101A5000ECCF81E0043908F4BEC0BCC08BE098E153
:101A600002C08FED97E10E946722B5C084EE98E135
:101A70001DC085EC98E11AC08AEA98E11CC08EE886
:101A800098E119C08DED97E1EECF84ED97E1EBCFB2
:101A90008BEC97E1E8CF80EB97E1E5CF81EA97E126
:101AA0000AC087E69BE102C08DE798E10E940B2205
:101AB00092C089E698E10E948F218DC083E797E16B
:101AC00005C081E497E102C083E097E10E942E21E6
:101AD00082C081111EC060910B0620E1620F08F4E4
:101AE0006FEF8091FF05909100060E94901B6AE0C5
:101AF00070E00E947829892B09F06CC00E94B328FD
:101B000064E970E00E948C2960911C010E94471CCE
:101B100061C080911B010EE1809F002D11243EE1E8
:101B2000F32EF00E84E98F1510F424E9F22E10E064
:101B3000CF2CD12C0C151D0544F460911C01C8015B
:101B40000E94471C0F5F1F4FF5CF81E093E99F155F
:101B500008F041C03FC081111DC060910B0620E11B
:101B6000620F08F46FEF8091FF05909100060E94CC
:101B7000901B65E070E00E947829892B59F50E943E
:101B8000B32864E970E00E948C2960911C010E94D6
:101B9000251C20C080911B010EE1809F002D112487
:101BA0009EE1F92EF00EA4E9AF1510F484E9F82EA9
:101BB00010E0CF2CD12C0C151D0544F460911C01B4
:101BC000C8010E94251C0F5F1F4FF5CF81E0B3E9CC
:101BD000BF1508F480E090911B019F5F90931B015B
:101BE000811151C082E08093040180911D01811117
:101BF0004AC0DD2341F047C0D093060123702093F3
:101C000005010E94021983E0809304013CC0009109
:101C1000FF051091000620910106309102068FB752
:101C2000F894409176035091770360917803709116
:101C300079038FBFDB01CA01801B910BA20BB30B91
:101C4000401751076207730718F40197A109B109FA
:101C50004097A105B105B8F01092040114C0E091BD
:101C60007F03F0E0EB57FC4F80E090E02191DC0136
:101C7000A259BC4F2C93019686309105B9F78091FB
:101C80007D03809374030E94A21A852DDF91CF916A
:101C90001F910F91FF90EF90DF90CF90BF90AF908A
:101CA0009F908F907F906F905F904F900895CF930B
:101CB000DF9324E5829FC0011124FC0137E0739F6C
:101CC000E00DF11D1124E60FF11DEE0FFF1FEC5D7D
:101CD000FE4FC591D491CE01C238D10569F1B0F45F
:101CE000C133D10509F475C048F4C932D10509F4EE
:101CF00069C0CA32D10509F473C079C0C533D105B2
:101D000009F459C0C933D105B9F071C0C33ED1053A
:101D100071F138F4C03ED105B1F0C23ED10511F1E8
:101D200066C0C63ED105B9F1C73ED105C9F1C43E72
:101D3000D10509F05CC024C02091800320FD1AC2A7
:101D400021FD18C21CC22091800320FD0DC22091EC
:101D5000810320FF14C28091800384FDB7C183EE0C
:101D600090E00DC22091800322FF09C2F4CF809140
:101D7000800382FDFCC18091810380FDFBC1EBCF1C
:101D80002091810321FFFBC18091800384FD9EC1CE
:101D900087EE90E0F4C12091800323FFF0C1F4CFDF
:101DA0008091800383FDE9C18091810381FFECCFA5
:101DB00084EE90E0E4C12091800325FFE0C189E238
:101DC00090E0DDC12091800325FFD9C185E390E03B
:101DD000D6C12091800326FFD2C18AE290E0CFC114
:101DE0002091800326FFCBC181E390E0C8C1C115DB
:101DF00040E5D40708F049C0C11520E4D20708F037
:101E000030C1C83ED10520F5C03ED10508F0B7C1AC
:101E1000C83AD10570F4C53AD10508F0ADC0C1305B
:101E2000D10509F4ACC108F451C1249708F44EC19E
:101E3000A6C1CF3BD10508F4AAC0C03CD10508F427
:101E400045C1CE01880F991FFC01EC59FD4FFEC022
:101E5000C11530E2D30760F4C11541E0D40708F0A2
:101E60008EC1C03FD10508F431C1CE01906587C154
:101E7000C11580E3D80708F0ECC0CE019F70FC01CB
:101E8000EE0FFF1FEC51FC4FE1C0C11525E5D20755
:101E900008F045C0C11534E5D30708F0FAC0C115F4
:101EA00042E5D40718F5C11581E5D80708F0DDC073
:101EB000CE0174E0969587957A95E1F7282F2370E7
:101EC0003C2F337081E090E002C0880F991F3A9553
:101ED000E2F79C68922BEC2FEF70E695E69520E2F6
:101EE000E29FF00111248E2B9F2B49C1AE0143705C
:101EF00055272C2F26952695C115D34508F0BAC035
:101F000081E090E002C0880F991F4A95E2F740E215
:101F1000249F90011124822B932B9C6830C1C11502
:101F200049E5D40798F4C11588E5D80708F0B6C08C
:101F3000C11526E5D20708F0C9C08C2F0E94440ABB
:101F40008F7190E0982F8827906219C1C1153AE5EA
:101F5000D30708F4A8C0CE0190568115904208F02E
:101F6000B5C08D2F8F710E94440AFE01FF27F062D9
:101F70008F719F01382BA8C0C53AD10509F4A9C0BB
:101F8000C63AD10509F0A8C082E890E4F8C0C83A82
:101F9000D10509F4A4C0C93AD10509F4A3C0CA3ACD
:101FA000D10509F4A2C0CB3AD10509F4A1C0CC3ABD
:101FB000D10509F4A0C0CB3BD10509F49FC0CC3BAF
:101FC000D10509F49EC0CD3AD10509F49DC0C03BAE
:101FD000D10509F49CC0CE3AD10509F49BC0CF3A93
:101FE000D10509F49AC0C13BD10509F499C0C23B9F
:101FF000D10509F498C0C33BD10509F497C0C43B8F
:10200000D10509F496C0C53BD10509F495C0C63B7E
:10201000D10509F494C0C73BD10509F493C0C83B6E
:10202000D10509F492C0C93BD10509F491C0CD3B5B
:10203000D10509F490C0CE3BD10509F48FC0CA3B4D
:10204000D10509F48EC080E094E499C08591949103
:1020500096C0CE019927D3FF02C0986C90C0906CB7
:102060008EC0CE019F70906A8AC09C2F8827816F96
:10207000906A85C081E090E002C0880F991F4A9560
:10208000E2F740E2249F90011124822B932B9A685F
:1020900076C09C2F8827846F906A71C09C2F8827F8
:1020A000806F906A6CC08C2F8F700E94440AFE0172
:1020B00094E0F695E7959A95E1F7EF70F0E0FE2F42
:1020C000EE27F0699F01282BC90159C080E090E0FC
:1020D00056C081E890E453C083E890E450C082EE9B
:1020E00094E44DC089EE94E44AC08AEE94E447C07B
:1020F00085EB94E444C086EB94E441C083EB94E424
:102100003EC084EB94E43BC087EB94E438C08CEC95
:1021100094E435C08DEC94E432C083E895E42FC09C
:102120008AE895E42CC082E995E429C084E995E425
:1021300026C081E296E423C083E296E420C084E2D4
:1021400096E41DC085E296E41AC086E296E417C0C4
:1021500087E296E414C08FE694E411C080E794E42B
:102160000EC08AE296E40BC089E390E008C082EEDC
:1021700090E005C080EE90E002C086EE90E0DF9136
:10218000CF9108950E9413262FEF84E39CE0215005
:1021900080409040E1F700C0000081E08093E000C3
:1021A00080E28093D8001092C9008FE19EE40197ED
:1021B000F1F700C0000087E090EBDC0180930E0691
:1021C00090930F06A0931006B09311069CE088E14F
:1021D0000FB6F894A895809360000FBE90936000AE
:1021E000FFCF8F929F92AF92BF92CF92DF92EF92EA
:1021F000FF92CF93DF93D82FC62F0E948D1C882388
:1022000009F4B1C0C090DC05D090DD05E090DE059A
:10221000F090DF05A7016627772741155105610575
:10222000710511F090E103C0B701A60190E0852E81
:10223000962EA72EBB2481149104A104B10419F099
:10224000985FB501A4014A015B01A4E0B694A7948C
:1022500097948794AA95D1F781149104A104B104AD
:1022600019F09C5FB501A4014A015B01F2E0B6944C
:10227000A79497948794FA95D1F781149104A104B7
:10228000B10419F09E5FB501A40176956795579545
:102290004795452B462B472B09F09F5F2D2F30E0AC
:1022A0006C2F70E0A901490F511D490F511DFA0112
:1022B000EE0FFF1FE60FF71FEE0FFF1FEC53FC4F53
:1022C000C081D181C130D105F1F4992309F44BC00B
:1022D0009150E92FF0E04E01092E02C0880C991CA4
:1022E0000A94E2F7092C000CAA08BB088C209D2058
:1022F000AE20BF2089288A288B2821F3EE0FFF1FEC
:10230000E20FF31FD5CF7E0180EEE81AF10888E0D6
:10231000E816F10410F0209719F462ED75E202C09E
:102320006DEB75E2CE010E94870A8C2F0E94562623
:102330008C2F0E941E2688E0E816F10410F02097EA
:1023400019F467EC75E202C062EB75E2CE01DF9131
:10235000CF91FF90EF90DF90CF90BF90AF909F9084
:102360008F900C94870ADF91CF91FF90EF90DF90D0
:10237000CF90BF90AF909F908F900895E8EDF0E0E0
:1023800080818E7F80831092E2001092DA0010929A
:10239000E100A0EEB0E08C9181608C9380818F771A
:1023A000808319BCA7EDB0E08C918E7F8C938081E7
:1023B0008F7E808310929F03089508958091EA058F
:1023C0000895CF93DF9300D01F92CDB7DEB79C0165
:1023D00090917A03911105C08091F505843049F5FB
:1023E00004C0923011F0943021F584E089833B835E
:1023F0002A8382E08093E9008FEF9091E80081507A
:1024000095FD06C095ED9A95F1F700008111F5CF85
:102410008091E80085FF0DC040E050E063E070E08F
:10242000CE0101960E94B1228091E8008E778093C0
:10243000E8000F900F900F90DF91CF910895CF9308
:10244000DF9300D01F92CDB7DEB72091F505243081
:1024500031F523E02983805891099B838A8382E0A8
:102460008093E9008FEF9091E800815095FD06C0C0
:1024700095ED9A95F1F700008111F5CF8091E80074
:1024800085FF0DC040E050E063E070E0CE010196B2
:102490000E94B1228091E8008E778093E8000F902F
:1024A0000F900F90DF91CF910895CF93DF932091FC
:1024B0007A03211103C02091F50502C0223011F0EA
:1024C000243039F521E02093E9002FEF3091E80026
:1024D000215035FD06C035ED3A95F1F70000211188
:1024E000F5CF2091E80025FF14C0EC0140E050E05A
:1024F00068E070E00E94B1228091E8008E778093BE
:10250000E80088E0FE01ABEEB5E001900D928A95FF
:10251000E1F7DF91CF9108951F920F920FB60F92BE
:1025200011242F933F934F935F936F937F938F93D8
:102530009F93AF93BF93CF93DF93EF93FF93C0919C
:10254000E900CF708091EC00D82FD17080FDD0E8E9
:102550001092E9008091F000877F8093F0007894DA
:102560000E94DD221092E9008091F0008860809343
:10257000F000CD2BCF70C093E900FF91EF91DF9178
:10258000CF91BF91AF919F918F917F916F915F910B
:102590004F913F912F910F900FBE0F901F90189564
:1025A0002091E4003091E50095E64091EC00842F05
:1025B000817040FF23C08091E80080FD1DC08091A4
:1025C000F505882399F0853099F08091EB0085FD21
:1025D00011C04091E4005091E5002417350729F31C
:1025E000915011F09A01E1CF84E0089582E00895BE
:1025F00083E0089581E0089580E008954091E80027
:1026000042FFDDCF08958091F70587FF11C08091CB
:10261000E80082FD05C08091F5058111F8CF11C059
:102620008091E8008B770BC08091F505882349F0F5
:102630008091E80080FFF8CF8091E8008E7780934A
:10264000E8000895982F973068F59093E90098175F
:1026500039F07091EC002091ED005091F00003C032
:10266000242F762F50E021FD02C09F5FECCF3091E8
:10267000EB003E7F3093EB003091ED003D7F3093D7
:10268000ED003091EB0031603093EB007093EC0083
:102690002093ED005093F0002091EE0027FDE5CF50
:1026A00080E008958F708093E90081E00895CF92D3
:1026B000DF92EF92FF920F931F93CF93DF93C8EDBA
:1026C000D0E088818F7E8883E7EDF0E080818160B3
:1026D000808384E082BF81E080939F0388818E7F26
:1026E000888302EE10E0F80110821092DA0081EE89
:1026F000C82ED12CF601108288818F77888388813B
:102700008068888388818F7D888319BC1092F50545
:102710001092F6051092F4051092F30590EEE92E52
:10272000F12CF70180818B7F808388818160888391
:1027300042E060E080E00E942213F60180818E7FFB
:102740008083F801808181608083808188608083BC
:10275000F70180818E7F8083888180618883DF910B
:10276000CF911F910F91FF90EF90DF90CF90089540
:102770001F920F920FB60F9211242F933F934F93F6
:102780005F936F937F938F939F93AF93BF93EF93D9
:10279000FF938091E10082FF09C08091E20082FFF7
:1027A00005C08091E1008B7F8093E1008091DA0089
:1027B00080FF2AC08091D80080FF26C08091DA0077
:1027C0008E7F8093DA008091D90080FF18C080E16D
:1027D00089BD82E189BD09B400FEFDCF81E080930F
:1027E000F50580919F0381110FC00E94BE110E94C8
:1027F00057138091E20084608093E20005C019BC09
:102800001092F50510929F038091E10080FF17C0A0
:102810008091E20080FF13C08091E2008E7F809360
:10282000E2008091E20080618093E2008091D80014
:1028300080628093D80019BC85E08093F505809173
:10284000E10084FF32C08091E20084FF2EC080E16D
:1028500089BD82E189BD09B400FEFDCF8091D80019
:102860008F7D8093D8008091E1008F7E8093E1007E
:102870008091E2008F7E8093E2008091E20081608F
:102880008093E2008091F605882311F084E007C070
:102890008091E30087FD02C081E001C083E0809366
:1028A000F5050E9413260E94F0198091E10083FF34
:1028B00027C08091E20083FF23C08091E100877FE1
:1028C0008093E10082E08093F5051092F6058091F7
:1028D000E1008E7F8093E1008091E2008E7F809303
:1028E000E2008091E20080618093E20042E060E0DB
:1028F00080E00E9422138091F00088608093F000B5
:10290000FF91EF91BF91AF919F918F917F916F91C7
:102910005F914F913F912F910F900FBE0F901F909D
:1029200018952091FD053091FE052617370748F0D0
:102930006115710539F42091E8002E772093E800A5
:1029400001C0B901FC0120E06115710579F18091A8
:10295000F5058823F1F18530F1F18091E80083FDE0
:102960003CC08091E80082FD2EC08091E80080FF8D
:10297000EBCF2091F3008091F20090E0922B611553
:10298000710551F08830910538F421912093F100C0
:10299000615071090196F3CF21E0089709F020E01A
:1029A0008091E8008E778093E800CECF2111CFCFC1
:1029B0000AC08091F505882361F0853061F080912F
:1029C000E80083FD0AC08091E80082FFF2CF80E03A
:1029D000089582E0089583E0089581E00895CF93FB
:1029E000DF93CDB7DEB72A970FB6F894DEBF0FBEE0
:1029F000CDBF84B7877F84BF0FB6F894A895809128
:102A00006000886180936000109260000FBE80E8D3
:102A1000809361001092610085B7806885BF85B79B
:102A2000806885BF0E94BE110E9457138091E2000A
:102A300084608093E20078948091F5058823A1F06A
:102A40001091E9001F709091EC00892F817090FD2A
:102A500080E8182B1092E9008091E80083FD0E9425
:102A6000DD221F701093E90082E084BD93E095BDE4
:102A70009AEF97BD80936E008EE090E00E94D3287D
:102A800091E0811101C090E090930F010E948D1C94
:102A900061E070E0882329F087E091E00E947B27C5
:102AA00004C087E091E00E94822780910F0180910D
:102AB0000F01811102C096E001C090E090937F0366
:102AC00086E0891B80937E03A1E2B1E047E251E0FA
:102AD00061E070E08D91E82FE295EF70F0E021A1C8
:102AE0008F708B0102C0000F111F8A95E2F7C80199
:102AF000902F9095922391A392A1892B82A34A179C
:102B00005B0741F7ADE2B1E044E351E061E070E022
:102B10008D91E82FE295EF70F0E021A18F708B018D
:102B200002C0000F111F8A95E2F7C801902F9095FF
:102B3000922391A392A1892B82A34A175B0741F7A5
:102B400051E9E52E53E0F52EE5E8F3E01192EE169B
:102B5000FF06E1F70E94341D811102C00E943F1D53
:102B60000E94341D811104C00E943F1D0E94041B5D
:102B700045E050E06CE170E087E096E00E94C328F9
:102B8000809107068C7F11F40E94041B52985A9A78
:102B900056985E9A89B182FB882780F94E9902C0C7
:102BA00090E001C092E0892B80937D0390910F010A
:102BB00081E0982790937C03891B80937B030E947C
:102BC000341D811102C00E943F1D82E090E00E94EE
:102BD000D328809392030E94231D909381038093B6
:102BE000800383E090E00E94D328682F70E080E0AB
:102BF00090E00E94E21E80E191E090938303809335
:102C0000820377247A94CC24C394D12C90E1592E5A
:102C100022E1422E38E1A32EB12C40E4642E8091B3
:102C2000F505853009F034C08091F505843009F14F
:102C3000109284030FB6F894A895A09260000FBE7E
:102C40006092600083B7817F846083BF83B78160B7
:102C500083BF7894889583B78E7F83BF0FB6F8942F
:102C6000A895809160008861809360001092600058
:102C70000FBE8091F405882391F20E94B40AE5E822
:102C8000F3E0819181116DC0EE16FF06D1F7C7CF39
:102C90000E94B40A0E948D1C882309F447C0A3E94E
:102CA000B3E0E5E8F3E000E010E0702F61912D91D2
:102CB0002627B1F180E090E030E0982EA901082E9F
:102CC00002C0559547950A94E2F740FF25C08983D5
:102CD0007A83C60102C0880F991F9A94E2F74C01CB
:102CE000862F90E08821992121E0892B09F420E0AA
:102CF0002B830E94D41C8160782F9D838C83498113
:102D00005A816B818D810E942819F801ED56FC4F84
:102D100080818826808219C001968730910569F6E6
:102D20000F5F1F4F0C30110509F0BFCF7E827F82ED
:102D300018860E94D41C8160782F9A8789874E81DB
:102D40005F8168858A850E9428190E94F0199091F8
:102D50009103891709F463CF0E94F01980939103BE
:102D60005ECF59BC49BC09B400FEFDCF8091D800AC
:102D70008F7D8093D8008091E00082608093E00096
:102D80008091E00081FDFCCF4ACF78941F920F9292
:102D90000FB60F9211248F939F93AF93BF9380919F
:102DA000760390917703A0917803B091790301960F
:102DB000A11DB11D8093760390937703A0937803B0
:102DC000B0937903BF91AF919F918F910F900FBEF8
:102DD0000F901F901895E1EAF3E095E0ED35F907C3
:102DE00029F08183608342833396F7CF0895FC01F5
:102DF000EE0FFF1F8E0F9F1FFC01EF55FC4F6183ED
:102E00004083228308950F931F9310E0F801EE0F83
:102E1000FF1FE056FE4F9081905797FD9195000F50
:102E2000111FF801EF55FE4FE081F0E0B597DF018B
:102E3000AA0FBB1F8D010E0F1F1F2003D001219F62
:102E4000B00D1124E8E3F0E0E91BF10997FDF395DB
:102E50009F01220F331F89010E0F1F1F4003900196
:102E6000419F300D11242A0F3B1F37FF02C021580C
:102E70003F4F220F232F221F330B620F1F910F9101
:102E800008950F931F93522F10E0F801EE0FFF1FCC
:102E9000EF55FE4FE081F0E0B597EE0FFF1F9F0169
:102EA0005203D001539FB00D1124000F111FF801E0
:102EB000E056FE4F008110E000571109000F111F6E
:102EC00040039001419F300D11242A0F3B1F37FF13
:102ED00002C021583F4F220F232F221F330B620FB6
:102EE0001F910F9108950F931F93522F10E0F80137
:102EF000EE0FFF1FEF55FE4FE081F0E0B5979F0109
:102F00005203D001539FB00D1124000F111FF8017F
:102F1000E056FE4F008110E0005711094003900178
:102F2000419F300D11242A0F3B1F37FF02C021584B
:102F30003F4F220F232F221F330B620F1F910F9140
:102F40000895EF920F931F9393E0099F800111243E
:102F5000159507956E2D600F1F910F91EF900895B5
:102F6000A22F50E0FA01EE0FFF1FEF55FE4F9081A8
:102F7000955297FD9195440F551FFA01E056FE4F6B
:102F80003081232F30E02A1B3109290F311D97FD95
:102F90003A95620F0895E42FF0E0EE0FFF1FEF5512
:102FA000FE4F6081621B0895E42FF0E0EE0FFF1FDB
:102FB000E056FE4F6081621B0895622F0895E42F52
:102FC000F0E0EE0FFF1FE056FE4F408134EE439FCE
:102FD000412D1124E82FF0E050E0445E5F4FDA010C
:102FE000A21BB1099D01B7FF03C03195219531099D
:102FF00093E0220F331F9A95E1F7AF01421B530B69
:103000009A0157FF02C020E030E0582F259F212D64
:103010001124822F0895E42FF0E0EE0FFF1FE056F9
:10302000FE4F408134EE439F412D1124E72FF0E005
:1030300050E0445E5F4FDA01A21BB1099D01B7FF6A
:1030400003C031952195310993E0220F331F9A95E2
:10305000E1F7AF01421B530B9A0157FF02C020E07A
:1030600030E0279F212D1124722F0895FC019B0130
:10307000009721F477FF2BC080E80895AC0197FFFB
:1030800004C044275527481B590BB901640F751F0D
:1030900037FD0CC0241B350BC901A5E0880F991F13
:1030A000AA95E1F70E948C2980E20CC0CB0165E073
:1030B000880F991F6A95E1F7BA01621B730B0E9492
:1030C0008C2980E6861BF7FF03C08195089580E078
:1030D0000895EF920F93CF93DF93D72FC82FC90195
:1030E0000E19BA010E943618602F681B7D2F8C2F95
:1030F000DF91CF910F91EF9008950F93CF93DF93CE
:10310000D72FC82FC901BA010E943618682F600F47
:103110007D2F8C2FDF91CF910F910895EF920F9318
:103120001F93CF93DF93D62FC72F182FC9010E19E6
:10313000010FBA010E943618081B202F219F212D54
:103140001124822F6D2F7C2FDF91CF911F910F9132
:10315000EF900895EF920F931F93CF93DF93D62FA5
:10316000172FC82FC9010E19070FBA010E94361870
:10317000702F781B719F712D11246D2F8C2FDF9173
:10318000CF911F910F91EF900895FF920F931F938E
:10319000CF93DF93F62ED72F182FC901C12FC01B55
:1031A000BA010E943618982F990F890FC81B2C2F2F
:1031B000219F212D1124822F6F2D7D2FDF91CF9103
:1031C0001F910F91FF900895FF920F931F93CF933C
:1031D000DF93F62E172FD82FC901C72FC01BBA01B6
:1031E0000E943618982F990F890F7C2F781B719F9A
:1031F000712D11246F2D8D2FDF91CF911F910F9184
:10320000FF900895279A85B18F7795B190682FB771
:10321000F894E1EAF3E035E0ED35F30789F0319118
:1032200048E095B9000000C037FF85B9330F0000B2
:1032300000C000C000C085B900C04A9591F7EBCF2F
:103240002FBF87EC90E00197F1F700C000000895D0
:103250001F93CF93DF93CDB7DEB767970FB6F89480
:10326000DEBF0FBECDBF4B8B5C8B6D8B7E8B8F8B90
:1032700086E09E01235F3F4FD901E82F1D92EA951A
:10328000E9F795E0FE017396D90101900D929A95A8
:10329000E1F7F901DE01179601900D928A95E1F7A9
:1032A000CE0107960E945E1F81113EC086E0FE019E
:1032B0003796DE01119601900D928A95E1F7FF8114
:1032C000E8856A857B856115710531F0EF3F31F442
:1032D00081E0FF3F19F403C081E001C080E080FD80
:1032E00023C02091730530E0C901019687709927AA
:1032F0004091A40550E08417950779F1F983EA839A
:103300007D836C8396E0929FD001939FB00D112432
:10331000AC58BA4FFE01319601900D929A95E1F7A3
:10332000809373050E94EC1E16E08091A405909195
:1033300073058917F9F0189FC00111248C589A4F12
:103340000E945E1F8823B1F08091A40590E0019651
:10335000877099278093A405E8CF0E9413261092C6
:1033600073051092A405EDE6F5E086E0DF011D92FD
:103370008A95E9F767960FB6F894DEBF0FBECDBF0A
:10338000DF91CF911F9108952091630530916405DD
:103390002817390771F09093640580936305E091D5
:1033A0008203F0918303309721F00084F185E02DB2
:1033B0000994089520916105309162052817390715
:1033C00071F09093620580936105E0918203F09122
:1033D0008303309721F00680F781E02D099408954A
:1033E000E0918203F0918303309721F00190F08106
:1033F000E02D099480E008950F931F93CF93DF93FE
:10340000C62FD42F122FFC0182818823C9F060932C
:103410005E030E94D41C9093600580935F0580E258
:103420008C0F883008F05EC0C77081E001C0880F43
:10343000CA95EAF7DF91CF911F910F910C94D22595
:1034400080915E0368133EC080915F059091600596
:103450000E94AA1C86399105A8F500E20D0FCD1730
:10346000B9F080E28C0F883040F4C77081E001C071
:10347000880FCA95EAF70E94C725083048F481E012
:103480009D2F977001C0880F9A95EAF70E94D22568
:10349000812F0E945626193349F4FFEF27EE83E06F
:1034A000F15020408040E1F700C00000812F0E94D1
:1034B0001E260830B8F4D77081E001C0880FDA9575
:1034C000EAF70AC080E28C0F883060F4C77081E0B0
:1034D00001C0880FCA95EAF7DF91CF911F910F9134
:1034E0000C94C725DF91CF911F910F9108951F93E1
:1034F000CF93DF93182FC82F880FDD0B6F70E62F47
:10350000F0E0E45CFE4FC35ADA4F90818881890F66
:103510008883843024F060E0812F0E94F11088813C
:103520008D3F24F461E0812F0E94F110888183781F
:1035300087FF03C081508C6F8F5F8883DF91CF91AD
:103540001F91089520917D03220F220F20937D0368
:1035500039B132FB882780F990E039B136FB662714
:1035600060F970E036FF02C062E070E0862B972BB6
:10357000622F682B60937D0380917C030C94771AF3
:103580000C94EB160C94F71645E050E06CE170E0FB
:1035900087E096E00C94E128E7E0F6E0880F880FDA
:1035A00090819370892B8083109204010C94C41A2B
:1035B00090910706892F86958695815C8F7393700D
:1035C000882321F0880F880F892B02C0892F8C65F2
:1035D00080930706109204010C94C41A9091070678
:1035E000892F869586958F5F8F739370883120F42D
:1035F000880F880F892B02C0892F8460809307066B
:10360000109204010C94C41AE7E0F6E081E3808391
:1036100080911E0190911F01A091200181839283CE
:10362000A3838FE784830C94C41A482F982F46FDF8
:103630009095E92FEF739F7046FD9F5FE295EF70C5
:10364000EE0FF0E0EC5CFE4F2181299F802D212DB3
:10365000112482958F702295207F822B3081982FA4
:10366000930F892F47FD819580580895BC018230C2
:10367000910508F40895613E8EE1780748F49B01B6
:1036800095E0369527959A95E1F748E0420F01C0FD
:103690004FEF91E0242F30E0290F311D359527950C
:1036A000229FF001239FF00DF00D11246E177F076C
:1036B00018F44FEF420F04C02F3F39F091E0920F02
:1036C000491740F78FEF890F08958FEF08950F93F3
:1036D000CF93DF93D72FC82F47FD4195E8E3F0E064
:1036E000CF01841B910947FD9395889FB001899F65
:1036F000700D700D1124229FC001239F900D900D1D
:103700001124860F971F0E94361B682F660F860FA5
:10371000682F600F7D2F8C2FDF91CF910F9108952F
:1037200020E030E0869F212D969F200D311D112431
:10373000C9010895EF92FF920F931F93CF93DF93E8
:10374000F62E472FE82FF0E0711106C0EC51FC4F28
:103750006491762F862F72C0272F30E0EC51FC4FFA
:10376000E4910E2F10E056E0659FC0011124CFEFC9
:10377000D0E0BE010E9478295BEA5603C001579F42
:10378000900D11248F0D911D8F0D911D982F990F64
:10379000890F7E01E21AF30AE09ED001E19EB00D8E
:1037A000F09EB00D1124489FA0011124452F5527EC
:1037B0007E01E41AF50AE09EA001E19E500DF09E04
:1037C000500D11247E01E81AF108E29EC001E39E2B
:1037D000900DF29E900D1124892F9927C81BD90BAB
:1037E000C09FC001C19F900DD09F900D11246230E9
:1037F000710591F048F461157105E1F061307105D2
:10380000A9F48B2F752F19C06430710561F038F061
:103810006630710579F00AC0892F7B2F0EC08E2F7C
:103820007B2FE52F0AC08E2F792F02C0852F7E2F88
:10383000EB2F03C08B2F7E2FE92F6E2FDF91CF91BF
:103840001F910F91FF90EF9008951F93CF93DF93F7
:10385000FC01E853FD4F20816223A9F0EC010E9496
:10386000B328182F0E94B328612F782F80910A0661
:103870000E949A1B462F282F672FCE01DF91CF91F0
:103880001F910C94C21ADF91CF911F910895DF927E
:10389000EF92FF920F931F93CF93DF93EC01FC0104
:1038A000E853FD4F9081692381F1D0900906009182
:1038B0000A0610910806E12EF12C0E94B328282F49
:1038C000C7018C549F4F68E671E00E948C298E19C5
:1038D0009F0997FD039695958795959587952370F4
:1038E000612F289F600D11247D2D802F0E949A1B2F
:1038F000462F282F672FCE01DF91CF911F910F9177
:10390000FF90EF90DF900C94C21ADF91CF911F913E
:103910000F91FF90EF90DF9008958091A0038111A7
:1039200012C08091D80080618093D8008AE18A9586
:10393000F1F700C08091D90080FD02C082E001C093
:1039400081E08093A00381E09091A003913009F081
:1039500080E00895CF92DF92EF92FF920F931F9332
:103960002FB7F894409176035091770360917803D4
:10397000709179032FBF6A017B01EE24FF248C0133
:1039800020E030E0C016D106E206F30610F4415004
:1039900051099A01281B390BC9011F910F91FF9002
:1039A000EF90DF90CF9008952FB7F8948091760331
:1039B00090917703A0917803B09179032FBF089578
:1039C0001F920F920FB60F9211248F939F93AF9374
:1039D000BF9380918403811113C0809176039091ED
:1039E0007703A0917803B09179034196A11DB11D91
:1039F0008093760390937703A0937803B093790331
:103A0000BF91AF919F918F910F900FBE0F901F901C
:103A100018959C01FC0132969FEF80E0419146177A
:103A200089F09F3F19F4411101C0982F8F5F8630B4
:103A3000A9F79F3F39F0F901E90FF11D97FDFA95BC
:103A4000628308950895CF9384E090E00E94D32884
:103A5000C82F81E290E00E94D3282C2F30E0A901EA
:103A6000582BCA01CF91089580E090E00E94DB2896
:103A700021E08C3E9E4F09F020E0822F08956CEEED
:103A80007EEF80E090E00E940F2960E082E090E00D
:103A90000E94F12860E083E090E00E94F1281092FB
:103AA000E5051092E6051092E7051092E80560E042
:103AB00084E090E00E94F12860E081E290E00E94C2
:103AC000F12860E085E090E00E94F12860E086E067
:103AD00090E00E94F1286FEF87E090E00E94F128CB
:103AE00040E050E0BA0188E090E00E94032960E0E5
:103AF0008DE090E00E94F12840E050E0BA0188E1BA
:103B000090E00E94032960E087E190E00E94F128A4
:103B100040E050E0BA018CE190E00E94032960E0AF
:103B200080E290E00E94F12840E050E0BA018FE08E
:103B300090E00E94032940E050E0BA0183E190E068
:103B40000C9403298091E40581111092E4050895F5
:103B50009091E3058091E205892B2091E105982F52
:103B6000922B909365058091E405882389F0892B39
:103B700080936505E7E6F5E097E080E0915029F055
:103B800021912223D9F38F5FF9CF81110E94A21DC9
:103B9000E0918203F0918303309731F00280F3814A
:103BA000E02D85E695E009940895BF92CF92DF92CB
:103BB000EF92FF920F931F93CF93DF938C01C090EE
:103BC000DC05D090DD05E090DE05F090DF0580910A
:103BD000E5059091E605A091E705B091E805C82AB2
:103BE000D92AEA2AFB2ACFE1D0E0D701C6010C2E60
:103BF00004C0B695A795979587950A94D2F780FD4E
:103C000004C0219790F7B12C07C0BC2EB8018C2FAF
:103C10000E94570E0197A9F38B2DDF91CF911F9131
:103C20000F91FF90EF90DF90CF90BF900895CF93CA
:103C3000DF93EC010E94D51DBE010E94570EDF915B
:103C4000CF91089527E0929F800D1124682F6695EB
:103C500066956695982F977085E0689FB00111244E
:103C600040E050E080E0FB01E40FF51FEB55FA4F18
:103C7000208130E0092E02C0369527950A94E2F79C
:103C800021703327042E01C0220F0A94EAF7822BF9
:103C90004F5F5F4F4530510531F7089527E0929F00
:103CA000800D1124E82FE695E695E695877051E0A2
:103CB00001C0550F8A95EAF785E0E89FF0011124CD
:103CC000EB55FA4F20E030E070E04081CB01022E4E
:103CD00002C0969587950A94E2F7817081958427B2
:103CE0008523842781932F5F3F4F2530310569F766
:103CF00008956093DC057093DD058093DE05909355
:103D0000DF050C9405260F931F9341E050E060E01F
:103D100070E004C0440F551F661F771F8A95D2F7C5
:103D200040955095609570958091DC059091DD05EA
:103D3000A091DE05B091DF058A019B0108231923BC
:103D40002A233B23C901B8011F910F910C94791EBE
:103D50002091E005809582238093E005982F97704D
:103D600079F430E0482F082E000C550B2417350746
:103D700039F08595859585950E94831E1092E00502
:103D800008950F931F9341E050E060E070E004C09D
:103D9000440F551F661F771F8A95D2F78091DC0567
:103DA0009091DD05A091DE05B091DF058A019B01B0
:103DB000082B192B2A2B3B2BC901B8011F910F91FE
:103DC0000C94791E6093E5057093E6058093E705F2
:103DD0009093E8050C9405268091A40590917305B5
:103DE000891719F08F5F8770FBCF0895CF9380916B
:103DF000720582958F7009F05FC080916F058823EE
:103E000009F45AC08091A405B091730570916D05B5
:103E1000A0916E05409170055091710591E07F3F32
:103E200009F090E0692FC6E08B1709F445C04115F1
:103E3000510521F0AF3F21F020E003C021E001C097
:103E4000262F90E020FD35C0C89FF001C99FF00DDE
:103E50001124EC58FA4F21812A132BC020812713FB
:103E600028C02281211125C02381348124173507E0
:103E700010F421503109241B350B26393105C8F4C3
:103E8000209172052F7020612093720526E0289FF3
:103E9000F001299FF00D1124E758FA4F80818F70AF
:103EA000806180838DE695E00E942E03CF910C9473
:103EB000EC1E01968770B8CFCF910895AF92BF9254
:103EC000CF92DF92EF92FF920F931F93CF93DF93E6
:103ED000CDB7DEB761970FB6F894DEBF0FBECDBF8A
:103EE0008C0185E0F801DE011D9601900D928A9506
:103EF000E1F7D8013C9111962C9111971296EC9014
:103F000050916D0560916E058091700590917105DD
:103F1000009731F06F3F31F441E05F3F19F403C087
:103F200041E001C040E0B42FB170BB2E40FD43C161
:103F3000F801C380D480A0906F05AA2009F4E2C0E4
:103F400040917205C816D90628F0D601A81BB90BF6
:103F5000CD0104C0809590958C0D9D1DFF24F39498
:103F60008639910548F0F12C407F09F090C08DE62C
:103F700095E00E942E0317C1842F807F09F052C064
:103F8000621312C0531310C0FE2CE1100DC04F700D
:103F90004061409372058DE695E00E942E0380916A
:103FA0007205F801858348C1CD2831F02F3F31F4E7
:103FB00081E03F3F19F403C081E001C080E080FD53
:103FC00003C081E08E2502C080E090E0F82FF17000
:103FD000FF2E80FF1CC08091A4054091730556E020
:103FE000841709F406C190E0589FF001599FF00D25
:103FF0001124EC58FA4F6181261306C060813613F4
:1040000003C06281E61203C001968770E9CFFE2CDF
:10401000EE2009F411C180917205816080937205D0
:10402000F12C0AC1621308C0531306C0E11004C08A
:1040300080917205F80199C03D872E878D859E85F8
:104040000E94DC25882369F1EE2059F12091720548
:10405000822F82958F7090E0029774F080916D05A9
:1040600090916E0598878F831986DB86CA862C8788
:10407000CE0107960E942E0386E0F801ADE6B5E07A
:1040800001900D928A95E1F70E94F61E0DC062170D
:1040900071F03D872E878D859E850E94DC258111DC
:1040A0001AC0C8010E942E03FF24F394C5C0531305
:1040B000F0CFE110EECF80917205F8018583C80141
:1040C0000E942E0386E0EDE6F5E0DF011D928A9561
:1040D000E9F7FA2CB1C0EE2021F320917205822F6E
:1040E00082958F7090E002973CF280916D059091DF
:1040F0006E059A8389831B82DD82CC822E83CE015A
:104100000196B8CFC816D90638F0C81AD90AB6E948
:10411000CB16D10450F007C0809590958C0D9D1D55
:104120008639910510F0F12C3EC0FE2CEE2009F4EA
:10413000B8CF621327C0531325C02091720520FD0C
:1041400018C0822F82958F70482F50E0411551057D
:1041500081F0F80125834F30510541F08F5F982F92
:104160009295907F822F8F70892B8583C8010E9442
:104170002E0386E0F801ADE6B5E001900D928A9538
:10418000E1F75AC03D872E878D859E850E94DC25EC
:10419000811172CF80917205816080937205C80190
:1041A0000E942E0349C0EDE6F5E086E0DF011D9296
:1041B0008A95E9F741C0EE2009F473CF3D872E8739
:1041C0008D859E850E94DC25F82E882309F469CF11
:1041D00086E0F801ADE6B5E001900D928A95E1F731
:1041E00080916D0590916E050E94171E0E94F61E2B
:1041F00023C03D872E878D859E850E94171E292FFF
:1042000022952F70223028F49F7039F0811105C05B
:104210000BC0243028F49F7049F4805E883020F071
:10422000C8010E942E03BF2CFB2C06C0D801159696
:104230009C91907F91F7F8CF8F2D61960FB6F894EF
:10424000DEBF0FBECDBFDF91CF911F910F91FF90C9
:10425000EF90DF90CF90BF90AF9008959F92AF9274
:10426000BF92CF92DF92EF92FF920F931F93CF9363
:10427000DF936C01C0911B018EE1C89FC02D1124FA
:10428000DEE1DC0FD53908F0D4E960910B066695C4
:1042900066958091FF05909100060E94901B182F53
:1042A00080E4810F0E94151B90E8F92EF80E812FF3
:1042B0000E94151B20E8922E980ECD1700F5AC2E0B
:1042C000B12CF501E853FD4F908180911C018923A9
:1042D000A1F0609108067091090680910A06E12E0E
:1042E0000C2F292D4F2DF60109950E949A1B462F60
:1042F000282F672FC5010E94C21ACF5FDECF81E051
:10430000D43908F080E0DF91CF911F910F91FF9099
:10431000EF90DF90CF90BF90AF909F9008956F92F5
:104320007F928F929F92AF92BF92CF92DF92EF9245
:104330000F931F93CF93DF933C01C0911B018EE13C
:10434000C89FC02D1124DEE1DC0FD53908F0D4E977
:1043500060910B0666958091FF05909100060E9482
:10436000901B182FCD1708F044C08C2E912CF4010F
:10437000E853FD4F908180911C018923C1F1F40124
:10438000EE0FFF1FE056FE4FC080D12C80E7C81A09
:10439000D108F401EE0FFF1FEF55FE4FA080B12CA6
:1043A000E5E2AE1AB108CC9C9001CD9C300D300DE9
:1043B0001124AA9CC001AB9C900D900D1124820F7A
:1043C000931F0E94361B082F609108067091090602
:1043D00080910A06E12E9501A601F30109950E943C
:1043E0009A1B462F282F672FC4010E94C21ACF5F45
:1043F000B9CF81E0D43908F080E0DF91CF911F91EF
:104400000F91EF90DF90CF90BF90AF909F908F90E3
:104410007F906F900895CF92DF92EF92FF920F936B
:104420001F93CF93DF936C01C0911B018EE1C89F56
:10443000C02D1124DEE1DC0FD53908F0D4E96091FC
:104440000B0666958091FF05909100060E94901BD7
:10445000182FCD1778F5EC2EF12CF701E853FD4F0E
:10446000908180911C01892319F1F701EE0FFF1F44
:10447000EF55FE4F208130E025523109F701EE0F54
:10448000FF1FE056FE4F408150E0405751096091B8
:1044900008067091090680910A06012FF601099518
:1044A0000E949A1B462F282F672FC7010E94C21A0D
:1044B000CF5FCFCF81E0D43908F080E0DF91CF919A
:1044C0001F910F91FF90EF90DF90CF900895DF92B2
:1044D000EF92FF920F931F93CF93DF937C01C091D4
:1044E0001B018EE1C89FC02D1124DEE1DC0FD53900
:1044F00008F0D4E960910B06669566958091FF05FA
:10450000909100060E94901BD82ECD17F0F40C2F2E
:1045100010E0F801E853FD4F908180911C01892340
:1045200091F0609108067091090680910A062D2D80
:104530004C2FF70109950E949A1B462F282F672FB1
:10454000C8010E94C21ACF5FE0CF81E0D43908F0E1
:1045500080E0DF91CF911F910F91FF90EF90DF905E
:104560000895EF92FF920F931F93CF93DF937C01F7
:104570008B010E94D012811119C0E70101151105AC
:10458000A1F08091E80085FD0AC08091E8008E7757
:104590008093E8000E94D012882381F307C089919C
:1045A0008093F10001501109E9CF80E0DF91CF91B4
:1045B0001F910F91FF90EF9008951F93CF93DF937A
:1045C000CDB7DEB7AA970FB6F894DEBF0FBECDBF4A
:1045D000E7EFF5E08091F100819325E0EF3FF207EE
:1045E000C9F78091F805833009F460C030F4813058
:1045F00071F0823009F49AC0B1C08A3009F486C0E3
:104600008B3009F46BC0893009F0A8C020C08091BC
:10461000F705813A09F0A2C08091E800877F809376
:10462000E8008091FB059091FC05892B21F468E05E
:104630008BEE95E003C060E080E090E070E00E94C7
:1046400091148091E8008B778093E80087C0809177
:10465000F705813209F082C08091FB059091FC053D
:10466000029708F07BC08091E800877F8093E80084
:104670008091E80082FD05C08091F5058111F8CF99
:104680006DC02091F3008091F20090E0922B029790
:1046900029F48091F1008B7F813021F48091F10029
:1046A0008093EA058091E8008B7754C08091F705EC
:1046B000813A09F053C08091FB059091FC05892B4C
:1046C00009F04CC08091E800877F8093E8008091DA
:1046D000E80080FFFCCF80911A0137C08091F70578
:1046E0008132E1F58091FB059091FC05892BB1F5B4
:1046F0008091E800877F8093E8000E9403138091F7
:10470000F90580931A010E94132628C08091F705AD
:10471000813221F58091E800877F8093E8000E9434
:1047200003138091FA058093E90518C08091F7057D
:10473000813AA1F48091E800877F8093E80080911E
:10474000E80080FFFCCF8091E9058093F100809123
:10475000E8008E778093E8000E9403138091E800C0
:1047600083FFD8C18091F7059091F805492F50E05B
:104770004A30510508F0CEC1FA01E658FF4F0C94BB
:10478000A029803821F0823809F0C4C108C0809186
:10479000F3059091F405992389F082600FC0809110
:1047A000FB058F70873008F0B5C18093E9008091D8
:1047B000EB0085FB882780F91092E9009091E800D2
:1047C000977F9093E8008093F1001092F10071C1FF
:1047D000282F2D7F09F09EC1882319F0823061F0C7
:1047E00099C18091F905813009F094C1933009F0A5
:1047F00080E08093F4052EC08091F90581112AC0D4
:104800008091FB058F702FEF280F263008F082C1B2
:104810008093E9002091EB0020FF1CC0933021F42D
:104820008091EB00806214C09091EB0090619093B6
:10483000EB0021E030E0A90102C0440F551F8A952A
:10484000E2F74093EA001092EA008091EB00886062
:104850008093EB001092E9008091E800877F2CC1E3
:10486000811158C11091F9051F778091E30080787C
:10487000812B8093E3008091E800877F8093E8009C
:104880000E9403138091E80080FFFCCF8091E30039
:1048900080688093E300111102C082E001C083E0D0
:1048A0008093F50537C18058823008F033C180917C
:1048B000F9059091FA058C3D53E0950779F583E071
:1048C0008A838AE289834FB7F894DE01139620E049
:1048D0003EE051E2E32FF0E050935700E49120FFD7
:1048E00003C0E295EF703F5FEF708E2F90E0EA30EB
:1048F00010F0C79601C0C0968D939D932F5F243111
:1049000049F74FBF8091E800877F8093E8006AE213
:1049100070E0CE0101960E949114BAC04091FB054F
:104920005091FC05292F332723303105B1F068F46D
:104930002130310509F4FDC02230310509F0EAC00B
:104940008BE390E0EAE5F5E050C02132310581F1DA
:104950002232310509F439C0DDC099278130910533
:10496000B9F070F082309105D9F0039709F0D2C008
:10497000E7EAF5E0E4918E2F90E0E7EAF5E032C057
:10498000E5ECF5E0E4918E2F90E0E5ECF5E02AC04F
:10499000E7EBF5E0E4918E2F90E0E7EBF5E022C045
:1049A000EDEAF5E0E4918E2F90E0EDEAF5E01AC033
:1049B0004115510509F4C2C04130510509F0AAC0A2
:1049C00089E090E0E5E8F5E010C04115510509F4F3
:1049D000BAC04130510509F09DC086E390E0E4EE95
:1049E000F4E003C0009709F495C02091E800277F08
:1049F0002093E8002091FD053091FE058217930772
:104A000008F49C0140E02115310589F18091F505FC
:104A1000882309F43DC08530D9F18091E80083FDF9
:104A200037C08091E80082FD2FC08091E80080FFB0
:104A3000EACF4091F3008091F20090E0942B211591
:104A4000310559F08830910540F444914093F100CC
:104A50003196215031090196F2CF41E0089709F0D3
:104A600040E08091E8008E778093E800CCCF411140
:104A7000CDCF0AC08091F505882351F0853041F0F3
:104A80008091E80083FD04C08091E80082FFF2CFAE
:104A90008091E8008B778093E8003CC08038D1F5A6
:104AA0008091E800877F8093E8008091F6058093ED
:104AB000F1008091E8008E778093E8000E94031354
:104AC00029C0811127C08091F9059091FA05992795
:104AD000029704F58091E800877F8093E8001091A9
:104AE000F9051093F6050E940313111106C0809179
:104AF000E30087FD02C081E001C084E08093F505FA
:104B000042E061EC81E00E94221342E261EC82E02B
:104B10000E9422138091E80083FF1AC08091E80070
:104B2000877F8093E8008091EB0080628093EB00A8
:104B30000FC082E190E0E5E9F5E057CF89E090E031
:104B4000ECE6F5E052CF80E490E0EAE1F5E04DCF0D
:104B5000AA960FB6F894DEBF0FBECDBFDF91CF91FE
:104B60001F910895882341F080959091E205892353
:104B70008093E2050C94A81D0895882339F0909144
:104B8000E205892B8093E2050C94A81D08958823E3
:104B900041F080959091E30589238093E3050C947F
:104BA000A81D0895882339F09091E305892B8093FF
:104BB000E3050C94A81D08950E94171E292F2F703D
:104BC000E92FE295EF704E2F50E0FA013297EE3068
:104BD000F105B8F4EC57FF4F0C94A029803F99F0F1
:104BE00018F4883E70F40FC0843F59F40CC0883E1E
:104BF00050F0813F31F407C0822F869586958695C7
:104C0000089580E0089581E008951092E2051092E1
:104C1000E1050E94A81D80E090E00E94DA1980E082
:104C200090E00C94C4191092E30586E0E7E6F5E005
:104C3000DF011D928A95E9F70C9405268823A9F1D6
:104C40009CEF980F913A60F4E5E6F5E092818913C4
:104C500001C01282319645E0EB36F407B9F714C073
:104C600090E2980F983090F4877021E030E0A9012D
:104C700002C0440F551F8A95E2F7CA0180959091B2
:104C8000E30589238093E3050C94A81D9BE5980F09
:104C9000933020F480E090E00C94DA19885A873140
:104CA00020F480E090E00C94C4190895882309F45E
:104CB000C4C09CEF980F913A30F4682F85E695E0D8
:104CC0000E94091D13C090E2980F983088F48770F5
:104CD00021E030E0A90102C0440F551F8A95E2F798
:104CE000CA019091E305892B8093E3050C94A81DDC
:104CF0009BE5980F933070F4853A29F0863A31F0AD
:104D000083E890E005C081E890E002C082E890E08E
:104D10000C94DA1998E5980F973108F08EC0883A0C
:104D200009F445C0893A09F445C08A3A09F445C0F6
:104D30008B3A09F445C08C3A09F445C08B3B09F421
:104D400045C08C3B09F445C08D3A09F445C0803B11
:104D500009F445C08E3A09F445C08F3A09F445C0BC
:104D6000813B09F445C0823B09F445C0833B09F40B
:104D700045C0843B09F445C0853B09F445C0863BEA
:104D800009F445C0873B09F445C0883B09F445C098
:104D9000893B09F445C08D3B09F445C08E3B09F4BD
:104DA00045C08A3B09F445C080E090E044C082EEF3
:104DB00090E041C089EE90E03EC08AEE90E03BC0BA
:104DC00085EB90E038C086EB90E035C083EB90E057
:104DD00032C084EB90E02FC087EB90E02CC08CECCD
:104DE00090E029C08DEC90E026C083E891E023C0DC
:104DF0008AE891E020C082E991E01DC084E991E059
:104E00001AC081E292E017C083E292E014C084E20B
:104E100092E011C085E292E00EC086E292E00BC003
:104E200087E292E008C08FE690E005C080E790E05E
:104E300002C08AE292E00C94C41908958EE14B9B63
:104E400002C08150E1F74B9BFECF08955B9880E252
:104E50008A95F1F75B9A0895FC012AE02A95F1F70B
:104E600028E090E080E031E040E14A95F1F7880FDA
:104E70004B9B02C08160932700C0000040E14A952F
:104E8000F1F7215089F720E12A95F1F729B100C007
:104E9000000030E13A95F1F723FB222720F9922711
:104EA0002081920F90830895EF92FF920F931F93AA
:104EB000CF93DF931F92CDB7DEB719828C017C01AF
:104EC000E60EF11C0E151F0551F00E941E27CE01A3
:104ED00001960E942C27F80181938F01F3CF81E086
:104EE0009981911180E00F90DF91CF911F910F91E7
:104EF000FF90EF90089590930D0680930C06539ABF
:104F00005B9A089590930D0680930C0653985B9AD4
:104F1000EB9AE9E6F0E080818F7380830895615019
:104F200091E001C0990F6A95EAF720E031E09923FA
:104F300061F0492F482319F05B9A232701C05B9841
:104F400040E24A95F1F79695F2CF222311F05B9A51
:104F500001C05B9880E28A95F1F75B980895FF9213
:104F60000F931F93CF93DF93EC018C01060F111D5C
:104F7000C017D10741F0F9900E94262768E08F2DD5
:104F80000E948F27F5CFDF91CF911F910F91FF9056
:104F900008951F920F920FB60F9211242F933F93F3
:104FA0004F935F936F937F938F939F93AF93BF9331
:104FB000CF93DF93EF93FF935B98539AC0910C06C6
:104FC000D0910D066D81662321F08E819F810E9414
:104FD000AF270E94262780E18A95F1F75B985398C6
:104FE0005B9A80E18A95F1F76A81662351F08B81A3
:104FF0009C810E945427E881F981811104C082E0DC
:1050000003C0E881F98188E080830E941E27FF9118
:10501000EF91DF91CF91BF91AF919F918F917F9150
:105020006F915F914F913F912F910F900FBE0F9015
:105030001F901895CF93DF93C0910C06D0910D0669
:10504000F894539A5B9885E08A95F1F7000053989D
:105050005B9A80E28A95F1F74B9B0AC0539A5B9A60
:10506000E881F98181E08083789481E090E02CC030
:105070006D81662381F08E819F810E94542781116A
:105080000AC0539A5B9AE881F98182E08083789420
:1050900082E090E019C00E941E2780E28A95F1F715
:1050A0005B98539A80E18A95F1F76A81662321F033
:1050B0008B819C810E94AF270E942627E881F9817D
:1050C0001082789480E090E0DF91CF9108958F92E4
:1050D0009F92AF92BF92CF92DF92EF92FF92CF93C7
:1050E000DF93EC01688179818A819B81611571056B
:1050F0008105910521F464E279ED8BE597E02DE1DE
:1051000033EF41E050E00E94152949015A019B010B
:10511000AC01A7EAB1E40E9434296B017C01ACEE3A
:10512000B4EFA50194010E944229DC01CB018C0D52
:105130009D1DAE1DBF1DB7FF03C00197A109B0485B
:1051400088839983AA83BB839F77DF91CF91FF9058
:10515000EF90DF90CF90BF90AF909F908F90089589
:105160000E946728089580E091E00E9467280895D2
:10517000A0E0B0E08093000190930101A0930201B0
:10518000B09303010895DC01CB01FC01F999FECF36
:1051900006C0F2BDE1BDF89A319600B40D924150BF
:1051A0005040B8F70895F999FECF92BD81BDF89AA5
:1051B000992780B50895A8E1B0E042E050E00C9452
:1051C000C528DC01A40FB51F4150504048F0CB0169
:1051D000840F951F2E910E94F22841505040D0F725
:1051E0000895262FF999FECF92BD81BDF89A0197B7
:1051F00000B4021639F01FBA20BD0FB6F894FA9A1F
:10520000F99A0FBE08950396272F0E94F2280E9454
:10521000F128252F0E94F228242F0C94F2280196C1
:10522000272F0E94F2280C94F128052E97FB1EF4DC
:1052300000940E942C2957FD07D00E94472907FCA3
:1052400003D04EF40C942C2950954095309521951F
:105250003F4F4F4F5F4F08959095809570956195A2
:105260007F4F8F4F9F4F08950E946929A59F900DF2
:10527000B49F900DA49F800D911D11240895B7FF38
:105280000C9434290E943429821B930B0895A1E2C7
:105290001A2EAA1BBB1BFD010DC0AA1FBB1FEE1FB0
:1052A000FF1FA217B307E407F50720F0A21BB30BFB
:1052B000E40BF50B661F771F881F991F1A9469F777
:1052C00060957095809590959B01AC01BD01CF01D3
:1052D0000895A29FB001B39FC001A39F700D811DCF
:1052E0001124911DB29F700D811D1124911D0895EF
:1052F000AA1BBB1B51E107C0AA1FBB1FA617B707FC
:1053000010F0A61BB70B881F991F5A95A9F7809517
:105310009095BC01CD01089597FB072E16F40094DB
:1053200007D077FD09D00E94782907FC05D03EF40C
:10533000909581959F4F0895709561957F4F089541
:10534000EE0FFF1F0590F491E02D0994F894FFCF24
:105350000100000003FFFF7503007503076E0301E2
:10536000DE115512DD111F12E1110100FF0000FFD7
:10537000FF6636353497C6000000000000F0F1F4F7
:10538000F5F6F767003131295A1B750A00FF010055
:10539000010000FFFF0000010001FF000001020307
:1053A0000405060708090A0B0C0D0E0F1011121345
:1053B0001415161718191A1B1C1D1E1F202122FF59
:1053C000FFFFFFFF21224A4B4C4D4E4F505152538D
:1053D0005455565758595A5B5C5D5E5F6061626315
:1053E0006465666768696A6B6BFFFFFFFFFF6B6B45
:1053F0000B0E1C0E2A0E380E460E540E660E0B1C9B
:105400001C1C2A1C381C461C541C62190B2A1C2A02
:105410002A2A382A462A542A62270B381C382A3866
:1054200038384638543862350B461C462A463846CA
:10543000464653575D610042003400260018000ABA
:105440001F0026002E0036003D0045004C00540091
:105450006D0B6D186D276D356E4970556A5F5F6213
:10546000535B47543A4D2A4A1C4A0E4A0258026777
:10547000027502840A9119912791369145914F88BE
:10548000577C5E6FD50EC40EB60EA80E9A0E8C0E0B
:105490007A0ED51CC41CB61CA81C9A1C8C1C7E1928
:1054A000D52AC42AB62AA82A9A2A8C2A7E27D53831
:1054B000C438B638A8389A388C387E35D546C446B4
:1054C000B646A8469A468D578361E042E034E0260E
:1054D000E018E00AC100BA00B200AA00A3009B00D5
:1054E00094008C00730B73187327733572497055D1
:1054F000765F81628D5B9954A64DB64AC44AD24A02
:10550000DE58DE67DE75DE84D691C791B991AA9127
:105510009B919188897C826F010404040404010139
:105520000404040404010104040404040101040447
:10553000040404010101010101010102020202024D
:10554000020202020202020202020202020202023B
:10555000020202020202020202020202020202022B
:10556000020201040404040401010404040404010B
:1055700001040404040401010404040404010101FD
:105580000101010101020202020202020202020200
:1055900002020202020202020202020202020202EB
:0C55A000020202020202020202020202E7
:00000001FF
