:100000000C94AE050C94F5050C94F5050C94F505CF
:100010000C94522C0C94F5050C94F5050C94F505F4
:100020000C94F5050C94F5050C94BF190C947B19F0
:100030000C947B2B0C94F5050C94F5050C94F505AC
:100040000C94F5050C94F5050C94F5050C94F50548
:100050000C94F5050C949A1A0C94F5050C94F5057E
:100060000C94F5050C94F5050C94F5050C94F50528
:100070000C94F5050C94F5050C94F5050C94F50518
:100080000C94F5050C94F5050C94F5050C94F50508
:100090000C94F5050C94F5050C94F5050C94F505F8
:1000A0000C94F5050C94F5050C94F505A900AA002F
:1000B000A900AA00010001000100010001000100E7
:1000C0000100010001000100010001000001010127
:1000D0000101010101010202020202020202020305
:1000E00003030303030303040404040404040505D5
:1000F0000505050606060606070707070708080898
:1001000008090909090A0A0A0B0B0B0C0C0C0D0D46
:100110000D0E0E0E0F0F0F101011111112121313DE
:100120001414151516161717181819191A1A1B1B57
:100130001C1D1D1E1E1F20202122222324242526B3
:1001400026272829292A2B2C2D2D2E2F30313232EB
:10015000333435363738393A3B3C3D3E3F404142F7
:10016000434445464748494A4C4D4E4F50515354DD
:10017000555658595A5B5D5E5F6162646566686991
:100180006B6C6D6F7072737577787A7B7D7E808211
:10019000838587888A8C8E8F91939596989A9C9E5A
:1001A000A0A2A3A5A7A9ABADAFB1B3B5B7BABCBE6A
:1001B000C0C2C4C6C9CBCDCFD1D4D6D8DBDDDFE237
:1001C000E4E7E9EBEEF0F3F5F8FAFDFF00AF165CBB
:1001D0001E001F002000210022002D002B00140013
:1001E0001A000800150017002F00394204001600FD
:1001F000070009000A002602E1001D001B0006009E
:10020000190005002F02E000E300E200C25C035188
:100210002C004C00000000000000000000002C003A
:100220004C002A00270026002500240023002E0071
:100230003100130012000C0018001C0030003400C4
:1002400033000F000E000D000B00270228003800BD
:10025000370036001000110030024F0052005100EC
:10026000500002512C002800000000000000000097
:1002700000002C002800165C1E001F00200021003A
:1002800022002D002B0014001A00090013000A00A0
:100290002F0039420400150016001700070026023F
:1002A000E1001D001B000600190005002F02E00000
:1002B000E300E200C25C03512C004C00000000008F
:1002C0000000000000002C004C002A00270026003F
:1002D0002500240023002E00310033001C001800EC
:1002E0000F000D003000340012000C000800110057
:1002F0000B002702280038003700360010000E00DF
:1003000030024F0052005100500002512C002800D2
:10031000000000000000000000002C0028003A004F
:100320003B003C003D003E003F00010001004E004C
:1003300052004B000100010001000100500051007B
:100340004F00010001000100010001000100010057
:10035000010001000100010001000100C35C010077
:10036000010001000000000000000000000001008A
:1003700001004500440043004200410040004600A7
:100380004A0046004B0052004E00010047004D005D
:1003900049004F00510050000100530001000100CE
:1003A00001000100010001000100A900AA00A8004D
:1003B000AB00AE00010001000000000000000000E2
:1003C0000000010001003A003B003C003D003E00FF
:1003D0003F0001000100C85CC95CC75C005C010013
:1003E00001000100C65CCA5CC55C085D010001003B
:1003F0000100CC5C0100CB5C0100010001000100A8
:1004000001000100C35C01000100010000000000C8
:10041000000000000000010001004500440043000E
:100420004200410040000100010001006100600045
:100430005F0001000100010001005E005D005C0042
:1004400001000100010001005B005A005900010099
:1004500001000152005253006300620001000100DC
:10046000000000000000000000000100010000DAB0
:1004700002818FD9F1DB40A4A62EAF00A0C000A15D
:10048000C800AED580A81FD300408D1420002020C6
:10049000202020005343524C4B00202020202000DD
:1004A0004341504C4B002020202020004E554D4C05
:1004B0004B002D2D2D2D2D00554E44454600414419
:1004C0004A202000464E20202000434C4D4B200067
:1004D0004241534520004C61796572009B9C9D9E72
:1004E0009FBBBCBDBEBFDBDCDDDEDF008081828365
:1004F0008485868788898A8B8C8D8E8F9091929344
:1005000094A0A1A2A3A4A5A6A7A8A9AAABACADAE8E
:10051000AFB0B1B2B3B4C0C1C2C3C4C5C6C7C8C905
:10052000CACBCCCDCECFD0D1D2D3D40000270000BF
:10053000000F00FF2F00AE05010980A10185031AFD
:1005400081002A83001601002603009501751081A1
:1005500000C0050C0901A10185041A01002A9C02B2
:10056000160100269C02950175108100C005010945
:1005700006A101050719E029E71500250195087571
:100580000181029501750881010507190029FF15F0
:100590000026FF0095067508810005081901290548
:1005A000950575019102950175039101C009023B02
:1005B00000020100A032090400000103010100094A
:1005C00021110100012240000705810308000A09EA
:1005D000040100010300000009211101000122367D
:1005E000000705820320000A120110010000000824
:1005F000EDFE603002000102030104033000000040
:10060000080353006F006C0000000C035200470009
:1006100042004B00420000000403090400000000F7
:1006200000003E5B4F5B3E003E6B4F6B3E001C3E4E
:100630007C3E1C00183C7E3C18001C577D571C005B
:100640001C5E7F5E1C0000183C180000FFE7C3E73B
:10065000FF00001824180000FFE7DBE7FF00304828
:100660003A060E00262979292600407F0505070055
:10067000407F05253F005A3CE73C5A007F3E1C1C4A
:100680000800081C1C3E7F0014227F2214005F5FBC
:10069000005F5F0006097F017F00006689956A00A0
:1006A00060606060600094A2FFA2940008047E0471
:1006B000080010207E20100008082A1C0800081CD2
:1006C0002A0808001E10101010000C1E0C1E0C0032
:1006D00030383E383000060E3E0E060000000000A6
:1006E000000000005F000000000700070000147F0A
:1006F000147F1400242A7F2A120023130864620046
:10070000364956205000000807030000001C224113
:1007100000000041221C00002A1C7F1C2A0008083F
:100720003E08080000807030000008080808080033
:100730000000606000002010080402003E5149459E
:100740003E0000427F400000724949494600214175
:10075000494D33001814127F1000274545453900D4
:100760003C4A4949310041211109070036494949AC
:100770003600464949291E000000140000000040D0
:100780003400000000081422410014141414140052
:100790000041221408000201590906003E415D593A
:1007A0004E007C1211127C007F49494936003E41BF
:1007B000414122007F4141413E007F49494941007A
:1007C0007F09090901003E41415173007F08080873
:1007D0007F0000417F4100002040413F01007F0831
:1007E000142241007F40404040007F021C027F00F5
:1007F0007F0408107F003E4141413E007F09090906
:1008000006003E4151215E007F0919294600264914
:100810004949320003017F0103003F4040403F004F
:100820001F2040201F003F4038403F006314081441
:1008300063000304780403006159494D4300007FBD
:1008400041414100020408102000004141417F0065
:100850000402010204004040404040000003070839
:1008600000002054547840007F2844443800384425
:1008700044442800384444287F0038545454180015
:1008800000087E09020018A4A49C78007F080404D4
:10089000780000447D4000002040403D00007F1073
:1008A0002844000000417F4000007C047804780068
:1008B0007C0804047800384444443800FC1824249C
:1008C000180018242418FC007C080404080048546C
:1008D0005454240004043F4424003C4040207C0045
:1008E0001C2040201C003C4030403C004428102884
:1008F00044004C9090907C004464544C44000008A8
:10090000364100000000770000000041360800007A
:100910000201020402003C2623263C0000000000E5
:1009200080000000008080800000000080808080C7
:1009300080808000000000000000000000800000B7
:10094000000000000000008000000C90B0E0723158
:100950009BDECEECEEE9E9ECCFDA993E62E4C470BE
:1009600010100000000000000060C0C08080028500
:10097000858785898992EAC6C448506040404040D6
:10098000C0E05028101060C040404040808080800F
:1009900080E0F8FCF8F000000000E0F0F0F0E0EC9F
:1009A000EEF7F37020007C7C7C7E007E7E7E7F7F75
:1009B0007F000080C0E07E5B4F5BFEC00000000057
:1009C000F0F4ECDEDEBE3E3E3F3F1F1F1F1F1F3F09
:1009D0003F3E3EBEDEDEECF4F00000000000007F93
:1009E000808080700F0000807F00007F808080808A
:1009F0008080807F000080808080808080FF000079
:100A0000000000000000004021333B7BFF007CFF22
:100A1000FFFFFFFFFFFFFFFFFFFFFFFF7C01FFDE88
:100A20008C040C08000000000000000101017F8020
:100A300080BEBE808080C1FF8004325E1C3D2610D7
:100A4000C1FF3E00000836C108081477949494F75B
:100A500094F79C9CFFFF1E0000000F1F3F7F7F7FCD
:100A60007F7F3F1E0C001F1F1F3F003F3F3F7F7FC8
:100A70007F00307B7F7830202030787F3B00000083
:100A8000010F3FFFFFFFFCE08000000000000000BE
:100A900080E0FCFFFFFF3F0F0100000000000000AE
:100AA0000000000000000000000000000000000046
:100AB0000000000000000000000000000000000036
:100AC0000000000000000000000602064D4F8CF9F7
:100AD0007337272F2FAFEF6F77173379CC1F312064
:100AE000210202000000000000000000000040E0C1
:100AF000A0A0D0904848252B110905030101010150
:100B000001010103020403010101010101000000D0
:100B100000030F1F0F030000000000000000000092
:100B200000000000000000000000000000000000C5
:100B300000000000000000000000000000000000B5
:100B40000000000003070F1F3F7FFEFC00FCFE7F3C
:100B50003F1F0F07030000000000000011241FBE0C
:100B6000CFEFDAE0DEBFCDBF04B603FE27C0809131
:100B7000570890915808A0915908B0915A088730A9
:100B8000904BA740B04BD1F41092570810925808E0
:100B90001092590810925A0814BE84B7877F84BFF8
:100BA0000FB6F894A89580916000886180936000EA
:100BB000109260000FBEE0E0F8E3099528E0ACE693
:100BC000B3E001C01D92A735B207E1F713E0A0E042
:100BD000B1E0EAE1FFE502C005900D92AC36B10745
:100BE000D9F70E94D1270C943B2F0C940000E8ED1C
:100BF000F0E080818E7F80831092E2001092DA0014
:100C00001092E100A0EEB0E08C9181608C93808125
:100C10008F77808319BCA7EDB0E08C918E7F8C9389
:100C200080818F7E80831092260608952091E400B3
:100C30003091E50095E6A9012091EC00822F8170AA
:100C400020FF06C08091E80080FF06C080E0089584
:100C50002091E80022FD1AC080913306882389F094
:100C6000853089F08091EB0085FD0FC02091E40074
:100C70003091E50042175307F9F29150E1F684E014
:100C8000089582E0089583E0089581E00895EF9249
:100C9000FF920F931F93CF937C018B010E94160646
:100CA000C82F811117C08091E80085FD0BC080918D
:100CB000E8008E778093E8000E941606882399F357
:100CC000C82F08C0F70181917F018093F100015086
:100CD000110949F78C2FCF911F910F91FF90EF9041
:100CE00008958091350687FF13C08091E80082FF48
:100CF00006C08091E8008B778093E80004C0809163
:100D000033068111F2CF0895809133068823D9F3F9
:100D10008091E80080FFF8CF8091E8008E77ECCFDB
:100D2000982F9093E900242F762F50E0891731F007
:100D30007091EC002091ED005091F00021FD07C072
:100D40009F5F973071F78093E90081E008953091BB
:100D5000EB003E7F3093EB003091ED003D7F309310
:100D6000ED003091EB0031603093EB007093EC00BC
:100D70002093ED005093F0002091EE0027FDE0CF8E
:100D800080E00895CF92DF92EF92FF920F931F932E
:100D9000CF93DF93C8EDD0E088818F7E8883E7ED25
:100DA000F0E080818160808384E082BF81E0809375
:100DB000260688818E7F888302EE10E0F80110827B
:100DC0001092DA0081EEC82ED12CF60110828881B3
:100DD0008F77888388818068888388818F7D8883E6
:100DE00019BC1092330610923406109232061092FB
:100DF000310690EEE92EF12CF70180818B7F808304
:100E000088818160888342E060E080E00E949006F3
:100E1000F60180818E7F8083F801808181608083EC
:100E2000808188608083F70180818E7F80838881C4
:100E300080618883DF91CF911F910F91FF90EF9098
:100E4000DF90CF900895FC0180913B0690913C0685
:100E500086179707A0F06115710529F49091E800B5
:100E60009E779093E80090E06115710551F491111F
:100E700008C08091E80082FF34C080E00895BC0182
:100E8000F2CF809133068823C1F18530C1F1809182
:100E9000E80083FD30C08091E80082FDEACF8091B8
:100EA000E80080FFE1CF8091F3002091F200382F1D
:100EB0006115710519F02830310558F091E028309E
:100EC000310509F090E02091E8002E772093E800AA
:100ED000CBCF81918093F100615071092F5F3F4F1B
:100EE000E7CF80913306882341F0853041F080912F
:100EF000E80083FFBECF81E0089582E0089583E09B
:100F000008950895809128060895CF92DF92EF9278
:100F1000FF920F931F932FB7F8944091C205509101
:100F2000C3056091C4057091C5052FBF6A017B019F
:100F3000EE24FF248C0130E020E0C016D106E2064A
:100F4000F30650F0481B590BCA011F910F91FF90F7
:100F5000EF90DF90CF90089541505109F3CF2FB714
:100F6000F8946091C2057091C3058091C405909179
:100F7000C5052FBF08959C01FC0132969FEF80E0CC
:100F80004191461751F09F3F19F4411101C0982F2C
:100F90008F5F8630A9F79F3F09F40895290F311D0F
:100FA00097FD3A95F90162830895CF92DF92EF920F
:100FB000FF926C01EE24FF2420E0C114D104E1046F
:100FC000F10419F0C701B60120E1C72ED82EE92E91
:100FD000FF24C114D104E104F10419F0285FC70112
:100FE000B6016B017C0154E0F694E794D794C79462
:100FF0005A95D1F7C114D104E104F10419F02C5F22
:10100000C701B6016B017C0142E0F694E794D794E6
:10101000C7944A95D1F7C114D104E104F10419F041
:101020002E5FC701B6019695879577956795672BD3
:10103000682B692B09F02F5F822FFF90EF90DF90D4
:10104000CF9008958091C10581111092C105089536
:101050008091C0059091BF05892B9091BE05892B89
:1010600080936C039091C105992391F0892B809313
:101070006C0320E08EE693E0FC013191CF01311149
:101080002F5FF3E084379F07B9F721110E942208F0
:10109000E091D905F091DA05309731F00280F381C3
:1010A000E02D8CE693E00994089527E0929F800D4F
:1010B0001124982F977086958695869525E0829FB6
:1010C000F0011124EA57FA4F50E040E080E021910E
:1010D00030E0092E02C0369527950A94E2F7217078
:1010E0003327042E01C0220F0A94EAF7822B4F5FA8
:1010F0005F4F4530510559F7089527E0929F800DC5
:101100001124982F977041E001C0440F9A95EAF797
:1011100086958695869595E0899FF0011124EA577A
:10112000FA4F90E080E070E05191DF0111979B0150
:10113000082E02C0369527950A94E2F72170219572
:101140002527242325272C9301968530910561F7C7
:1011500008958091850590915405981301C00895D4
:101160008F5F8770FACF882341F080959091BF05FB
:1011700089238093BF050C9428080895882339F0AB
:101180009091BF05982B9093BF050C942808089563
:10119000882341F080959091C00589238093C005F4
:1011A0000C9428080895882339F09091C005982B55
:1011B0009093C0050C94280808952091480530911B
:1011C00049052817390771F0909349058093480520
:1011D000E091D905F091DA05309721F00084F1858E
:1011E000E02D099408952091460530914705281770
:1011F000390771F09093470580934605E091D90532
:10120000F091DA05309721F00680F781E02D0994FE
:1012100008951092BF051092BE050E94280890E024
:1012200080E00E94F30890E080E00C94DD08609379
:10123000EC057093ED058093EE059093EF050C940B
:1012400009090F931F9341E050E060E070E004C093
:10125000440F551F661F771F8A95D2F7CB01BA013D
:1012600060957095809590950091EC051091ED0535
:101270002091EE053091EF056023712382239323A3
:101280001F910F910C9417099091BD0580958923AA
:101290008093BD05282F277071F4282F082E000C8D
:1012A000330B9217130639F08595859585950E9425
:1012B00021091092BD0508950F931F9341E050E05E
:1012C00060E070E004C0440F551F661F771F8A95C9
:1012D000D2F78091EC059091ED05A091EE05B091CB
:1012E000EF058A019B01082B192B2A2B3B2BC901E7
:1012F000B8011F910F910C9417096093E805709342
:10130000E9058093EA059093EB050C94090988237D
:10131000B1F19CEF980F913A70F4EEE6F3E0919101
:10132000891303C0DF0111971C9243E0E437F407EF
:10133000B1F70C94280890E2980F983088F48770E1
:1013400021E030E0A90102C0440F551F8A95E2F761
:10135000CA0180959091C00589238093C005E9CF8B
:101360009BE5980F933020F490E080E00C94F30814
:10137000885A873120F490E080E00C94DD080895CD
:10138000882309F4C1C09CEF980F913A38F4682F74
:101390008CE693E00E94BB070C94280890E2980F1B
:1013A000983068F4877021E030E001C0220F8A9500
:1013B000EAF78091C005822B8093C005EDCF9BE5B5
:1013C000980F933070F4853A31F0863A39F083E81B
:1013D00090E00C94F30881E890E0FBCF82E890E085
:1013E000F8CF98E5980F973108F08EC0883A09F445
:1013F00046C0893A09F446C08A3A09F446C08B3A95
:1014000009F446C08C3A09F446C08B3B09F446C047
:101410008C3B09F446C08D3A09F446C0803B09F480
:1014200046C08E3A09F446C08F3A09F446C0813B63
:1014300009F446C0823B09F446C0833B09F446C028
:10144000843B09F446C0853B09F446C0863B09F459
:1014500046C0873B09F446C0883B09F446C0893B37
:1014600009F446C08D3B09F446C08E3B09F446C0E2
:101470008A3B09F446C090E080E00C94DD0882EEDF
:1014800090E0FBCF89EE90E0F8CF8AEE90E0F5CFC8
:1014900085EB90E0F2CF86EB90E0EFCF83EB90E02E
:1014A000ECCF84EB90E0E9CF87EB90E0E6CF8CECDB
:1014B00090E0E3CF8DEC90E0E0CF83E891E0DDCFEA
:1014C0008AE891E0DACF82E991E0D7CF84E991E030
:1014D000D4CF81E292E0D1CF83E292E0CECF84E21A
:1014E00092E0CBCF85E292E0C8CF86E292E0C5CF12
:1014F00087E292E0C2CF8FE690E0BFCF80E790E036
:10150000BCCF8AE292E0B9CF0895E091D905F0917D
:10151000DA05309721F00190F081E02D099480E008
:101520000895FA01811101C0FB010994E5E8F3E097
:10153000818360834283339695E0E134F907C1F7F4
:101540000895FC01EE0FFF1FE80FF91FEB57FC4F4A
:1015500061834083228308950C94960A0C94A10A17
:101560000F931F9310E0F801EE0FFF1FE155FE4FA0
:101570009081905797FD9195000F111FF801E0554C
:10158000FE4F00810552110B2003F001219FF00D49
:10159000112408E310E0091B110997FD139540037E
:1015A0009001419F300D1124E20FF31F9F01220F84
:1015B000331F2E0F3F1F37FF02C021583F4F220F0E
:1015C000232F221F330B620F1F910F9108950F934A
:1015D0001F93522F10E0F801EE0FFF1FE055FE4F52
:1015E000A081A552BB0B9D015203F001539FF00D4A
:1015F0001124000F111FD801A155BE4F0C910057A7
:10160000110B40039001419F300D11242E0F3F1FFD
:1016100037FF02C0215C3F4F96E0359527959A959C
:10162000E1F7620F1F910F9108950F931F93522FAF
:1016300010E0F801EE0FFF1FE055FE4FA081A5520C
:10164000BB0B9D015203F001539FF00D1124000FBD
:10165000111FD801A155BE4F0C910057110B40032B
:101660009001419F300D11242E0F3F1F37FF02C004
:1016700021583F4F220F232F221F330B620F1F9140
:101680000F910895EF920F93972F23E0029FB001DF
:101690001124759567956E0D792F0F91EF90089530
:1016A000322F50E0FA01EE0FFF1FE055FE4F908100
:1016B000955297FD9195440F551FFA01E155FE4F44
:1016C0002081231B330B290F311D97FD3A95620FA3
:1016D0000895E42FF0E0EE0FFF1FE055FE4F60810C
:1016E000621B0895E42FF0E0EE0FFF1FE155FE4F5F
:1016F0006081621B0895622F0895E42FF0E0EE0FE1
:10170000FF1FE155FE4F408134EE439F412D1124D0
:10171000E82FF0E050E0445E5F4FDA01A21BB10910
:101720009D01B7FF03C031952195310993E0220F48
:10173000331F9A95E1F7AF01421B530B9A0157FDF6
:1017400020E0582F259F212D1124822F0895E42F6A
:10175000F0E0EE0FFF1FE155FE4F408134EE439F56
:10176000412D1124E72FF0E050E0445E5F4FDA0195
:10177000A21BB1099D01B7FF03C031952195310925
:1017800093E0220F331F9A95E1F7AF01421B530BF1
:101790009A0157FD20E0279F212D1124722F0895D3
:1017A000FC019B01009729F480E077FF2BC080E8C3
:1017B0000895AC0197FF04C044275527481B590BD7
:1017C000B901640F751F37FD10C0241B350BC9010B
:1017D000A5E0880F991FAA95E1F70E94FA2D80E2F3
:1017E000861BF7FF0FC081950895CB0165E0880F38
:1017F000991F6A95E1F7BA01621B730B0E94FA2DDB
:1018000080E6EECF0895EF920F93CF93DF93D72F1B
:10181000C82FC9010E19BA010E94D00B602F681B96
:101820007D2F8C2FDF91CF910F91EF9008950F9323
:10183000CF93DF93D72FC82FC901BA010E94D00BD5
:10184000682F600F7D2F8C2FDF91CF910F9108951E
:10185000EF920F931F93CF93DF93D62FC72F182F9D
:10186000C9010E19010FBA010E94D00B081B202FCD
:10187000219F212D1124822F6D2F7C2FDF91CF915D
:101880001F910F91EF900895EF920F931F93CF93B5
:10189000DF93D62F172FC82FC9010E19070FBA01D2
:1018A0000E94D00B702F781B719F712D11246D2F0A
:1018B0008C2FDF91CF911F910F91EF9008950F938F
:1018C0001F93CF93DF93D62FC72F182FC901212F36
:1018D000201B022FBA010E94D00B982F990F990F4D
:1018E000891B800F282F219F212D1124822F6D2FDE
:1018F0007C2FDF91CF911F910F9108950F931F932C
:10190000CF93DF93D62F172FC82FC901272F201B66
:10191000022FBA010E94D00B982F990F990F782FA0
:10192000791B700F719F712D11246D2F8C2FDF91FA
:10193000CF911F910F910895E82F86FDE0952E2FEE
:101940002F7086FD2F5FE695E695E695E670F0E050
:10195000E85DFE4F9181929F902D212D112492954B
:101960009F702295207F922B2081920F87FD919569
:1019700080E8890F0895AC018230910508F408953C
:101980009FEF413E8EE1580740F49A0195E036956D
:1019900027959A95E1F798E0920F61E0E62FE90F1D
:1019A000FF27FF1F9F0135952795822F229FF0016A
:1019B000239FF00DF00D11244E175F0738F49FEFB1
:1019C000920F961758F78FEF860F08952F3FE9F380
:1019D00061E0620FF6CF0F93CF93DF93D72FC82F1D
:1019E00047FD419588E390E0841B910947FD93955D
:1019F000889FB001899F700D700D1124229FC00136
:101A0000239F900D900D1124860F971F0E94BB0CF1
:101A1000982F990F890F682F600F7D2F8C2FDF91E2
:101A2000CF910F91089530E020E0869F212D969F61
:101A3000200D311D1124C9010895AF92BF92CF929C
:101A4000DF92FF920F931F93CF93DF93362F472F91
:101A5000E82FF0E0E453FF4F71110DC06491762F31
:101A6000862FDF91CF911F910F91FF90DF90CF9044
:101A7000BF90AF900895C72FD0E02491F22E022F8F
:101A800010E056E0659FC0011124EFEFF0E0BF01C8
:101A90000E94E62D832F90E0880F991F35E5369F31
:101AA000D001379FB00D11248A1B9B0B982F990FE3
:101AB000980F6F01CC1ADD0AC09ED001C19EB00DF7
:101AC000D09EB00D11248B2F949FA0011124452F7F
:101AD00055276F01C41AD50AC09EA001C19E500DA2
:101AE000D09E500D11245F01A91AB108AC9E60016F
:101AF000AD9ED00CBC9ED00C1124CD2CDD24EC1955
:101B0000FD09E09FE001E19FD00DF09FD00D112471
:101B1000ED2F62307105A1F048F46115710569F08F
:101B20006130710589F0EB2F852F07C06430710596
:101B300071F088F066307105B1F76E2F722F91CF7A
:101B4000E22F2B2F8D2FF9CFE22F252FF6CFEB2F62
:101B5000822F2D2FF2CF2B2F8F2DE52FEECF9F929F
:101B6000AF92BF92CF92DF92EF92FF920F931F93AB
:101B7000CF93DF936C01C09122018EE1C89FC02DED
:101B800011241EE11C0FB12E153910F034E9B32ECB
:101B9000609149066695669580913D0690913E0656
:101BA0000E94130DF82E80E48F0D0E949C0C90E88B
:101BB000A92EA80E8F2D0E949C0C20E8922E980E24
:101BC000D0E0CB1580F081E0143908F080E0DF919F
:101BD000CF911F910F91FF90EF90DF90CF90BF902A
:101BE000AF909F900895FE01E952FD4F8081909142
:101BF00023018923A1F060914606709147068091E8
:101C00004806EF2C0C2F292D4A2DF60109950E942C
:101C10001D0D462F282F672FCE010E94AE0A219658
:101C2000D0CF7F928F929F92AF92BF92CF92DF924E
:101C3000EF92FF920F931F93CF93DF935C01C091BC
:101C400022018EE1C89FC02D11241EE11C0FF12E30
:101C5000153910F034E9F32E6091490666958091AC
:101C60003D0690913E060E94130D782ED0E0CF15D0
:101C700090F081E0143908F080E0DF91CF911F915E
:101C80000F91FF90EF90DF90CF90BF90AF909F901B
:101C90008F907F900895FE01E952FD4F80819091D1
:101CA00023018923C9F1CE01880F991F855A9E4FC0
:101CB000FC01EC5AFF4F2081422F4057550B6A011F
:101CC0008B5A9F4FFC018081282F2552330B4901ED
:101CD000449F9001459F300D300D1124889CC00118
:101CE000899C900D900D1124820F931F0E94BB0CB4
:101CF000082F609146067091470680914806E72CB0
:101D00009401A601F50109950E941D0D462F282F6B
:101D1000672FCE010E94AE0A2196A9CFCF92DF9203
:101D2000EF92FF920F931F93CF93DF937C01C091AB
:101D300022018EE1C89FC02D11241EE11C0FD12E5F
:101D4000153910F034E9D32E6091490666958091DB
:101D50003D0690913E060E94130DC82ED0E0CD1591
:101D600068F081E0143908F080E0DF91CF911F9195
:101D70000F91FF90EF90DF90CF900895FE01E95210
:101D8000FD4F808190912301892311F1CE01880FAD
:101D9000991F855A9E4FFC01EB5AFF4F2081255217
:101DA000330B8C5A9F4FFC0140814057550B60917B
:101DB000460670914706809148060C2DF70109955B
:101DC0000E941D0D462F282F672FCE010E94AE0ABC
:101DD0002196C5CFDF92EF92FF920F931F93CF937F
:101DE000DF937C01C09122018EE1C89FC02D112498
:101DF0001EE11C0F012F153908F004E96091490616
:101E00006695669580913D0690913E060E94130D61
:101E1000D82ED0E0C01760F081E0143908F080E0DF
:101E2000DF91CF911F910F91FF90EF90DF90089578
:101E3000FE01E952FD4F808190912301892391F0A9
:101E40006091460670914706809148062D2D4C2FD3
:101E5000F70109950E941D0D462F282F672FCE01EF
:101E60000E94AE0A2196D6CF9091D70592FF06C068
:101E7000282F28712830F9F4877F846093FF06C0EB
:101E8000282F28712831F1F4877E84612091D805AC
:101E900020FF06C0382F38713830D9F4877F816031
:101EA00021FF06C0282F28712831D1F4877E816157
:101EB00094FD877E0895282F24712430F9F68B7FB6
:101EC0008860DCCF282F2471243101F78B7E886154
:101ED000DDCF382F3171313019F78E7F8860E0CF38
:101EE000282F2171213121F78E7E8861E1CFCF9398
:101EF000DF93972F70E027E0929F600D711D1124F2
:101F0000FB0134E5839FE00DF11D1124EE0FFF1F4F
:101F1000E253FE4FC591D491CE01C238D105B9F13B
:101F2000E8F5C133D10509F499C050F5C932D1059E
:101F300009F48DC0CA32D10509F497C0C11542E534
:101F4000D40708F039C1C11521E5D20708F0AEC1A8
:101F5000C83ED10508F020C1C03ED10568F5C83A99
:101F6000D10508F089C0C53AD10508F070C1C1306B
:101F7000D10511F1209709F443C02497E8F440C03B
:101F8000C533D10509F45CC0C933D105B9F6209138
:101F9000D705237089F080EE90E00EC0C33ED105D6
:101FA00091F168F4C03ED105F9F0C23ED10531F699
:101FB0002091D70522FD20C0DF91CF910895C63E24
:101FC000D10561F1C73ED10581F1C43ED10509F0CB
:101FD000B5CF2091D80521FFEFCF8091D70584FDA3
:101FE0000FC087EE90E0E8CF2091D70520FD8BC190
:101FF0003091D80530FFE0CF83EE90E024FFDCCFB6
:1020000090E080E0D9CF2091D70522FD7FC13091AB
:10201000D80530FDC0CF24FFCFCFF2CF2091D70518
:1020200023FFCACF24FDECCFDCCF2091D70523FDC1
:1020300070C13091D80531FFEECF84EE90E0BCCF77
:102040002091D70525FFB8CF89E290E0B5CF209148
:10205000D70525FFB1CF85E390E0AECF2091D7051E
:1020600026FFAACF8AE290E0A7CF2091D70526FFCE
:10207000A3CF81E390E0A0CFCF3BD10508F682EE5D
:1020800094E4C83AD10509F497CF89EE94E4C93AAB
:10209000D10509F491CF8AEE94E4CA3AD10509F446
:1020A0008BCF85EB94E4CB3AD10509F485CF86EB51
:1020B00094E4CC3AD10509F47FCF83EB94E4CB3B95
:1020C000D10509F479CF84EB94E4CC3BD10509F434
:1020D00073CF87EB94E4CD3AD10509F46DCF8CEC46
:1020E00094E4C03BD10509F467CF8DEC94E4CE3A7B
:1020F000D10509F461CF83E895E4CF3AD10509F41D
:102100005BCF8AE895E4C13BD10509F455CF82E95C
:1021100095E4C23BD10509F44FCF84E995E4C33B74
:10212000D10509F449CF81E296E4C43BD10509F415
:1021300043CF83E296E4C53BD10509F43DCF84E269
:1021400096E4C63BD10509F437CF85E296E4C73B58
:10215000D10509F431CF86E296E4C83BD10509F4F4
:102160002BCF87E296E4C93BD10509F425CF8FE652
:1021700094E4CD3BD10509F41FCF80E794E4CE3B36
:10218000D10509F419CF80E094E4CA3BD10509F0E8
:1021900013CF8AE296E410CFC11530E5D30708F0DB
:1021A00069C0C11540E4D40708F060C0DA95C115D4
:1021B000DF4108F401CF24CFC11536E5D30718F568
:1021C000C11545E5D40708F087C0C11584E5D807D7
:1021D00008F07DC09C2F96959695AE0143705527CB
:1021E000C115D34508F467C021E030E002C0220FDA
:1021F000331F4A95E2F740E2949FC0011124822BDD
:10220000932B9A68D9CEC1153AE5D30778F4C11556
:1022100049E5D40708F06AC0C11588E5D80708F475
:10222000EFCE9C2F8827806F906AC6CECE01905645
:102230008115904208F0E4CE8D2F8F710E94340FEB
:1022400090E0982F882788279F718C2B4DC081E8BC
:1022500090E4C53AD10509F4AFCE82E890E4C63ADD
:10226000D10509F4A9CE83E890E4A6CECE019F70F3
:10227000906AA2CE9E01E4E036952795EA95E1F7B3
:1022800023708C2F86958695837030E2839FC001E2
:102290001124922BC37021E030E002C0220F331FC3
:1022A000CA95E2F7822B932B9C6886CE9C2F8827B9
:1022B000816F906A81CE21E030E002C0220F331F8F
:1022C0004A95E2F740E2949FC0011124EBCF9C2F86
:1022D0008827846F906A70CE8C2F0E94340F90E014
:1022E000982F882788279F71906266CE8C2F8F70D9
:1022F0000E94340F34E0D695C7953A95E1F7CF7038
:102300009C2F906959CE89E390E056CE82EE90E002
:1023100053CE86EE90E050CEBF92CF92DF92EF92F6
:10232000FF920F931F93CF93DF938C01C090EC0526
:10233000D090ED05E090EE05F090EF058091E80576
:102340009091E905A091EA05B091EB05C82AD92A38
:10235000EA2AFB2ACFE1D0E0BC2ED701C6010C2E21
:1023600004C0B695A795979587950A94D2F780FDF6
:102370000EC0219788F7B12C8B2DDF91CF911F9143
:102380000F91FF90EF90DF90CF90BF900895B8012C
:102390008C2F0E94770F019761F3EECFCF93DF93DD
:1023A000EC010E948C11BE01DF91CF910C94770F4C
:1023B0000E94CE11292F2F7092959F7092509E30BF
:1023C00078F4E92FF0E0E35CF04D0C940E2E803FA2
:1023D00019F020F4883E20F481E00895843FE1F371
:1023E00080E00895883EC0F3813FD1F7F5CF822F7A
:1023F0008695869586950895CF93DF939C013A95AF
:1024000021153F4168F5EC01CC27D170DC01AA27EA
:10241000B270AC01442754709C012227387094FF9D
:1024200011C080E1CD2B09F480E0AB2B09F0806274
:10243000452B09F08064232B09F08068FB01DF91B4
:10244000CF91099481E0CD2B09F480E0AB2B09F00A
:102450008260452B09F08460232B81F38860EECFE6
:10246000DF91CF9108951092C005EEE6F3E086E08B
:10247000DF011D928A95E9F70C9409091F93CF9308
:10248000DF93CDB7DEB7AA970FB6F894DEBF0FBEC5
:10249000CDBF85E396E02091F100FC012193CF01AF
:1024A000F6E08D339F07B9F780913606833009F443
:1024B0006FC0B8F4813009F446C0823009F4B0C06E
:1024C0008091E80083FF87C280913506909136069F
:1024D0009A3008F080C2E92FF0E0E55BF04D0C94F3
:1024E0000E2E8A3009F48BC08B3009F46EC089300F
:1024F00039F780913506813219F78091390690912C
:102500003A060297E8F68091E800877F8093E8001A
:102510008091E80082FF37C09091F3008091F20033
:10252000029729F48091F1008B7F813021F4809112
:10253000F100809328068091E8008B778093E80073
:102540000E947106BDCF80913506813A09F0B8CF5F
:102550008091E800877F8093E80080913906909110
:102560003A06892B61F468E089E296E070E00E9407
:1025700023078091E8008B778093E800A1CF60E08B
:1025800090E080E0F3CF809133068111C1CF98CFE6
:1025900080913506813A09F093CF80913906909168
:1025A0003A06892B09F08CCF8091E800877F8093D1
:1025B000E8008091E80080FFFCCF809121018093AA
:1025C000F1008091E8008E77B9CF80913506813295
:1025D00009F076CF8091390690913A06892B09F05F
:1025E0006FCF8091E800877F8093E8000E9471069A
:1025F00080913706809321010E94331261CF809130
:102600003506813209F05CCF8091E800877F8093A6
:10261000E8000E947106809138068093270650CF0B
:1026200080913506813A09F04BCF8091E800877F91
:102630008093E8008091E80080FFFCCF809127061E
:10264000BECF803899F0823809F0C5C18091390633
:102650008F70873008F0BFC18093E9008091EB0054
:1026600085FB882780F91092E90006C08091310629
:1026700090913206911182609091E800977F90933B
:10268000E8008093F1001092F1008091E8008E77CD
:102690009EC1882309F48CC1823009F09CC18091CD
:1026A000370681118FC1809139068F702FEF280F67
:1026B000263008F090C18093E9002091EB0020FFC4
:1026C00081C1933031F48091EB0080628093EB0004
:1026D00079C19091EB0090619093EB0021E030E0A4
:1026E00001C0220F8A95EAF72093EA001092EA00CF
:1026F0008091EB008860EACF81116DC1109137069F
:102700001F778091E3008078812B8093E300809194
:10271000E800877F8093E8000E9471068091E800BE
:1027200080FFFCCF8091E30080688093E30082E02B
:10273000111183E0809333064EC18058823008F037
:102740004AC180913706909138068C3D23E092076C
:10275000A1F583E08A838AE289834FB7F894DE018A
:10276000139620E03EE051E2E32FF0E05093570053
:10277000E49120FF03C0E295EF703F5FEF708E2F72
:1027800090E0EA30C0F0C7968D939D932F5F24317F
:1027900059F74FBF8091E800877F8093E8006AE295
:1027A00070E0CE0101960E9423078091E8008B77AC
:1027B0008093E80010C1C096E7CF40913906509150
:1027C0003A06292F33272330310509F445C078F51F
:1027D0002130310509F47BC08BE390E0EDEAF5E0B0
:1027E0002230310509F0F7C02091E800277F2093BF
:1027F000E80020913B0630913C068217930708F4CD
:102800009C0140E02115310509F070C041116EC0F6
:102810008091E80082FDC9CF80913306882329F298
:10282000853019F28091E80083FFF2CFBECF2132CC
:10283000310509F440C02232310509F0CCC0411500
:10284000510509F44EC04130510509F0C4C086E37A
:1028500090E0E7E3F5E0C8CF992781309105D9F002
:10286000009771F082309105F1F0039709F0B3C041
:10287000EAEFF5E0E4918E2F90E0EAEFF5E007C093
:10288000E8E1F6E0E4918E2F90E0E8E1F6E00097D1
:1028900009F4A1C0A9CFEAE0F6E0E4918E2F90E020
:1028A000EAE0F6E0F4CFE0E0F6E0E4918E2F90E08D
:1028B000E0E0F6E0ECCF4115510571F041305105F3
:1028C00009F089C089E090E0E8EDF5E08DCF82E184
:1028D00090E0E8EEF5E088CF89E090E0EFEBF5E0FE
:1028E00083CF80E490E0EDE6F5E07ECF8091330683
:1028F000882309F45ACF853009F457CF8091E80036
:1029000083FD53CF8091E80082FD82CF8091E80063
:1029100080FF78CF9091F3008091F200211531056E
:1029200019F08830910550F041E0089709F040E037
:102930008091E8008E778093E80064CF44914093C3
:10294000F1003196215031090196E8CF803809F025
:1029500042C08091E800877F8093E8008091340630
:102960008093F10092CE811136C01091370612305B
:1029700090F58091E800877F8093E80010933406FB
:102980000E947106112311F084E005C08091E300DC
:1029900087FDFACF81E08093330642E061EC81E06D
:1029A0000E94900642E261EC82E00E94900613C011
:1029B00080913706813079F481E0933009F080E02E
:1029C000809332061092E9008091E800877F80931F
:1029D000E8000E9471068091E80083FF0AC08091A0
:1029E000E800877F8093E8008091EB00806280930D
:1029F000EB00AA960FB6F894DEBF0FBECDBFDF91F5
:102A0000CF911F910895CF93DF93C0915308D09138
:102A100054088A30C1F420914A06CE018D54964064
:102A2000622F70E00E94E62D281B822F66E00E9434
:102A3000DA2DC82FC15018F4DF91CF91089580E2AC
:102A40000E940315F7CF8D30E9F4CD54D640209184
:102A50004A06622F70E0CE010E94E62D281B822FCD
:102A60009E01280F311D2115324018F080E0D0E082
:102A7000C0E0C80FD11DC35BD94FD0935408C09399
:102A80005308DACF96E0FE01ADE4B8E001900D9274
:102A90009A95E1F7813E08F454C086E0FE01119258
:102AA0008A95E9F7C0915308D091540846E050E068
:102AB000BE018DE498E00E94792ECD54D6409E014F
:102AC0002A5F3F4F892B21F185E0D695C7958A95DE
:102AD000E1F741E050E0CA0102C0880F991FCA9592
:102AE000E2F760914B0670914C06862B972BB9014B
:102AF000E5E076956795EA95E1F702C0440F551F2A
:102B00006A95E2F7842B952B90934C0680934B06A5
:102B100040914A06642F70E0C9010E94E62D481BCF
:102B2000463010F4240F311D211582E0380710F0D3
:102B300030E020E0235B394F309354082093530852
:102B40007BCFF6E08F9FB0011124645E794F46E0A1
:102B500050E0CE010E94702EA5CFCF93DF93EC0101
:102B6000FE018491811103C0DF91CF9108950E94ED
:102B700003152196F5CFCF92DF92EF92FF920F933C
:102B80001F93CF93DF936C017B0164E670E088E7CD
:102B90000E94F72CEC0197FD12C010E000E0F60156
:102BA000E00FF11F849164E670E00E94532DEC0168
:102BB000892B29F40F5F1F4F0E151F0581F70E9407
:102BC000D62DCE01DF91CF911F910F91FF90EF9005
:102BD000DF90CF9008950E94AF07605A75418F4FE4
:102BE0009F4F609312067093130680931406909380
:102BF000150680911606811108C062E070E08CEC29
:102C000091E00E94BB15892B19F08091160608955A
:102C100081E080931606F9CFCF9384E090E00E9484
:102C2000962EC82F81E290E00E94962E982F8C2F2E
:102C3000CF910895CF93DF9300D00F92CDB7DEB739
:102C40009C0190913306943019F599833B832A8334
:102C500082E08093E9008FEF9091E800815095FD2C
:102C600006C095ED9A95F1F700008111F5CF80919E
:102C7000E80085FF0DC050E040E063E070E0CE0169
:102C800001960E9447068091E8008E778093E800C5
:102C90000F900F900F90DF91CF910895CF93DF9316
:102CA00000D00F92CDB7DEB720913306243031F536
:102CB00023E02983805891099B838A8382E0809353
:102CC000E9008FEF9091E800815095FD06C095EDE9
:102CD0009A95F1F700008111F5CF8091E80085FF0A
:102CE0000DC050E040E063E070E0CE0101960E942C
:102CF00047068091E8008E778093E8000F900F9050
:102D00000F90DF91CF910895CF93DF93EC018091E5
:102D10003306843039F581E08093E9008FEF90919C
:102D2000E800815095FD06C095ED9A95F1F70000F9
:102D30008111F5CF8091E80085FF14C050E040E09C
:102D400068E070E0CE010E9447068091E8008E772F
:102D50008093E80088E0FE01A9E2B6E001900D92C0
:102D60008A95E1F7DF91CF910895279A35B13F77A2
:102D700025B120684FB7F89485E893E0FC015191A4
:102D8000CF0168E025B9000000C057FF35B9550FE5
:102D9000000000C000C000C035B900C06A9591F7BE
:102DA000F5E081349F0751F74FBF87EC90E0019722
:102DB000F1F700C00000089580918403811111C0D3
:102DC0008091D80080618093D8008AE18A95F1F7DC
:102DD00000C09091D900892F817090FF82E080938C
:102DE000840381E090918403913009F080E008959C
:102DF0008F929F92AF92BF92CF92DF92EF92FF920B
:102E0000CF93DF93D82FC62F0E94DC16882339F189
:102E1000C090EC05D090ED05E090EE05F090EF0548
:102E2000C701B6010E94D5072D2F30E06C2F70E04E
:102E3000E82FF0E0EE0FFF1FE20FF31FEE0FFF1F72
:102E4000E60FF71FEE0FFF1FE455FF4FC591D4911A
:102E500041E050E0C130D10591F581110BC0DF9107
:102E6000CF91FF90EF90DF90CF90BF90AF909F9069
:102E70008F9008958150E82FF0E04A01082E02C09B
:102E8000880C991C0A94E2F7092C000CAA08BB08CC
:102E90008C209D20AE20BF2089288A288B28E9F22B
:102EA000EE0FFF1FE20FF31FEE0FFF1FE60FF71FDE
:102EB000EE0FFF1FE455FF4FC591D491CBCF7E019C
:102EC00080EEE81AF10888E0E816F10420F06EEBD5
:102ED00078E0209711F463ED78E0CE010E94FC11B8
:102EE0008C2F0E94C0098C2F0E94870988E0E81669
:102EF000F10420F063EB78E0209711F468EC78E0BF
:102F0000CE01DF91CF91FF90EF90DF90CF90BF90F7
:102F1000AF909F908F900C94FC11CF93E091C805D7
:102F2000EE0FEE0FE093C80549B142FB882780F908
:102F300049B146FB222720F946FF02C022E030E0DB
:102F4000822BE82BE093C805C091C705EF70F0E035
:102F5000E05DFE4F808190914305890F809343058A
:102F600084306CF0EC2F0C2E000CFF0BEF5BFA4F53
:102F700080818F5F808361E08C2F0E94F8168091A2
:102F800043058D3F6CF4EC2F0C2E000CFF0BEF5B18
:102F9000FA4F80818150808360E08C2F0E94F81668
:102FA00080914305837887FF03C081508C6F8F5FCA
:102FB00080934305CF9108950E9433122FEF84E34D
:102FC0009CE0215080409040E1F700C0000081E08B
:102FD0008093E00080E28093D8001092C9008FE1D6
:102FE0009EE40197F1F700C0000087E090EBDC0160
:102FF0008093570890935808A0935908B0935A08A3
:1030000088E19CE00FB6F894A895809360000FBE0D
:1030100090936000FFCF6CEE7EEF90E080E00E9426
:10302000D22E60E082E090E00E94B42E60E083E067
:1030300090E00E94B42E1092E8051092E9051092DB
:10304000EA051092EB0560E084E090E00E94B42E67
:1030500060E081E290E00E94B42E60E085E090E0C4
:103060000E94B42E60E086E090E00E94B42E6FEFE4
:1030700087E090E00E94B42E40E050E0BA0188E082
:1030800090E00E94C62E60E08DE090E00E94B42E99
:1030900040E050E0BA0188E190E00E94C62E60E076
:1030A00087E190E00E94B42E40E050E0BA018CE14C
:1030B00090E00E94C62E60E080E290E00E94B42E74
:1030C00040E050E0BA018FE090E00E94C62E40E060
:1030D00050E0BA0183E190E00C94C62E1F93CF9389
:1030E000DF93EC01FC01E952FD4F80816823A1F0E0
:1030F0000E94602E182F0E94602E612F782F8091E1
:1031000048060E941D0D462F282F672FCE01DF9104
:10311000CF911F910C94AE0ADF91CF911F9108952A
:10312000DF92EF92FF920F931F93CF93DF938C0167
:10313000FC01E952FD4F8081682381F1D090470660
:10314000D0914806C0914606EC2EF12C0E94602ECC
:10315000282FC7018C549F4F68E671E00E94FA2D1A
:103160008E199F0997FD0396959587959595879557
:1031700023706C2F289F600D11247D2D8D2F0E94B0
:103180001D0D462F282F672FC801DF91CF911F916A
:103190000F91FF90EF90DF900C94AE0ADF91CF91EA
:1031A0001F910F91FF90EF90DF90089545E050E060
:1031B0006CE170E085E496E00C94A42E80914506C5
:1031C000982F969596959F5F9F738370983148F4DA
:1031D000990F990F892B80934506109206010C9444
:1031E000D6188460F8CF80914506845080934506B8
:1031F000982F9C7F21F483708C65809345061092F4
:1032000006010C94D618E5E4F6E08181885F81839D
:103210000C94D618E5E4F6E08181885081830C9403
:10322000D618E5E4F6E0228130E1230F08F42FEF11
:1032300022830C94D618E5E4F6E0228130E1231BCA
:1032400008F420E022830C94D6182091480630E13F
:10325000230F08F42FEF293720F4209348060C940D
:10326000D61888E780934806FACFE5E4F6E0238194
:1032700030E1231B08F420E023830C94D618E5E406
:10328000F6E0248130E1230F08F42FEF24830C941F
:10329000D618E5E4F6E0248130E1231B08F420E0B1
:1032A00024830C94D6189091450696959695981778
:1032B00020F0961710F40C94DE18982F990F990FA0
:1032C000809145068370892B8093450610920601F4
:1032D0000C94D618E5E4F6E081E380838091250123
:1032E00090912601A091270181839283A3838FE788
:1032F00084830C94D6181F920F920FB60F9211244C
:103300002F933F934F935F936F937F938F939F93ED
:10331000AF93BF93CF93DF93EF93FF93D091E900E7
:10332000DF708091EC00C82FC17080FDC0E8109262
:10333000E9008091F000877F8093F00078940E94EC
:103340003E121092E9008091F00088608093F000B6
:10335000CD2BCF70C093E900FF91EF91DF91CF911A
:10336000BF91AF919F918F917F916F915F914F919D
:103370003F912F910F900FBE0F901F9018951F92A5
:103380000F920FB60F9211242F933F934F935F9399
:103390006F937F938F939F93AF93BF93EF93FF931D
:1033A0008091E10082FF09C08091E20082FF05C0A8
:1033B0008091E1008B7F8093E1008091DA0080FFB3
:1033C00024C08091D80080FF20C08091DA008E7FD9
:1033D0008093DA008091D90080FF9FC080E189BD91
:1033E00082E189BD09B400FEFDCF81E08093330600
:1033F00080912606811109C00E94F7050E94C2062D
:103400008091E20084608093E2008091E10080FF7F
:1034100017C08091E20080FF13C08091E2008E7F90
:103420008093E2008091E20080618093E2008091CD
:10343000D80080628093D80019BC85E08093330661
:103440008091E10084FF2DC08091E20084FF29C0BB
:1034500080E189BD82E189BD89B5982F917080FF97
:10346000FBCF8091D8008F7D8093D8008091E100C0
:103470008F7E8093E1008091E2008F7E8093E20056
:103480008091E20081608093E2008091340688237D
:1034900009F449C084E0809333060E9433120E94ED
:1034A000850A8091E10083FF27C08091E20083FFBD
:1034B00023C08091E100877F8093E10082E08093C8
:1034C0003306109234068091E1008E7F8093E100F4
:1034D0008091E2008E7F8093E2008091E200806123
:1034E0008093E20042E060E080E00E9490068091DC
:1034F000F00088608093F000FF91EF91BF91AF9151
:103500009F918F917F916F915F914F913F912F91FB
:103510000F900FBE0F901F90189519BC1092330694
:103520001092260672CF8091E30087FD93E090937E
:103530003306B3CF78941F921FB61F9211248F9336
:103540009F93AF93BF938091C2059091C305A091C3
:10355000C405B091C5050196A11DB11D8093C2059A
:103560009093C305A093C405B093C505BF91AF91D7
:103570009F918F911F901FBE1F9018952FB7F894A1
:103580008091C2059091C305A091C405B091C50575
:103590002FBF08950F931F93CF93DF93C62FD42F80
:1035A000022FFC0182818823A1F060934C050E94C8
:1035B000BE1A9093450580934405C77081E001C011
:1035C000880FCA95EAF7DF91CF911F910F910C9464
:1035D000D30810914C05161338C080914405909182
:1035E00045050E9485078639910578F5C0E2CD0F23
:1035F0001D17B9F080E2810F883040F4177081E028
:1036000001C0880F1A95EAF70E94C808C83048F42C
:1036100081E09D2F977001C0880F9A95EAF70E946C
:10362000D308802F0E94C009802F0E948709C830CC
:1036300098F4D77081E001C0880FDA95EAF7DF913E
:10364000CF911F910F910C94C808C77081E001C001
:10365000880FCA95EAF7F3CFDF91CF911F910F91B1
:1036600008954F925F926F927F928F929F92AF9246
:10367000BF92CF92DF92EF92FF920F931F93CF935F
:10368000DF9300D000D00F92CDB7DEB77C01FC01F4
:1036900083819481892B39F01081D180812F8D21F4
:1036A0008F3F09F0DEC50F900F900F900F900F9095
:1036B000DF91CF911F910F91FF90EF90DF90CF900E
:1036C000BF90AF909F908F907F906F905F904F9042
:1036D00008950E948C11082F682F89819A810E9479
:1036E0007D08E12FF0E027E0D29EE00DF11D1124CE
:1036F00034E5039FE00DF11D1124EE0FFF1FE2538F
:10370000FE4F05911491023C8CE5180709F474C032
:10371000B0F50115ECE51E0709F457C0033FFCE5C1
:103720001F0709F41CC108F0ABC0083D3CE51307B6
:1037300009F411C1093D8CE5180709F420C1073DC2
:103740009CE5190709F0A8C026E241EE61EEC70129
:103750000F900F900F900F900F90DF91CF911F91CE
:103760000F91FF90EF90DF90CF90BF90AF909F9020
:103770008F907F906F905F904F900C94CA1A083092
:10378000FDE51F0731F009302DE5120709F48BCF55
:10379000C5CFF7018281882309F485CF0F900F9060
:1037A0000F900F900F90DF91CF911F910F91FF908D
:1037B000EF90DF90CF90BF90AF909F908F907F90D1
:1037C0006F905F904F900C946A19F7018281882363
:1037D00039F00E94BE1A90934B0580934A0563CF3F
:1037E00080914A0590914B050E948507843F914046
:1037F00008F459CF0E94DC17F7018281882309F46D
:1038000052CF90912301953071F19F3F79F08091D3
:103810004506923051F510922301982F937011F0C4
:10382000109206018C7F809345063DCF85E0809302
:10383000230140E060E080E00F900F900F900F9028
:103840000F90DF91CF911F910F91FF90EF90DF903C
:10385000CF90BF90AF909F908F907F906F905F9030
:103860004F900C94AC0A82E0E2CF9FEF909323013B
:10387000982F937011F4109206018C7F8160D3CF42
:10388000053FECE51E0709F472C008F46CC0063F62
:103890002CE5120709F46FC0F7019281992309F40E
:1038A000F1C410924C050230FCE51F0708F4E6C194
:1038B00006312CE5120738F098012A5F3C45293083
:1038C000310508F0DBC10E940C169093D805809357
:1038D000D70500313CE5130709F401C108F08FC09A
:1038E00008309CE5190709F4F0C008F05EC0043008
:1038F000FCE51F0709F4E1C008F044C002303CE5D4
:10390000130709F4D0C003301C4509F4D2C06091FC
:10391000D7051091D80584E090E00E94B42E612F65
:1039200081E290E00E94B42E0F900F900F900F90C4
:103930000F90DF91CF911F910F91FF90EF90DF904B
:10394000CF90BF90AF909F908F907F906F905F903F
:103950004F900C94331227E245EE65EEF8CE26E246
:1039600041EE60EEF4CE27E245EE64EEF0CE26E2C4
:1039700041EE62EEECCE27E245EE66EEE8CE28E2BE
:1039800041E0EBCF8091D705806106309CE51907B7
:1039900009F48CC08091D705886007301C4508F475
:1039A00085C08091D705806281C08091D7058D7FC9
:1039B0000C30FCE51F0709F479C070F48091D7053D
:1039C0008C600A303CE5130709F470C008F481C02C
:1039D0008091D7058E7F6AC08091D705877F0E3092
:1039E0009CE5190709F462C08091D7058B7F0F30E1
:1039F0001C4508F45BC08091D7058F7E57C00B3FF4
:103A0000FCE51F0709F45DC030F503313CE5130701
:103A100009F46DC078F401319CE5190709F463C01D
:103A200002311C4509F073CF0E9433128091D705F3
:103A30008F773CC00531FCE51F0709F460C008F42E
:103A400074C08091D80581600A3F1C4509F05FCFA2
:103A50008093D8055CCF0F3F8CE5180709F44BC065
:103A600088F48091D8058D7F0D3FECE51E0781F32A
:103A70008091D8058E7F0E3F1C4550F38091D8056C
:103A80008360E6CF01302DE5120709F457C008F432
:103A900042C060E002301D4509F039CF8EE090E071
:103AA0000E94B42E34CF8091D70581608093D705D2
:103AB0002ECF8091D7058260F9CF8091D7058460A1
:103AC000F5CF8091D8058260C3CF8091D7058064FF
:103AD000EDCF0E9433128091D7058068E7CF8091A7
:103AE000D7058F7DE3CF8091D7058F7BDFCF809186
:103AF000D705837FDBCF8091D8058C7FA9CF8091BC
:103B0000D70582FB992790F921E0922790FB82F953
:103B100090FB83F9CBCF8091D805982F9095917029
:103B20008E7F892B90FB81F993CF0E943312909165
:103B3000D705892F97FB87F98058B8CF61E0AECFC2
:103B40008091450691E089278093450610920601F1
:103B50000F900F900F900F900F90DF91CF911F91CA
:103B60000F91FF90EF90DF90CF90BF90AF909F901C
:103B70008F907F906F905F904F900C94D61843EF8A
:103B800058E16EED78E10F900F900F900F900F902D
:103B9000DF91CF911F910F91FF90EF90DF90CF9029
:103BA000BF90AF909F908F907F906F905F904F905D
:103BB0000C94910A4EED58E163EF78E1E4CF4AE0CE
:103BC00059E163E079E1DFCF43E059E16AE079E16F
:103BD000DACF4BE159E161E179E1D5CF41E159E13A
:103BE0006BE179E1D0CF45E359E165E279E1CBCFF3
:103BF00045E259E165E379E1C6CF49E459E16FE374
:103C000079E1C1CF4FE359E169E479E1BCCF80911B
:103C100045068370846098CF65E082E00F900F9036
:103C20000F900F900F90DF91CF911F910F91FF9008
:103C3000EF90DF90CF90BF90AF909F908F907F904C
:103C40006F905F904F900C94531968E086E0E6CF38
:103C50006EE089E0E3CF64E18FE0E0CF67E185E1EA
:103C6000DDCF80914506837080666ECF62E289E188
:103C7000D5CF8091450683708C6866CF0115ECE541
:103C80001E0709F4B7CD0E3DFCE51F0769F10631AB
:103C90001C4509F055C0992309F43DC08091C00529
:103CA0008A7A91E009F490E090934D0569E28111E0
:103CB00065E38CE693E00E94BB070F900F900F9096
:103CC0000F900F90DF91CF911F910F91FF90EF9088
:103CD000DF90CF90BF90AF909F908F907F906F902C
:103CE0005F904F900C9428080F900F900F900F90BA
:103CF0000F90DF91CF911F910F91FF90EF90DF9088
:103D0000CF90BF90AF909F908F907F906F905F907B
:103D10004F900C940B1880914D0581110FC089E2D2
:103D2000EEE6F3E024E733E09191891303C0DF016D
:103D300011971C922E173F07B9F7BFCF85E3F0CF3D
:103D4000F701008111819923C9F1C8010E948C11EA
:103D5000D82E682FC8010E947D08B8018D2D0E94C1
:103D6000770F8C01882EF701A580A2943FE0A32253
:103D7000D280D1101092BF058091BD05877079F077
:103D8000DD2069F080E2800F883048F082E00E94F8
:103D900044098091BD058770CC24C3948111C12C46
:103DA000B12EB2942FE0B222FBE0FB1508F440C024
:103DB000EB2DF0E0EB5AF04D0C940E2EC8010E9452
:103DC0005508D82ECACF212F2F70A22E107F19F0A0
:103DD000A29490EFA922DD20C9F0AA2069F080E228
:103DE000800F883010F081100BC08091C005A82A88
:103DF000A092C0050E942808802F0E94C00918C008
:103E00008091BF05A82AA092BF05F4CF802F0E9401
:103E10008709AA2069F0A094005E083010F0811094
:103E20003BC08091C005A822A092C0050E9428082E
:103E3000EB2DE850FF0B349710F40E94850ACC203C
:103E400009F431CC8091BD0580FD2DCCF7011282A3
:103E50008595859585950E945C09C7010E94311B57
:103E60008091BD058595859585950F900F900F9054
:103E70000F900F90DF91CF911F910F91FF90EF90D6
:103E8000DF90CF90BF90AF909F908F907F906F907A
:103E90005F904F900C9421098091BF05A822A092B9
:103EA000BF05C4CF312F3F70932E107F103219F011
:103EB000929480EF9822882071F091E0891661F148
:103EC000DD20B9F1AA2071F1F701858180FF94CF3F
:103ED0008F70858327C0DD2091F09091C105892DD9
:103EE000892BA11003C00E94D308A2CFE1E0AE123B
:103EF000FACF891709F49CCF8093C10599CFA110FF
:103F000006C00E942208892D0E94C80891CFF1E0C6
:103F1000AF1609F48DCFF5CFDD2031F025E02A155D
:103F200008F486CF892DDFCF34E03A1508F480CF2E
:103F3000EACFAA2041F3093349F4FFEF27EE33E03B
:103F4000F15020403040E1F700C00000802F0E9477
:103F500087096ECF812F86958695837061F08130B9
:103F600009F066CFC8019370D11002C090E080E0E4
:103F70000E94DD085DCFC8019370D11002C090E0AF
:103F800080E00E94F30854CF812F837009F066C04F
:103F9000D1104ECF802F829586958770880F880F1D
:103FA000602F6F70462E512C712C612C082E04C08E
:103FB000440C551C661C771C0A94D2F740E050E074
:103FC000BA0104FF0FC04FE050E060E070E004C0B1
:103FD000440F551F661F771F8A95D2F7409550955D
:103FE00060957095812F869586958370823019F142
:103FF000D8F40091E8051091E9052091EA05309187
:10400000EB05813069F04429552966297729CB01D0
:10401000BA0160237123822393230E947D0908CF74
:10402000402A512A622A732ACB01BA0164297529D0
:1040300086299729F2CF44295529662977290091A5
:10404000E8051091E9052091EA053091EB05CB01D7
:10405000BA016027712782279327DFCF8695DD205D
:1040600011F0812F8170882309F4E2CE802F829590
:1040700086958770880F880F602F6F70462E512CA1
:10408000712C612C082E04C0440C551C661C771C36
:104090000A94D2F740E050E0BA0104FF0FC04FE0AD
:1040A00050E060E070E004C0440F551F661F771FAA
:1040B0008A95D2F74095509560957095812F869599
:1040C00086958370823019F1D8F40091EC05109137
:1040D000ED052091EE053091EF05813069F044291E
:1040E000552966297729CB01BA01602371238223E0
:1040F00093230E9417099CCE402A512A622A732AD0
:10410000CB01BA016429752986299729F2CF442960
:104110005529662977290091EC051091ED0520912C
:10412000EE053091EF05CB01BA0160277127822798
:104130009327DFCF1F70DD2029F0812F0E945C09BB
:10414000802FD1CE802F0E94C808812F0E94210984
:104150006FCE802F92EF891609F450C0981578F031
:10416000E0EF8E1619F1F1EF8F1609F43FC0DD2054
:1041700009F467C0A11040CE812F8F713CC023EF9E
:10418000821609F440C034EF8312F1CFDD2009F428
:104190004DC01F71812F0E945C09E8E01E9FC00185
:1041A000112483608093BD05812F25C0DD20C9F0D7
:1041B00084E08A1508F43CCE1F7161E070E080E075
:1041C00090E004C0660F771F881F991F1A95D2F7D9
:1041D0000091EC051091ED052091EE053091EF0571
:1041E000A4CF95E09A1508F423CEE6CF812F8F71E6
:1041F000DD2009F4ABCF0E945C091ACE812F8F71AC
:10420000DD20C9F3A3CF60E070E0CB01DD2009F42D
:1042100070CF1F7161E070E080E090E004C0660F35
:10422000771F881F991F1A95D2F763CF81E00E94EC
:104230004409F1E0FA1508F0FBCD82E00E94440940
:10424000F7CDAA2059F0893309F080CE2FEF37EE51
:1042500083E0215030408040E1F776CE812F8F718E
:1042600075CF85E0DE01119601900D928A95E1F7F8
:10427000F701228189819A8121112BCA0E94550858
:10428000082F2FCA8091C0058272F801E25CFC45BC
:10429000E431F10508F0FBCCEF59F04D0C940E2EF3
:1042A0001F93CF93DF9380915305807FC1F480915A
:1042B00050058823A1F080918505C0915405609137
:1042C0004E0570914F054091510550915205D62FE2
:1042D000D723DA01A095B09516E0C81304C0DF918A
:1042E000CF911F91089590E04115510511F0DF3FE6
:1042F00031F401968770F1CF2A0F3B1F17C0189F2A
:10430000F001199FF00D1124EB5AFA4F2181271368
:10431000F0CF20812613EDCF22812111EACF238116
:1043200034812417350740F3241B350B263931051A
:1043300000F7209153052F7020612093530526E04C
:10434000289FF001299FF00D1124E65AFA4F808131
:104350008F70806180838EE495E00E94311BDF9135
:10436000CF911F910C94A908BF92CF92DF92EF9248
:10437000FF920F931F93CF93DF93CDB7DEB7619773
:104380000FB6F894DEBF0FBECDBF8C0185E0F801FB
:10439000DE011D9601900D928A95E1F7D8012C91CE
:1043A00011963C9111971296EC90129780915105BD
:1043B00090915205009709F463C140914E055091C8
:1043C0004F05642F65236F3F09F45AC11396CD90B2
:1043D000DC90B0905005BB2009F413C1C816D90673
:1043E000C0F1F601E81BF90BCF01FF24F3948639E5
:1043F000910508F0F12C80915305982F907FFF20B4
:1044000009F4C1C091117DC0FE2C531327C0421383
:1044100025C0E11023C08F708061809353058EE426
:1044200095E00E94311B80915305D80115968C931D
:104430008F2D61960FB6F894DEBF0FBECDBFDF9112
:10444000CF911F910F91FF90EF90DF90CF90BF9091
:104450000895809590958C0D9D1DC7CFCD2829F08E
:10446000822F83238F3F09F029C180E0B82FB170DC
:10447000DB2E80FF3CC0809185054091540556E0BD
:10448000841315C02D873E878D859E850E94CE1191
:10449000292F22952F702230F0F0243018F59F70CC
:1044A000F1F0F8019581907FD1F4D12C1EC090E0FD
:1044B000589FF001599FF00D1124EB5AFA4F61817A
:1044C000361306C06081261303C06281E6120FC056
:1044D00001968770D5CF9F7011F0882331F3805EED
:1044E000883018F3C8010E94311BFD2CA1CFEE20AB
:1044F00009F49ECF80915305816080935305F12C80
:1045000097CF531313C0421311C0E1100FC0D8014D
:1045100015968C93C8010E94311B86E0F801AEE429
:10452000B5E001900D928A95E1F782CF2D873E8705
:104530008D859E850E94D811882309F1EE20F9F01F
:1045400080915305803270F020914E0530914F05D7
:1045500038872F831986DB86CA868C87CE0107961B
:104560000E94311B86E0F801AEE4B5E001900D92A7
:104570008A95E1F70E945021FF24F39459CFC80196
:104580000E94311BF9CF91110CC08EE495E00E947E
:10459000311B86E0EEE4F5E0DF011D928A95E9F734
:1045A00047CF531312C0421310C0E1100EC0F801E0
:1045B0008583C8010E94311BEEE4F5E086E0DF014F
:1045C0001D928A95E9F7FB2C33CF2D873E878D8589
:1045D0009E850E94D811882391F2EE2081F280916D
:1045E0005305803208F4BECF20914E0530914F051F
:1045F0003A8329831B82DD82CC828E83CE01019691
:10460000AFCFC816D90640F0C81AD90AB6E9CB16FA
:10461000D10448F0F12CBDCF809590958C0D9D1D57
:1046200086399105B8F7FE2CEE2009F4A8CF531374
:1046300016C0421314C08091530580FD6ECF982F91
:10464000907F09F46ACFF8018583903F09F462CF27
:10465000982F907F905F8F70892B85835BCF2D87FC
:104660003E878D859E850E94D81181117BCF8091D8
:104670005305816080935305C8010E94311BD8CE39
:10468000EE2009F47CCF2D873E878D859E850E9484
:10469000D811F82E882309F472CF86E0F801AEE431
:1046A000B5E001900D928A95E1F780914E059091C9
:1046B0004F050E94CE110E945021BACE81E08E2576
:1046C000D5CE1F93CF93DF93CDB7DEB767970FB6E5
:1046D000F894DEBF0FBECDBF4B8B5C8B6D8B7E8B9A
:1046E0008F8B1A8A198A85E0FE017396DE011D966A
:1046F00001900D928A95E1F786E0FE013D96DE017C
:10470000179601900D928A95E1F7CE0107960E94C7
:10471000B421811112C086E0FE013796DE011196A8
:1047200001900D928A95E1F78A859B85892B29F066
:104730008F81988589238F3FB1F516E0809185059B
:104740009091540589131DC067960FB6F894DEBF8B
:104750000FBECDBFDF91CF911F91089596E0929F3C
:10476000D001939FB00D1124AB5ABA4FFE01319680
:1047700001900D929A95E1F7809354050E94A90843
:10478000DCCF819FC00111248B5A9A4F0E94B42123
:104790008823D1F28091850590E001968770992752
:1047A00080938505CBCF2091540530E0C901019657
:1047B00087709927409185054817190679F60E9458
:1047C0003312109254051092850586E0EEE4F5E070
:1047D000DF011D928A95E9F7B0CF6F927F928F9299
:1047E0009F92AF92BF92CF92DF92EF92FF920F9380
:1047F0001F93CF93DF9309EC15E060E471E0D801DB
:10480000612CEE24E394F12C8C901D92EB018991A4
:10481000BE01E82FE295EF70F0E091A18F70570193
:1048200001C0AA0C8A95EAF7892F8A2981A382A15F
:104830009A2C9094892182A3D0EADA95F1F78CE43E
:10484000C82E81E0D82E90E080E09D0121503109F2
:10485000E60179906E01472D42954F7050E0EA01D4
:1048600048A150E0D72DDF7002C055954795DA95E5
:10487000E2F740FD43C0A701082E01C0440F0A948F
:10488000EAF7E9015881452B488301968730910565
:10489000F9F681A1982291A282A1A82AA2A281E080
:1048A0009881981101C080E0682AD5E0AF3CBD072F
:1048B00009F0AACFD091D605662011F181E080934E
:1048C00077030E94BE1A90937603809375038091BC
:1048D0007503909176030E9485070697A8F0ED2F47
:1048E000F0E0E452FA4FD8018D918D018193B5E04B
:1048F0000F3C1B07C1F71092770306C040E0C1CF01
:10490000809177038111E3CF0E94DC16882309F49C
:104910002FC3D091D5050E94A42C009709F484C020
:10492000809183038F5F80938303863008F0B5C046
:10493000409178035091790360917A0370917B03E1
:104940002FB7F8948091C2059091C305A091C4053A
:10495000B091C5052FBF84179507A607B70708F4C0
:10496000A9C06C017D01C41AD50AE60AF70A0E94A3
:10497000AF078B019C010093780310937903209378
:104980007A0330937B034091410650914206609137
:104990004306709144064F3FDFEF5D076D077D07CB
:1049A000D9F0D701C601AA27BB276C017D01C094AD
:1049B000D094E094F094C416D506E606F70608F005
:1049C0007DC08FEF9FEFDC018093410690934206FC
:1049D000A0934306B093440680914506D82FD37028
:1049E00019F0D82FD695D69590910601913009F4FB
:1049F00078C0992309F467C0923009F489C29330D2
:104A000009F48EC20E948D17862DDF91CF911F91E0
:104A10000F91FF90EF90DF90CF90BF90AF909F905D
:104A20008F907F906F900895ED2FF0E0E452FA4F51
:104A3000DC01A458BC4F2C9121930196863091053E
:104A4000B9F70091C605802F90E0EC01CF5BDA4FFB
:104A50007E01109182038881181BD12F09C0D1508B
:104A6000F70180818F5F808361E0802F0E94F816BC
:104A70001D16ACF3812F17FD80E0181B111103C028
:104A80001092830355CF1F5FD7018C9181508C9377
:104A900060E0802F0E94F816F1CFE091D505F0E09C
:104AA000E452FA4F90E080E0119201968630910531
:104AB000D9F73ECF0197A109B10953CF840F951FB4
:104AC000A61FB71F81CF1092220100933D061093BD
:104AD0003E0620933F063093400681E08093060116
:104AE00091CF9091050111E0D91309C083702091F5
:104AF000040130E011E08217130609F410E0117090
:104B000010932401D83140F4ED2FF0E0EB58F04D34
:104B10000C940E2E111102C010E016C0009122015B
:104B20008EE1089F002D11241EE1F12EF00EEF2CD6
:104B3000E4E9EF1510F4C4E9EC2E10E00E15B0F026
:104B400011E0F3E9FF1540F3809122018F5F80931C
:104B50002201111157CF82E0809306018091240138
:104B6000811150CFD1114ECF83E0B8CF20E040E08B
:104B700060E0C8010E94AE0A0F5F1F4FDFCF0091B7
:104B800022018EE1089F002D1124BEE1FB2EF00EC4
:104B9000EF2C24E92F1510F4A4E9EA2E60914606C3
:104BA00070914706809148060E941D0DD62EC72E93
:104BB000B82E10E00E1528F011E033E93F1520F66D
:104BC000ABCFF801E952FD4F8081909123018923F9
:104BD00031F02B2D4D2D6C2DC8010E94AE0A0F5FB8
:104BE0001F4FE8CF009122018EE1089F002D112474
:104BF000FEE1FF2EF00EEF2C84E98F1510F4E4E9AE
:104C0000EE2EC0904706D090480610914606612FC0
:104C10007C2D8D2D0E941D0DB62EA72E982E6091F5
:104C20004906610F7C2D8D2D0E941D0DD62EC72E9D
:104C3000882E10E00E1530F011E093E99F1508F072
:104C400083CF6ACFF801E952FD4F90818091230113
:104C5000892359F0282D4D2D6C2D90FD03C0292D51
:104C60004B2D6A2DC8010E94AE0A0F5F1F4FE2CF85
:104C7000009122018EE1089F002D11247EE1F72E84
:104C8000F00EDF2CA4E9AF1510F464E9D62EC09025
:104C90004706B09048062091490650E4E52E3E2D87
:104CA000329F312D1124E32E10E00D1530F011E06C
:104CB00083E98F1508F048CF2FCFF801E952FD4F57
:104CC0008081909123018923B9F0F801EE0FFF1F35
:104CD000E055FE4F808182958F70609146068E9DD3
:104CE000600D11247C2D8B2D0E941D0D462F282F29
:104CF000672FC8010E94AE0A0F5F1F4FD6CF1091D9
:104D000022018EE1189F102D11243EE1F32EF10EA9
:104D1000EF2C94E99F1510F424E9E22ED09046067A
:104D200000914706C09048066091490666956695D1
:104D3000669580913D0690913E060E94130D0E945B
:104D40009C0C805887FD8195880F282F3C2D239F30
:104D5000212D1124822F6D2D702F0E941D0DD62E16
:104D6000C72EB82E012F10E00E1508F0A0CFF801C5
:104D7000E952FD4F808190912301892331F02B2D41
:104D80004D2D6C2DC8010E94AE0A0F5F1F4FECCF56
:104D900087EA9BE00E94EA0E182FD6CE8DE79BE0B3
:104DA000F9CF8EE79CE00E948E0EF6CF8FE59CE057
:104DB000FACF84E49CE00E94110EEECF88E29CE0E2
:104DC000FACF8BE79BE0E6CF82E79BE0E3CF89E673
:104DD0009BE0E0CF80E59BE0DDCF82E49BE0EBCF82
:104DE0008BEE9CE0E0CF87E19CE0DDCF83E09CE0B0
:104DF000E2CF85E19BE00E94AF0DCECF87EE9AE037
:104E0000FACF80EB9AE0F7CF11111EC060914906EE
:104E100020E1620F08F46FEF80913D0690913E060D
:104E20000E94130D6AE070E00E94E62D892B09F0C4
:104E300073CE0E94602E64E970E00E94FA2D6091AA
:104E400023010E94901880CE009122018EE1089FDC
:104E5000002D11249EE1D92ED00E8D2D94E99D15A3
:104E600008F484E910E0E82EF12C0E151F0534F04B
:104E700011E0A3E9AD1508F067CE4ECE6091230195
:104E8000C8010E9490180F5F1F4FEFCF11111EC075
:104E90006091490620E1620F08F46FEF80913D06B2
:104EA00090913E060E94130D65E070E00E94E62D91
:104EB000892B09F031CE0E94602E64E970E00E94D7
:104EC000FA2D609123010E946E183ECE00912201BE
:104ED0008EE1089F002D11248EE1D82ED00E8D2D4D
:104EE000B4E9BD1508F484E910E0E82EF12C0E15A4
:104EF0001F0534F011E0C3E9CD1508F025CE0CCE26
:104F000060912301C8010E946E180F5F1F4FEFCF01
:104F1000D09305018370809304010E94B51624CEBE
:104F200040913D0650913E0660913F0670914006CB
:104F30002FB7F8948091C2059091C305A091C40544
:104F4000B091C5052FBF84179507A607B70760F076
:104F5000841B950BA60BB70B4097A105B10508F470
:104F600051CD109206014ECD0197A109B109F0CFA4
:104F7000E091D605F0E0E452FA4F90E080E0219114
:104F8000DC01A458BC4F2C93019686309105B9F7EB
:104F9000E091C705F0E0EF5BFA4F808180938203D8
:104FA00031CDCDB7DEB72A970FB6F894DEBF0FBE6E
:104FB000CDBF84B7877F84BF0FB6F894A895809142
:104FC0006000886180936000109260000FBE80E8EE
:104FD00090E00FB6F89480936100909361000FBE4B
:104FE00085B7806885BF85B7806885BF0E94F70553
:104FF0000E94C2068091E20084608093E20078946F
:10500000809133068823A1F01091E9001F709091E0
:10501000EC00892F817090FD80E8182B1092E90038
:105020008091E80083FD0E943E121F701093E900FA
:1050300082E084BD93E095BD9AEF97BD80936E00AA
:105040008EE090E00E94962E91E0811101C090E0E8
:1050500090930F010E94DC1661E070E0882309F450
:1050600084C187E091E00E94032C80910F01809120
:105070000F0196E0811190E09093D60586E0891BA0
:105080008093D505A0E4B1E046E451E061E070E032
:105090008D91E82FE295EF70F0E011A18F709B01E8
:1050A00001C0220F8A95EAF7922F9095912391A340
:1050B00082A1822B82A34A175B0751F7ACE4B1E0CF
:1050C00043E551E061E070E08D91E82FE295EF70EB
:1050D000F0E011A18F709B0101C0220F8A95EAF7C1
:1050E000922F9095912391A382A1822B82A34A179C
:1050F0005B0751F7E9ECF5E085ED95E0ACEDB5E047
:1051000011921D928E179F07D9F790E080E00E94C0
:105110009E2E8C3E9E4F69F00E940B1890E080E01E
:105120000E949E2E8C3E9E4F21F00E940B180E94E2
:105130006A1945E050E06CE170E085E496E00E9479
:10514000862E809145068C7F11F40E946A19529830
:105150005A9A56985E9A89B182FB882780F94E99AF
:1051600009C190E0892B8093C80590910F0181E0DF
:1051700098279093C705891B8093C6050E94DC166B
:10518000882309F4F9C083E08093100680E28093BD
:105190004A060E94F12C6DE070E081E894E00E94E4
:1051A000BB15892BE9F58091100663E070E081FD65
:1051B000E8C08EE794E00E94BB15892B89F56DE06D
:1051C00070E08EE694E00E94BB15892B49F50E94A1
:1051D000AF07605A75418F4F9F4F609312067093CF
:1051E00013068093140690931506EDE4F6E080E034
:1051F00092E0DF019C011D9221503040E1F7F093D5
:105200005408E09353088FEF9FEF90934C068093E0
:105210004B0681E0809317068093160610921106C4
:1052200090E080E00E949E2E8C3E9E4F11F00E94E6
:105230000B1882E090E00E94962E809319060E943F
:105240000C169093D8058093D70583E090E00E94D8
:10525000962E682F70E090E080E00E947D0987E143
:1052600091E09093DA058093D90544244394512C1E
:1052700080913306853009F487C00E94ED23D82E33
:105280000E94DC16882309F4C4C0EAE1F6E0ACED24
:10529000B5E010E000E0302F8D912191281709F43E
:1052A000B2C090E0FF24F3942827422F4F2109F445
:1052B000A5C099833A838F2191E009F490E09B8304
:1052C0000E94BE1A8160782F9D838C8349815A8108
:1052D0006B818D810E946123F801E65EF94F808128
:1052E000F826F08280911706882309F44EC18DE4D8
:1052F00096E090935408809353080E94DC1688230C
:1053000009F45BC18CED94E00E94AD1586ED94E04C
:105310000E94AD158091EC059091ED05A091EE05F0
:10532000B091EF050097A105B10509F483C0282FBE
:1053300082958F7011F0282F84E0922F9695969584
:1053400011F08E5F292F269509F08F5F813009F4C7
:105350002BC1882309F479C0823009F428C1833035
:1053600009F428C188EB94E072C087E091E00E94C4
:105370000A2C7BCE92E0F6CE82E08093100680E885
:1053800006CF8BE794E017CF80913306843021F16C
:105390001092DB0580E4A8E1B0E00FB6F894A89580
:1053A000A09360000FBE8093600083B7817F84600C
:1053B00083BF83B7816083BF7894889583B78E7FDE
:1053C00083BF0FB6F894A8958091600088618093A0
:1053D0006000109260000FBE80913206882309F4AD
:1053E00047CF0E94ED23ECEDF5E0819181116DC175
:1053F00028EE35E02E173F07C1F73ACF9F5FFF0C2D
:10540000973009F052CF0F5F1F4F0C30110509F094
:1054100042CF8FEF8E838F8318860E94BE1A8160E1
:10542000782F9A8789874E815F8168858A850E9457
:10543000612358CF6091E8057091E9058091EA05F4
:105440009091EB050E94D50781CF80ED94E00E94FA
:10545000AD150E94850A182F82EB94E00E94AD15CD
:1054600086EA94E010FF02C08CEA94E00E94AD1539
:105470008AE994E011FF02C080EA94E00E94AD1531
:105480008EE894E012FF02C084E994E00E94AD151A
:1054900020914B0630914C062115310509F457C077
:1054A00080911106811153C0082F10E07201082E5F
:1054B00002C0EE0CFF1C0A94E2F7A701422353231B
:1054C000452B09F496C09091100690FD94C08295EA
:1054D000880F80768093120198013695279536952E
:1054E000279520931501815E809313011092160178
:1054F00024E630E047E050E060E171E088E70E9498
:10550000822D892B21F5A80125E0440F551F2A95EE
:10551000E1F78091100680FD7CC0435B594F04E6A3
:1055200010E020E230E060E488E70E94A92D892B9A
:1055300071F40E94EB15E094F09480914B069091E9
:105540004C06E822F922F0924C06E0924B0680913C
:1055500016068823D1F08090120690901306A09032
:105560001406B09015060E94AF07681979098A09D8
:105570009B0997FD0AC062E070E085E395E00E9418
:10558000BB15892B11F410921606D1100E94EB1551
:105590000E94850A90911806891709F469CE0E9425
:1055A000850A8093180664CE8AEC94E050CF84EC90
:1055B00094E04DCF8EEB94E04ACF8CEE94E00E94C5
:1055C000AD1580914B0690914C06892B09F060CF68
:1055D0008091110681115CCF69E070E08CE295E06A
:1055E0000E94BB15892B09F053CF81E080931106EF
:1055F0004FCF8F5F59CF880F880F880F809312018C
:1056000010921501895F8093130183E08093160146
:105610006FCFA0EFB5E0E0E21D92EA95E9F707E56C
:1056200011E083E5A82E81E0B82E97E0992ED801ED
:10563000ED918D01D5016D915D01640F752F711D87
:10564000635B794FF0E0E051FA4F30E020E0792CD5
:10565000721AC42C022E01C0CC0C0A94EAF71B016A
:1056600090E0D1018D911D018C21A72DA91BA77060
:105670008A2E0A2E000CBB0B682E01C0660C8A9481
:10568000EAF7862CB195A195B109A770BB2701C097
:105690008695AA95EAF7882A8081882A80829F5F6A
:1056A0009830F9F62F5F3F4F31962830310579F663
:1056B0002BE531E02017310709F0B9CF04E610E0FF
:1056C00020E230E040EF55E02ECF80E189BD82E15D
:1056D00089BD09B400FEFDCF8091D8008F7D8093F5
:1056E000D8008091E00082608093E0008091E0002B
:1056F00081FDFCCFBDCD1F921FB61F9211248F9349
:105700009F93AF93BF938091DB05811113C080916C
:10571000C2059091C305A091C405B091C5054196FD
:10572000A11DB11D8093C2059093C305A093C4052C
:10573000B093C505BF91AF919F918F911F901FBEF0
:105740001F9018958EE14B9B02C08150E1F74B9B57
:10575000FECF08955B9880E28A95F1F75B9A0895F1
:10576000FC013BE03A95F1F798E020E080E031E081
:1057700040E14A95F1F7880F4B9B02C081602327D7
:1057800042E04A95F1F7000040E14A95F1F7915067
:1057900079F790E19A95F1F799B132E03A95F1F7FE
:1057A000000040E14A95F1F793FB992790F9922781
:1057B0002081920F90830895EF92FF920F931F9391
:1057C000CF93DF930F92CDB7DEB719828C017C01A6
:1057D000E60EF11C0E151F0561F481E0998191110F
:1057E00080E00F90DF91CF911F910F91FF90EF908C
:1057F00008950E94A22BCE0101960E94B02BF801C1
:1058000081938F01E7CF9093560880935508539A60
:105810005B9A0895909356088093550853985B9A25
:10582000EB9AE9E6F0E080818F7380830895615000
:10583000770B91E001C0990F6A95EAF720E031E01B
:10584000911108C0222391F05B9A80E28A95F1F7CA
:105850005B980895492F482339F05B9A232740E24B
:105860004A95F1F79695ECCF5B98F9CF5B98EDCF21
:10587000FF920F931F93CF93DF93EC018C01060FE0
:10588000111DC017D10731F4DF91CF911F910F91F6
:10589000FF900895F9900E94AA2B68E08F2D0E9436
:1058A000172CEFCF1F920F920FB60F9211242F9348
:1058B0003F934F935F936F937F938F939F93AF9398
:1058C000BF93CF93DF93EF93FF935B98539AC0916D
:1058D0005508D09156086D81662321F08E819F81F5
:1058E0000E94382C0E94AA2B80E18A95F1F75B98E0
:1058F00053985B9A80E18A95F1F76A81662309F1F2
:105900008B819C810E94DC2BE881F981882311F036
:1059100088E001C082E080830E94A22BFF91EF917A
:10592000DF91CF91BF91AF919F918F917F916F91B7
:105930005F914F913F912F910F900FBE0F901F904D
:105940001895E881F981E4CFCF93DF93C091550892
:10595000D0915608F894539A5B9885E08A95F1F7B0
:10596000000053985B9A80E28A95F1F74B9B0CC03C
:10597000539A5B9AE881F98181E08083789481E091
:1059800090E0DF91CF9108956D81662381F08E8143
:105990009F810E94DC2B81110AC0539A5B9AE88197
:1059A000F98182E08083789482E090E0EACF0E94DF
:1059B000A22B80E28A95F1F75B98539A80E18A9551
:1059C000F1F76A81662321F08B819C810E94382C3B
:1059D0000E94AA2BE881F9811082789490E080E0FF
:1059E000D0CF1092B9008CE08093B8000895EF9268
:1059F000FF920F931F93CF93DF93182FEB01109219
:105A0000BC0084EA8093BC000E94BE1A7C01809195
:105A1000BC0087FF27C08091B900887F883029F0BB
:105A20008091B900887F8031D9F51093BB0084E85C
:105A30008093BC000E94BE1A8C018091BC0087FF3D
:105A400024C02091B900287F90E080E02831B1F097
:105A500081E090E0203411F490E080E09195819510
:105A600091090CC0CF3FDC0791F20E94BE1A8E193B
:105A70009F098C179D0758F28EEF9FEFDF91CF9112
:105A80001F910F91FF90EF900895CF3FDC07A9F28F
:105A90000E94BE1A801B910B8C179D0770F2ECCFF1
:105AA0008FEF9FEFEBCF0F931F93CF93DF93EB011C
:105AB0008093BB0084E88093BC000E94BE1A8C01D6
:105AC0008091BC0087FF11C02091B900287F81E040
:105AD00090E0283211F490E080E091958195910951
