:100000000C94EA050C9431060C9431060C943106DC
:100010000C94ED2D0C9431060C9431060C943106A1
:100020000C9431060C9431060C949F2A0C9454299C
:100030000C94B6240C9431060C9431060C943106C1
:100040000C9431060C9431060C9431060C94310654
:100050000C9431060C943B150C9431060C9431062B
:100060000C9431060C9431060C9431060C94310634
:100070000C9431060C9431060C9431060C94310624
:100080000C9431060C9431060C9431060C94310614
:100090000C9431060C9431060C9431060C94310604
:1000A0000C9431060C9431060C9431061108110899
:1000B0004B084B089E08410A410A410ABA089809B0
:1000C000A909A9095C127612A112DE121C1363138E
:1000D00066136B136E137113741377137A137D13F6
:1000E00080138313861389138E1393139613991316
:1000F0009E13E013AD22D4227624D42276241C232E
:100100003F2376243A244D24122C122C252C252C06
:100110001B2C252C252C252C122C122C202C252C8C
:10012000252C202C165C1E001F0020002100220020
:100130002D002B0014001A000800150017002F00D6
:10014000394204001600070009000A002602E100F7
:100150001D001B000600190005002F02E000E3004F
:10016000E200C25C03512C004C00000000000000C3
:10017000000000002C004C002A002700260025006B
:10018000240023002E003100130012000C00180080
:100190001C003000340033000F000E000D000B0077
:1001A0002702280038003700360010001100300206
:1001B0004F0052005100500002512C002800000056
:1001C00000000000000000002C002800165C1E004B
:1001D0001F002000210022002D002B0014001A0017
:1001E000090013000A002F00394204001500160010
:1001F000170007002602E1001D001B000600190081
:1002000005002F02E000E300E200C25C03512C0075
:100210004C00000000000000000000002C004C001A
:100220002A00270026002500240023002E0031008C
:1002300033001C0018000F000D00300034001200C5
:100240000C00080011000B002702280038003700BE
:10025000360010000E0030024F00520051005000D6
:1002600002512C00280000000000000000000000E7
:100270002C0028003A003B003C003D003E003F00BF
:10028000010001004E0052004B000100010001007E
:100290000100500051004F00010001000100010069
:1002A0000100010001000100010001000100010046
:1002B0000100C35C0100010001000000000000001B
:1002C000000000000100010045004400430042001E
:1002D0004100400046004A0046004B0052004E00DC
:1002E000010047004D0049004F005100500001003F
:1002F00053000100010001000100010001000100A4
:10030000A900AA00A800AB00AE0001000100000097
:100310000000000000000000010001003A003B0066
:100320003C003D003E003F0001000100C85CC95C8C
:10033000C75C005C010001000100C65CCA5CC55CD2
:10034000035D010001000100CC5C0100CB5C0100F9
:1003500001000100010001000100C35C0100010077
:10036000010000000000000000000000010001008A
:1003700045004400430042004100400001000100EC
:100380000100010001000100010001000100010065
:1003900001000152005201000100C95CC75CC55C4C
:1003A000C25CCB5C01000100CA5CC85CC65CC45C7A
:1003B000CC5C010001000000000000000000000013
:1003C00001000100A900AA00A900AA000100010083
:1003D0000100010001000100010001000100010015
:1003E0000100010000DA02818FD9F1DB40A4A62EC2
:1003F000AF00A0C000A1C800AED580A81FD30040A8
:100400008D1420002020202020005343524C4B000C
:100410002020202020004341504C4B002020202051
:1004200020004E554D4C4B002D2D2D2D2D00554EA1
:100430004445460041444A202000464E20202000EA
:10044000434C4D4B20004241534520004C6179659F
:1004500072009B9C9D9E9FBBBCBDBEBFDBDCDDDEF6
:10046000DF00808182838485868788898A8B8C8D52
:100470008E8F9091929394A0A1A2A3A4A5A6A7A8C1
:10048000A9AAABACADAEAFB0B1B2B3B4C0C1C2C338
:10049000C4C5C6C7C8C9CACBCCCDCECFD0D1D2D3A4
:1004A000D40000270000000F00FF2F00AE00010164
:1004B0000101010101010102020202020202020223
:1004C00003030303030303030404040404040405F3
:1004D00005050505060606060607070707070808B7
:1004E0000808090909090A0A0A0B0B0B0C0C0C0D68
:1004F0000D0D0E0E0E0F0F0F101011111112121301
:10050000131414151516161717181819191A1A1B7B
:100510001B1C1D1D1E1E1F202021222223242425DA
:100520002626272829292A2B2C2D2D2E2F30313213
:1005300032333435363738393A3B3C3D3E3F404123
:1005400042434445464748494A4C4D4E4F5051530B
:1005500054555658595A5B5D5E5F616264656668C2
:10056000696B6C6D6F7072737577787A7B7D7E8046
:1005700082838587888A8C8E8F91939596989A9C92
:100580009EA0A2A3A5A7A9ABADAFB1B3B5B7BABCA6
:10059000BEC0C2C4C6C9CBCDCFD1D4D6D8DBDDDF77
:1005A000E2E4E7E9EBEEF0F3F5F8FAFDFF00AF0562
:1005B000010980A10185031A81002A830016010028
:1005C000260300950175108100C0050C0901A101E9
:1005D00085041A01002A9C02160100269C0295013E
:1005E00075108100C005010906A101050719E02960
:1005F000E7150025019508750181029501750881AF
:10060000010507190029FF150026FF00950675084A
:1006100081000508190129059505750191029501CB
:1006200075039101C009023B00020100A0320904D8
:100630000000010301010009211101000122400015
:100640000705810308000A090401000103000000F6
:100650000921110100012236000705820320000A4A
:100660001201100100000008EDFE603002000102DE
:100670000301040330000000080353006F006C0006
:1006800000000C035200470042004B0042000000F3
:10069000040309040000000000003E5B4F5B3E00C5
:1006A0003E6B4F6B3E001C3E7C3E1C00183C7E3C6B
:1006B00018001C577D571C001C5E7F5E1C00001834
:1006C0003C180000FFE7C3E7FF00001824180000F3
:1006D000FFE7DBE7FF0030483A060E0026297929BC
:1006E0002600407F05050700407F05253F005A3C56
:1006F000E73C5A007F3E1C1C0800081C1C3E7F0083
:1007000014227F2214005F5F005F5F0006097F01F3
:100710007F00006689956A0060606060600094A256
:10072000FFA2940008047E04080010207E20100020
:1007300008082A1C0800081C2A0808001E101010AF
:1007400010000C1E0C1E0C0030383E383000060E17
:100750003E0E060000000000000000005F000000E8
:10076000000700070000147F147F1400242A7F2A4A
:100770001200231308646200364956205000000816
:1007800007030000001C224100000041221C000061
:100790002A1C7F1C2A0008083E08080000807030D0
:1007A0000000080808080800000060600000201031
:1007B000080402003E5149453E0000427F400000CF
:1007C0007249494946002141494D33001814127FAE
:1007D00010002745454539003C4A4949310041212F
:1007E00011090700364949493600464949291E0082
:1007F0000000140000000040340000000008142233
:1008000041001414141414000041221408000201C1
:10081000590906003E415D594E007C1211127C00C0
:100820007F49494936003E41414122007F414141D3
:100830003E007F49494941007F09090901003E41C5
:10084000415173007F0808087F0000417F4100008C
:100850002040413F01007F08142241007F4040407A
:1008600040007F021C027F007F0408107F003E4191
:1008700041413E007F09090906003E4151215E00C9
:100880007F091929460026494949320003017F01A1
:1008900003003F4040403F001F2040201F003F40DA
:1008A00038403F0063140814630003047804030015
:1008B0006159494D4300007F414141000204081045
:1008C0002000004141417F00040201020400404039
:1008D00040404000000307080000205454784000C6
:1008E0007F2844443800384444442800384444288D
:1008F0007F0038545454180000087E09020018A4E0
:10090000A49C78007F080404780000447D40000027
:100910002040403D00007F102844000000417F40FF
:1009200000007C04780478007C08040478003844D3
:1009300044443800FC182424180018242418FC000F
:100940007C080404080048545454240004043F4420
:1009500024003C4040207C001C2040201C003C40E7
:1009600030403C004428102844004C9090907C007B
:100970004464544C440000083641000000007700F5
:1009800000000041360800000201020402003C267B
:1009900023263C00000000008000000000808080D2
:1009A00000000000808080808080800000000000C7
:1009B0000000000000800000000000000000008037
:1009C00000000C90B0E072319BDECEECEEE9E9EC79
:1009D000CFDA993E62E4C4701010000000000000FD
:1009E0000060C0C080800285858785898992EAC6BB
:1009F000C448506040404040C0E05028101060C0E3
:100A0000404040408080808080E0F8FCF8F00000AA
:100A10000000E0F0F0F0E0ECEEF7F37020007C7CFA
:100A20007C7E007E7E7E7F7F7F000080C0E07E5BDC
:100A30004F5BFEC000000000F0F4ECDEDEBE3E3E88
:100A40003F3F1F1F1F1F1F3F3F3E3EBEDEDEECF439
:100A5000F00000000000007F808080700F000080A8
:100A60007F00007F808080808080807F0000808089
:100A70008080808080FF00000000000000000040B7
:100A800021333B7BFF007CFFFFFFFFFFFFFFFFFFEA
:100A9000FFFFFFFF7C01FFDE8C040C08000000005C
:100AA0000000000101017F8080BEBE808080C1FF08
:100AB0008004325E1C3D2610C1FF3E00000836C196
:100AC00008081477949494F794F79C9CFFFF1E00F9
:100AD00000000F1F3F7F7F7F7F7F3F1E0C001F1F87
:100AE0001F3F003F3F3F7F7F7F00307B7F7830207C
:100AF0002030787F3B000000010F3FFFFFFFFCE04C
:100B0000800000000000000080E0FCFFFFFF3F0FBE
:100B100001000000000000000000000000000000D4
:100B200000000000000000000000000000000000C5
:100B300000000000000000000000000000000000B5
:100B4000000602064D4F8CF97337272F2FAFEF6F3A
:100B500077173379CC1F31202102020000000000FA
:100B600000000000000040E0A0A0D0904848252BE5
:100B7000110905030101010101010103020403013F
:100B8000010101010100000000030F1F0F0300001D
:100B90000000000000000000000000000000000055
:100BA0000000000000000000000000000000000045
:100BB00000000000000000000000000003070F1FFD
:100BC0003F7FFEFC00FCFE7F3F1F0F07030000007D
:100BD0000000000011241FBECFEFDAE0DEBFCDBF62
:100BE00004B603FE27C08091C1079091C207A0916F
:100BF000C307B091C4078730904BA740B04BD1F4E6
:100C00001092C1071092C2071092C3071092C40736
:100C100014BE84B7877F84BF0FB6F894A8958091DF
:100C20006000886180936000109260000FBEE0E079
:100C3000F8E3099527E0A4E2B3E001C01D92A13CCE
:100C4000B207E1F713E0A0E0B1E0E6EAF1E602C0A6
:100C500005900D92A432B107D9F70E948B150C9420
:100C6000D1300C9400008F929F92AF92BF92CF929E
:100C7000DF92EF92FF920F931F93CF93DF9300D0F9
:100C800000D01F92CDB7DEB7FC010081D1808381F7
:100C90009481892B39F01FEFD11206C091E00F3FEC
:100CA00019F403C091E001C090E090FDE6C67F0119
:100CB00085E0DE01119601900D928A95E1F7F7012A
:100CC000228189819A81222349F00E94FB25182FD5
:100CD000682F89819A810E94742603C00E94482649
:100CE000182F24E5129FF001112437E0D39EE00D68
:100CF000F11D1124E00FF11DEE0FFF1FEC5DFE4F03
:100D000005911491023C8CE51807F1F128F40115C6
:100D1000ECE51E0719F179C00330FDE51F0731F03E
:100D200004302DE5120709F4A8C66FC0F7018281CF
:100D3000882309F4A2C60F900F900F900F900F9088
:100D4000DF91CF911F910F91FF90EF90DF90CF90A7
:100D5000BF90AF909F908F900C94161DF7018281E9
:100D6000882339F00E94AA249093250380932403BA
:100D700084C680912403909125030E946115843FCD
:100D8000914008F47AC603C4F7018281882309F4EC
:100D900074C690912301953049F09F3F29F08091CE
:100DA0003205923029F51BC085E001C082E08093B6
:100DB000230140E060E080E00F900F900F900F90D3
:100DC0000F90DF91CF911F910F91FF90EF90DF90E7
:100DD000CF90BF90AF909F908F900C94D21C1092A8
:100DE0002301982F937011F0109204018C7F0AC098
:100DF0009FEF90932301982F937011F410920401A8
:100E00008C7F81608093320538C6033FFCE51F0765
:100E1000B9F426E241EE60EEC7010F900F900F90FB
:100E20000F900F90DF91CF911F910F91FF90EF9056
:100E3000DF90CF90BF90AF909F908F900C94BC1E8E
:100E4000043F2CE5120708F096C0083D3CE5130767
:100E500021F427E245EE65EEDFCF093D8CE518076A
:100E600019F428E241E0F7CF073D9CE5190721F48A
:100E700026E241EE61EED0CFF7018281882309F4AA
:100E80002FC3109226030D3CFCE51F0709F427C46D
:100E9000D8F5023C3CE5130709F4EFC5C0F4063170
:100EA0009CE5190778F40230ECE51E0708F078C4D9
:100EB0000115FCE51F0709F46AC301301C4509F060
:100EC00073C078C306311C4509F06EC0C4C50B3C25
:100ED0008CE5180778F4053C9CE5190708F0CDC5AA
:100EE000033CECE51E0709F481C3043C1C4509F0F2
:100EF0005BC093C30B3C2CE5120709F4CEC30C3C3A
:100F00001C4509F051C0D0C3043D8CE5180709F415
:100F100021C4B8F4003DECE51E0709F4F8C348F419
:100F20000E3C2CE5120709F4DCC30F3C1C45E1F52F
:100F3000E3C3023D8CE5180709F4FFC308F4F2C3CC
:100F400007C40D3DECE51E0709F426C448F4053D31
:100F50002CE5120709F409C40C3D1C4529F519C4F8
:100F60000E3D8CE5180709F42EC3C8018A5F9C4525
:100F70000997D0F415C4053FECE51E0721F426E2DD
:100F800041EE62EE49CF053FFCE51F0720F427E262
:100F900045EE64EE41CF063F2CE5120709F06CCF19
:100FA00027E245EE66EE38CFF70100811181C801D6
:100FB0000E94FB25D82E682FC8010E947426B80114
:100FC0008D2D0E94BF0D8C01982EF701A580A29453
:100FD0009FE0A922D280D1101092BB078091B9075F
:100FE000877079F0DD2069F080E2800F883048F06A
:100FF00082E00E94CE268091B9078770CC24C394EA
:101000008111C12CB12EB2948FE0B8228B2D90E0CB
:101010008C30910508F035C2FC01EA5AFF4F0C9460
:10102000BE30812F807F1F70882311F01295107FB2
:10103000DD20B9F0112309F40FC280E2800F88305F
:1010400010F0911006C08091BC07182B1093BC07BC
:1010500005C08091BB07182B1093BB070E94CE25BB
:10106000FBC1802F0E94422C112309F40AC2005EAA
:101070001095083010F0911006C08091BC0718231D
:101080001093BC0705C08091BB0718231093BB07C2
:101090000E94CE25F6C1812F807F1F70803211F013
:1010A0001295107F992021F0F1E09F16E1F02AC0FF
:1010B000DD2081F08091BD07AA2051F001E0A0124F
:1010C00007C0182B181709F4DCC11093BD07D9C14C
:1010D000812B10C0AA2021F021E0A21609F4D1C171
:1010E0000E94C82527C0DD2041F035E03A1508F4FC
:1010F000C8C1812F0E94F62BC4C184E08A1508F470
:10110000C0C118C0DD2049F0AA2099F3F7018581FC
:1011100080FFA2C18F708583ECCFAA2059F00933DC
:1011200009F0ACC1FFEF17EE23E0F1501040204072
:10113000E1F7A2C1812F0E94EB2BA3C1812F8695DD
:101140008695837019F0813059F09BC1DD2019F02C
:10115000C801937002C080E090E00E94451C97C1D6
:10116000DD2019F0C801937002C080E090E00E9479
:101170002F1C8DC1812F837009F069C0D11085C1EA
:10118000902F929596959770990F990F802F8F7049
:10119000882E912CA12CB12C092E04C0880C991CEE
:1011A000AA1CBB1C0A94D2F704FF12C04FE050E007
:1011B00060E070E004C0440F551F661F771F9A95CA
:1011C000D2F7DB01CA0180959095A095B09503C038
:1011D00080E090E0DC0116951695412F4370423077
:1011E00019F1C8F40091590310915A0320915B033F
:1011F00030915C03413059F088299929AA29BB29EB
:10120000BC01CD0160237123822393230AC0802A6D
:10121000912AA22AB32ABC01CD01682979298A29F9
:101220009B290E94082731C188299929AA29BB290D
:101230000091590310915A0320915B0330915C0394
:10124000BC01CD016027712782279327EACFDD20DB
:1012500019F0812F817001C08695882309F415C18A
:10126000902F929596959770990F990F802F8F7068
:10127000882E912CA12CB12C092E04C0880C991C0D
:10128000AA1CBB1C0A94D2F704FF12C04FE050E026
:1012900060E070E004C0440F551F661F771F9A95E9
:1012A000D2F7DB01CA0180959095A095B09503C057
:1012B00080E090E0DC0116951695412F4370423096
:1012C000D9F068F500915D0310915E0320915F03F2
:1012D00030916003413059F088299929AA29BB2906
:1012E000BC01CD0160237123822393231EC0802A79
:1012F000912AA22AB32A13C088299929AA29BB298D
:1013000000915D0310915E0320915F0330916003B3
:10131000BC01CD01602771278227932706C0BC013D
:10132000CD01682979298A299B290E949F26ADC071
:101330001F70DD2039F0812F0E94E726802F0E9448
:10134000F62BA3C0802F0E94EB2B812F0E94A92691
:101350009CC0802F32EF931609F440C0391538F045
:1013600090EF991661F0E1EF9E1699F170C0F3EFDE
:101370009F16D9F124EF921609F44EC068C0DD2003
:1013800019F134E03A1508F47CC01F7181E090E057
:10139000A0E0B0E0AC01BD0104C0440F551F661FC2
:1013A000771F1A95D2F780915D0390915E03A0910B
:1013B0005F03B09160038A019B01082719272A2740
:1013C0003B27C901B80125C025E02A1508F459C0FA
:1013D000DCCFDD2029F0812F8F712CC0DD20D9F3E7
:1013E000812F8F710E94A9264CC0DD2079F01F71DA
:1013F00081E090E0A0E0B0E0BC01CD0104C0660F48
:10140000771F881F991F1A95D2F703C060E070E01C
:10141000CB010E949F2635C0DD2079F01F71812FFE
:101420000E94E72638E0139FC00111248360809357
:10143000B907812F0E94E72624C081E00E94CE26B2
:1014400081E08A15F0F482E00E94CE261AC0DD20E9
:1014500039F0AA2009F4BFCF802F0E947A2C11C046
:10146000AA2009F4BDCF893349F49FEFE7EEF3E0FA
:101470009150E040F040E1F700C00000802F0E9452
:10148000422C88EF8B0D843010F40E945B1CCC2022
:1014900009F4F3C28091B90780FDEFC2F70112820F
:1014A0008595859585950E94E726C7010E9433069C
:1014B0008091B9078595859585950F900F900F9030
:1014C0000F900F90DF91CF911F910F91FF90EF90B0
:1014D000DF90CF90BF90AF909F908F900C94A926F3
:1014E000063CFCE51F0709F4B3C038F506313CE5BE
:1014F000130709F48AC250F401159CE5190708F492
:101500007CC202301C4508F078C2B7C2053CFCE53D
:101510001F0708F099C0033C2CE5120708F0ADC284
:10152000023C1C4509F069C29091320581E089278F
:101530008093320510920401BFC0063D8CE5180768
:10154000E0F40B3C9CE5190708F097C2083CECE579
:101550001E0709F48AC008F481C0093C2CE5120773
:1015600009F48CC00A3C1C4509F047C2209135059E
:1015700030E1231B08F420E08DC00C3D8CE51807FA
:1015800008F43BC20F3D1C4508F037C276C20F90ED
:101590000F900F900F900F90DF91CF911F910F91AF
:1015A000FF90EF90DF90CF90BF90AF909F908F9083
:1015B0000C942A1080918A03982F909590FB80F9C3
:1015C00080938A035AC20F900F900F900F900F9044
:1015D000DF91CF911F910F91FF90EF90DF90CF900F
:1015E000BF90AF909F908F900C9415258091BC0771
:1015F0008272B9F00F900F900F900F900F90DF91C3
:10160000CF911F910F91FF90EF90DF90CF90BF90FF
:10161000AF909F908F900C94EA1C8091BC078272CF
:1016200049F30F900F900F900F900F90DF91CF9193
:101630001F910F91FF90EF90DF90CF90BF90AF90F0
:101640009F908F900C94001D80913305885F03C09C
:10165000809133058850809333052EC02091340546
:1016600030E1230F08F42FEF06C02091340530E15C
:10167000231B08F420E0209334051EC0209135057B
:1016800030E1230F08F42FEF293720F088E780930B
:10169000350512C0209335050FC02091360530E185
:1016A000230F08F42FEF06C02091360530E1231BED
:1016B00008F420E0209336050F900F900F900F90C4
:1016C0000F90DF91CF911F910F91FF90EF90DF90DE
:1016D000CF90BF90AF909F908F900C94D61C81E0DC
:1016E00045C08091320586958695825C8F738330E4
:1016F00008F497CF82E03AC08091320586958695AE
:10170000865C8F73823008F48CCF86E02FC0809186
:10171000320586958695895C8F73853008F481CF74
:1017200089E024C080913205869586958F5C8F7301
:10173000853008F476CF8FE019C080913205869508
:101740008695855D8F73823008F46BCF85E10EC07E
:1017500088E10CC08091320586958695895D8F73EE
:10176000893008F45ECF89E101C083E20F900F90C9
:101770000F900F900F90DF91CF911F910F91FF90DD
:10178000EF90DF90CF90BF90AF909F908F900C9490
:10179000DE1C1092420371C182E0809342036DC14E
:1017A0000E940A25811102C00E9415250E94F92479
:1017B000909349038093480300319CE5190709F48D
:1017C000C3C008F041C00830FCE51F0709F49AC007
:1017D000F0F404303CE5130709F487C068F40230E4
:1017E0009CE5190709F477C003301C4509F0E5C0F2
:1017F00080914803826076C00630FCE51F0709F43B
:101800006EC008F07BC08091480388606BC00C30CC
:101810003CE5130709F485C068F40A309CE5190714
:1018200009F474C008F079C00E94372C80914803F5
:10183000806858C00E30FCE51F0709F476C008F038
:101840007FC0809148038BC00B3F3CE5130709F430
:101850004FC018F503319CE5190709F47DC078F4F1
:101860000131FCE51F0709F473C002311C4509F082
:10187000A4C00E94372C809148038F7733C0053174
:101880003CE5130709F472C008F486C00A3F1C4502
:1018900009F093C0809149033EC00F3FECE51E075D
:1018A00009F45FC058F40D3F2CE5120709F444C059
:1018B00008F43FC08091490382602DC001308DE55E
:1018C000180709F475C008F45DC002301D4509F021
:1018D00074C060E06EC080914803816003C0809155
:1018E000480380618093480368C08091480311C019
:1018F000809149038260809349035FC080914803CF
:101900008062F0CF809148038064ECCF80914803DF
:1019100088608460E7CF8160EECF809148038E7F3E
:10192000E1CF809148038D7FDDCF80914803877F91
:10193000D9CF8091490318C0809149038D7FDBCFB7
:10194000809148038F7ECECF809148038F7DCACF90
:10195000809148038F7BC6CF80914803877F8B7F20
:10196000C1CF809149038D7F8E7FC5CF8091480381
:1019700082FB222720F991E0922790FB82F990FBCD
:1019800083F9B0CF80914903982F909591708E7F05
:10199000892B90FB81F9AFCF0E94372C80914803AF
:1019A00087FB222720F991E0922790FB87F99ACFB5
:1019B00061E08EE090E00E94033060914803109156
:1019C000490384E090E00E940330612F81E290E0BF
:1019D0000E9403300F900F900F900F900F90DF91A7
:1019E000CF911F910F91FF90EF90DF90CF90BF901C
:1019F000AF909F908F900C94372CF701008111814C
:101A0000C8010E944826D82EDACA80912703811186
:101A100020C089E2E2E4F7E028E437E0928189130C
:101A200001C0128231962E173F07C1F70F900F9019
:101A30000F900F900F90DF91CF911F910F91FF901A
:101A4000EF90DF90CF90BF90AF909F908F900C94CD
:101A5000CE2585E3DFCF8091BC078A7A91E009F437
:101A600090E090932703811106C069E282E497E039
:101A70000E94DF24DBCF65E3F9CF0F900F900F902A
:101A80000F900F90DF91CF911F910F91FF90EF90EA
:101A9000DF90CF90BF90AF909F908F9008959091DE
:101AA000480392FF0DC0282F2871283019F4877F32
:101AB000846006C0282F2471243011F48B7F886045
:101AC00093FF0DC0282F2871283119F4877E846177
:101AD00006C0282F2471243111F48B7E8861209157
:101AE000490320FF0DC0382F3871383019F4877F33
:101AF000816006C0382F3171313011F48E7F8860DB
:101B000021FF0DC0282F2871283119F4877E8161AB
:101B100006C0282F2171213111F48E7E886194FD39
:101B2000877E08959C013A9521153F4138F5DC01E7
:101B3000AA27B270AC01442754709C012227387048
:101B400094FF0FC090FF02C080E101C080E0AB2B8A
:101B500009F08062452B09F08064232B69F08068CE
:101B60000BC0892F8170AB2B09F08260452B09F0E7
:101B70008460232B09F08860FB0109940895CF93BA
:101B8000DF9324E5829FC0011124FC0137E0739F9D
:101B9000E00DF11D1124E60FF11DEE0FFF1FEC5DAE
:101BA000FE4FC591D491CE01C238D10569F1B0F490
:101BB000C133D10509F475C048F4C932D10509F41F
:101BC00069C0CA32D10509F473C079C0C533D105E3
:101BD00009F459C0C933D105B9F071C0C33ED1056C
:101BE00071F138F4C03ED105B1F0C23ED10511F11A
:101BF00066C0C63ED105B9F1C73ED105C9F1C43EA4
:101C0000D10509F05CC024C02091480320FD1AC210
:101C100021FD18C21CC22091480320FD0DC2209155
:101C2000490320FF14C28091480384FDB7C183EEAD
:101C300090E00DC22091480322FF09C2F4CF8091A9
:101C4000480382FDFCC18091490380FDFBC1EBCFBD
:101C50002091490321FFFBC18091480384FD9EC16F
:101C600087EE90E0F4C12091480323FFF0C1F4CF48
:101C70008091480383FDE9C18091490381FFECCF46
:101C800084EE90E0E4C12091480325FFE0C189E2A1
:101C900090E0DDC12091480325FFD9C185E390E0A4
:101CA000D6C12091480326FFD2C18AE290E0CFC17D
:101CB0002091480326FFCBC181E390E0C8C1C11544
:101CC00040E5D40708F049C0C11520E4D20708F068
:101CD00030C1C83ED10520F5C03ED10508F0B7C1DE
:101CE000C83AD10570F4C53AD10508F0ADC0C1308D
:101CF000D10509F4ACC108F451C1249708F44EC1D0
:101D0000A6C1CF3BD10508F4AAC0C03CD10508F458
:101D100045C1CE01880F991FFC01EC59FD4FFEC053
:101D2000C11530E2D30760F4C11541E0D40708F0D3
:101D30008EC1C03FD10508F431C1CE01906587C185
:101D4000C11580E3D80708F0ECC0CE019F70FC01FC
:101D5000EE0FFF1FEC51FC4FE1C0C11525E5D20786
:101D600008F045C0C11534E5D30708F0FAC0C11525
:101D700042E5D40718F5C11581E5D80708F0DDC0A4
:101D8000CE0174E0969587957A95E1F7282F237018
:101D90003C2F337081E090E002C0880F991F3A9584
:101DA000E2F79C68922BEC2FEF70E695E69520E227
:101DB000E29FF00111248E2B9F2B49C1AE0143708D
:101DC00055272C2F26952695C115D34508F0BAC066
:101DD00081E090E002C0880F991F4A95E2F740E247
:101DE000249F90011124822B932B9C6830C1C11534
:101DF00049E5D40798F4C11588E5D80708F0B6C0BE
:101E0000C11526E5D20708F0C9C08C2F0E944F0DDE
:101E10008F7190E0982F8827906219C1C1153AE51B
:101E2000D30708F4A8C0CE0190568115904208F05F
:101E3000B5C08D2F8F710E944F0DFE01FF27F062FC
:101E40008F719F01382BA8C0C53AD10509F4A9C0EC
:101E5000C63AD10509F0A8C082E890E4F8C0C83AB3
:101E6000D10509F4A4C0C93AD10509F4A3C0CA3AFE
:101E7000D10509F4A2C0CB3AD10509F4A1C0CC3AEE
:101E8000D10509F4A0C0CB3BD10509F49FC0CC3BE0
:101E9000D10509F49EC0CD3AD10509F49DC0C03BDF
:101EA000D10509F49CC0CE3AD10509F49BC0CF3AC4
:101EB000D10509F49AC0C13BD10509F499C0C23BD0
:101EC000D10509F498C0C33BD10509F497C0C43BC0
:101ED000D10509F496C0C53BD10509F495C0C63BB0
:101EE000D10509F494C0C73BD10509F493C0C83BA0
:101EF000D10509F492C0C93BD10509F491C0CD3B8D
:101F0000D10509F490C0CE3BD10509F48FC0CA3B7E
:101F1000D10509F48EC080E094E499C08591949134
:101F200096C0CE019927D3FF02C0986C90C0906CE8
:101F30008EC0CE019F70906A8AC09C2F8827816FC7
:101F4000906A85C081E090E002C0880F991F4A9591
:101F5000E2F740E2249F90011124822B932B9A6890
:101F600076C09C2F8827846F906A71C09C2F882729
:101F7000806F906A6CC08C2F8F700E944F0DFE0195
:101F800094E0F695E7959A95E1F7EF70F0E0FE2F73
:101F9000EE27F0699F01282BC90159C080E090E02D
:101FA00056C081E890E453C083E890E450C082EECC
:101FB00094E44DC089EE94E44AC08AEE94E447C0AC
:101FC00085EB94E444C086EB94E441C083EB94E455
:101FD0003EC084EB94E43BC087EB94E438C08CECC7
:101FE00094E435C08DEC94E432C083E895E42FC0CE
:101FF0008AE895E42CC082E995E429C084E995E457
:1020000026C081E296E423C083E296E420C084E205
:1020100096E41DC085E296E41AC086E296E417C0F5
:1020200087E296E414C08FE694E411C080E794E45C
:102030000EC08AE296E40BC089E390E008C082EE0D
:1020400090E005C080EE90E002C086EE90E0DF9167
:10205000CF9108950E94372C2FEF84E39CE021500C
:1020600080409040E1F700C0000081E08093E000F4
:1020700080E28093D8001092C9008FE19EE401971E
:10208000F1F700C0000087E090EBDC018093C1070E
:102090009093C207A093C307B093C4079CE088E164
:1020A0000FB6F894A895809360000FBE90936000DF
:1020B000FFCF8F929F92AF92BF92CF92DF92EF921B
:1020C000FF92CF93DF93D82FC62F0E949F1E8823A5
:1020D00009F471C0C0905D03D0905E03E0905F038F
:1020E000F0906003C701B6010E9478252D2F30E0E3
:1020F0006C2F70E0A901480F511D480F511DFA01C6
:10210000EE0FFF1FE60FF71FEE0FFF1FEC53FC4F04
:10211000C081D181C130D105F1F4882309F44BC0CD
:102120008150E82FF0E04E01082E02C0880C991C67
:102130000A94E2F7092C000CAA08BB088C209D2009
:10214000AE20BF2089288A288B2821F3EE0FFF1F9D
:10215000E20FF31FD5CF7E0180EEE81AF10888E088
:10216000E816F10410F0209719F466EF7BE202C044
:1021700061EE7BE2CE010E94920D8C2F0E947A2CA0
:102180008C2F0E94422C88E0E816F10410F0209772
:1021900019F46BEE7BE202C066ED7BE2CE01DF91CB
:1021A000CF91FF90EF90DF90CF90BF90AF909F9036
:1021B0008F900C94920DDF91CF91FF90EF90DF9074
:1021C000CF90BF90AF909F908F9008954F925F9265
:1021D0006F927F928F929F92AF92BF92CF92DF9237
:1021E000EF92FF920F931F93CF93DF9368E271E01A
:1021F0000BE213E0D1E38D2ED3E09D2ED801512CBC
:10220000EE24E394F12C5D017C901C92EB0189910A
:10221000BE01E82FE295EF70F0E021A18F70A701D9
:1022200002C0440F551F8A95E2F7CA01242B21A34F
:1022300022A1442E4094242122A350EA5A95F1F77A
:10224000C4E3CC2EC1E0DC2E40E050E0E601699012
:102250006E01262D22952F7030E0E90128A130E093
:10226000D62DDF7002C035952795DA95E2F720FD6F
:1022700007C09701042E01C0220F0A94EAF702C09A
:1022800020E030E03C91232B2C934F5F5F4F473091
:102290005105E1F691A1D42DD923D1A392A1892B87
:1022A00082A3119681E0F5019081971101C080E031
:1022B000582AF3E0A133BF0709F0A5CFD091470317
:1022C000552049F081E080932A030E94AA2490932C
:1022D00029038093280380912A038823A9F0809101
:1022E0002803909129030E946115069768F0ED2F4D
:1022F000F0E0E35BFC4FD8018D918D0181938A164C
:102300009B06C9F710922A030E949F1E882309F496
:10231000DBC2D09146030E943E2E892BC1F4ED2FE3
:10232000F0E0E35BFC4F80E090E0DC01AA5CBC4F96
:102330002C912193019686309105B9F760913C0369
:10234000809143030E94891C1092350313C0809131
:1023500035038F5F80933503863060F0E09146034C
:10236000F0E0E35BFC4F80E090E011920196863054
:102370009105D9F7409131035091320360913303B5
:10238000709134032FB7F89480913E0390913F03EE
:10239000A0914003B09141032FBF6C017D01C41A8D
:1023A000D50AE60AF70A84179507A607B70728F49F
:1023B000B1E0CB1AD108E108F1080E949E24AB01DC
:1023C000BC01409331035093320360933303709305
:1023D000340380912E0590912F05A0913005B09186
:1023E00031058F3FCFEF9C07AC07BC0729F1EE24E6
:1023F000FF249701860100951095209530950817C8
:1024000019072A073B0760F48FEF9FEFDC018093E9
:102410002E0590932F05A0933005B09331050CC085
:10242000C80ED91EEA1EFB1EC0922E05D0922F05A3
:10243000E0923005F092310520913205822F8370B1
:1024400021F0D22FD695D69501C0D0E0809104011D
:102450008130A1F038F0823009F403C2833009F4EE
:102460000BC246C21092220140932A0550932B05BD
:1024700060932C0570932D0581E0FBC180910601CE
:10248000D8130BC0237030E04091050150E081E08B
:102490002417350719F480E001C081E08170809332
:1024A00024014D2F50E04831510508F0C8C1FA0110
:1024B000EE59FF4F0C94BE30882309F4C0C18091BF
:1024C000220119E1819F102D112409E1010F0D371F
:1024D00008F00CE7101708F0F1C020E040E060E0E1
:1024E000812F90E00E94D41C1F5FF4CF80912201C5
:1024F00019E1819F102D112409E1010F0D3708F01A
:102500000CE76091330570913405809135050E9488
:10251000AC1DF62EE72ED82E101708F0CFC0E12FF5
:10252000F0E0DF01A955BD4F8C91909123019823D4
:1025300031F02D2D4F2D6E2DCF010E94D41C1F5F29
:10254000EBCF1091220189E1189F102D112409E190
:10255000010F0D3708F00CE7E0903405F0903505D9
:10256000D09033056D2D7E2D8F2D0E94AC1DC62E73
:10257000B72EA82E609136056D0D7E2D8F2D0E94F1
:10258000AC1DF62EE72ED82E101708F097C0812F1D
:1025900090E0FC01E955FD4F308120912301232378
:1025A00059F030FF04C02D2D4F2D6E2D03C02A2D64
:1025B0004C2D6B2D0E94D41C1F5FE6CF1091220181
:1025C00089E1189F102D112409E1010F0D3708F042
:1025D0000CE7E0903405B09035052091360550E4C5
:1025E000F52E3F2D329F312D1124F32E101708F0B8
:1025F00065C0C12ED12CF601E955FD4F9081809127
:1026000023018923B9F0F601EE0FFF1FE055FE4FBD
:10261000808182958F70609133058F9D600D1124AC
:102620007E2D8B2D0E94AC1D462F282F672FC601B3
:102630000E94D41C1F5FDACF1091220189E1189FFC
:10264000102D112409E1010F0D3708F00CE7E0907F
:102650003305F0903405D0903505609136056695C8
:102660006695669580912A0590912B050E94A21D82
:102670000E94271D805887FD8195880F482F5D2D6A
:10268000459F412D1124842FB7010E94AC1DF62EC9
:10269000E72ED82E101790F4E12FF0E0DF01A955B6
:1026A000BD4F8C9190912301982331F02D2D4F2D0A
:1026B0006E2DCF010E94D41C1F5FECCF81E00C3740
:1026C00008F4BEC0BCC086E79AE102C08AE49AE181
:1026D0000E945321B5C08FE49BE11DC080E39BE1C4
:1026E0001AC085E19BE11CC089EF9AE119C088E41A
:1026F0009AE1EECF8FE39AE1EBCF86E39AE1E8CF60
:102700008BE19AE1E5CF8CE09AE10AC089E79DE18F
:1027100002C088EE9AE10E94F72092C084ED9AE10F
:102720000E947B208DC08EED99E105C08CEA99E175
:1027300002C08EE699E10E941A2082C081111EC05B
:102740006091360520E1620F08F46FEF80912A0551
:1027500090912B050E94A21D6AE070E00E949630C5
:10276000892B09F06CC00E94BC2F6CE770E00E94BE
:10277000AA30609123010E94591E61C080912201FC
:1027800009E1809F002D112439E1F32EF00E8CE732
:102790008F1510F42CE7F22E10E0CF2CD12C0C1555
:1027A0001D0544F460912301C8010E94591E0F5F6A
:1027B0001F4FF5CF81E09BE79F1508F041C03FC058
:1027C00081111DC06091360520E1620F08F46FEFA2
:1027D00080912A0590912B050E94A21D65E070E072
:1027E0000E949630892B59F50E94BC2F6CE770E04F
:1027F0000E94AA30609123010E94371E20C0809160
:10280000220109E1809F002D112499E1F92EF00E9B
:10281000ACE7AF1510F48CE7F82E10E0CF2CD12CDC
:102820000C151D0544F460912301C8010E94371E58
:102830000F5F1F4FF5CF81E0BBE7BF1508F480E0C5
:10284000909122019F5F90932201811151C082E0FB
:10285000809304018091240181114AC0DD2341F05D
:1028600047C0D09306012370209305010E946D1B81
:1028700083E0809304013CC000912A0510912B0550
:1028800020912C0530912D058FB7F89440913E038F
:1028900050913F0360914003709141038FBFDB0172
:1028A000CA01801B910BA20BB30B401751076207A3
:1028B000730718F40197A109B1094097A105B10563
:1028C000B8F01092040114C0E0914703F0E0E35B1C
:1028D000FC4F80E090E02191DC01AA5CBC4F2C937E
:1028E000019686309105B9F78091450380933C03AA
:1028F0000E94B41C852DDF91CF911F910F91FF9005
:10290000EF90DF90CF90BF90AF909F908F907F908F
:102910006F905F904F9008950895809115050895E8
:10292000CF93DF9300D01F92CDB7DEB79C0190917B
:102930004203911105C080912005843049F504C0FF
:10294000923011F0943021F584E089833B832A830F
:1029500082E08093E9008FEF9091E800815095FD2F
:1029600006C095ED9A95F1F700008111F5CF8091A1
:10297000E80085FF0DC040E050E063E070E0CE016C
:1029800001960E949D218091E8008E778093E80057
:102990000F900F900F90DF91CF910895CF93DF9319
:1029A00000D01F92CDB7DEB720912005243031F53D
:1029B00023E02983805891099B838A8382E0809356
:1029C000E9008FEF9091E800815095FD06C095EDEC
:1029D0009A95F1F700008111F5CF8091E80085FF0D
:1029E0000DC040E050E063E070E0CE0101960E942F
:1029F0009D218091E8008E778093E8000F900F90E2
:102A00000F90DF91CF910895CF93DF9320914203F0
:102A1000211103C02091200502C0223011F0243082
:102A200039F521E02093E9002FEF3091E8002150A3
:102A300035FD06C035ED3A95F1F700002111F5CFCF
:102A40002091E80025FF14C0EC0140E050E068E070
:102A500070E00E949D218091E8008E778093E800CD
:102A600088E0FE01A6E1B5E001900D928A95E1F7BC
:102A7000DF91CF91089578941F920F920FB60F9225
:102A800011248F939F93AF93BF9380913E039091B6
:102A90003F03A0914003B09141030196A11DB11DD8
:102AA00080933E0390933F03A0934003B093410370
:102AB000BF91AF919F918F910F900FBE0F901F907C
:102AC0001895CF92DF92EF92FF920F931F932FB73B
:102AD000F89440913E0350913F0360914003709100
:102AE00041032FBF6A017B01EE24FF248C0120E00B
:102AF00030E0C016D106E206F30610F44150510949
:102B00009A01281B390BC9011F910F91FF90EF907B
:102B1000DF90CF900895CF93DF93CDB7DEB72C979A
:102B20000FB6F894DEBF0FBECDBF84B7877F84BFDA
:102B30000FB6F894A895809160008861809360003A
:102B4000109260000FBE80E88093610010926100D7
:102B500085B7806885BF85B7806885BF0E94982942
:102B60000E943E2A8091E20084608093E200789483
:102B7000809120058823A1F01091E9001F709091A9
:102B8000EC00892F817090FD80E8182B1092E900ED
:102B90008091E80083FD0E94C9211F701093E90015
:102BA00082E084BD93E095BD9AEF97BD80936E005F
:102BB0008EE090E00E94E52F91E0811101C090E04D
:102BC00090930F010E949F1E61E070E0882329F01E
:102BD00087E091E00E949F2D04C087E091E00E9471
:102BE000A62D80910F0180910F01882311F090E0B4
:102BF00001C096E09093470386E0891B80934603CB
:102C0000A8E2B1E04EE251E061E070E08D91E82F82
:102C1000E295EF70F0E021A18F708B0102C0000FF0
:102C2000111F8A95E2F7C801902F9095922391A3E6
:102C300092A1892B82A34A175B0741F7A4E3B1E075
:102C40004BE351E061E070E08D91E82FE295EF7089
:102C5000F0E021A18F708B0102C0000F111F8A9537
:102C6000E2F7C801902F9095922391A392A1892B0E
:102C700082A34A175B0741F7E9E5AE2EE3E0BE2EDB
:102C8000EDE4F3E01192AE16BF06E1F70E940A25CB
:102C9000811102C00E9415250E940A25811104C0DD
:102CA0000E9415250E94161D45E050E06CE170E081
:102CB00082E395E00E94D52F809132058C7F11F43C
:102CC0000E94161D52985A9A56985E9A89B182FBB4
:102CD000882780F94E9B02C092E001C090E0892BCA
:102CE0008093450390910F0181E0982790934403CE
:102CF000891B809343030E949F1E882311F083E069
:102D000001C080E08093810380FD02C080E801C0A3
:102D100080E2809337050E948B2E6DE070E087EF94
:102D200093E00E94F11F892B09F043C08091810339
:102D300063E070E081FD3AC084EF93E00E94F11FF0
:102D4000892BB9F56DE070E084EE93E00E94F11FED
:102D5000892B79F50E949E24DC01CB01805A954194
:102D6000AF4FBF4F8093830390938403A093850359
:102D7000B0938603EAE3F5E080E092E0DF018C01A6
:102D80001D9201501040E1F7F0934107E093400796
:102D90008FEF9FEF909339058093380581E0809302
:102DA0008803809387031092820303C081EF93E02E
:102DB000C5CF0E940A25811102C00E94152582E01C
:102DC00090E00E94E52F80938A030E94F92490935B
:102DD00049038093480383E090E00E94E52F682F29
:102DE00070E080E090E00E94082787E191E09093F6
:102DF0004B0380934A03CC24C394D12C80912005AB
:102E0000853009F038C080912005843021F110927E
:102E10004C0380E428E130E00FB6F894A8952093A5
:102E200060000FBE8093600083B7817F846083BFA2
:102E300083B7816083BF7894889583B78E7F83BF83
:102E40000FB6F894A8958091600088618093600027
:102E5000109260000FBE80911F05882309F4CECF29
:102E60000E94E610EDE4F3E08191811109C2AE16F3
:102E7000BF06D1F7C3CF0E94E610982E0E949F1E76
:102E8000882309F448C0ABE8B3E0EDE4F3E0E12CBB
:102E9000F12C7E2D61912D912627A9F180E090E003
:102EA00030E0182FA901082E02C0559547950A94C5
:102EB000E2F740FF24C089837A83C60102C0880FED
:102EC000991F1A95E2F78C0170E06823792381E05D
:102ED000672B09F480E08B830E94AA248160782FFD
:102EE0009D838C8349815A816B818D810E94931BC4
:102EF000F701E557FC4F8081082700831CC001962D
:102F00008730910571F69FEFE91AF90A0CE0E01697
:102F1000F10409F0BECF8FEF8E838F8318860E9455
:102F2000AA248160782F9A8789874E815F8168857E
:102F30008A850E94931B80918803882309F491C19C
:102F40002AE335E030934107209340070E949F1EFB
:102F5000882309F46BC082E594E00E94E31F8CE4AF
:102F600094E00E94E31F40915D0350915E036091E5
:102F70005F0370916003411551056105710591F082
:102F8000942F92959F7019F4942F80E001C084E0F3
:102F9000292F2695269511F08E5F922F969561F038
:102FA0008F5F0AC06091590370915A0380915B034F
:102FB00090915C030E947825813059F038F082307E
:102FC00059F0833061F484E394E00BC086E494E02C
:102FD00008C080E494E005C08AE394E002C08EE279
:102FE00094E00E94E31F0E945B1C182F88E294E08B
:102FF0000E94E31F10FF03C082E294E002C08CE154
:1030000094E00E94E31F11FF03C086E194E002C038
:1030100080E194E00E94E31F12FF03C08AE094E085
:1030200002C084E094E00E94E31F1AC082E694E0AC
:103030000E94E31F20913805309139052115310593
:10304000B9F4809182038111ECC069E070E082EAFA
:1030500094E00E94F11F892B19F481E08093820390
:1030600020913805309139052115310509F4D9C071
:10307000809182038111D5C0282E312C7601082E33
:1030800002C0EE0CFF1C0A94E2F7A701422353236F
:10309000452B11F48F5FF0CF90918103910165E092
:1030A000220F331F6A95E1F790FD12C08295880FB9
:1030B000807680931201220F232F221F330B31952C
:1030C00020931501815E809313011092160112C0A6
:1030D00045E0369527954A95E1F7220F220F220FFA
:1030E0002093120110921501295F2093130183E0B0
:1030F0008093160124E630E047E050E060E171E0A3
:1031000088E70E94182F892B09F08BC080918103DA
:1031100080FD23C0C10125E0880F991F2A95E1F7A2
:10312000AC01465C5A4F04E610E020E230E060E477
:1031300088E70E943F2F892B09F073C00E94671C0B
:10314000E094F0948091380590913905E822F922B5
:10315000F0923905E092380564C080E2A1E6B3E060
:103160001D928A95E9F785E0220C331C8A95E1F7D8
:10317000EFE3F1E0FC87EB874BE351E0AB85BC85E7
:103180008D91BC87AB87FA019191AF019101290F15
:10319000311D8901065C1A4F280190E08F599C4F20
:1031A000FC0107E09F01281B390B7C2C01C0770C28
:1031B0002A95EAF7B201812CDB011D91BD0117218F
:1031C000202F28192770622E022E000C330BB12FEE
:1031D00001C0BB0F6A94EAF76B2E31952195310936
:1031E0002770332701C016952A95EAF7612A1081C6
:1031F000612A6082839418E08112DECF01503196FB
:103200000F3F81F623E431E06B857C852617370775
:1032100009F0B4CF04E610E020E230E041E653E0EC
:1032200086CF809187038823E1F0409083035090FC
:10323000840360908503709086030E949E24DC01C5
:10324000CB0184199509A609B709B7FD0AC062E048
:1032500070E08BEA94E00E94F11F892B11F4109228
:10326000870391100E94671C0E945B1C9091890348
:10327000891709F4C3CD0E945B1C80938903BECDDE
:1032800080E189BD82E189BD09B400FEFDCF809156
:10329000D8008F7D8093D8008091E0008260809379
:1032A000E0008091E00081FDFCCFA8CDE8E9F3E0EB
:1032B00095E0EC30F90729F08183608342833396EF
:1032C000F7CF0895FC01EE0FFF1F8E0F9F1FFC012B
:1032D000E856FC4F61834083228308950F931F9328
:1032E00010E0F801EE0FFF1FE155FE4F908190575F
:1032F00097FD9195000F111FF801E055FE4FE081F9
:10330000F0E0B597DF01AA0FBB1F8D010E0F1F1F45
:103310002003D001219FB00D1124E8E3F0E0E91B68
:10332000F10997FDF3959F01220F331F89010E0FBD
:103330001F1F40039001419F300D11242A0F3B1F96
:1033400037FF02C021583F4F220F232F221F330B7C
:10335000620F1F910F9108950F931F93522F10E04A
:10336000F801EE0FFF1FE055FE4FE081F0E0B5974A
:10337000EE0FFF1F9F015203D001539FB00D112488
:10338000000F111FF801E155FE4F008110E00057BA
:103390001109000F111F40039001419F300D1124AE
:1033A0002A0F3B1F37FF02C021583F4F220F232F08
:1033B000221F330B620F1F910F9108950F931F93DC
:1033C000522F10E0F801EE0FFF1FE055FE4FE08195
:1033D000F0E0B5979F015203D001539FB00D112427
:1033E000000F111FF801E155FE4F008110E000575A
:1033F000110940039001419F300D11242A0F3B1FFA
:1034000037FF02C021583F4F220F232F221F330BBB
:10341000620F1F910F910895EF920F931F9393E006
:10342000099F80011124159507956E2D600F1F913E
:103430000F91EF900895A22F50E0FA01EE0FFF1FB9
:10344000E055FE4F9081955297FD9195440F551F81
:10345000FA01E155FE4F3081232F30E02A1B31095C
:10346000290F311D97FD3A95620F0895E42FF0E082
:10347000EE0FFF1FE055FE4F6081621B0895E42FA1
:10348000F0E0EE0FFF1FE155FE4F6081621B0895D3
:10349000622F0895E42FF0E0EE0FFF1FE155FE4F7D
:1034A000408134EE439F412D1124E82FF0E050E09D
:1034B000445E5F4FDA01A21BB1099D01B7FF03C053
:1034C00031952195310993E0220F331F9A95E1F749
:1034D000AF01421B530B9A0157FF02C020E030E0BE
:1034E000582F259F212D1124822F0895E42FF0E0DD
:1034F000EE0FFF1FE155FE4F408134EE439F412DFB
:103500001124E72FF0E050E0445E5F4FDA01A21B88
:10351000B1099D01B7FF03C031952195310993E0B1
:10352000220F331F9A95E1F7AF01421B530B9A010B
:1035300057FF02C020E030E0279F212D1124722F79
:103540000895FC019B01009721F477FF2BC080E8D0
:103550000895AC0197FF04C044275527481B590B19
:10356000B901640F751F37FD0CC0241B350BC90151
:10357000A5E0880F991FAA95E1F70E94AA3080E282
:103580000CC0CB0165E0880F991F6A95E1F7BA017D
:10359000621B730B0E94AA3080E6861BF7FF03C0F4
:1035A0008195089580E00895EF920F93CF93DF9374
:1035B000D72FC82FC9010E19BA010E94A11A602F76
:1035C000681B7D2F8C2FDF91CF910F91EF90089585
:1035D0000F93CF93DF93D72FC82FC901BA010E9451
:1035E000A11A682F600F7D2F8C2FDF91CF910F9143
:1035F0000895EF920F931F93CF93DF93D62FC72F8A
:10360000182FC9010E19010FBA010E94A11A081B37
:10361000202F219F212D1124822F6D2F7C2FDF91B0
:10362000CF911F910F91EF900895EF920F931F93F9
:10363000CF93DF93D62F172FC82FC9010E19070F6D
:10364000BA010E94A11A702F781B719F712D11244D
:103650006D2F8C2FDF91CF911F910F91EF900895D7
:10366000FF920F931F93CF93DF93F62ED72F182F30
:10367000C901C12FC01BBA010E94A11A982F990F2E
:10368000890FC81B2C2F219F212D1124822F6F2DD4
:103690007D2FDF91CF911F910F91FF900895FF92A1
:1036A0000F931F93CF93DF93F62E172FD82FC901B7
:1036B000C72FC01BBA010E94A11A982F990F890F1A
:1036C0007C2F781B719F712D11246F2D8D2FDF9111
:1036D000CF911F910F91FF900895279A85B18F7711
:1036E00095B190682FB7F894E8E9F3E035E0EC3055
:1036F000F30789F0319148E095B9000000C037FF29
:1037000085B9330F000000C000C000C085B900C0FB
:103710004A9591F7EBCF2FBF87EC90E00197F1F737
:1037200000C0000008951F93CF93DF93CDB7DEB79D
:1037300067970FB6F894DEBF0FBECDBF4B8B5C8B87
:103740006D8B7E8B8F8B86E09E01235F3F4FD9016F
:10375000E82F1D92EA95E9F795E0FE017396D901ED
:1037600001900D929A95E1F7F901DE01179601900B
:103770000D928A95E1F7CE0107960E948427811168
:103780003EC086E0FE013796DE01119601900D9253
:103790008A95E1F7FF81E8856A857B85611571056A
:1037A00031F0EF3F31F481E0FF3F19F403C081E0D5
:1037B00001C080E080FD23C02091500730E0C901A6
:1037C0000196877099274091810750E084179507EB
:1037D00079F1F983EA837D836C8396E0929FD0012F
:1037E000939FB00D1124AF5AB84FFE01319601904E
:1037F0000D929A95E1F7809350070E94122716E0E8
:1038000080918107909150078917F9F0189FC001A6
:1038100011248F5A984F0E9484278823B1F08091F9
:10382000810790E001968770992780938107E8CF00
:103830000E94372C1092500710928107EAE4F7E0BB
:1038400086E0DF011D928A95E9F767960FB6F89436
:10385000DEBF0FBECDBFDF91CF911F9108952091A4
:103860001205309113052817390771F0909313054D
:1038700080931205E0914A03F0914B03309721F0B9
:103880000084F185E02D0994089520911005309170
:1038900011052817390771F09093110580931005D1
:1038A000E0914A03F0914B03309721F00680F781B5
:1038B000E02D09940895E0914A03F0914B0330976D
:1038C00021F00190F081E02D099480E008950E949C
:1038D0009E24DC01CB01805A9541AF4FBF4F8093AE
:1038E000830390938403A0938503B0938603809110
:1038F000870381110BC062E070E08DEA95E00E94C1
:10390000F11F892B19F481E080938703809187034D
:1039100008951F93CF93DF93182FC82F880FDD0BC7
:103920006F70E62FF0E0E55BFE4FC45FDA4F9081E9
:103930008881890F8883843024F060E0812F0E9481
:10394000591088818D3F24F461E0812F0E94591025
:103950008881837887FF03C081508C6F8F5F888355
:10396000DF91CF911F91089520914503220F220FDF
:103970002093450339B132FB882780F990E039B1B3
:1039800036FB662760F970E036FF02C062E070E047
:10399000862B972B622F682B6093450380914403FD
:1039A0000C94891C0C9456190C94621945E050E053
:1039B0006CE170E082E395E00C94F32FE2E3F5E034
:1039C000880F880F90819370892B80831092040157
:1039D0000C94D61C90913205892F86958695815C32
:1039E0008F739370882321F0880F880F892B02C072
:1039F000892F8C6580933205109204010C94D61C9B
:103A000090913205892F869586958F5F8F7393707D
:103A1000883120F4880F880F892B02C0892F846099
:103A200080933205109204010C94D61CE2E3F5E079
:103A300081E380838091250190912601A091270147
:103A400081839283A3838FE784830C94D61C482FB1
:103A5000982F46FD9095E92FEF739F7046FD9F5F6D
:103A6000E295EF70EE0FF0E0ED5BFE4F2181299FB4
:103A7000802D212D112482958F702295207F822BFD
:103A80003081982F930F892F47FD81958058089595
:103A9000BC018230910508F40895613E8EE17807FB
:103AA00048F49B0195E0369527959A95E1F748E013
:103AB000420F01C04FEF91E0242F30E0290F311D5C
:103AC00035952795229FF001239FF00DF00D1124CD
:103AD0006E177F0718F44FEF420F04C02F3F39F0E5
:103AE00091E0920F491740F78FEF890F08958FEFFC
:103AF00008950F93CF93DF93D72FC82F47FD41959C
:103B0000E8E3F0E0CF01841B910947FD9395889F7E
:103B1000B001899F700D700D1124229FC001239F59
:103B2000900D900D1124860F971F0E94481D682F3D
:103B3000660F860F682F600F7D2F8C2FDF91CF913E
:103B40000F91089520E030E0869F212D969F200D53
:103B5000311D1124C9010895EF92FF920F931F9315
:103B6000CF93DF93F62E472FE82FF0E0711106C0B8
:103B7000E355FB4F6491762F862F72C0272F30E0DC
:103B8000E355FB4FE4910E2F10E056E0659FC00116
:103B90001124CFEFD0E0BE010E9496305BEA5603BD
:103BA000C001579F900D11248F0D911D8F0D911DF8
:103BB000982F990F890F7E01E21AF30AE09ED00137
:103BC000E19EB00DF09EB00D1124489FA00111247C
:103BD000452F55277E01E41AF50AE09EA001E19EDB
:103BE000500DF09E500D11247E01E81AF108E29E5E
:103BF000C001E39E900DF29E900D1124892F99270C
:103C0000C81BD90BC09FC001C19F900DD09F900DC4
:103C100011246230710591F048F461157105E1F0ED
:103C200061307105A9F48B2F752F19C064307105AF
:103C300061F038F06630710579F00AC0892F7B2F6A
:103C40000EC08E2F7B2FE52F0AC08E2F792F02C03A
:103C5000852F7E2FEB2F03C08B2F7E2FE92F6E2F0A
:103C6000DF91CF911F910F91FF90EF9008951F93D7
:103C7000CF93DF93FC01E955FD4F20816223A9F02A
:103C8000EC010E94BC2F182F0E94BC2F612F782FAF
:103C9000809135050E94AC1D462F282F672FCE013D
:103CA000DF91CF911F910C94D41CDF91CF911F9184
:103CB0000895DF92EF92FF920F931F93CF93DF93BC
:103CC000EC01FC01E955FD4F9081692381F1D09011
:103CD00034050091350510913305E12EF12C0E9439
:103CE000BC2F282FC7018C549F4F68E671E00E94BB
:103CF000AA308E199F0997FD0396959587959595FE
:103D000087952370612F289F600D11247D2D802FB2
:103D10000E94AC1D462F282F672FCE01DF91CF9137
:103D20001F910F91FF90EF90DF900C94D41CDF91C6
:103D3000CF911F910F91FF90EF90DF9008958091A8
:103D40009703811112C08091D80080618093D800C0
:103D50008AE18A95F1F700C08091D90080FD02C008
:103D600082E001C081E08093970381E09091970306
:103D7000913009F080E008950F931F93CF93DF9364
:103D8000C62FD42F122FFC0182818823C9F06093A3
:103D900026030E94AA2490930F0580930E0580E2CB
:103DA0008C0F883008F05EC0C77081E001C0880FBA
:103DB000CA95EAF7DF91CF911F910F910C94F62BE2
:103DC0008091260368133EC080910E0590910F05E7
:103DD0000E94611586399105A8F500E20D0FCD17F7
:103DE000B9F080E28C0F883040F4C77081E001C0E8
:103DF000880FCA95EAF70E94EB2B083048F481E05F
:103E00009D2F977001C0880F9A95EAF70E94F62BB4
:103E1000812F0E947A2C193349F4FFEF27EE83E0BB
:103E2000F15020408040E1F700C00000812F0E9447
:103E3000422C0830B8F4D77081E001C0880FDA95C1
:103E4000EAF70AC080E28C0F883060F4C77081E026
:103E500001C0880FCA95EAF7DF91CF911F910F91AA
:103E60000C94EB2BDF91CF911F910F910895CF937D
:103E7000DF93C0914007D09141078A30B1F420917F
:103E80003705CE018A539540622F70E00E9496302C
:103E9000281B822F66E00E948A30C82FC15008F488
:103EA0008FC080E20E94371FF9CF8D30E9F4CA53EA
:103EB000D54020913705622F70E0CE010E949630E8
:103EC000281B822F9E01280F311D2115324018F02A
:103ED00080E0C0E0D0E0C80FD11DC65CDA4FD093BF
:103EE0004107C09340076CC096E0FE01AAE3B7E02B
:103EF00001900D929A95E1F7813E30F086E0FE0147
:103F000011928A95E9F70BC0F6E08F9FB00111245A
:103F10006C56794F46E050E0CE010E94CC2FC09104
:103F20004007D091410746E050E0BE018AE397E0A8
:103F30000E94C430892B49F19E012A533540A901C2
:103F400085E0569547958A95E1F781E090E0BC01C0
:103F500002C0660F771F4A95E2F7409138055091ED
:103F60003905462B572B2A5F3F4F65E0369527953D
:103F70006A95E1F702C0880F991F2A95E2F7842B12
:103F8000952B90933905809338059E012453354035
:103F900040913705642F70E0C9010E949630481B9C
:103FA000463010F4240F311D211582E0380710F03F
:103FB00020E030E0265C3A4F3093410720934007E1
:103FC000DF91CF910895CF93DF93EC01FE018491AF
:103FD000882321F00E94371F2196F8CFDF91CF91DF
:103FE0000895EF92FF920F931F93CF93DF93EC010D
:103FF0007B0164E670E088E70E94912E8C01EC0E54
:10400000FD1ECE15DF0561F017FD0AC0FE0184918B
:1040100064E670E00E94E82E8C012196892B89F3DA
:104020000E946C2FC801DF91CF911F910F91FF90DB
:10403000EF9008959F92AF92BF92CF92DF92EF924E
:10404000FF920F931F93CF93DF936C01C0912201D6
:1040500089E1C89FC02D1124D9E1DC0FDD3708F0BC
:10406000DCE7609136056695669580912A0590910A
:104070002B050E94A21D182F80E4810F0E94271D8E
:1040800090E8F92EF80E812F0E94271D20E8922E2D
:10409000980ECD1700F5AC2EB12CF501E955FD4F6A
:1040A0009081809123018923A1F060913305709163
:1040B000340580913505E12E0C2F292D4F2DF60169
:1040C00009950E94AC1D462F282F672FC5010E941D
:1040D000D41CCF5FDECF81E0DC3708F080E0DF91D9
:1040E000CF911F910F91FF90EF90DF90CF90BF90F5
:1040F000AF909F9008956F927F928F929F92AF9210
:10410000BF92CF92DF92EF920F931F93CF93DF93E3
:104110003C01C091220189E1C89FC02D1124D9E141
:10412000DC0FDD3708F0DCE760913605669580919D
:104130002A0590912B050E94A21D182FCD1708F07B
:1041400044C08C2E912CF401E955FD4F9081809153
:1041500023018923C1F1F401EE0FFF1FE155FE4F4A
:10416000C080D12C80E7C81AD108F401EE0FFF1FE0
:10417000E055FE4FA080B12CE5E2AE1AB108CC9C10
:104180009001CD9C300D300D1124AA9CC001AB9C38
:10419000900D900D1124820F931F0E94481D082F2F
:1041A000609133057091340580913505E12E9501BC
:1041B000A601F30109950E94AC1D462F282F672FF9
:1041C000C4010E94D41CCF5FB9CF81E0DC3708F076
:1041D00080E0DF91CF911F910F91EF90DF90CF9012
:1041E000BF90AF909F908F907F906F900895CF92E7
:1041F000DF92EF92FF920F931F93CF93DF936C01A7
:10420000C091220189E1C89FC02D1124D9E1DC0FA2
:10421000DD3708F0DCE760913605669580912A0568
:1042200090912B050E94A21D182FCD1778F5EC2E2A
:10423000F12CF701E955FD4F9081809123018923ED
:1042400019F1F701EE0FFF1FE055FE4F208130E01E
:1042500025523109F701EE0FFF1FE155FE4F408156
:1042600050E04057510960913305709134058091B9
:104270003505012FF60109950E94AC1D462F282F08
:10428000672FC7010E94D41CCF5FCFCF81E0DC37FE
:1042900008F080E0DF91CF911F910F91FF90EF9098
:1042A000DF90CF900895DF92EF92FF920F931F93CC
:1042B000CF93DF937C01C091220189E1C89FC02D7B
:1042C0001124D9E1DC0FDD3708F0DCE76091360519
:1042D0006695669580912A0590912B050E94A21DF6
:1042E000D82ECD17F0F40C2F10E0F801E955FD4F52
:1042F000908180912301892391F060913305709121
:104300003405809135052D2D4C2FF70109950E941C
:10431000AC1D462F282F672FC8010E94D41CCF5FE9
:10432000E0CF81E0DC3708F080E0DF91CF911F9192
:104330000F91FF90EF90DF900895EF92FF920F930F
:104340001F93CF93DF937C018B010E94B7298111CA
:1043500019C0E70101151105A1F08091E80085FD64
:104360000AC08091E8008E778093E8000E94B72908
:10437000882381F307C089918093F10001501109CE
:10438000E9CF80E0DF91CF911F910F91FF90EF90E7
:1043900008951F93CF93DF93CDB7DEB7AA970FB6DB
:1043A000F894DEBF0FBECDBFE2E2F5E08091F100F0
:1043B000819325E0EA32F207C9F780912305833023
:1043C00009F460C030F4813071F0823009F49AC091
:1043D000B1C08A3009F486C08B3009F46BC08930D3
:1043E00009F0A8C020C080912205813A09F0A2C03E
:1043F0008091E800877F8093E80080912605909166
:104400002705892B21F468E086E195E003C060E090
:1044100080E090E070E00E94782B8091E8008B773C
:104420008093E80087C080912205813209F082C024
:104430008091260590912705029708F07BC0809116
:10444000E800877F8093E8008091E80082FD05C046
:10445000809120058111F8CF6DC02091F3008091EB
:10446000F20090E0922B029729F48091F1008B7F6B
:10447000813021F48091F100809315058091E8004E
:104480008B7754C080912205813A09F053C0809106
:10449000260590912705892B09F04CC08091E800F2
:1044A000877F8093E8008091E80080FFFCCF8091B7
:1044B000210137C0809122058132E1F580912605E6
:1044C00090912705892BB1F58091E800877F809333
:1044D000E8000E94EA2980912405809321010E942E
:1044E000372C28C080912205813221F58091E80087
:1044F000877F8093E8000E94EA29809125058093B8
:10450000140518C080912205813AA1F48091E80039
:10451000877F8093E8008091E80080FFFCCF809146
:1045200014058093F1008091E8008E778093E80075
:104530000E94EA298091E80083FFD8C1809122057A
:1045400090912305492F50E04A30510508F0CEC123
:10455000FA01E658FF4F0C94BE30803821F08238C3
:1045600009F0C4C108C080911E0590911F059923D0
:1045700089F082600FC0809126058F70873008F027
:10458000B5C18093E9008091EB0085FB882780F915
:104590001092E9009091E800977F9093E800809353
:1045A000F1001092F10071C1282F2D7F09F09EC1FA
:1045B000882319F0823061F099C1809124058130FF
:1045C00009F094C1933009F080E080931F052EC05C
:1045D0008091240581112AC0809126058F702FEFCC
:1045E000280F263008F082C18093E9002091EB006B
:1045F00020FF1CC0933021F48091EB00806214C036
:104600009091EB0090619093EB0021E030E0A901E4
:1046100002C0440F551F8A95E2F74093EA001092BA
:10462000EA008091EB0088608093EB001092E90033
:104630008091E800877F2CC1811158C11091240519
:104640001F778091E3008078812B8093E300809135
:10465000E800877F8093E8000E94EA298091E800C3
:1046600080FFFCCF8091E30080688093E30011110C
:1046700002C082E001C083E08093200537C18058EA
:10468000823008F033C180912405909125058C3D3E
:1046900053E0950779F583E08A838AE289834FB7EF
:1046A000F894DE01139620E03EE051E2E32FF0E0C3
:1046B00050935700E49120FF03C0E295EF703F5FF5
:1046C000EF708E2F90E0EA3010F0C79601C0C096D0
:1046D0008D939D932F5F243149F74FBF8091E80060
:1046E000877F8093E8006AE270E0CE0101960E9425
:1046F000782BBAC04091260550912705292F3327E2
:1047000023303105B1F068F42130310509F4FDC0E2
:104710002230310509F0EAC08BE390E0E5E2F6E0F3
:1047200050C02132310581F12232310509F439C0FE
:10473000DDC0992781309105B9F070F08230910584
:10474000D9F0039709F0D2C0E2E7F6E0E4918E2FAA
:1047500090E0E2E7F6E032C0E0E9F6E0E4918E2F87
:1047600090E0E0E9F6E02AC0E2E8F6E0E4918E2F7E
:1047700090E0E2E8F6E022C0E8E7F6E0E4918E2F70
:1047800090E0E8E7F6E01AC04115510509F4C2C00F
:104790004130510509F0AAC089E090E0E0E5F6E07B
:1047A00010C04115510509F4BAC04130510509F056
:1047B0009DC086E390E0EFEAF5E003C0009709F4BE
:1047C00095C02091E800277F2093E80020912805DC
:1047D000309129058217930708F49C0140E02115C8
:1047E000310589F180912005882309F43DC0853089
:1047F000D9F18091E80083FD37C08091E80082FD07
:104800002FC08091E80080FFEACF4091F3008091B3
:10481000F20090E0942B2115310559F08830910574
:1048200040F444914093F1003196215031090196B2
:10483000F2CF41E0089709F040E08091E8008E77E0
:104840008093E800CCCF4111CDCF0AC080912005E4
:10485000882351F0853041F08091E80083FD04C049
:104860008091E80082FFF2CF8091E8008B778093FF
:10487000E8003CC08038D1F58091E800877F8093C4
:10488000E800809121058093F1008091E8008E7707
:104890008093E8000E94EA2929C0811127C08091F5
:1048A0002405909125059927029704F58091E80049
:1048B000877F8093E80010912405109321050E94C2
:1048C000EA29111106C08091E30087FD02C081E052
:1048D00001C084E08093200542E061EC81E00E9409
:1048E000092A42E261EC82E00E94092A8091E800F4
:1048F00083FF1AC08091E800877F8093E800809151
:10490000EB0080628093EB000FC082E190E0E0E674
:10491000F6E057CF89E090E0E7E3F6E052CF80E49D
:1049200090E0E5EEF5E04DCFAA960FB6F894DEBF25
:104930000FBECDBFDF91CF911F9108952FB7F8948F
:1049400060913E0370913F03809140039091410339
:104950002FBF08952FB7F89480913E0390913F03A5
:10496000A0914003B09141032FBF08951F920F9271
:104970000FB60F9211248F939F93AF93BF938091A3
:104980004C03811113C080913E0390913F03A0918D
:104990004003B09141034196A11DB11D80933E0398
:1049A00090933F03A0934003B0934103BF91AF9115
:1049B0009F918F910F900FBE0F901F9018959C01A3
:1049C000FC0132969FEF80E04191461789F09F3FAE
:1049D00019F4411101C0982F8F5F8630A9F79F3FCE
:1049E00039F0F901E90FF11D97FDFA9562830895F9
:1049F0000895CF9384E090E00E94E52FC82F81E2D4
:104A000090E00E94E52F2C2F30E0A901582BCA011D
:104A1000CF91089580E090E00E94ED2F21E08C3E40
:104A20009E4F09F020E0822F08956CEE7EEF80E02B
:104A300090E00E94213060E082E090E00E9403302C
:104A400060E083E090E00E940330109259031092DE
:104A50005A0310925B0310925C0360E084E090E0E4
:104A60000E94033060E081E290E00E94033060E049
:104A700085E090E00E94033060E086E090E00E94D4
:104A800003306FEF87E090E00E94033040E050E099
:104A9000BA0188E090E00E94153060E08DE090E07F
:104AA0000E94033040E050E0BA0188E190E00E94AB
:104AB000153060E087E190E00E94033040E050E074
:104AC000BA018CE190E00E94153060E080E290E055
:104AD0000E94033040E050E0BA018FE090E00E9475
:104AE000153040E050E0BA0183E190E00C941530BD
:104AF000CF92DF92EF92FF926C01EE24FF24C1145B
:104B0000D104E104F10421F0C701B60120E101C0A4
:104B100020E0C72ED82EE92EFF24C114D104E104D1
:104B2000F10419F0285FC701B6016B017C0154E064
:104B3000F694E794D794C7945A95D1F7C114D10449
:104B4000E104F10419F02C5FC701B6016B017C018F
:104B500042E0F694E794D794C7944A95D1F7C114EC
:104B6000D104E104F10419F02E5FC701B601DC01A4
:104B7000CB01B695A79597958795892B8A2B8B2B7B
:104B800009F02F5F822FFF90EF90DF90CF90089574
:104B90008091BD0781111092BD0708959091BC07C7
:104BA0008091BB07892B2091BA07982F922B909365
:104BB00042078091BD07882389F0892B80934207A3
:104BC000E4E4F7E097E080E0915029F0219122237E
:104BD000D9F38F5FF9CF81110E94C825E0914A0374
:104BE000F0914B03309731F00280F381E02D82E4A5
:104BF00097E009940895BF92CF92DF92EF92FF92CF
:104C00000F931F93CF93DF938C01C0905D03D090DF
:104C10005E03E0905F03F0906003809159039091F0
:104C20005A03A0915B03B0915C03C82AD92AEA2AEF
:104C3000FB2ACFE1D0E0D701C6010C2E04C0B69507
:104C4000A795979587950A94D2F780FD04C0219780
:104C500090F7B12C07C0BC2EB8018C2F0E94BF0D5D
:104C60000197A9F38B2DDF91CF911F910F91FF90A9
:104C7000EF90DF90CF90BF900895CF93DF93EC013A
:104C80000E94FB25BE010E94BF0DDF91CF910895C8
:104C900027E0929F800D1124682F66956695669592
:104CA000982F977085E0689FB001112440E050E094
:104CB00080E0FB01E40FF51FEE57F84F208130E054
:104CC000092E02C0369527950A94E2F72170332702
:104CD000042E01C0220F0A94EAF7822B4F5F5F4F28
:104CE0004530510531F7089527E0929F800D11243A
:104CF000E82FE695E695E695877051E001C0550FDF
:104D00008A95EAF785E0E89FF0011124EE57F84F05
:104D100020E030E070E04081CB01022E02C0969589
:104D200087950A94E2F781708195842785238427EB
:104D300081932F5F3F4F2530310569F708956093C8
:104D40005D0370935E0380935F03909360030C9404
:104D5000292C0F931F9341E050E060E070E004C005
:104D6000440F551F661F771F8A95D2F740955095BF
:104D70006095709580915D0390915E03A0915F03B3
:104D8000B09160038A019B01082319232A233B2346
:104D9000C901B8011F910F910C949F262091B9076A
:104DA000809582238093B907982F977079F430E02B
:104DB000482F082E000C550B2417350739F0859520
:104DC000859585950E94A9261092B90708950F939D
:104DD0001F9341E050E060E070E004C0440F551FB5
:104DE000661F771F8A95D2F780915D0390915E03CD
:104DF000A0915F03B09160038A019B01082B192BDE
:104E00002A2B3B2BC901B8011F910F910C949F26AF
:104E10006093590370935A0380935B0390935C03F0
:104E20000C94292C8091810790915007891719F0D3
:104E30008F5F8770FBCF0895CF9380914F07829546
:104E40008F7009F05FC080914C07882309F45AC025
:104E500080918107B091500770914A07A0914B074C
:104E600040914D0750914E0791E07F3F09F090E04F
:104E7000692FC6E08B1709F445C04115510521F093
:104E8000AF3F21F020E003C021E001C0262F90E0D9
:104E900020FD35C0C89FF001C99FF00D1124EF5AC5
:104EA000F84F21812A132BC02081271328C022818B
:104EB000211125C0238134812417350710F4215096
:104EC0003109241B350B26393105C8F420914F07D1
:104ED0002F70206120934F0726E0289FF001299F23
:104EE000F00D1124EA5AF84F80818F708061808321
:104EF0008AE497E00E943306CF910C941227019622
:104F00008770B8CFCF910895AF92BF92CF92DF92C2
:104F1000EF92FF920F931F93CF93DF93CDB7DEB73E
:104F200061970FB6F894DEBF0FBECDBF8C0185E050
:104F3000F801DE011D9601900D928A95E1F7D801E6
:104F40003C9111962C9111971296EC9050914A0732
:104F500060914B0780914D0790914E07009731F07B
:104F60006F3F31F441E05F3F19F403C041E001C0FD
:104F700040E0B42FB170BB2E40FD43C1F801C380A7
:104F8000D480A0904C07AA2009F4E2C040914F07BA
:104F9000C816D90628F0D601A81BB90BCD0104C04C
:104FA000809590958C0D9D1DFF24F3948639910575
:104FB00048F0F12C407F09F090C08AE497E00E940D
:104FC000330617C1842F807F09F052C0621312C0CC
:104FD000531310C0FE2CE1100DC04F704061409380
:104FE0004F078AE497E00E94330680914F07F8014B
:104FF000858348C1CD2831F02F3F31F481E03F3F18
:1050000019F403C081E001C080E080FD03C081E0AD
:105010008E2502C080E090E0F82FF170FF2E80FF17
:105020001CC0809181074091500756E0841709F415
:1050300006C190E0589FF001599FF00D1124EF5ADE
:10504000F84F6181261306C06081361303C0628168
:10505000E61203C001968770E9CFFE2CEE2009F41A
:1050600011C180914F07816080934F07F12C0AC1D5
:10507000621308C0531306C0E11004C080914F07AB
:10508000F80199C03D872E878D859E850E94002C52
:10509000882369F1EE2059F120914F07822F8295E4
:1050A0008F7090E0029774F080914A0790914B07BF
:1050B00098878F831986DB86CA862C87CE01079650
:1050C0000E94330686E0F801AAE4B7E001900D9251
:1050D0008A95E1F70E941C270DC0621771F03D8789
:1050E0002E878D859E850E94002C81111AC0C801D3
:1050F0000E943306FF24F394C5C05313F0CFE11090
:10510000EECF80914F07F8018583C8010E943306D6
:1051100086E0EAE4F7E0DF011D928A95E9F7FA2CD0
:10512000B1C0EE2021F320914F07822F82958F701E
:1051300090E002973CF280914A0790914B079A8346
:1051400089831B82DD82CC822E83CE010196B8CF6B
:10515000C816D90638F0C81AD90AB6E9CB16D10450
:1051600050F007C0809590958C0D9D1D8639910556
:1051700010F0F12C3EC0FE2CEE2009F4B8CF6213E3
:1051800027C0531325C020914F0720FD18C0822F40
:1051900082958F70482F50E04115510581F0F8013C
:1051A00025834F30510541F08F5F982F9295907F66
:1051B000822F8F70892B8583C8010E94330686E079
:1051C000F801AAE4B7E001900D928A95E1F75AC080
:1051D0003D872E878D859E850E94002C811172CF80
:1051E00080914F07816080934F07C8010E9433066A
:1051F00049C0EAE4F7E086E0DF011D928A95E9F70D
:1052000041C0EE2009F473CF3D872E878D859E85A2
:105210000E94002CF82E882309F469CF86E0F8015B
:10522000AAE4B7E001900D928A95E1F780914A07D0
:1052300090914B070E943D260E941C2723C03D876A
:105240002E878D859E850E943D26292F22952F70C1
:10525000223028F49F7039F0811105C00BC0243032
:1052600028F49F7049F4805E883020F0C8010E94C5
:105270003306BF2CFB2C06C0D80115969C91907F5D
:1052800091F7F8CF8F2D61960FB6F894DEBF0FBE61
:10529000CDBFDF91CF911F910F91FF90EF90DF90E5
:1052A000CF90BF90AF9008951F920F920FB60F92BC
:1052B00011242F933F934F935F936F937F938F931B
:1052C0009F93AF93BF93CF93DF93EF93FF93C091DF
:1052D000E900CF708091EC00D82FD17080FDD0E82C
:1052E0001092E9008091F000877F8093F00078941D
:1052F0000E94C9211092E9008091F000886080939B
:10530000F000CD2BCF70C093E900FF91EF91DF91BA
:10531000CF91BF91AF919F918F917F916F915F914D
:105320004F913F912F910F900FBE0F901F901895A6
:10533000E8EDF0E080818E7F80831092E200109291
:10534000DA001092E100A0EEB0E08C9181608C93C5
:1053500080818F77808319BCA7EDB0E08C918E7F20
:105360008C9380818F7E80831092BE070895209158
:10537000E4003091E50095E64091EC00842F8170C7
:1053800040FF23C08091E80080FD1DC08091200572
:10539000882399F0853099F08091EB0085FD11C04C
:1053A0004091E4005091E5002417350729F391500E
:1053B00011F09A01E1CF84E0089582E0089583E03E
:1053C000089581E0089580E008954091E80042FF4B
:1053D000DDCF08958091220587FF11C08091E800FC
:1053E00082FD05C0809120058111F8CF11C0809108
:1053F000E8008B770BC080912005882349F08091CD
:10540000E80080FFF8CF8091E8008E778093E80075
:105410000895982F973068F59093E900981739F020
:105420007091EC002091ED005091F00003C0242F0A
:10543000762F50E021FD02C09F5FECCF3091EB0052
:105440003E7F3093EB003091ED003D7F3093ED00D7
:105450003091EB0031603093EB007093EC002093BF
:10546000ED005093F0002091EE0027FDE5CF80E0A5
:1054700008958F708093E90081E00895CF92DF92C4
:10548000EF92FF920F931F93CF93DF93C8EDD0E07D
:1054900088818F7E8883E7EDF0E080818160808362
:1054A00084E082BF81E08093BE0788818E7F8883FD
:1054B00002EE10E0F80110821092DA0081EEC82EA0
:1054C000D12CF601108288818F778883888180684B
:1054D000888388818F7D888319BC10922005109263
:1054E000210510921F0510921E0590EEE92EF12C59
:1054F000F70180818B7F808388818160888342E08F
:1055000060E080E00E94092AF60180818E7F80831E
:10551000F801808181608083808188608083F701C9
:1055200080818E7F8083888180618883DF91CF91A5
:105530001F910F91FF90EF90DF90CF9008951F92F1
:105540000F920FB60F9211242F933F934F935F93B7
:105550006F937F938F939F93AF93BF93EF93FF933B
:105560008091E10082FF09C08091E20082FF05C0C6
:105570008091E1008B7F8093E1008091DA0080FFD1
:105580002AC08091D80080FF26C08091DA008E7FEB
:105590008093DA008091D90080FF18C080E189BD36
:1055A00082E189BD09B400FEFDCF81E08093200532
:1055B0008091BE0781110FC00E9498290E943E2A47
:1055C0008091E20084608093E20005C019BC1092D3
:1055D00020051092BE078091E10080FF17C08091E6
:1055E000E20080FF13C08091E2008E7F8093E20092
:1055F0008091E20080618093E2008091D800806217
:105600008093D80019BC85E0809320058091E1004B
:1056100084FF32C08091E20084FF2EC080E189BD0A
:1056200082E189BD09B400FEFDCF8091D8008F7D55
:105630008093D8008091E1008F7E8093E10080917B
:10564000E2008F7E8093E2008091E200816080938F
:10565000E20080912105882311F084E007C0809149
:10566000E30087FD02C081E001C083E08093200554
:105670000E94372C0E945B1C8091E10083FF27C0B1
:105680008091E20083FF23C08091E100877F8093B7
:10569000E10082E080932005109221058091E100D5
:1056A0008E7F8093E1008091E2008E7F8093E20004
:1056B0008091E20080618093E20042E060E080E05F
:1056C0000E94092A8091F00088608093F000FF9189
:1056D000EF91BF91AF919F918F917F916F915F916A
:1056E0004F913F912F910F900FBE0F901F901895E3
:1056F00020912805309129052617370748F06115B4
:10570000710539F42091E8002E772093E80001C05C
:10571000B901FC0120E06115710579F18091200546
:105720008823F1F18530F1F18091E80083FD3CC0E0
:105730008091E80082FD2EC08091E80080FFEBCFD1
:105740002091F3008091F20090E0922B6115710599
:1057500051F08830910538F421912093F100615087
:1057600071090196F3CF21E0089709F020E08091BC
:10577000E8008E778093E800CECF2111CFCF0AC00A
:1057800080912005882361F0853061F08091E800E8
:1057900083FD0AC08091E80082FFF2CF80E0089587
:1057A00082E0089583E0089581E00895882341F020
:1057B00080959091BB0789238093BB070C94CE25DD
:1057C0000895882339F09091BB07892B8093BB07FC
:1057D0000C94CE250895882341F080959091BC07C4
:1057E00089238093BC070C94CE250895882339F033
:1057F0009091BC07892B8093BC070C94CE2508950B
:105800000E943D26292F2F70E92FE295EF704E2F31
:1058100050E0FA013297EE30F105B8F4EC57FF4F43
:105820000C94BE30803F99F018F4883E70F40FC09D
:10583000843F59F40CC0883E50F0813F31F407C0DA
:10584000822F869586958695089580E0089581E05B
:1058500008951092BB071092BA070E94CE2580E0EF
:1058600090E00E94451C80E090E00C942F1C109268
:10587000BC0786E0E4E4F7E0DF011D928A95E9F7D2
:105880000C94292C8823A9F19CEF980F913A60F48D
:10589000E2E4F7E09281891301C01282319647E079
:1058A000E834F407B9F714C090E2980F983090F4F8
:1058B000877021E030E0A90102C0440F551F8A958E
:1058C000E2F7CA0180959091BC0789238093BC07B9
:1058D0000C94CE259BE5980F933020F480E090E067
:1058E0000C94451C885A873120F480E090E00C9499
:1058F0002F1C0895882309F4C4C09CEF980F913A97
:1059000030F4682F82E497E00E94DF2413C090E215
:10591000980F983088F4877021E030E0A90102C028
:10592000440F551F8A95E2F7CA019091BC07892B55
:105930008093BC070C94CE259BE5980F933070F4B0
:10594000853A29F0863A31F083E890E005C081E895
:1059500090E002C082E890E00C94451C98E5980F16
:10596000973108F08EC0883A09F445C0893A09F4A5
:1059700045C08A3A09F445C08B3A09F445C08C3ACF
:1059800009F445C08B3B09F445C08C3B09F445C084
:105990008D3A09F445C0803B09F445C08E3A09F4BC
:1059A00045C08F3A09F445C0813B09F445C0823BAC
:1059B00009F445C0833B09F445C0843B09F445C064
:1059C000853B09F445C0863B09F445C0873B09F493
:1059D00045C0883B09F445C0893B09F445C08D3B6F
:1059E00009F445C08E3B09F445C08A3B09F445C023
:1059F00080E090E044C082EE90E041C089EE90E00B
:105A00003EC08AEE90E03BC085EB90E038C086EB6C
:105A100090E035C083EB90E032C084EB90E02FC083
:105A200087EB90E02CC08CEC90E029C08DEC90E0EE
:105A300026C083E891E023C08AE891E020C082E993
:105A400091E01DC084E991E01AC081E292E017C0A4
:105A500083E292E014C084E292E011C085E292E019
:105A60000EC086E292E00BC087E292E008C08FE6AB
:105A700090E005C080E790E002C08AE292E00C94DA
:105A80002F1C08958EE14B9B02C08150E1F74B9B88
:105A9000FECF08955B9880E28A95F1F75B9A0895AE
:105AA000FC012AE02A95F1F728E090E080E031E05F
:105AB00040E14A95F1F7880F4B9B02C08160932724
:105AC00000C0000040E14A95F1F7215089F720E13C
:105AD0002A95F1F729B100C0000030E13A95F1F7BD
