:100000000C94C0060C9407070C9407070C948E0BF5
:100010000C9472080C9407070C9407070C940707BC
:100020000C9407070C9407070C94632D0C94352E41
:100030000C94D8250C9407070C9407070C94070719
:100040000C9407070C9407070C9407070C940707F8
:100050000C9407070C944C260C9407070C94070784
:100060000C9407070C9407070C9407070C940707D8
:100070000C9407070C9407070C9407070C940707C8
:100080000C9407070C9407070C9407070C940707B8
:100090000C94B7070C9407070C9407070C940707F8
:1000A0000C9407070C9407070C940707320E340EC4
:1000B0003F0E360E380E3A0E3C0E3E0E410E430EEB
:1000C000450E500E470E490E4B0E4D0E4F0E520E62
:1000D0003F1C3F1C711C711CAF1CFD1DFD1DFD1D37
:1000E000CF1CFD1D7C1D7C1DED1DFD1DFD1DF61D88
:1000F000891D891D891D891D891D891D891D891DD0
:10010000891D891D891D891D891D891D891D891DBF
:100110009A1DA81DAF1DB61DC01D881E881E9A1EE3
:100120009A1E911E9A1E9A1E9A1E881E881E961E40
:100130009A1E9A1E961EA22EC92EBB2FC92EBB2F09
:10014000152F382FBB2F8E2F9D2F07634236B79B5D
:10015000D8A71A39685618AEBAAB558C1D3CB7CC27
:100160005763BD6DEDFD753EF6177231BF0000009F
:10017000803F05A84CCDB2D44EB93836A9020C50F8
:10018000B9918688083CA6AAAA2ABE000000803F32
:100190000A002530313662003A20002530325800FE
:1001A0000A722F63203031323334353637383941D3
:1001B00042434445460A00165C1E001F00200021F1
:1001C0000022002D002B0014001A00080015001753
:1001D000002F00394204001600070009000A00261B
:1001E00002E1001D001B000600190005002F02E0BF
:1001F00000E300E200C25CE15C2C004C00A900AA14
:10020000000000000000002C004C002A00270026FF
:10021000002500240023002E003100130012000CE2
:100220000018001C003000340033000F000E000DD9
:10023000000B00270228003800370036001000119C
:100240000030024F00520051005000E05C2C0028AA
:1002500000A900AA000000000000002C00280016E1
:100260005C1E001F002000210022002D002B001426
:10027000001A000900130005002F00394204001580
:1002800000160017000A002602E1001D001B0006F0
:1002900000070019002F02E000E300E200C25CE169
:1002A0005C2C004C00A900AA000000000000002CFB
:1002B000004C002A00270026002500240023002EE1
:1002C00000310033001C0018000F000D0030003416
:1002D0000012000C00080011000E00270228003850
:1002E00000370036000B00100030024F0052005162
:1002F000005000E05C2C002800A900AA00000000CB
:100300000000002C0028003A003B003C003D003E6D
:10031000003F00010001004E0052004B00010001AF
:100320000001000100500051004F000100010001D8
:1003300000010001000100010001000100010001B5
:100340000001000100C35C010001000100A900AA36
:1003500000000000000000010001004500440043CF
:100360000042004100400046004A0046004B005257
:10037000004E00010001004D0049004F00510050A7
:100380000001000100010001000100010001000165
:10039000000100A900AA00A800AB00AE0001000106
:1003A00000A900AA00000000000000010001003ABE
:1003B000003B003C003D003E003F0001000100C842
:1003C0005CC95CC75C005C010001000100C65CCA3E
:1003D0005CC55CE35C01000100010001000100015B
:1003E00000010001000100010001000100C35C01E7
:1003F0000001000100A900AA0000000000000001A7
:10040000000100450044004300420041004000015B
:1004100000010001000100010001000100010001D4
:100420000001000100DF5CDE5C01000100C95CC767
:100430005CC55CC25C010001000100CA5CC85CC60E
:100440005CC45C010001000100A900AA00000000DA
:100450000000000100010044454255473A20656E06
:1004600061626C65642E0A0054494D455233206424
:10047000697361626C65642E0A0054494D455233BC
:1004800020656E61626C65642E0A007267626C6939
:100490006768742073657420687376205B4E4F45DF
:1004A0004550524F4D5D3A2025752C25752C2575EC
:1004B0000A007267626C69676874207365742068EB
:1004C0007376205B454550524F4D5D3A2025752C83
:1004D00025752C25750A007267626C69676874203F
:1004E0007261696E626F7720736574206873763A03
:1004F0002025752C25752C25642C25750A0072671E
:10050000626C696768742064697361626C65205B02
:10051000454550524F4D5D3A207267626C6967687D
:10052000745F636F6E6669672E656E61626C6520CD
:100530003D2025750A007267626C696768742065E2
:100540006E61626C65205B454550524F4D5D3A20AF
:100550007267626C696768745F636F6E6669672E45
:10056000656E61626C65203D2025750A00726762C8
:100570006C6967687420746F67676C65205B4545BC
:1005800050524F4D5D3A207267626C696768745FC4
:10059000636F6E6669672E656E61626C65203D20D3
:1005A00025750A007267626C69676874206D6F64F4
:1005B00065205B4E4F454550524F4D5D3A202575A5
:1005C0000A007267626C69676874206D6F646520E9
:1005D0005B454550524F4D5D3A2025750A007267C4
:1005E000626C696768745F696E6974207267626CB7
:1005F000696768745F636F6E6669672E6D6F6465A7
:10060000203D20302E205772697465206465666134
:10061000756C742076616C75657320746F20454528
:1006200050524F4D2E0A007267626C696768745FA2
:10063000696E6974206565636F6E666967206973AA
:10064000206E6F7420656E61626C65642E0A0072A4
:1006500067626C696768745F696E6974207374613E
:100660007274210A007267626C696768745F696EF0
:1006700069742063616C6C65642E0A007267626C39
:10068000696768745F636F6E6669672E737065650E
:1006900064203D2025640A007267626C6967687493
:1006A0005F636F6E6669672E76616C203D202564FE
:1006B0000A007267626C696768745F636F6E66696F
:1006C000672E736174203D2025640A007267626C96
:1006D000696768745F636F6E6669672E6875652009
:1006E0003D2025640A007267686C696768745F63FF
:1006F0006F6E6669672E6D6F6465203D2025640A04
:10070000007267626C696768745F636F6E666967C1
:100710002E656E61626C65203D2025640A0072675B
:10072000626C696768745F636F6E66696720657085
:10073000726F6D0A0000047F3F1F6432146432142C
:10074000783C1E1E140A056801F000B40078005AB7
:10075000000000000000010101010101010101028E
:100760000202020202020202030303030303030361
:10077000040404040404050505050506060606062A
:1007800007070707080808080909090A0A0A0A0BDF
:100790000B0B0C0C0C0D0D0D0E0E0F0F0F1010117E
:1007A0001111121213131414151516161717181801
:1007B00019191A1A1B1C1C1D1D1E1F1F2020212267
:1007C000222324252526272728292A2B2B2C2D2EAA
:1007D0002F2F30313233343536363738393A3B3CC7
:1007E0003D3E3F4041424344464748494A4B4C4DB9
:1007F0004F50515253555657585A5B5C5E5F60627A
:1008000063646667696A6C6D6E707173747678790B
:100810007B7C7E8081838486888A8B8D8F91929465
:1008200096989A9B9D9FA1A3A5A7A9ABADAFB1B385
:10083000B5B7B9BBBDBFC1C4C6C8CACCCFD1D3D66A
:10084000D8DADCDFE1E4E6E8EBEDF0F2F5F7FAFC0C
:10085000FF0A002530325820006B6579626F6172A3
:10086000645F7265706F72743A20000A002530323E
:1008700058006B6579626F6172645F7365745F6C59
:1008800065643A20003F00433E20004C25640A0086
:1008900074696D65725F72656164333228293A202C
:1008A0002530346C580A006B6579626F6172645F41
:1008B00069646C653A2025580A006B6579626F613E
:1008C00072645F70726F746F636F6C3A2025580AA0
:1008D00000686F73745F6B6579626F6172645F6CDF
:1008E00065647328293A2025580A000A092D2053E7
:1008F0007461747573202D0A004743433A20342EE7
:10090000392E32204156522D4C4942433A20312E45
:10091000382E3073766E204156525F415243483A2A
:1009200020617672350A004F5054494F4E533A2099
:100930004C5546412045585452414B455920434F50
:100940004E534F4C4520434F4D4D414E4420343083
:1009500039360A004255494C443A2022302E362E70
:100960003138342D31322D676135353239302D64CF
:100970006972747922202832313A34323A32362080
:100980004465632020392032303138290A00564925
:10099000443A20307846454544285247424B422944
:1009A000205049443A2030783330363028536F6C29
:1009B00029205645523A203078303030310A0044F0
:1009C0004553433A2022416E205247422C207370F7
:1009D0006C69742C206F7274686F2D657371756506
:1009E000206B6579626F617264220A000A092D200A
:1009F00056657273696F6E202D0A000A092D204317
:100A00006F6E736F6C65202D0A4553432F713A0941
:100A1000717569740A000A092D204D6167696320A8
:100A20002D0A443A094465627567204D6573736108
:100A3000676520546F67676C650A583A094D6174A1
:100A4000726978204465627567204D6F6465205433
:100A50006F67676C65202D2053686F77206B657911
:100A60007072657373657320696E206D617472694D
:100A70007820677269640A4B3A094B6579626F6145
:100A8000726420446562756720546F67676C6520E7
:100A90002D2053686F77206B6579707265737320B2
:100AA0007265706F72740A4D3A0944656275672009
:100AB0004D6F75736520546F67676C650A563A0908
:100AC00056657273696F6E0A533A0953746174758F
:100AD000730A433A09416374697661746520436F10
:100AE0006E736F6C65204D6F64650A46312D46311B
:100AF000303A0953776974636820746F204C6179C8
:100B0000657220302D392028463130203D204C3070
:100B1000290A302D393A0953776974636820746F54
:100B2000204C6179657220302D390A4553433A09CA
:100B300053776974636820746F204C617965722003
:100B4000302028616C7465726E617465206B657904
:100B50002031290A47524156453A0953776974634F
:100B60006820746F204C6179657220302028616C98
:100B70007465726E617465206B65792032290A5044
:100B8000415553453A094A756D7020746F20426F84
:100B90006F746C6F61646572202852657365742987
:100BA0000A003F000A6D6F7573653A206F66660A2A
:100BB000000A6D6F7573653A206F6E0A000A6B65E7
:100BC00079626F6172643A206F66660A000A6B652B
:100BD00079626F6172643A206F6E0A000A6D617407
:100BE0007269783A206F66660A000A6D61747269EC
:100BF000783A206F6E0A000A64656275673A206F62
:100C000066660A000A64656275673A206F6E0A00BC
:100C10000A0A4A756D70696E6720746F20626F6F83
:100C2000746C6F616465722E2E2E2000433E20008E
:100C30005B735D004B6579626F61726420737461F0
:100C400072742E0A005B575D005B535D005B525D62
:100C5000005B445D005B435D00040330000000085E
:100C60000353006F006C0000000C03520047004269
:100C7000004B00420000000403090409025B00036A
:100C80000100A0FA0904000001030101000921117B
:100C90000100012240000705810308000A09040140
:100CA00000010300000009211101000122360007A4
:100CB00005820320000A0904020002030000000963
:100CC00021110100012222000705830320000107F2
:100CD0000503032000011201100100000008EDFED1
:100CE00060300100010203010631FF0974A101090E
:100CF00075150026FF0095207508810209761500FC
:100D000026FF00952075089102C005010980A10108
:100D100085031601002603001A81002A830075103E
:100D200095018100C0050C0901A10185041601008F
:100D3000269C021A01002A9C02751095018100C0B0
:100D400005010906A101050719E029E7150025019C
:100D50009508750181029501750881010508190141
:100D60002905950575019102950175039101050706
:100D7000190029FF150026FF00950675088100C09F
:100D800011241FBECFEFDAE0DEBFCDBF04B603FEF5
:100D900027C08091CE029091CF02A091D002B09155
:100DA000D1028730904BA740B04BD1F41092CE02C5
:100DB0001092CF021092D0021092D10214BE84B7CA
:100DC000877F84BF0FB6F894A895809160008861F2
:100DD00080936000109260000FBEE0E0F8E3099598
:100DE00011E0A0E0B1E0E0E9F7E602C005900D9265
:100DF000AE33B107D9F722E0AEE3B1E001C01D92F6
:100E0000AE3CB207E1F70E947C2A0C94C6330C94E6
:100E10000000FF93EF93E0913E01F0913F01309786
:100E200009F00995EF91FF910895FC0185918030BB
:100E300011F0EFDFFBCF0895FF27E0E230E247FF3C
:100E40000CC0419597FF09C0EDE2609570958095C3
:100E50009095611D711D811D911D27FF02C0219577
:100E600030E350E2AA27660F771F881F991FAA1F39
:100E7000A41710F0A41B63955A95A9F7AA3008F09F
:100E8000A95FA05DAF93F39561157105810591058B
:100E900041F7ED3211F4EF93F395F21718F43F9305
:100EA000F395FBCF8F91B5DFFA95E1F70895E991BE
:100EB000F9918591803021F0853219F0AADFF9CFC0
:100EC000089520E0E89455915532C1F3503311F460
:100ED000689455915A3348F4505390F3220F022EE0
:100EE000220F220F200D250FF4CF0EF421958991AA
:100EF0009991533619F3533729F1533559F1BC0100
:100F000088279927E8945C3621F48991999168940F
:100F10005591543639F446EF7EF077FF0DC08FEFD0
:100F20009FEF0AC055374AE039F0583540E121F0CB
:100F3000523642E009F00895FF93EF937DDFEF9181
:100F4000FF91B7CFFF93EF93FC0181918030B9F30C
:100F500060DFFBCFFF93EF9368DFF1CFDF93CF9399
:100F6000CDB7DEB72596A3DFCF91DF9108951F920D
:100F70000F920FB60F9211248F939F93EF93FF93CD
:100F80008091B900887F803869F038F48823C9F1EE
:100F90008036C9F51092400136C0883A09F1883B85
:100FA000F9F031C080914001811111C08091BB00E6
:100FB0008093410180914101803120F010924101E4
:100FC00080E001C081E091E0909340011DC0E0917C
:100FD0004101F0E08091BB00E55CFD4F808308C0DB
:100FE000E0914101F0E0E55CFD4F80818093BB0022
:100FF0008091410190E001968F7099278093410183
:1010000002C01092BC0081E09091BC00956882956E
:10101000880F880F807C892B8093BC00FF91EF9113
:101020009F918F910F900FBE0F901F901895539A1C
:10103000089553985B9A08955B9808955B9A089574
:101040000E941C0880E28A95F1F70C941E080F9309
:101050001F93CF93DF93082FC8E0D0E010E8812FD3
:10106000802319F00E941E0802C00E941C081695D9
:1010700080E28A95F1F7219791F7DF91CF911F9147
:101080000F910C941C0827E02A95F1F700C098E016
:1010900080E020E12A95F1F729B123FB222720F9EE
:1010A000880F822B23E02A95F1F7000020E12A9592
:1010B000F1F7915071F708958EE190E04B9B02C0DB
:1010C0000197E1F74B9BFECF08950E9417080C94FF
:1010D0001E080E941908EB9AE9E6F0E080818F7300
:1010E000808308951F920F920FB60F921124EF92F2
:1010F000FF921F932F933F934F935F936F937F9331
:101100008F939F93AF93BF93CF93DF93EF93FF930F
:101110000E941708C0E0D0E010E00E942008CE0135
:10112000875B9E4F7C01FC0180810E942708F701AC
:101130008081180F2196C630D10579F70E942008CA
:10114000812F0E9427080E942008F0E1FA95F1F70C
:101150000E941C080E94190880E18A95F1F7C0E0FE
:10116000D0E010E00E945C080E944308FE01ED5BA5
:10117000FE4F80838081180F2196C630D10591F7EC
:101180000E945C080E944308181721F080914201D8
:10119000816003C0809142018E7F809342010E9452
:1011A0005C08FF91EF91DF91CF91BF91AF919F913B
:1011B0008F917F916F915F914F913F912F911F91EF
:1011C000FF90EF900F900FBE0F901F901895EF9229
:1011D000FF921F93CF93DF93F8940E9417080E9409
:1011E0001C0885E08A95F1F700000E94190890E23A
:1011F0009A95F1F74B9B08C00E9417080E941E08A1
:10120000789481E090E049C0C0E0D0E010E00E9416
:101210005C080E944308FE01E75BFE4F80838081EB
:10122000180F2196C630D10591F70E945C080E94E4
:101230004308181741F00E9417080E941E0878946E
:1012400082E090E02AC00E945C08E0E2EA95F1F7B3
:101250000E941C080E941708F0E1FA95F1F7C0E01F
:10126000D0E010E00E942008CE018D5B9E4F7C01F3
:10127000FC0180810E942708F7018081180F2196C8
:10128000C630D10579F70E942008812F0E942708D7
:101290000E942008789480E090E0DF91CF911F9128
:1012A000FF90EF900895A3E2B1E041E050E08D910E
:1012B000E82FE295EF70F0E021A18F70BA0102C033
:1012C000660F771F8A95E2F7CB01962F90959223B0
:1012D00091A392A1892B82A371E0A932B70739F7B4
:1012E000089508950C94710980912A0283608860A2
:1012F00080932A020E945309ACE1B1E041E050E042
:101300008D91E82FE295EF70F0E021A18F70BA0186
:1013100002C0660F771F8A95E2F7CB01962F909552
:10132000922391A392A1892B82A371E0A332B707E4
:1013300039F7559A209AAFE4B1E0EBE5F1E08CE0A3
:101340008E0F11921D928E13FCCF0E94630B80931F
:1013500067010E94810B0C94390C6F927F929F92CF
:10136000AF92BF92CF92DF92EF92FF920F931F93B3
:10137000CF93DF9300D0CDB7DEB78091010181110B
:1013800004C036E0632E712C02C0612C712CA301C5
:10139000415B5E4F7A018A0183E2C82E81E0D82E3C
:1013A000AA24A394B12C25E0922EF9E2CF16F1E005
:1013B000DF0609F44AC0F60181916F01E82FE2953A
:1013C000EF70F0E021A18F70A50102C0440F551FFE
:1013D0008A95E2F7CA01922F982B91A392A180954A
:1013E000892382A350EA5A95F1F7ECE1F1E020E07D
:1013F00040E050E03191A32FA295AF70B0E09096FD
:101400008C9190E03F7002C0959587953A95E2F7F0
:1014100080FD07C0C501042E01C0880F0A94EAF7B9
:1014200002C080E090E0282B4F5F5F4F47305105AE
:1014300009F7F8018081821719F02083909200014A
:101440000E9453090F5F1F4FB0CF80910001882386
:10145000E1F0815080930001882339F08FE99FE00B
:101460000197F1F700C0000010C080E090E0FC019F
:10147000E60DF71DE55AFE4FD701A80FB91F2C91B5
:10148000208301968630910591F70E94B70B8983DE
:101490009A830E94BC0BF301E05AFE4F20812C7FFF
:1014A00020839A818981992341F0181614F42160D0
:1014B00003C0882311F02260208381E00F900F90F9
:1014C000DF91CF911F910F91FF90EF90DF90CF9020
:1014D000BF90AF909F907F906F900895CF93DF93D0
:1014E00080910101811103C0C0E0D0E002C0C6E0DC
:1014F000D0E00E94E708892B99F480E090E0FC019D
:10150000E75BFE4F2081FC01EC0FFD1FE55AFE4F0B
:10151000208301968630910591F780E090E002C02B
:1015200081E090E0DF91CF9108950E94AD09809114
:101530000101811103C026E030E002C020E030E06C
:1015400080E090E0FC01E20FF31FE55AFE4F40817E
:10155000FC01E75BFE4F408301968630910591F7D1
:10156000089580916701882309F441C00E94AD0964
:1015700080910101811103C026E030E002C020E02B
:1015800030E080E090E0FC01E20FF31FE55AFE4FEF
:101590004081FC01ED5BFE4F408301968630910552
:1015A00091F70E946E0A892BF1F05D988091680195
:1015B0008F5F809368018630A8F1809101018111CD
:1015C00003C020E030E002C026E030E080E090E0A0
:1015D000FC01E20FF31FE55AFE4F108201968630A0
:1015E0009105B1F71FC05D9A109268011BC00E945F
:1015F000950A80910101811103C020E030E002C012
:1016000026E030E080E090E0FC01ED5BFE4F4081A1
:10161000FC01E20FF31FE55AFE4F4083019686302E
:10162000910591F70E94410C81E00895E82FF0E0C8
:10163000E55AFE4F80810895CF92DF92EF92FF929C
:101640000F931F93CF93DF9380EA91E00E941507D9
:101650008BE5E82E81E0F82EC0E0D0E09BE9C92EB2
:1016600091E0D92E02E911E0DF93CF93DF92CF9280
:101670000E94AE0788E991E00E941507F701819169
:101680007F0190E00E94B8249F938F931F930F9344
:101690000E94AE0780E991E00E94150721968DB760
:1016A0009EB708960FB6F8949EBF0FBE8DBFCC3084
:1016B000D105D1F6DF91CF911F910F91FF90EF905F
:1016C000DF90CF900895E8EDF0E080818061808325
:1016D0008AE18A95F1F700C08091D9008170089560
:1016E0000E94630B809301010E94630B882319F011
:1016F0000E94650802C00E946908789408950C94BD
:10170000700B8AB18AB95E9A8AB18AB95A9AE9E6A7
:10171000F0E0808180618083EA9A08951F920F92A1
:101720000FB60F9211242F938F939F9399B192FB31
:10173000992790F980916B01891789F090936A013C
:1017400090936B0129B126FB222720F98091690132
:10175000921302C08F5F01C08150809369019F91F5
:101760008F912F910F900FBE0F901F901895809121
:10177000690190916A010895E9E6F1E01082118211
:1017800008950C94170CCF93FB01803E2CE5920733
:10179000E9F040F48E3D2CE5920761F08F3D9C45C9
:1017A00071F041C0813E2CE5920729F1833E9C45B2
:1017B00049F139C0C281CC23B9F180E004C0C281B3
:1017C000CC2391F181E00E94250C0DC0C281CC2375
:1017D00061F080916C01811103C081E080936C0104
:1017E00082E00E949722C0E01FC082E00E94B822DF
:1017F00010926C0119C0C28183E0C111F2CF0E9426
:10180000B82212C0C281CC2371F00E94E7110E945D
:10181000511580914D0286958F7390E090934C0204
:1018200080934B0201C0C1E08C2FCF91089580912D
:101830004D0286958F7390E090934C0280934B02FB
:10184000089581E008950C94C30BCF93DF9361E07A
:1018500070E0EB0102C0CC0FDD1F8A95E2F78C2F00
:101860000E94E524BE0180E090E0DF91CF910C94CE
:1018700036220E94D224811102C00E9445250C9478
:10188000C10B0C94720908950C94430C0C94440CF5
:1018900008950E94761E0E94480C2FEF84E39CE07E
:1018A000215080409040E1F700C000000C94722667
:1018B000FF920F931F93CF93DF938C01FC01C081A4
:1018C000D1818091A501811113C08281882349F0C3
:1018D000CE010E949023F82E682FCE010E9435235E
:1018E00004C0CE010E946423F82EBE018F2D04C0D7
:1018F000CE010E949023BE010E94020FEC01B801AC
:101900000E94230C882309F472C2CC3CFCE5DF075B
:1019100009F4E3C0E8F5C43C9CE5D90709F4A7C085
:10192000F8F4C531FCE5DF0778F4C2308CE5D80760
:1019300008F076C1C1159CE5D90709F465C0C1302E
:10194000DC4509F469C046C2C23CFCE5DF0709F486
:101950007AC008F080C0C631DC4509F414C23AC22E
:10196000F8018281C83CFCE5DF0709F49EC040F421
:10197000C63CECE5DE0709F48CC008F484C08FC0D7
:10198000CA3C9CE5D90709F49CC008F494C09FC0E8
:10199000C43DFCE5DF0709F418C1C0F4F8018281F9
:1019A000C03DFCE5DF0709F4CDC040F4CE3CECE5DA
:1019B000DE0709F49FC008F498C0B0C0C23D9CE5A2
:1019C000D90709F4E9C008F4D3C0FAC0C83DFCE562
:1019D000DF0709F4BDC150F4F8018281C63DFCE582
:1019E000DF0709F46FC108F406C18DC1CC3DECE5F9
:1019F000DE0709F40CC1CD3DFCE5DF07E1F0CB3D8E
:101A0000DC4509F0E7C1FCC0F8018281882309F4B4
:101A1000EEC10E94490CEBC1F8018281882309F4D0
:101A2000E6C180912A02816080932A0287E594E0D2
:101A30000E941507DCC1F8018281882309F4D7C10F
:101A40000E944525D4C1F8018281882309F4CFC1C1
:101A50000E94F815CCC1F8018281882309F4C7C11E
:101A60000E946124827261F00E944815C0C1F80191
:101A70008281882309F4BBC10E9461248272A1F390
:101A80000E943E15B4C1882309F4B1C10E941B1401
:101A9000AEC1882309F4ABC10E943314A8C18823C6
:101AA00009F4A5C10E945214A2C1882309F49FC160
:101AB0000E946D149CC1882309F499C10E94871467
:101AC00096C1882309F493C10E94A21490C188236F
:101AD00009F48DC10E948D128AC1F8018281882388
:101AE00009F485C10E94A21282C1882309F47FC132
:101AF00081E03BC0882309F47AC10E947F126230E2
:101B000071058105910540F00E947F1265307105D5
:101B10008105910508F4B4CF82E027C0882309F439
:101B200066C10E947F12663071058105910540F003
:101B30000E947F12683071058105910508F4A0CFDD
:101B400086E013C0882309F452C10E947F126930D5
:101B500071058105910540F00E947F126E3071057C
:101B60008105910508F48CCF89E00E943B153FC1A7
:101B7000882309F43CC10E947F126F3071058105F2
:101B8000910540F00E947F12643171058105910535
:101B900008F476CF8FE0E9CF882309F428C10E94AA
:101BA0007F12653171058105910540F00E947F1219
:101BB000673171058105910508F462CF85E1D5CFC4
:101BC000882309F414C188E1D0CFF80182818823E9
:101BD00009F40DC10E947F126931710581059105DB
:101BE00040F00E947F12623271058105910508F470
:101BF00047CF89E1BACF882309F4F9C083E2B5CF92
:101C0000F8018281882309F4F2C080E006C0F8015F
:101C10008281882309F4EBC082E00E94262BE7C072
:101C2000F8018281882309F4DAC00E94D22481114C
:101C300002C00E9445250E94EA2490E09093C002D1
:101C40008093BF02FE01E350FC45E231F10530F420
:101C5000EA5AFF4F8091BF020C946B338091BF0210
:101C6000816027C0826025C0846023C0806121C05C
:101C700080621FC080641DC080681BC08460886053
:101C800018C08E7F16C08D7F14C08B7F12C08F7ED0
:101C900010C08F7D0EC08F7B0CC08F770AC08B7FEA
:101CA000877F07C087FB222720F991E0922790FBCE
:101CB00087F98093BF028091BF020E94EE240E94A8
:101CC000761E95C0882351F0109272010E940A2658
:101CD00090936F0180936E0182E020C08091720129
:101CE00081110FC080916E0190916F010E94222698
:101CF0008639910530F486E20E94141B86E20E9428
:101D0000CF1B82E022C0882361F0109273010E94F1
:101D10000A26909371018093700180E20E94FB1B60
:101D200066C08091730181110FC080917001909104
:101D300071010E9422268639910530F487E20E94C3
:101D4000141B87E20E94CF1B80E20E94021C4FC03E
:101D5000F80182818111D9CF809173018111F4CF73
:101D600080917001909171010E942226863991051F
:101D700058F780E20E94021C88E20E94141B88E24D
:101D80000E94CF1B34C00E946124282FF801828159
:101D900040910F0150911001882379F02A7A91E047
:101DA00009F490E090936D01911102C069E201C0C5
:101DB00065E3CA010E9479250AC080916D018111F5
:101DC00002C069E201C065E3CA010E947B250E944E
:101DD0002E240DC081E08093720180937301C801AD
:101DE000DF91CF911F910F91FF900C94210C80E017
:101DF000DF91CF911F910F91FF90089580E090E0C7
:101E00000895089597E0799FF001112494E5899F42
:101E1000E00DF11D1124E60FF11DEE0FFF1FE95437
:101E2000FE4F859194910895880F991FFC01E85900
:101E3000FB4F859194910895CF93DF930E94020FF9
:101E40000E94BF10EC01811520E59207F0F5811585
:101E500030E4930708F018C1883E910500F5803EF4
:101E6000910508F088C1883A910570F4853A91058A
:101E700008F09AC08130910509F47DC108F434C19D
:101E8000049708F078C130C18D3B910508F497C0E4
:101E9000803C910508F428C1805C9109E7C0811558
:101EA000904258F4C11581E0D80708F064C1C03FE2
:101EB000D10508F419C1D0655EC1C11590E3D907F9
:101EC00008F0D8C0CE019F70D1C0811525E59207DA
:101ED00008F043C0811534E5930708F0ECC0811584
:101EE00042E5940708F5C11581E5D80708F0CFC091
:101EF0002C2F237081E090E002C0880F991F2A9553
:101F0000E2F79C689E0174E0369527957A95E1F793
:101F10002370922BCF70C695C69530E2C39FE00127
:101F20001124C82BD92B27C1869586959E01237035
:101F30003327C115D34508F0AFC040E2849FC001EC
:101F40001124C1E0D0E002C0CC0FDD1F2A95E2F7DA
:101F50008C2B9D2BEC01DC680EC1811529E59207C5
:101F600078F4811538E5930708F0AAC081159645E5
:101F700008F0BAC0CF71DD27DC2FCC27D062FBC0C0
:101F8000C1158AE5D80708F4A0C0CE019056811586
:101F9000904208F0A9C08D2F8F710E943C11DD275F
:101FA000D0628F71D82BE7C0853A910509F49FC0A4
:101FB000863A910509F09EC0C2E8D0E4DCC0883AB8
:101FC000910509F49AC0893A910509F499C08A3AB1
:101FD000910509F498C08B3A910509F497C08C3AA1
:101FE000910509F496C08B3B910509F495C08C3B93
:101FF000910509F494C08D3A910509F493C0803B92
:10200000910509F492C08E3A910509F491C08F3A76
:10201000910509F490C0813B910509F48FC0823B82
:10202000910509F48EC0833B910509F48DC0843B72
:10203000910509F48CC0853B910509F48BC0863B62
:10204000910509F48AC0873B910509F489C0883B52
:10205000910509F488C0893B910509F487C08A3B42
:10206000910509F486C0C0E0D4E485C00E94140F35
:10207000EC0181C0CE019927D3FF03C0EC01D86CDD
:102080007AC0EC01D06C77C0DF70D06A74C0DC2FEE
:10209000CC27C16FD06A6FC040E2849FC001112479
:1020A000C1E0D0E002C0CC0FDD1F2A95E2F7C82BBB
:1020B000D92BDA6860C0D82FCC27C46FD06A5BC038
:1020C000D82FCC27C06FD06A56C08C2F8F70806EEF
:1020D00090E0906A24E0D695C7952A95E1F7CF70F5
:1020E0009C013C2BE90147C0C0E0D0E044C0C1E8FE
:1020F000D0E441C0C3E8D0E43EC0C2EED4E43BC06B
:10210000C9EED4E438C0CAEED4E435C0C5EBD4E49B
:1021100032C0C6EBD4E42FC0C3EBD4E42CC0C4EB74
:10212000D4E429C0C7EBD4E426C0CCECD4E423C06B
:10213000CDECD4E420C0C3E8D5E41DC0CAE8D5E4A2
:102140001AC0C2E9D5E417C0C4E9D5E414C0C1E29D
:10215000D6E411C0C3E2D6E40EC0C4E2D6E40BC09C
:10216000C5E2D6E408C0C6E2D6E405C0C7E2D6E4BC
:1021700002C0CAE2D6E4CE01DF91CF910895823841
:10218000910549F1B0F48133910509F458C048F440
:102190008932910509F44EC08A32910509F454C080
:1021A00008958533910509F440C08933910599F06C
:1021B0000895833E910529F138F4803E910591F010
:1021C000823E9105A1F00895863E9105F9F0873E83
:1021D000910531F108952091BF0220FD3AC021FD03
:1021E00038C008958091BF0280FD35C032C0809113
:1021F000BF0282FF32C08091BF0284FD30C083EEF7
:1022000039C08091BF0282FD28C0F5CF8091BF0206
:1022100083FF27C08091BF0284FD21C087EE2AC0C2
:102220008091BF0283FD1DC0F5CF8091BF0285FD67
:102230001AC01BC08091BF0285FD17C014C08091D9
:10224000BF0286FD14C015C08091BF0286FD11C07B
:102250000EC080EE0FC089E30DC082EE0BC080E09F
:1022600009C086EE07C089E205C085E303C08AE2A3
:1022700001C081E390E008959091BF0292FF0DC0EC
:10228000282F2871283019F4877F846006C0282FF2
:102290002471243011F48B7F886093FF0DC0282FA8
:1022A0002871283119F4877E846106C0282F247193
:1022B000243111F48B7E886194FD877E0895CF923E
:1022C000DF92EF92FF920F931F93CF93DF93E90179
:1022D000493708F048E7662309F44EC0242F30E060
:1022E000EFEFF0E0E61BF109B901E69F8001E79FFF
:1022F000100DF69F100D1124012F110F110B202F1F
:102300007B01E01AF10A3CE3C32ED12CB6010E94F6
:102310004333FB01BC01E69EC001E79E900DF69E93
:10232000900D1124B6010E944333E230F105B1F063
:1023300040F4309779F0319711F5802F242F461B08
:1023400021C0E430F105A1F068F03597C1F4842F85
:10235000861B18C0802F262F200F14C0862F800FB9
:10236000E42F03C0E42FE61B842F402F2E2F0AC03A
:10237000842F462F400F06C0842F242F03C080E0F7
:1023800020E040E0E42FF0E0EF5AF84F4491E22FD4
:10239000F0E0EF5AF84F9491E82FF0E0EF5AF84F41
:1023A000E49149839883EA83DF91CF911F910F9144
:1023B000FF90EF90DF90CF90089588E090E00C942C
:1023C0008633AB01BC0188E090E00C94A433EDE4CB
:1023D000F2E083E0808310924E028FEF828388E7E1
:1023E0008383148260817181828193810C94E111D5
:1023F00080912A0280FF08C08EE197E09F938F931F
:102400000E94AE070F900F9080912A0280FF0FC0AC
:1024100080914D0281701F928F9381E097E09F938E
:102420008F930E94AE070F900F900F900F908091A6
:102430002A0280FF10C080914D0286958F731F92F3
:102440008F9386EE96E09F938F930E94AE070F9036
:102450000F900F900F9080912A0280FF19C08091F9
:102460004D02881F8827881F90914E02292F220F26
:10247000822B97FB992790F99F938F938CEC96E092
:102480009F938F930E94AE070F900F900F900F9025
:1024900080912A0280FF0EC080914F021F928F937D
:1024A00082EB96E09F938F930E94AE070F900F9060
:1024B0000F900F9080912A0280FF0EC080915002F1
:1024C0001F928F9388E996E09F938F930E94AE07A7
:1024D0000F900F900F900F9080912A0280FF0EC0F6
:1024E000809151021F928F938CE796E09F938F9378
:1024F0000E94AE070F900F900F900F90089560917B
:102500004D0260FF06C066956F7370E080E090E05A
:10251000089560E070E0CB0108958091510290E051
:1025200001968430910514F083E090E0809351028D
:1025300060914D0270914E0280914F029091500235
:102540000C94E1118091510290E0019797FF02C035
:1025500080E090E08430910514F083E090E0809377
:10256000510260914D0270914E0280914F02909104
:1025700050020C94E11180914D0280FF06C063E28D
:1025800070E082E592E00C94741980E090E0FC0128
:10259000EE5AFD4F11821082128203968936910500
:1025A000B1F7EDCF90914D0290FF0FC020E030E0E9
:1025B000F901EE5AFD4F8183608342832D5F3F4FC7
:1025C00029363105A9F70C94BB120895CF93DF93F8
:1025D00000D01F92CDB7DEB720914D0220FF0AC078
:1025E0009E012F5F3F4F0E945F114B8169818A815D
:1025F0000E94D2120F900F900F90DF91CF9108950B
:102600002F923F924F925F926F927F928F929F9202
:10261000AF92BF92CF92DF92EF92FF920F931F93F0
:10262000CF93DF93CDB7DEB727970FB6F894DEBF11
:102630000FBECDBF8C01262E342E2D8380914D02EE
:1026400080FFDDC0982F9E77923061F49E012F5F4E
:102650003F4FC8010E945F114B8169818A810E94AE
:10266000D21280C0E82FE695EF739EE39E0F9F7312
:10267000943018F43090500275C09AE39E0F9F7307
:10268000993068F4881F8827881F90914E02292F5F
:10269000220F022F082B97FB112710F963C087E246
:1026A0008E0F8F738A3008F05DC0F0E07997E0FDFF
:1026B00003C021E02C8302C03FEF3C83EE7FE95B47
:1026C000F84F859094908C81682E880F7708C4010C
:1026D00063E270E00E944333669E2001679E500CC7
:1026E000769E500C1124580198E9A91A9EEFB90A58
:1026F00082E5C82E82E0D82EE12CF12CC50168E6D7
:1027000071E00E94433320912A0220FF18C09F925B
:102710008F927F92AC81AF939F938F93FF92EF92B2
:10272000A7EDB4E0BF93AF938E839F830E94AE0763
:102730000FB6F894DEBF0FBECDBF9F818E8196018C
:10274000432D622D0E945F11BFEFEB1AFB0AA40C10
:10275000B51C23E0C20ED11C33E2E316F10471F67E
:102760000E94BB1280914D0200FB87F980934D02BD
:1027700080914E028078902F9695892B10FB87F9D7
:1027800080934E0220924F02309250028D81882316
:1027900021F160914D0270914E0280914F02909113
:1027A00050020E94E111809150021F928F938091FC
:1027B0004F021F928F9380914D02881F8827881F98
:1027C00090914E02292F220F822B97FB992790F987
:1027D0009F938F9382EB94E009C01F923F921F92C8
:1027E0002F9211701F930F938BE894E09F938F9318
:1027F0000E94AE070FB6F894DEBF0FBECDBF27967E
:102800000FB6F894DEBF0FBECDBFDF91CF911F9101
:102810000F91FF90EF90DF90CF90BF90AF909F907F
:102820008F907F906F905F904F903F902F90089582
:1028300021E00C940013EDE4F2E02081221F222716
:10284000221F30914E02432F440F842F822B37FBDF
:10285000992790F90A9668E671E00E945733438100
:1028600062810C94181420914D02221F2227221FEE
:1028700030914E02432F440F842F822B37FB992730
:1028800090F98A3091051CF4825A9E4F01C00A9734
:1028900068E671E00E9457334091500260914F0208
:1028A0000C94181460914F02862F90E08F3E910592
:1028B00014F46F5E01C06FEF80914D02881F88276E
:1028C000881F90914E02292F220F97FB992790F98C
:1028D00040915002822B0C94181460914F02862F65
:1028E00090E0419714F0615101C060E080914D0289
:1028F000881F8827881F90914E02292F220F97FB4F
:10290000992790F940915002822B0C941814409111
:102910005002842F90E08D36910514F4445F01C07D
:1029200048E780914D02881F8827881F90914E02AA
:10293000292F220F97FB992790F960914F02822B44
:102940000C94181440915002842F90E00C9714F0CE
:102950004C5001C040E080914D02881F8827881F9D
:1029600090914E02292F220F97FB992790F96091A1
:102970004F02822B0C94181420E00C94001381E079
:102980008093910180912A0280FF08C08AE794E039
:102990009F938F930E94AE070F900F90089510920F
:1029A000910180912A0280FF08C088E694E09F93FD
:1029B0008F930E94AE070F900F90089590914D0253
:1029C00090FF58C09178811102C0926007C0853293
:1029D00010F0986403C08F73880F982B90934D026A
:1029E000662399F060914D0270914E0280914F02E2
:1029F000909150020E94E11180914D0286958F7353
:102A00001F928F9382EC95E008C080914D028695CD
:102A10008F731F928F9384EA95E09F938F930E9408
:102A2000AE070F900F900F900F9060914D0266953A
:102A30006F7370E04BE050E084E091E00E947133EE
:102A4000892B19F00E94CF1402C00E94BF148091FC
:102A50004D02881F8827881F90914E02292F220F30
:102A600097FB992790F94091500260914F02822B79
:102A70000C94BC14089561E00C94DE1480914D0216
:102A800086958F738F5F853208F081E00C943B153B
:102A900080914D0286958F73815009F484E20C94E5
:102AA0003B15CF93DF93CDE4D2E0888181608883AA
:102AB0001F9281E08F9386E395E09F938F930E940E
:102AC000AE070F900F900F900F90888186958F73AF
:102AD000DF91CF910C943B1560E00C94DE14809153
:102AE0002A02816080932A0285E696E09F938F9365
:102AF0000E94AE0780912A020F900F9080FF08C0BD
:102B00008FE496E09F938F930E94AE070F900F90F3
:102B10000E94D224811110C080912A0280FF08C037
:102B200087E296E09F938F930E94AE070F900F90DD
:102B30000E9445250E94E7110E94DD1160934D021D
:102B400070934E0280934F02909350026E77C1F4BF
:102B500080912A0280FF08C08EED95E09F938F93AD
:102B60000E94AE070F900F900E94E7110E94DD11A6
:102B700060934D0270934E0280934F0290935002E7
:102B80000E94F81181E08093910180914D0280FFB5
:102B900004C086958F730C946C150895CF93DF93C2
:102BA000CDE4D2E088818E7F8883688179818A81B3
:102BB0009B810E94E111888181701F928F938EEF1B
:102BC00094E09F938F930E94AE070E94CF142FEF43
:102BD00080E792E0215080409040E1F700C0000083
:102BE0000F900F900F900F90DF91CF910C94BB122C
:102BF00080914D02809581701F928F938DE695E0B4
:102C00009F938F930E94AE0780914D020F900F907B
:102C10000F900F9080FD0C94CE150C945115CF930E
:102C2000C82F80918F01909190010E942226EC2F55
:102C3000F0E0ED5BF84FE491F0E08E179F0708F4A9
:102C400043C00E940A269093900180938F01609167
:102C50008E0170E080E090E00E94383120E030E0AA
:102C60004FE753E40E945B302BED3FE049E450E432
:102C70000E9461320E94CE320E94D5302BE43AE3AA
:102C80004EE25FE30E94EE2F20EF3BEF48ED52E46F
:102C90000E9461320E940731462F80914D02881FA9
:102CA0008827881F90914E02292F220F97FB992782
:102CB00090F960914F02822B0E94E61280918E0162
:102CC00090E0019680938E01CF910895CF93C82F05
:102CD00080918C0190918D010E942226EC2FF0E0D2
:102CE000E05CF84FE491F0E08E179F07E8F00E9457
:102CF0000A2690938D0180938C014091500260913F
:102D00004F0280918A0190918B010E94E61280917E
:102D10008A0190918B01019668E671E00E9443332D
:102D200090938B0180938A01CF910895CF92DF9287
:102D3000FF920F931F93CF93DF93F82E809188011A
:102D4000909189010E942226EF2DE695F0E0E35C48
:102D5000F84FE491F0E08E179F07F0F10E940A26E9
:102D6000909389018093880102E512E0C0E0D0E0F1
:102D700088E6C82EDD24D394809186019091870146
:102D80008C0F9D1FB6010E94433398014091500261
:102D900060914F020E945F11E7960D5F1F4FC5388B
:102DA00087E0D80749F70E94BB1220918601309135
:102DB0008701F0FE0BC0C901019668E671E00E9430
:102DC0004333909387018093860106C021503109D7
:102DD0003093870120938601DF91CF911F910F914E
:102DE000FF90DF90CF900895AF92BF92CF92DF9285
:102DF000EF92FF920F931F93CF93DF93C82F80FF23
:102E000002C01FEF01C011E0809184019091850103
:102E10000E942226C695EC2FF0E0E65CF84FE49184
:102E2000F0E08E179F0708F466C00E940A26909370
:102E300085018093840122E5C22E22E0D22E34E562
:102E4000E32E32E0F32EC0E0D0E0F701319710829C
:102E5000F6011082F701108294E0A92EB12C00E057
:102E600080918301800F87FD8D5D082E000C990BEA
:102E7000C817D907E9F4809150028A9DA0018B9D63
:102E8000500D1124559547955595479580914D02C4
:102E9000881F8827881F90914E02592F550F97FB46
:102EA000992790F9960160914F02852B0E945F113E
:102EB000010FF1E0AF1AB10899F6219683E0C80E30
:102EC000D11CE3E0EE0EF11CC332D10509F0BDCFF9
:102ED0000E94BB1280918301113031F4811102C034
:102EE00082E207C0815005C090E00196BE010E94B9
:102EF000573380938301DF91CF911F910F91FF9002
:102F0000EF90DF90CF90BF90AF9008950F931F93F5
:102F1000CF93DF93C82F80918101909182010E940D
:102F20002226EC2FF0E0E95CF84FE491F0E08E17F8
:102F30009F0708F466C00E940A269093820180933E
:102F4000810180E090E0FC01EE5AFD4F1182108279
:102F50001282039689369105B1F7C0E0D0E003E212
:102F600010E0CE01B8010E94573340918001042E39
:102F7000000C550BFC01EE0FFF1FC417D5070CF119
:102F800040910301042E000C550B4C175D07CCF04B
:102F90008E0F9F1F9C012E5A3D4F80914D02881F1E
:102FA0008827881F90914E02592F550F97FB99271C
:102FB00090F94091500260914F02852B0E945F1161
:102FC00007C0E80FF91FEE5AFD4F118210821282DE
:102FD0002196C332D10529F60E94BB1280910201CD
:102FE00090918001980F9093800120910301280F08
:102FF00020930301121614F492321CF081958093F1
:103000000201DF91CF911F910F910895EF92FF92EE
:103010000F931F93CF93DF9380917E0190917F0157
:103020000E942226883E9340D0F10E940A26909367
:103030007F0180937E01C0917C01D0917D0121961A
:10304000C170DD27D0937D01C0937C0182E5E82E1D
:1030500082E0F82E10E008E7812F8695FE01E80F48
:10306000F11DCF0181709927970140915002609125
:103070004F02FC010E9FC0010F9F900D11240E9472
:103080005F111F5FF3E0EF0EF11C133229F7DF91A0
:10309000CF911F910F91FF90EF900C94BB12DF9195
:1030A000CF911F910F91FF90EF900895CF93DF93F1
:1030B00000D01F92CDB7DEB780917A0190917B014D
:1030C0000E942226E5E3F7E02591349182179307C9
:1030D000C0F18091790181110CC09E012F5F3F4F9B
:1030E00048E76FEF80E090E00E945F118A81809353
:1030F00079010E940A2690937B0180937A01809146
:103100007801813051F028F0823061F440917901EA
:103110000AC08091790140E007C06091790140E0E8
:1031200080E003C040E080E060E00E94D212809125
:10313000780190E0019663E070E00E94573380933D
:1031400078010F900F900F90DF91CF9108950F931A
:103150001F93CF93DF9380917601909177010E9426
:103160002226843F914008F448C00E940A2690938A
:10317000770180937601C2E5D2E000E010E0209173
:1031800074013091750180914D0290914E02013190
:1031900011051CF4232B79F002C0232B61F4881F46
:1031A0008827881F592F550F97FB992790F99E0163
:1031B000409150020AC0881F8827881F592F550F39
:1031C00097FB992790F99E0140E060914F02852B73
:1031D0000E945F110F5F1F4F23960332110579F68E
:1031E0000E94BB12809174019091750101968170CB
:1031F00099279093750180937401DF91CF911F916E
:103200000F910895809191018823D9F190914D02F9
:10321000892F86958F732EE3280F2F73243018F48F
:1032200082500C940F162AE3280F2F73233018F4C2
:1032300086500C94661627E3280F2F73263018F457
:1032400089500C94961621E3280F2F73263018F41A
:103250008F500C94F4162BE2280F2F73233018F4A0
:1032600085510C948617892F8E77803311F40C9436
:103270000618863411F40C945618883411F40C9402
:10328000A718089525B1342F3095232335B1432B4A
:103290003FB7F894FC01680F791FE617F70789F02C
:1032A000819198E045B9000000C087FF25B9880FDB
:1032B000000000C000C000C025B900C09A9591F779
:1032C000ECCF3FBF089524B1242B24B99B01220FDA
:1032D000331F620F731F0E94421987EC90E0019721
:1032E000F1F700C00000089548E00C946319909332
:1032F0009701809396010895E0919601F0919701CE
:10330000309721F00190F081E02D099480E008953C
:10331000EF92FF920F931F93CF93DF93E09196016B
:10332000F09197013097B1F18C010280F381E02D8B
:10333000099580912A0282FF2DC080FF04C089E593
:1033400098E00E941507E80118E083E5E82E88E080
:10335000F82E80912A0280FF0BC088811F928F93E4
:10336000FF92EF920E94AE070F900F900F900F9078
:10337000115021961111EDCF80912A0280FF0AC0D1
:1033800081E598E0DF91CF911F910F91FF90EF9031
:103390000C941507DF91CF911F910F91FF90EF9043
:1033A000089520919401309195018217930771F04F
:1033B0009093950180939401E0919601F09197018B
:1033C000309721F00680F781E02D0994089520912F
:1033D0009201309193018217930771F090939301BA
:1033E00080939201E0919601F0919701309721F03E
:1033F0000084F185E02D0994089585B7806885BF24
:1034000085B7806885BF08950E94FD190C947F0BD5
:1034100081E008950E9401260E9474090E94962668
:103420000C946F15CF93C82F80912A0282FF1EC083
:1034300080FF04C082E798E00E94150780912A026D
:1034400080FF0CC01F92CF938DE698E09F938F93DF
:103450000E94AE070F900F900F900F9080912A025C
:1034600080FF04C08BE698E00E9415078C2FCF9157
:103470000C94460CCF92DF92EF92FF920F931F9322
:10348000CF93DF93CDB7DEB72B970FB6F894DEBF9F
:103490000FBECDBF0E94B10A0E94081A811111C04F
:1034A0008FEF89838A831B820E940A268160782F8E
:1034B0009D838C8349815A816B818D810E94E01AA2
:1034C00056C089E9C82E81E0D82E00E010E0E02E39
:1034D000802F0E94160BF60141916F01F42EF82601
:1034E00031F40F5F1F4F0C30110589F7D9CF909140
:1034F0002A0291FF04C08B870E941C0B8B8520E061
:1035000030E04F2D50E0922FBA01022E02C0759587
:1035100067950A94E2F760FF24C02E83EF8221E0D2
:1035200030E0690102C0CC0CDD1C9A95E2F790E016
:103530008C219D21892B09F420E028870E940A26EE
:103540008160782F9A8789874E815F8168858A8517
:103550000E94E01AF801E756FE4F8081C826C0821B
:1035600006C02F5F3F4F2730310569F6BACF109163
:1035700098010E947C191817A1F00E947C19809371
:1035800098012B960FB6F894DEBF0FBECDBFDF912A
:10359000CF911F910F91FF90EF90DF90CF900C94FF
:1035A000121A2B960FB6F894DEBF0FBECDBFDF9177
:1035B000CF911F910F91FF90EF90DF90CF900895E2
:1035C000CF93DF93CDB7DEB72B970FB6F894DEBF5E
:1035D0000FBECDBF4F83588769877A878B87DE01FF
:1035E000119686E0FD0111928A95E9F785E0FE01CA
:1035F000379601900D928A95E1F749815A816B8146
:103600007C818D819E810E9405212B960FB6F894B6
:10361000DEBF0FBECDBFDF91CF910895FC01808149
:1036200091810E94CF230895CF93DF931F92CDB74E
:10363000DEB7882309F4AFC0682F8CEF860F813A7C
:1036400070F4862F69830E94F22769818111A3C0DB
:1036500080910F01909110010E9479250CC080E2A9
:10366000860F883068F4677081E001C0880F6A9522
:10367000EAF70E9464240F90DF91CF910C942E24DE
:103680008BE5860F833088F4653A29F0663A31F08D
:1036900083E890E005C081E890E002C082E890E015
:1036A0000F90DF91CF910C94D11988E5860F853169
:1036B00008F071C0683A61F1693A69F16A3A71F1EA
:1036C0006B3A79F16C3A81F16B3B89F16C3B91F18A
:1036D0006D3A99F1603BA1F16E3AA9F16F3AB1F1FF
:1036E000613BB9F1623BC1F1633BC9F1643BD1F18C
:1036F000653BD9F1663BE1F1673BE9F1683BF1F1EC
:10370000693BF9F16A3B09F43FC080E090E03EC0BC
:1037100082EE90E03BC089EE90E038C08AEE90E007
:1037200035C085EB90E032C086EB90E02FC083EB94
:1037300090E02CC084EB90E029C087EB90E026C09D
:103740008CEC90E023C08DEC90E020C083E891E009
:103750001DC08AE891E01AC082E991E017C084E9AF
:1037600091E014C081E292E011C083E292E00EC0C9
:1037700084E292E00BC085E292E008C086E292E02B
:1037800005C087E292E002C08AE292E00F90DF91EA
:10379000CF910C94E7190F90DF91CF910895882372
:1037A00049F1682F8CEF860F813A38F480910F0130
:1037B000909110010E947B250CC080E2860F88301A
:1037C00050F4677081E001C0880F6A95EAF70E94A3
:1037D0006A240C942E248BE5860F833020F480E03D
:1037E00090E00C94D119685A653120F480E090E0A3
:1037F0000C94E7190895882321F00E9464240C9406
:103800002E240895882321F00E946A240C942E24EB
:1038100008954F925F926F927F92BF92CF92DF9204
:10382000EF92FF920F931F93CF93DF937C01D62FDC
:10383000C72FFC01058102950F70128111110E94A2
:1038400081240E942724882379F0112369F080E2E3
:103850008D0F883048F082E00E9410240E942724B7
:1038600091E0B82EB92601C0B12CCC2EC2948FE0C5
:10387000C822D12CF601E859FF4F0C946B338C2FE2
:10388000807FCF70882311F0C295C07F112399F0FB
:10389000CC2309F48DC180E28D0F883010F0D11156
:1038A00004C08C2F0E94642403C08C2F0E947424B7
:1038B0000E942E247DC18D2F0E94CF1BCC2309F4A2
:1038C0009CC180E28D0F883010F0D11104C08C2F84
:1038D0000E946A2403C08C2F0E947A240E942E2406
:1038E0008CC18C2F807FCF70803211F0C295C07F49
:1038F000DD2319F0D130C9F022C0112371F000236B
:1039000041F0013031F40E949A248C2B0E949424BF
:1039100074C10E949A248C2B04C1002319F0013039
:1039200009F46BC10E94972418C0112321F00630BE
:1039300008F063C10EC0053008F05FC10EC011234E
:1039400051F0002331F0F701858180FF31C18F7084
:1039500085838C2FE6C001113CC18C2FE8C08C2FD1
:1039600086958695837090E0009719F0019761F035
:1039700044C1112321F08D2F9C2F937002C080E051
:1039800090E00E94D11949C1112321F08D2F9C2F65
:10399000937002C080E090E00E94E7193EC18C2F36
:1039A000837009F050C0111134C18D2F8295869516
:1039B0008770880F880F9D2F9F70492E512C612C86
:1039C000712C082E04C0440C551C661C771C0A94EC
:1039D000D2F7D4FF14C00FE010E020E030E0B901CE
:1039E000A80104C0440F551F661F771F8A95D2F7A0
:1039F000CB01BA01609570958095909503C060E009
:103A000070E0CB01C695C695C370D0E0C230D10539
:103A100061F0C330D10581F0642975298629972981
:103A2000219771F00E944A22F4C0642975298629E1
:103A300097290E945C22EDC00E944A22C301B20174
:103A40000E943822E6C0112319F08C2F817001C02A
:103A50008695882309F4DDC08D2F82958695877021
:103A6000880F880F9D2F9F70492E512C612C712C2F
:103A7000082E04C0440C551C661C771C0A94D2F70F
:103A8000D4FF14C00FE010E020E030E0B901A8013D
:103A900004C0440F551F661F771F8A95D2F7CB01CC
:103AA000BA01609570958095909503C060E070E0D4
:103AB000CB01C695C695C3704C2F50E042305105DE
:103AC00069F04330510589F06429752986299729C1
:103AD0004130510571F00E9410239BC06429752963
:103AE000862997290E94222394C00E941023C30193
:103AF000B2010E94FE228DC08D2F90E0FC01E05E9D
:103B0000F109E531F10508F04FC0E858FF4F0C947A
:103B10006B33DF708C2F8F71112331F00E9497224D
:103B20008D2F0E94FB1B69C00E94B8228D2F0E941E
:103B3000021C63C0112341F0053008F05EC08C2FD9
:103B40008F710E94DD2259C0063008F056C0F7CFB1
:103B5000112339F08C2F8F710E9497224EC01123B0
:103B6000C9F38C2F8F710E94B82247C0112329F00E
:103B70008C2F8F710E94822240C00E947D223DC006
:103B8000112349F0CF718C2F0E94972263E08C2F74
:103B90000E94072432C081E00E941024023068F1A4
:103BA00082E00E94102429C0112331F0002391F2F9
:103BB0008D2F0E94141B21C0002399F2D93349F4A0
:103BC0005FEF67EE73E0515060407040E1F700C076
:103BD00000008D2F0E94CF1B10C04C2F4F706D2FF7
:103BE000C7010E94FE0E0E94A92117C04C2F4F70E2
:103BF0006D2FC7010E94010F10C088E0C816D104C4
:103C000041F05CF0EAE0CE1AD108F2E0CF16D10420
:103C100020F40E947C190E94460CBB20F1F00E9407
:103C2000032480FD1AC0F70112820E94FD230E9426
:103C30009722C7010E943B1E0E94FD23DF91CF9176
:103C40001F910F91FF90EF90DF90CF90BF907F90EA
:103C50006F905F904F900C94B822DF91CF911F919D
:103C60000F91FF90EF90DF90CF90BF907F906F907B
:103C70005F904F9008950F931F93CF93DF93EC01C4
:103C8000888199812B813C81232BB9F09F3F11F4CE
:103C90008F3F99F0CE010E94580C882371F0688103
:103CA00079818A810E94DA238C010E9434230E9448
:103CB0003522B801CE010E94091CDF91CF911F91DE
:103CC0000F9108950E9481240E94912480910F01F8
:103CD000909110010E947D250E942E2480E090E0AA
:103CE0000E94D11980E090E00C94E7190E947124A1
:103CF0000C94621E0E94CF23E92FE295EF70F0E052
:103D00003297EE30F105B0F4E357FF4F0C946B336C
:103D1000803F91F018F4803E68F40EC0843F51F467
:103D20000BC0803E48F0813F29F406C093FB8827F2
:103D300080F9089580E0089581E00895CF93DF939E
:103D400000D000D01F92CDB7DEB70F900F900F902C
:103D50000F900F90DF91CF910895CF93DF9300D014
:103D600000D000D0CDB7DEB726960FB6F894DEBFF0
:103D70000FBECDBFDF91CF9108951F93CF93DF93F7
:103D8000C091A60116E08091A701C81799F0D0E074
:103D90001C9FF0011D9FF00D1124E855FE4F40813E
:103DA000518162817381848195810E94AD1E21962B
:103DB000C770E9CFDF91CF911F9108954091D8014D
:103DC0005091D9016091DA017091DB018091DC01A1
:103DD0009091DD010C94AD1E8091DD0182958F7074
:103DE00009F054C08091DA01882309F44FC0809112
:103DF000A601A091A7016091D8017091D9014091CD
:103E0000DB015091DC01B6E08A1709F43FC090E075
:103E100041155105C1F17F3F11F46F3FA1F1B89FEA
:103E2000F001B99FF00D1124E855FE4F2181721366
:103E30002AC02081621327C02281211124C023813E
:103E400034812417350710F421503109241B350B18
:103E500026393105C0F42091DD012F7020612093B7
:103E6000DD0126E0289FF001299FF00D1124E35584
:103E7000FE4F80818F708061808388ED91E00E9489
:103E80003B1E0C94BD1E01968770BECF0895CF9245
:103E9000DF92EF92FF920F931F93CF93DF93CDB7F3
:103EA000DEB762970FB6F894DEBF0FBECDBF7C01C0
:103EB00085E0F701DE011D9601900D928A95E1F7EC
:103EC000D7014C9111965C91119712966C911297B3
:103ED0001396CD90DC9014973091D8017091D90150
:103EE0008091DB019091DC01009709F453C17F3F81
:103EF00019F43F3F09F44EC10091DA01002309F49F
:103F0000CBC02091DD01C816D90628F0F601E81BC8
:103F1000F90BCF0104C0809590958C0D9D1D11E08B
:103F20008639910578F010E0207F09F0D2C07C2D11
:103F3000D98AC88A89890E949E1E88ED91E00E94D4
:103F40003B1EBDC0822F807F09F046C0751314C090
:103F5000341312C0611110C02F7020612093DD0155
:103F60000E94DE1E88ED91E00E943B1E8091DD01E3
:103F7000D70115968C932EC0CD2819F15F3F11F40F
:103F80004F3FF9F0162F61111CC08091A6012091BE
:103F9000A70136E0821709F466C090E0389FF0016F
:103FA000399FF00D1124E855FE4F7181571306C05B
:103FB0007081471303C07281711103C0019687702D
:103FC000E9CF162F662309F410C18091DD018160CD
:103FD0008093DD0110E009C1751315C0341313C0BF
:103FE000611111C08091DD01D70115968C93C70135
:103FF0000E943B1E86E0F701A8EDB1E001900D9212
:104000008A95E1F763C04D875E878D859E856A8BB3
:104010000E947A1E6A898823D9F16623C9F120910A
:10402000DD01822F82958F7090E0029774F080916D
:10403000D8019091D90198878F831986DB86CA862B
:104040002C87CE0107960E943B1E86E0F701A8ED63
:10405000B1E001900D928A95E1F70E94EC1E0E945A
:10406000DE1E11E0C2C04D875E878D859E850E9451
:10407000CF23292F22952F7030E0223031050CF00C
:10408000A8C09F7009F0A2C0805E883008F4ADC05F
:10409000C7010E943B1EE5CFC816D90608F453C0DD
:1040A000F601E81BF90BCF018639910508F450C0E1
:1040B00010E07C2DD98AC88A89890E949E1EE8ED6D
:1040C000F1E086E0DF011D928A95E9F70E94DE1E8D
:1040D0008CC0751314C0341312C0611110C08091CC
:1040E000DD01F7018583C7010E943B1E86E0E8EDF4
:1040F000F1E0DF011D928A95E9F7102F76C04D8718
:104100005E878D859E856A8B0E947A1E6A898823C8
:1041100009F4BECF662309F4BBCF2091DD01822FC5
:1041200082958F7090E002970CF48FCF8091D80128
:104130009091D9019A8389831B82DD82CC822E8360
:10414000CE01019680CF809590958C0D9D1DACCFB2
:10415000162F662309F49CCF75130BC0341309C0C6
:1041600086E0F701A8EDB1E001900D928A95E1F7A4
:104170003CC04D875E878D859E850E947A1E811189
:1041800064CF8091DD0181608093DD01C7010E94D1
:104190003B1E2BC0662309F47BCF4D875E878D8540
:1041A0009E850E947A1E182F882309F471CF86E01D
:1041B000F701A8EDB1E001900D928A95E1F788ED45
:1041C00091E00E940E1B0E94EC1E80CF81115CCFFB
:1041D0000CC0243031050CF05BCF9F7009F454CF34
:1041E000F7019581907F09F04FCF812F62960FB62E
:1041F000F894DEBF0FBECDBFDF91CF911F910F911D
:10420000FF90EF90DF90CF9008951F93CF93DF93AF
:10421000CDB7DEB72C970FB6F894DEBF0FBECDBF7B
:104220004F83588769877A878B879C87CE0107964B
:104230000E94471F882369F08F8198852A853B85D6
:10424000232BF1F19F3F09F063C08F3F09F060C05D
:1042500037C086E0FE013796DE01119601900D927F
:104260008A95E1F76F817885EA85FB85309741F182
:104270007F3F11F46F3F21F12091A70130E0C90188
:104280000196877099274091A60150E08417950701
:1042900009F447C069837A83FD83EC8396E0929F9B
:1042A000D001939FB00D1124A855BE4FFE01319649
:1042B00001900D929A95E1F78093A7010E94BD1E8F
:1042C00016E08091A6019091A7018917C1F1189F6E
:1042D000C001112488559E4F0E94471F882379F101
:1042E000E091A6011E9FF0011124E855FE4F408188
:1042F000518162817381848195810E94AD1E80917C
:10430000A60190E00196877099278093A601D9CFE6
:104310004F81588569857A858B859C850E94AD1E65
:10432000CFCF0E94761E1092A7011092A601E8ED51
:10433000F1E086E0DF011D928A95E9F7C1CF2C9666
:104340000FB6F894DEBF0FBECDBFDF91CF911F91A6
:104350000895EF92FF920F931F93CF93DF938C01F9
:10436000892B09F46CC0F12CEE24E394E80121962A
:10437000F8018491843740F4843008F051C08130D2
:1043800081F0823019F15BC0853709F444C0A8F18F
:104390009CE7980F903708F052C08F770E94CF1B90
:1043A00041C00E5F1F4FFE01C49180E28C0F883028
:1043B00048F4C7708E2D01C0880FCA95EAF70E9495
:1043C000842414C08C2F0E94141B2DC00E5F1F4F1D
:1043D000FE01C49180E28C0F883058F4C7708E2D96
:1043E00001C0880FCA95EAF70E948A240E942E24F1
:1043F0001AC08C2F0E94CF1B16C00E5F1F4FFE01EC
:10440000C491CC2381F08FE99FE00197F1F700C0C0
:104410000000C150F6CF0E5F1F4FFE01F49003C0A5
:104420000E94141B8E018F2D882309F49FCFEFE982
:10443000FFE03197F1F700C000008150F5CFDF9128
:10444000CF911F910F91FF90EF90089508950C94D4
:1044500026220E9427226093190270931A028093E9
:104460001B0290931C020C94621E08950C94292246
:104470000F931F930091190210911A0220911B02B1
:1044800030911C02602B712B822B932B1F910F916B
:104490000C9429220F931F930091190210911A0274
:1044A00020911B0230911C026023712382239323ED
:1044B0001F910F910C9429220F931F9300911902C1
:1044C00010911A0220911B0230911C026027712763
:1044D000822793271F910F910C94292208950C9401
:1044E0006E220E946F2260931502709316028093D1
:1044F0001702909318020C94621E60E070E0CB01EA
:104500000C9471220F931F9341E050E060E070E043
:104510008A019B0104C0000F111F221F331F8A95BF
:10452000D2F7C901B8011F910F910C9471220F931A
:104530001F9341E050E060E070E004C0440F551F5D
:10454000661F771F8A95D2F7809115029091160207
:10455000A0911702B09118028A019B01082B192B18
:104560002A2B3B2BC901B8011F910F910C9471228A
:104570000F931F9341E050E060E070E004C0440FEF
:10458000551F661F771F8A95D2F740955095609505
:1045900070958091150290911602A0911702B0912A
:1045A00018028A019B01082319232A233B23C901EE
:1045B000B8011F910F910C9471220F931F9341E04A
:1045C00050E060E070E004C0440F551F661F771F85
:1045D0008A95D2F78091150290911602A091170248
:1045E000B09118028A019B01082719272A273B2727
:1045F000C901B8011F910F910C9471220F931F9361
:1046000000911502109116022091170230911802A4
:10461000602B712B822B932B1F910F910C94712285
:104620000F931F930091150210911602209117020B
:104630003091180260237123822393231F910F91DD
:104640000C9471220F931F93009115021091160282
:104650002091170230911802602771278227932733
:104660001F910F910C947122089527E0929F800D65
:104670001124A82FA695A695A695877051E001C094
:10468000550F8A95EAF785E0A89FD001112420E014
:1046900030E070E0F901EA0FFB1FE252FE4F40816B
:1046A000CB01022E02C0969587950A94E2F781709D
:1046B0009927819584278523842780832F5F3F4F07
:1046C0002530310539F7089527E0929F800D112498
:1046D000682F669566956695982F977085E0689F18
:1046E000B001112440E050E080E0FA01E60FF71F2E
:1046F000E252FE4F208130E0092E02C03695279508
:104700000A94E2F721703327042E01C0220F0A9485
:10471000EAF7822B4F5F5F4F4530510531F708951F
:10472000CF92DF92EF92FF920F931F93CF93DF937D
:104730008C01C0901902D0901A02E0901B02F090F8
:104740001C028091150290911602A0911702B0915F
:104750001802C82AD92AEA2AFB2ACFE1D0E0D701D9
:10476000C6010C2E04C0B695A795979587950A9417
:10477000D2F780FF06C0B8018C2F0E941C0F019752
:1047800021F4219760F780E001C08C2FDF91CF9159
:104790001F910F91FF90EF90DF90CF900895CF93EE
:1047A000DF93EC010E949023BE010E941C0FDF9159
:1047B000CF9108951F93CF93DF93EB019091A501C3
:1047C000992321F0CB010E94CF2313C0882349F005
:1047D000CB010E949023182F682FCE010E94352311
:1047E00004C0CB010E946423182FBE01812F0E94B8
:1047F0001C0FDF91CF911F91089580911D02859527
:1048000085958595089580911D028770089598E09B
:10481000899F90011124262B20931D020C9497222E
:1048200020911D028095822380931D02982F9770FE
:1048300069F430E0482F082E000C550B241735077B
:1048400029F08595859585950C94B82208959091C9
:104850001D02977081E009F480E00895E0910F0156
:10486000F0911001809129028083E0910F01F09175
:104870001001908180912802892B8083E0910F01A3
:10488000F0911001908180912702892B8083809183
:104890001E02882381F0E0910F01F09110019081B8
:1048A000892B808380910F01909110010E944725F0
:1048B000811110921E0280910F01909110010C94B1
:1048C000881980912902089590912902892B80935B
:1048D00029020895809590912902892380932902C5
:1048E000089510922902089590912802892B8093AF
:1048F00028020895809590912802892380932802A8
:10490000089510922802089590912702892B809390
:10491000270208958095909127028923809327028A
:10492000089510922702089580931E020895109210
:104930001E02089580911E02089590933F01809376
:104940003E0108958295982F9C7C392F3695369597
:10495000282F237344E0249FC0011124932F982B08
:10496000292F2A7A2695892F8575880F822B0895FD
:104970001F93CF93DF931F92CDB7DEB799830E9429
:10498000A224182F9981892F0E94A224212F30E080
:10499000322F2227A901482BCA010F90DF91CF9116
:1049A0001F91089580E090E00E948C3321E08D3EBD
:1049B0009E4F09F020E0822F089582E090E00C9451
:1049C0007E3383E090E00C947E33682F83E090E0A8
:1049D0000C94923384E090E00C947E33682F84E052
:1049E00090E00C949233AB01BC018FE090E00C940A
:1049F000A433AB01BC0183E190E00C94A43360E0EC
:104A000070E0CB010C94F92460E070E0CB010E94CF
:104A1000F3240C94FF246DEE7EEF80E090E00E9482
:104A2000B03360E082E090E00E94923360E083E087
:104A300090E00E9492331092190210921A02109282
:104A40001B0210921C0260E084E090E00E9492330E
:104A500060E085E090E00E94923360E086E090E0C4
:104A60000E9492336FEF87E090E00E94923340E023
:104A700050E0BA0188E090E00E94A43360E08DE04D
:104A800090E00E9492330C9404250C940B25FC01B9
:104A9000329697E080E0915029F021912223D9F3BA
:104AA0008F5FF9CF08959C01FC0132969FEF80E063
:104AB0004191461789F09F3F19F4411101C0982F89
:104AC0008F5F8630A9F79F3F39F0F901E90FF11D9B
:104AD00097FDFA95628308950895FC013296089631
:104AE0002081261301C010823196E817F907C1F71B
:104AF00008950C9453250C946D25029626E0FC0134
:104B000011922A95E9F7089508950C9484250E943E
:104B100085258091C502843049F110922B0220E452
:104B200088E190E00FB6F894A895809360000FBEDE
:104B30002093600080E00E94460C0E94852583B788
:104B4000817F846083BF83B7816083BF78948895B9
:104B500083B78E7F83BF0FB6F894A89580916000CD
:104B6000886180936000109260000FBE08950895E0
:104B70000895CF930E94B7250E94B10A0E94B825DC
:104B8000C0E08C2F0E94160B811104C0CF5FCC3087
:104B9000C1F701C081E0CF91089508950C94CD250F
:104BA0000E94761E0E947C190E94460C0C94CE2511
:104BB0001F920F920FB60F9211248F939F93AF9372
:104BC000BF9380912B02811113C08091BB02909101
:104BD000BC02A091BD02B091BE024196A11DB11DC3
:104BE0008093BB029093BC02A093BD02B093BE021F
:104BF000BF91AF919F918F910F900FBE0F901F901B
:104C0000189582E084BD93E095BD9AEF97BD80939F
:104C10006E0008952FB7F8948091BB029091BC026A
:104C2000A091BD02B091BE022FBF08952FB7F89496
:104C30006091BB027091BC028091BD029091BE0256
:104C40002FBF0895CF92DF92EF92FF920F931F93A1
:104C50002FB7F8944091BB025091BC026091BD0205
:104C60007091BE022FBF6A017B01EE24FF248C01EC
:104C700020E030E0C016D106E206F30610F4415001
:104C800051099A01281B390BC9011F910F91FF90FF
:104C9000EF90DF90CF90089578941F920F920FB607
:104CA0000F9211248F939F93AF93BF938091BB0278
:104CB0009091BC02A091BD02B091BE020196A11DCF
:104CC000B11D8093BB029093BC02A093BD02B09330
:104CD000BE02BF91AF919F918F910F900FBE0F9029
:104CE0001F90189581E08093E00080E28093D800C7
:104CF0001092C9008FE19EE40197F1F700C0000017
:104D000087E090EBDC018093CE029093CF02A093DA
:104D1000D002B093D1029CE088E10FB6F894A89538
:104D2000809360000FBE90936000FFCF0E94D2245A
:104D3000811102C00E9445250E94DD2480932A0231
:104D40000E94EA2490E09093C0028093BF020E94E8
:104D5000E124682F70E080E090E00C943622CF933D
:104D6000C82F1F928F938BE898E09F938F930E9498
:104D7000AE0781E090E0A0E0B0E0BC01CD0104C04E
:104D8000660F771F881F991FCA95D2F70E94362297
:104D90000F900F900F900F90CF910C94761ECF93A1
:104DA000873288F58E3108F00BC18E3009F489C046
:104DB000D8F4873009F461C08B3009F44FC08630D5
:104DC00009F004C180912A02817F8E7F80932A029C
:104DD0008BEF99E00E9415078CE29CE00E9415077A
:104DE00081E080932C0247C0863109F4B2C020F4E0
:104DF000803109F47CC0EAC0893109F493C08B3159
:104E000009F44BC0E3C0883349F150F4893209F406
:104E1000D9C0853309F4D6C0873209F4D3C0D6C0CF
:104E2000833409F4CFC028F48A3308F4CFC08953FF
:104E3000CAC0883409F0CAC00E94761E80E19CE096
:104E40000E9415072FEF83ED90E3215080409040A2
:104E5000E1F700C000000E9472260DC086E19AE0D2
:104E600043C087EF9BE00E94150780912A02897F4B
:104E7000877F80932A02C1E0AEC080912A02C82FAA
:104E8000C095C170C0FB80F980932A02CC2349F3FE
:104E900084E09CE00E9415079EC090912A0291FB3D
:104EA000CC27C0F981E0C827892FC0FB81F9809306
:104EB0002A02CC2319F08AEE9BE029C08CED9BE0FE
:104EC00013C090912A0292FBCC27C0F981E0C82739
:104ED000892FC0FB82F980932A02CC2319F08DEC34
:104EE0009BE015C08DEB9BE00E941507C4CF90910D
:104EF0002A0293FBCC27C0F981E0C827892FC0FB89
:104F000083F980932A02CC2351F081EB9BE00E942D
:104F1000150780912A02816080932A025CC084EA8E
:104F20009BE0E2CF8CEE99E00E9415078FEB99E0B1
:104F30000E9415078EE899E00E94150784E599E024
:104F40000E94150787E299E00E94150789EF98E013
:104F5000CBCF8BEE98E00E9415070E947C191F9220
:104F60008F9381ED98E09F938F930E94AE0780917D
:104F70001B011F928F938AEB98E09F938F930E945F
:104F8000AE07809139021F928F9387EA98E09F9332
:104F90008F930E94AE070E9416269F938F937F9354
:104FA0006F9380E998E09F938F930E94AE078DB72F
:104FB0009EB742960FB6F8949EBF0FBE8DBF5BCFD3
:104FC0008D5101C080E00E94AF2655CF82EA9BE060
:104FD0000E941507C0E08C2FCF91089580E00895BE
:104FE00080E00895CF93C82F80912C02882319F078
:104FF000813049F03EC0E0910F01F09110018081B5
:105000008232C9F507C0E0910F01F0911001808153
:10501000823261F48C2F0E94EE27811104C08C2F04
:105020000E94CF2624C081E090E021C08C2F0E94F6
:10503000F02781111BC0C43189F018F4CB3029F05E
:1050400010C0C93259F0C83361F48BEF99E00E9467
:10505000150787E898E00E94150708C010922C02F7
:105060000CC085E898E00E94150707C081E08170B8
:1050700006C010922C0280E002C080E0F8CFCF91F1
:10508000089580913802089508959FB7F89410927A
:105090002F029FBF9091C502943009F057C09091A4
:1050A000E9009F703091EC00232F217030FD20E843
:1050B000922B23E02093E9002091EB0020FF43C0D6
:1050C0002091EE0027FF3FC020912D02222321F0E6
:1050D0002091E80025FF37C010922D0226E0309184
:1050E000E80035FD15C03091C502343061F53091CE
:1050F000EB0035FD28C0215021F481E080932D0282
:1051000022C0EFE9FFE03197F1F700C00000E7CFE0
:105110008093F1008091E80085FD0AC08091E8004D
:1051200080FFFCCF8091E8008E778093E80006C076
:105130008FB7F89421E020932F028FBF9F70909338
:10514000E90080E008959F709093E9008FEF089543
:105150000F931F93CF93DF9300D01F92CDB7DEB78D
:105160008C010E94362B823011F0843021F584E0CE
:1051700089831B830A8382E08093E9008FEF9091FB
:10518000E800815095FD06C095ED9A95F1F7000075
:105190008111F5CF8091E80085FF0DC040E050E01F
:1051A00063E070E0CE0101960E94532B8091E800ED
:1051B0008E778093E8000F900F900F90DF91CF9142
:1051C0001F910F910895CF93DF9300D01F92CDB719
:1051D000DEB72091C502243031F523E029838058C1
:1051E00091099B838A8382E08093E9008FEF9091FD
:1051F000E800815095FD06C095ED9A95F1F7000005
:105200008111F5CF8091E80085FF0DC040E050E0AE
:1052100063E070E0CE0101960E94532B8091E8007C
:105220008E778093E8000F900F900F90DF91CF91D1
:105230000895CF93DF93EC010E94362B823011F05A
:10524000843039F581E08093E9008FEF9091E80098
:10525000815095FD06C095ED9A95F1F700008111FA
:10526000F5CF8091E80085FF14C040E050E068E091
:1052700070E0CE010E94532B8091E8008E778093DE
:10528000E80088E0FE01A0E3B2E001900D928A956B
:10529000E1F7DF91CF91089585E59CE00E94150725
:1052A0008091C402811109C00E94E82C0E94452D02
:1052B0008091E20084608093E200089581E59CE0A3
:1052C0000E9415071092C40208958DE49CE00C948E
:1052D000150789E49CE00C94150785E49CE00E9486
:1052E00015070C94D02520912E022F5F822F62E3A8
:1052F0000E943733992319F020932E0208951092BB
:105300002E0280912F02882371F18091C502843092
:1053100041F58091E9008F702091EC00922F9170FF
:1053200020FD90E8892B93E09093E9009091EB00A9
:1053300090FF14C09091EE0097FF10C09091E8008C
:1053400095FF03C01092F100F9CF9091E80090FF13
:1053500005C09091E8009E779093E8008F7080934D
:10536000E90010922F02089542E061EC81E00E9472
:10537000622C42E261EC82E00E94622C42E261EC2B
:1053800083E00C94622C8091C702833009F45CC0E6
:1053900030F4813071F0823009F495C008958A307C
:1053A00009F481C08B3009F467C0893009F0A3C0CB
:1053B00020C08091C602813A09F09DC08091E8002A
:1053C000877F8093E8008091CA029091CB02892B5D
:1053D00021F468E080E392E003C060E080E090E0C8
:1053E00070E00E949E2B8091E8008B778093E8000C
:1053F00008958091C602813209F07DC08091CA0271
:105400009091CB02029708F076C08091E800877FE8
:105410008093E8008091E80082FD05C08091C5027C
:105420008111F8CF68C080911B01882329F08091F9
:10543000F1008B7F813021F48091F100809338025C
:105440008091E8008B7753C08091C602813A09F0C1
:1054500052C08091CA029091CB02892B09F04BC0B7
:105460008091E800877F8093E8008091E80080FFCA
:10547000FCCF80911B0136C08091C6028132D9F5E4
:105480008091CA029091CB02892BA9F58091E80006
:10549000877F8093E8000E94972C8091C8028093B8
:1054A0001B010C94761E8091C602813221F58091F9
:1054B000E800877F8093E8000E94972C8091C902C2
:1054C0008093390208958091C602813AA1F48091B7
:1054D000E800877F8093E8008091E80080FFFCCFA0
:1054E000809139028093F1008091E8008E7780935B
:1054F000E8000C94972C089584B7877F84BF0FB67B
:10550000F894A89580916000886180936000109263
:1055100060000FBE80E880936100109261000E94DD
:10552000041A0E94E82C0E94452D8091E2008460BC
:105530008093E20085E498E20E949D2478940E9482
:10554000D32F0E940A1A81E191E00E94771984E327
:105550009CE00E9415078091C502853089F480E3A4
:105560009CE00E9415070E9487258091C302882332
:1055700091F30E94B925882371F30E943D2BEBCF54
:105580000E943A1A0E940219E6CF0C94C72A292FCA
:10559000332723303105C9F064F42130310581F01F
:1055A0002230310509F049C08BE590E02BE73CE063
:1055B00048C02132310521F12232310571F13DC05F
:1055C00082E190E026ED3CE03CC0992781309105D6
:1055D00071F02CF4892B89F5E7E7FCE00DC08230EF
:1055E000910541F0039749F5E9E5FCE005C0E9E6DE
:1055F000FCE002C0EFE5FCE0849190E09F0121C057
:1056000063307105D0F4660F771FFB01E85CFE4F35
:105610002081318189E090E014C06330710568F425
:10562000FB01EE0FFF1FEE5CFE4F20813181FB017D
:10563000E15DFE4F808190E004C080E090E020E0DA
:1056400030E0FA013183208308950895CF93C82F65
:105650000E94252BC0933A02CF9108958091C502F4
:10566000843011F081E0089582E0089580913A023B
:10567000811102C00C942E2B089580E189BD82E136
:1056800089BD09B400FEFDCF8091D8008F7D809345
:10569000D8008091E00082608093E0008091E0007B
:1056A00081FDFCCF0895CF92DF92EF92FF920F938E
:1056B0001F93CF93DF93EC018B016A010E94B62CFC
:1056C000811133C0C114D10439F0F6018081918178
:1056D000081B190BC80FD91FE12CF12C011511055E
:1056E00019F18091E80085FD16C08091E8008E7761
:1056F0008093E800C114D10449F0F60180819181C2
:10570000E80EF91EF182E08285E00FC00E94B62CFF
:10571000882321F30AC089918093F1000150110977
:10572000FFEFEF1AFF0ADACF80E0DF91CF911F91F0
:105730000F91FF90EF90DF90CF9008952091CC02D1
:105740003091CD022617370748F06115710539F4FD
:105750002091E8002E772093E80001C0B90140E0D5
:1057600061157105A9F12091C502222309F443C0F6
:10577000253009F442C02091E80023FD40C020916B
:10578000E80022FD32C02091E80020FFE9CF4091DF
:10579000F3002091F20030E0342BFC01CF016115C1
:1057A000710559F02830310540F481918093F10062
:1057B000615071092F5F3F4FF1CF41E02830310533
:1057C00009F040E02091E8002E772093E800C8CF50
:1057D0004111C9CF0AC08091C502882361F085308C
:1057E00061F08091E80083FD0AC08091E80082FFAB
:1057F000F2CF80E0089582E0089583E0089581E08B
:1058000008952091CC023091CD022617370748F039
:105810006115710539F42091E8002E772093E80096
:1058200001C0B901FC0120E06115710591F1809181
:10583000C502882309F440C0853009F43FC0809137
:10584000E80083FD3DC08091E80082FD2FC080917B
:10585000E80080FFE9CF2091F3008091F20090E012
:10586000922B6115710559F08830910540F424910F
:105870002093F1003196615071090196F2CF21E039
:10588000089709F020E08091E8008E778093E80087
:10589000CBCF2111CCCF0AC08091C502882361F003
:1058A000853061F08091E80083FD0AC08091E800B6
:1058B00082FFF2CF80E0089582E0089583E00895AA
:1058C00081E00895982F973058F59093E900981744
:1058D00039F07091EC002091ED005091F00003C080
:1058E000242F762F50E021FF19C03091EB003E7F2E
:1058F0003093EB003091ED003D7F3093ED0030911F
:10590000EB0031603093EB007093EC002093ED00DE
:105910005093F0002091EE0027FF07C09F5FD3CF88
:105920008F708093E90081E0089580E00895809170
:10593000C60287FF11C08091E80082FD05C08091FA
:10594000C5028111F8CF11C08091E8008B770BC0A0
:105950008091C502882349F08091E80080FFF8CF4C
:105960008091E8008E778093E80008952091E4000C
:105970003091E50095E64091EC00842F817040FF66
:1059800022C08091E80080FD1CC08091C502882360
:1059900091F0853091F08091EB0085FD10C0409131
:1059A000E4005091E5004217530729F39A01915002
:1059B00011F784E0089582E0089583E0089581E07E
:1059C000089580E008954091E80042FFDECF0895F9
:1059D0000E94562D0E945E2DE0EEF0E080818160F5
:1059E0008083E8EDF0E080818F77808319BCA7ED9C
:1059F000B0E08C918E7F8C9380818F7E808310921B
:105A0000C40208950F931F93CF93DF930E94562DE6
:105A10000E945E2DC8EDD0E088818F7788838881D1
:105A20008068888388818F7D888319BC1092C50225
:105A30001092C1021092C3021092C20200EE10E056
:105A4000F80180818B7F808388818160888342E038
:105A500060E080E00E94622CE1EEF0E080818E7FC9
:105A60008083E2EEF0E080818160808380818860C5
:105A70008083F80180818E7F808388818061888324
:105A8000DF91CF911F910F910895E8EDF0E08081B3
:105A90008F7E8083E7EDF0E080818160808384E009
:105AA00082BF81E08093C4020C94022DE8EDF0E007
:105AB00080818E7F80831092E20008951092DA0038
:105AC0001092E10008951F920F920FB60F921124C9
:105AD0002F933F934F935F936F937F938F939F93F6
