:100000000C940C050C9450050C946B050C94500545
:100010000C9450050C9450050C9450050C9450050C
:100020000C9450050C9450050C94E7270C94500543
:100030000C9450050C9450050C9450050C945005EC
:100040000C9450050C9450050C9450050C945005DC
:100050000C94500520202020202020202020200A41
:1000600000436170736C6F636B204F6E200A002039
:10007000202020202020202020200A004E756D6C9A
:100080006F636B204F6E0A00556E646566696E651E
:10009000640A0041646A7573740A0046756E63747D
:1000A000696F6E0A00436F6C656D616B0A00446591
:1000B0006661756C740A004C617965723A20005271
:1000C00047424B422050616E0A00165C1E001F0022
:1000D0002000210022002300240025002600270004
:1000E0002A004C002B0014001A000800150017000D
:1000F0001C0018000C0012001300310000003942EF
:1001000004001600070009000A000B000D000E0095
:100110000F00330028000000E10031001D001B002B
:100120000600190005000E001000360037003800E8
:10013000D85CE000E300E200C25C03512C002C001C
:10014000025150005100520000004F00165C1E008A
:100150001F0020002100220023002400250026008B
:1001600027002A004C002B0014001A00090013007D
:100170000A000D000F0018001C00330031000000C1
:100180003942040015001600170007000B0011008B
:1001900008000C00120028000000E1001D001B00F8
:1001A0000600190005001100100036003700380065
:1001B000D85C2800E000E300E200C25C03512C00A0
:1001C0002C00025150005100520000004F003A0034
:1001D0003B003C003D003E003F004000410042002B
:1001E000430044004500460001004E0052004B0011
:1001F0000100010001004E0052004B0046004A0081
:1002000000000100500051004F00010001000100FA
:10021000500051004F0049004D0000000100010056
:10022000010001000100010001002F000100300069
:10023000010001000100010001000100C35C010098
:1002400001000100010001000100010000000100A7
:100250003A003B003C003D003E003F0040004100B2
:10026000420043004400450046000100C85CC95CF0
:10027000C75C005C010001005F00600061000100DC
:10028000010000000100C65CCA5CC55C0100010001
:1002900001005C005D005E00010001000000010043
:1002A000CC5C0100CB5C01000100010059005A0048
:1002B0005B00010001000100010001000100C35CBE
:1002C0000100010001006200630053000000000013
:1002D000010000010101010101010101020202020C
:1002E00002020202020303030303030303040404E0
:1002F00004040404050505050506060606060707A9
:1003000007070708080808090909090A0A0A0B0B60
:100310000B0C0C0C0D0D0D0E0E0E0F0F0F101011FF
:100320001111121213131414151516161717181885
:1003300019191A1A1B1B1C1D1D1E1E1F20202122ED
:1003400022232424252626272829292A2B2C2D2D33
:100350002E2F30313232333435363738393A3B3C50
:100360003D3E3F404142434445464748494A4C4D43
:100370004E4F50515354555658595A5B5D5E5F610C
:100380006264656668696B6C6D6F7072737577789F
:100390007A7B7D7E8082838587888A8C8E8F9193FD
:1003A0009596989A9C9EA0A2A3A5A7A9ABADAFB124
:1003B000B3B5B7BABCBEC0C2C4C6C9CBCDCFD1D409
:1003C000D6D8DBDDDFE2E4E7E9EBEEF0F3F5F8FAAF
:1003D000FDFF00AE00AF00DA02818FD9F1DB40A44F
:1003E000A62EAF00A0C000A1C800AED580A81FD324
:1003F00000408D1420000000000000003E5B4F5BB9
:100400003E003E6B4F6B3E001C3E7C3E1C00183C89
:100410007E3C18001C577D571C001C5E7F5E1C0034
:1004200000183C180000FFE7C3E7FF00001824187D
:100430000000FFE7DBE7FF0030483A060E00262900
:1004400079292600407F05050700407F05253F00EC
:100450005A3CE73C5A007F3E1C1C0800081C1C3E0E
:100460007F0014227F2214005F5F005F5F00060997
:100470007F017F00006689956A00606060606000AF
:1004800094A2FFA2940008047E04080010207E209D
:10049000100008082A1C0800081C2A0808001E1062
:1004A000101010000C1E0C1E0C0030383E383000AE
:1004B000060E3E0E060000000000000000005F0077
:1004C0000000000700070000147F147F1400242A96
:1004D0007F2A120023130864620036495620500018
:1004E000000807030000001C224100000041221CFC
:1004F00000002A1C7F1C2A0008083E080800008013
:100500007030000008080808080000006060000063
:100510002010080402003E5149453E0000427F4041
:1005200000007249494946002141494D33001814E1
:10053000127F10002745454539003C4A49493100A2
:1005400041211109070036494949360046494929E0
:100550001E000000140000000040340000000008ED
:100560001422410014141414140000412214080031
:100570000201590906003E415D594E007C121112DC
:100580007C007F49494936003E41414122007F417C
:1005900041413E007F49494941007F090909010065
:1005A0003E41415173007F0808087F0000417F41B0
:1005B00000002040413F01007F08142241007F409D
:1005C000404040007F021C027F007F0408107F0033
:1005D0003E4141413E007F09090906003E4151214B
:1005E0005E007F0919294600264949493200030166
:1005F0007F0103003F4040403F001F2040201F007C
:100600003F4038403F00631408146300030478043B
:1006100003006159494D4300007F414141000204FC
:1006200008102000004141417F0004020102040043
:100630004040404040000003070800002054547828
:1006400040007F284444380038444444280038445B
:1006500044287F0038545454180000087E090200D2
:1006600018A4A49C78007F080404780000447D400E
:1006700000002040403D00007F1028440000004161
:100680007F4000007C04780478007C080404780033
:10069000384444443800FC18242418001824241832
:1006A000FC007C080404080048545454240004044A
:1006B0003F4424003C4040207C001C2040201C0083
:1006C0003C4030403C004428102844004C9090901E
:1006D0007C004464544C4400000836410000000093
:1006E0007700000000413608000002010204020009
:1006F0003C2623263C00000000000000404040F063
:10070000F8F8FF38FFF8F83FF8F8FF38FFF8F8F08E
:1007100040404000000000000080C0C0C0800000D9
:10072000C0C08000000080C0C000C0C0000080C009
:10073000C00000000000C0C0C0C0C000C0C00000B9
:1007400000000000000000000000000000000000A9
:100750000000000000000000000000000000000099
:100760000000000000000000000000000000000089
:100770000000000000C0F0F8FC3E1E060100000072
:100780007F4141417F007F4141417F000080C0E0C7
:100790007E5B4F5BFEC00000C000DCD7DEDEDED734
:1007A000DC00C000000000000000000000000000AD
:1007B000000000000000000000000000494949FF5F
:1007C000FFFFFFE0DFBFBF00BFBFDFE0FFFFFFFFB6
:1007D00049494900000000001F3F6060E0BF1F0062
:1007E0007F7F071E381E077F7F007F7F0E1F3B71B4
:1007F0006000000000007F7F0C0C0C007E7E007FFC
:100800007E0303007F7E03037E7E03037F7E000F53
:100810003E703C063C703E0F00327B49493F7E00F3
:100820007F7E0303001E3F69696F26000000000001
:100830000000000000030F1F3F3C787060000000C4
:100840007F4141417F007F4141417F00307B7F7884
:1008500030202030787F3B0003000F7F0F0F0F7F89
:100860000F00030000000000000000000000000076
:10087000000000000000000000000000010101076E
:100880000F0F7F0F7F0F0F7E0F0F7F0F7F0F0F0751
:100890000101010000000000000000000001010053
:1008A0000000000000000000000000000000000048
:1008B0000000000000000000000000000000000038
:1008C0000000000000000000000000000000000028
:1008D0000000000000000000000000000000000018
:1008E0000000000000000000000000000000000008
:1008F00000000000000000000000000000000000F8
:1009000000000000000000000000000000000000E7
:1009100000000000000000000000000000000000D7
:1009200000000000000000000000000000000000C7
:1009300000000000000009023B00020100A0FF09C6
:10094000040000010301010009210101000122400E
:1009500000070581030800010904010001030000EC
:10096000000921010100012232000705830308006C
:10097000011201100100000008EDFE69680200018B
:100980000203010403300000000803500061006E00
:100990000000000C035200470042004B00420000E0
:1009A000000403090405010980A101850319012A36
:1009B000B700150126B700950175108100C0050C20
:1009C0000901A101850419012AA002150126A0022E
:1009D000950175108100C005010906A101050719DF
:1009E000E029E7150025019508750181029501753B
:1009F0000881030507190029FF150026FF00950649
:100A000075088100050819012905950575019102F0
:100A1000950175039103C00011241FBECFE5D8E0F6
:100A2000DEBFCDBF04B603FE24C08091AE06909118
:100A3000AF06A091B006B091B1068730904BA740A9
:100A4000B04BB9F41092AE061092AF061092B006F9
:100A50001092B10614BE84B7877F84BF0FB6F89496
:100A6000A89581B5886181BD11BC0FBEE0E0F8E3B7
:100A7000099512E0A0E6B0E0EAE9F9E502C00590C8
:100A80000D92A432B107D9F726E0A4E2B2E001C08A
:100A90001D92AE3AB207E1F70E944C280C94802CCC
:100AA0000C940000A82FB92F80E090E041E050EABC
:100AB000609530E009C02D9182279795879510F0B9
:100AC00084279527305EC8F36F5FA8F30895EADFA7
:100AD0008D939D930895CF93CFB7CF93DF93C39515
:100AE000839BE9F7839B10C0839B0EC0839B0CC044
:100AF000839B0AC0839B08C0839B06C0C091850668
:100B0000C395C09385068EC06F93C0918406DD2780
:100B1000C457D94F2F9365E5839B03C02F916F91E5
:100B2000E1CF0F931F934F9320E040E15F9300B319
:100B30000C7003FB27F93F9350E03BE039C01C7079
:100B400040642F77012F5F5F1EC0406810B31C7098
:100B50002F7752501FC0406400B32F770C70D1F133
:100B60005F5F00C023C0406210B32F771C7091F10B
:100B70005F5F00C025C00C701027515012F45D5FFC
:100B80000000115027952C3F10B3C8F61C700127A8
:100B9000015027952C3FC8F64227499300B30C70AB
:100BA00010274F73115027952C3FA8F64695469570
:100BB00010B31C7079F00127015027952C3F98F64F
:100BC0006B5A60F3315000B3B0F600C010E81ABFA2
:100BD00000271CC03B503195C31BD04010E81ABF02
:100BE0000881033C21F10B3411F120918106198118
:100BF000110F1213EDCF4A81441F093669F10D32EE
:100C000011F0013E29F74F7009F0042F00938A0676
:100C10003F915F914F911F910F912F916F91CAB7A3
:100C2000C7FD5DCFDF91CF91CFBFCF9118952091B8
:100C30008A06222369F3109188061123E9F53430DE
:100C4000EAF13093880620938306109184063BE0F6
:100C5000311B3093840632C000918806013064F560
:100C60000AE54F7049F430917F0134FD28C00093AC
:100C70007F01CAE6D6E027C0433049F030917506BF
:100C800034FD1DC000937506C6E7D6E01CC0309148
:100C9000A20634FD14C00093A206C3EAD6E013C036
:100CA000052710E000C0000002BB1AC0052710E0B5
:100CB000221F1DC010E021C04AE502C032ED432FC3
:100CC000C4E1D0E032E011B31C60939A02B311BBCF
:100CD0005CE020E865E320FF052702BB2795179518
:100CE0001C3FF0F66695B8F7B1F720FF052702BB69
:100CF000279517951C3FD0F62795179517FF0527C1
:100D000000001C3F02BBB0F629913A9519F7037F0A
:100D100010918906110FC651D04002BB11F01093FB
:100D2000810610E81ABF086011B3137F402F437F7C
:100D300054E05A95F1F702BB11BB42BB69CFCF9388
:100D400060E08FEB90E00E94751760E087EB90E029
:100D50000E9475178091D9029091DA02A091DB026E
:100D6000B091DC020097A105B10571F00E942B261D
:100D7000813081F1882399F0823081F1833091F1C3
:100D800060E088E890E00EC06091DD027091DE02C4
:100D90008091DF029091E0020E943C26E9CF60E062
:100DA0008EEA90E00E9475170E94BD1BC82F8FE647
:100DB00090E0C0FF02C08CE790E060E00E947517F1
:100DC00084E590E0C1FF02C081E690E060E0CF9151
:100DD0000C94751760E085EA90E0E4CF60E08BE961
:100DE00090E0E0CF60E083E990E0DCCF823030F447
:100DF00089EA611101C08AEA0C947D1D089581E0A1
:100E0000089581E008950C94010708950C94050756
:100E10001F93CF93DF9300D000D00F92CDB7DEB7F2
:100E200049835A836B833091730289819A8131118E
:100E30001DC06623B9F02223A9F00E94E724182FD1
:100E4000682F89819A810E94932469817A81812FF8
:100E50000F900F900F900F900F90DF91CF911F91F7
:100E60000C94CA070E94BF24182FEFCF0E94E724DA
:100E700069817A81EDCFFC01262F40815181628109
:100E8000738184810C940807CF93DF93EC0160E0B9
:100E90000E943B07BE01DF91CF910C9406070E9490
:100EA00020280E948F26811102C00E942C270E94B8
:100EB000CA130C94CD090E94D2120C94D009089543
:100EC0000C945F0781E008950C946207CF93C82FBC
:100ED0000E9460078C2FCF910C94640708950E94A4
:100EE000FD1F0E946E072FEF84E39CE0215080409D
:100EF0009040E1F700C000000C940B280F931F9363
:100F0000CF93DF93EC0161E00E943B078C01BE01AF
:100F10000E94CA12882389F1BE01C8010E940307FA
:100F2000882359F1BE01C8010E944719882329F17D
:100F3000BE01C8010E9488198823F9F0BE01C801CA
:100F40000E94AB1A8823C9F0BE01C8010E94871411
:100F5000882399F08A81882339F001158CE51807D8
:100F600051F00E3D1C4579F0CE01DF91CF911F91DC
:100F70000F910C94FF060E946F0780E0DF91CF91E4
:100F80001F910F9108950E942C27F7CF90E080E0E9
:100F900008950895972F70E02DE0929F600D711DC8
:100FA0001124FB0191E4899FE00DF11D1124EE0F46
:100FB000FF1FE653FF4F859194910895FC01EE0FBA
:100FC000FF1FEE52FD4F859194910895CF93DF93CB
:100FD0000E94CA070E94F208EC01811520E59207E1
:100FE00008F041C0811530E4930708F0B4C0803E9A
:100FF000910518F5803C910508F09DC0883A91054F
:1010000070F4853A910508F08EC081309105F9F0B1
:101010000097E9F00497D8F4D0E0C0E018C08F3B07
:101020009105D0F7C85AD0E0CC0FDD1FCD57DE4F69
:101030000990D881C02DD4640AC08115904258F41B
:10104000C11581E0D80718F4C83ED10528F7CE01B4
:10105000DF91CF910895C11590E3D90708F071C0D1
:10106000CE019F706AC0811525E5920758F581155C
:1010700034E5930708F09EC0811542E5940750F4CB
:10108000C11581E5D80708F469C0DC2FCC27C16FF2
:10109000D06ADDCF982F969596959E0123703327C1
:1010A000C115D34508F077C0C1E0D0E002C0CC0F35
:1010B000DD1F2A95E2F720E2929FC0011124C82B80
:1010C000D92B67C0C11589E5D807A8F4C11598E5E3
:1010D000D90708F074C0C11526E5D20708F09CCFE7
:1010E0008C2F0E948909C82FD0E0DC2FCC27CC2779
:1010F000DF71D062ACCFC1153AE5D30708F464C004
:10110000CE0190568115904208F086CF8D2F8F71B9
:101110000E94890990E0982F882788279F719C0159
:101120002C2BE901E6CFC55AD0E0CF54DE4FC88161
:10113000D0E0D0648CCF805C91090E94DE07EC0186
:1011400086CFCE019927D3FF03C0EC01D86C7FCFA7
:10115000EC01D06C7CCFDF70D06A79CFCE01E4E0B7
:1011600096958795EA95E1F783702C2F269526951D
:10117000237090E2299F90011124382B8C2F8370CB
:10118000C1E0D0E002C0CC0FDD1F8A95E2F7C22B90
:10119000D32BDC685CCFC1E0D0E002C0CC0FDD1FF8
:1011A0002A95E2F730E2939FC0011124C82BD92B76
:1011B000DA684DCFD82FCC27C46FD06A48CFDC2F48
:1011C000CC27C06FD06A43CF8C2F8F700E948909C3
:1011D00034E0D695C7953A95E1F7CF709C2FEC0196
:1011E000D06935CF82389105B1F1B0F481339105E2
:1011F00009F475C048F48932910509F469C08A324E
:10120000910509F473C008958533910509F459C017
:101210008933910501F10895833E9105A9F138F4D0
:10122000803E9105F9F0823E910549F10895863E90
:101230009105A9F1873E9105C9F1843E910519F503
:101240002091690621FF1FC08091680684FD14C0AB
:1012500087EE90E00895209168062370A1F080EE5B
:1012600090E008952091680620FD47C030916906FE
:1012700030FF09C024FF44C090E080E004C020910A
:10128000680622FDF7CF08952091680622FD3BC035
:101290003091690630FDE3CF24FFF5CFEDCF2091EB
:1012A000680623FFF0CF24FDE7CFD2CF2091680658
:1012B00023FD2CC03091690631FFEECF84EE90E023
:1012C00008952091680625FFDECF89E290E0089519
:1012D0002091680625FFD7CF85E390E008952091FF
:1012E000680626FFD0CF8AE290E008952091680634
:1012F00026FFC9CF81E390E0089589E390E0089547
:1013000083EE90E0089582EE90E0089586EE90E0FE
:1013100008959091680692FF06C0282F2871283002
:10132000F9F4877F846093FF06C0282F2871283145
:10133000F1F4877E84612091690620FF06C0382F72
:1013400038713830D9F4877F816021FF06C0282F9B
:1013500028712831D1F4877E816194FD877E0895BC
:10136000282F24712430F9F68B7F8860DCCF282F5A
:101370002471243101F78B7E8861DDCF382F3171E4
:10138000313019F78E7F8860E0CF282F217121310D
:1013900021F78E7E8861E1CF08950C94CC090895E1
:1013A0000C94CF09E82FF0E0EE0FFF1FE557FC4F3C
:1013B000808191810895089580EA8A95F1F70895D2
:1013C000CF93DF93A1ECB1E046EC51E0C1E0D0E077
:1013D0008D91E82FE295EF70F0E061A98F709E018A
:1013E00001C0220F8A95EAF7922F9095962391AB30
:1013F00082A9822B82AB4A175B0751F7A4EBB1E0BD
:1014000061E070E08D91E82FE295EF70F0E041A986
:101410008F709B0101C0220F8A95EAF7922F909559
:10142000942391AB82A9822B82AB81E0A13CB807C7
:1014300049F7109282031092810310928C0310924C
:101440008B03109284031092830310928E031092E8
:101450008D031092860310928503109290031092D0
:101460008F031092880310928703109292031092B8
:10147000910310928A0310928903109294031092A0
:10148000930385E00E94CF0ADF91CF910C944F0720
:101490008F929F92AF92BF92CF92DF92EF92FF9284
:1014A0000F931F93CF93DF9381ECE82E81E0F82E0A
:1014B00001E813E0912CAA24A394B12CF7018191A7
:1014C0007F01C82FC295CF70D0E099A98F706501B8
:1014D00001C0CC0C8A95EAF7892F8C2989AB8AA99F
:1014E0008C2C809488218AAB0E94DC09E4EBF1E02B
:1014F00050E040E030E020E06191A62FA295AF706F
:10150000B0E0D0968C9190E06F7002C09595879571
:101510006A95E2F780FD3EC0C501042E02C0880F27
:10152000991F0A94E2F7282B392B4F5F5F4F4D30FC
:10153000510511F789A9882289AA8AA9C82ACAAAA5
:10154000F801808191812817390739F1318320838F
:1015500081E0982A0E5F1F4FF6ECEF16F1E0FF06D0
:1015600009F0ACCF292D45E06BE873E081E893E00A
:101570000E94D00A0E945B07892DDF91CF911F91B5
:101580000F91FF90EF90DF90CF90BF90AF909F9022
:101590008F90089590E080E0C6CF80E0DACF089584
:1015A000FF920F931F93CF93DF93F82E092F162FDF
:1015B000D72FC42F222349F081E0809326020E9476
:1015C000A4279093250280932402809126028823E9
:1015D000A1F080912402909125020E94BC270697D9
:1015E00060F0EF2DF02FA12FBD2F90E080E0D0E034
:1015F0008C179D0744F010922602DF91CF911F9126
:101600000F91FF900895219131912D933D93019673
:10161000EFCFAF92BF92CF92DF92FF920F931F93C3
:10162000CF93DF93362F472FE82FF0E0EE52FD4F98
:1016300071110DC06491762F862FDF91CF911F918C
:101640000F91FF90DF90CF90BF90AF900895C72F7C
:10165000D0E02491F22E022F10E056E0659FC001E9
:101660001124EFEFF0E0BF010E942C2B832F90E0BC
:10167000880F991F35E5369FD001379FB00D112493
:101680008A1B9B0B982F990F980F6F01CC1ADD0ABC
:10169000C09ED001C19EB00DD09EB00D11248B2FE5
:1016A000949FA0011124452F55276F01C41AD50A14
:1016B000C09EA001C19E500DD09E500D11245F010F
:1016C000A91AB108AC9E6001AD9ED00CBC9ED00C96
:1016D0001124CD2CDD24EC19FD09E09FE001E19FF0
:1016E000D00DF09FD00D1124ED2F62307105A1F0C7
:1016F00048F46115710569F06130710589F0EB2FCF
:10170000852F07C06430710571F088F0663071056F
:10171000B1F76E2F722F91CFE22F2B2F8D2FF9CF94
:10172000E22F252FF6CFEB2F822F2D2FF2CF2B2F4D
:101730008F2DE52FEECF30E020E0869F212D969F64
:10174000200D311D1124C9010895AC01823091058D
:1017500008F408959FEF413E8EE1580740F49A0146
:1017600095E0369527959A95E1F798E0920F61E01C
:10177000E62FE90FFF27FF1F9F0135952795822F41
:10178000229FF001239FF00DF00D11244E175F07EB
:1017900038F49FEF920F961758F78FEF860F089542
:1017A0002F3FE9F361E0620FF6CFE82F86FDE09569
:1017B0002E2F2F7086FD2F5FE695E695E695E67055
:1017C000F0E0EA53FE4F9181929F902D212D11243C
:1017D00092959F702295207F922B2081920F87FDFA
:1017E000919580E8890F0895E42FF0E0EE0FFF1F38
:1017F000EB55FF4F408134EE439F412D1124E72FDD
:10180000F0E050E0445E5F4FDA01A21BB1099D0198
:10181000B7FF03C031952195310993E0220F331FA3
:101820009A95E1F7AF01421B530B9A0157FD20E057
:10183000279F212D1124722F0895E42FF0E0EE0F41
:10184000FF1FEB55FF4F408134EE439F412D112484
:10185000E82FF0E050E0445E5F4FDA01A21BB109CF
:101860009D01B7FF03C031952195310993E0220F07
:10187000331F9A95E1F7AF01421B530B9A0157FDB5
:1018800020E0582F259F212D1124822F0895622FAB
:101890000895E42FF0E0EE0FFF1FEB55FF4F60813E
:1018A000621B0895E42FF0E0EE0FFF1FEA55FF4F93
:1018B0006081621B0895322F50E0FA01EE0FFF1F86
:1018C000EA55FF4F9081905297FD9195440F551F17
:1018D000FA01EB55FF4F2081231B330B290F311DDC
:1018E00097FD3A95620F0895EF920F93972F23E09B
:1018F000029FB0011124759567956E0D792F0F9198
:10190000EF9008950F93CF93DF93D72FC82F47FD04
:10191000419588E390E0841B910947FD9395889F4A
:10192000B001899F700D700D1124229FC001239F6B
:10193000900D900D1124860F971F0E94A50B982FD4
:10194000990F890F682F600F7D2F8C2FDF91CF911A
:101950000F9108950F931F93522F10E0F801EE0F8F
:10196000FF1FEA55FF4FA081A052BB0B9D01520300
:10197000F001539FF00D1124000F111FD801AB553A
:10198000BF4F0C910057110B40039001419F300D48
:1019900011242E0F3F1F37FF02C021583F4F220F47
:1019A000232F221F330B620F1F910F9108950F9366
:1019B0001F93522F10E0F801EE0FFF1FEA55FF4F63
:1019C000A081A052BB0B9D015203F001539FF00D6B
:1019D0001124000F111FD801AB55BF4F0C910057B8
:1019E000110B40039001419F300D11242E0F3F1F1A
:1019F00037FF02C0215C3F4F96E0359527959A95B9
:101A0000E1F7620F1F910F9108950F931F9310E05C
:101A1000F801EE0FFF1FEB55FF4F9081905797FD98
:101A20009195000F111FF801EA55FF4F00810052F8
:101A3000110B2003F001219FF00D112408E310E0A9
:101A4000091B110997FD139540039001419F300D2B
:101A50001124E20FF31F9F01220F331F2E0F3F1F90
:101A600037FF02C021583F4F220F232F221F330B75
:101A7000620F1F910F910895FC019B01009729F4BB
:101A800080E077FF2BC080E80895AC0197FF04C089
:101A900044275527481B590BB901640F751F37FDA3
:101AA00010C0241B350BC901A5E0880F991FAA950A
:101AB000E1F70E94402B80E2861BF7FF0FC0819563
:101AC0000895CB0165E0880F991F6A95E1F7BA0187
:101AD000621B730B0E94402B80E6EECF08950F939C
:101AE0001F93CF93DF93D62F172FC82FC901272F0E
:101AF000201B022FBA010E943C0D982F990F990FBD
:101B0000782F791B700F719F712D11246D2F8C2FE1
:101B1000DF91CF911F910F9108950F931F93CF9352
:101B2000DF93D62FC72F182FC901212F201B022F7B
:101B3000BA010E943C0D982F990F990F891B800FB5
:101B4000282F219F212D1124822F6D2F7C2FDF9193
:101B5000CF911F910F910895EF920F931F93CF9301
:101B6000DF93D62F172FC82FC9010E19070FBA01FF
:101B70000E943C0D702F781B719F712D11246D2FC9
:101B80008C2FDF91CF911F910F91EF900895EF92DD
:101B90000F931F93CF93DF93D62FC72F182FC90111
:101BA0000E19010FBA010E943C0D081B202F219F26
:101BB000212D1124822F6D2F7C2FDF91CF911F912A
:101BC0000F91EF9008950F93CF93DF93D72FC82FE6
:101BD000C901BA010E943C0D682F600F7D2F8C2F28
:101BE000DF91CF910F910895EF920F93CF93DF93F1
:101BF000D72FC82FC9010E19BA010E943C0D602FC2
:101C0000681B7D2F8C2FDF91CF910F91EF9008955E
:101C100045E050E06CE170E085E993E00C94CC2B5A
:101C200045E050E06CE170E085E993E00C94EA2B2C
:101C3000E5E9F3E085E38083809180019091810163
:101C4000A091820181839283A3838FE784830C9484
:101C5000100EE091D401F091D5010994E091D001EA
:101C6000F091D10109945F926F927F928F929F922F
:101C7000AF92BF92CF92DF92EF92FF920F931F939A
:101C8000CF93DF935C014B01FC01C0818DE0C89FC5
:101C9000C02D11241DE01C0FF12E113410F030E482
:101CA000F32E60919903669580919A0390919B031E
:101CB0000E949B0B582ED0E0CF15A0F081E010348D
:101CC00008F080E0DF91CF911F910F91FF90EF908E
:101CD000DF90CF90BF90AF909F908F907F906F904C
:101CE0005F900895FE01EB5DFE4F8081F5019181CB
:101CF0008923C9F1CE01880F991F8C599F4FFC0190
:101D0000EF5BFF4F2081422F4057550B6A018E5BDE
:101D10009F4FFC018081282F2052330B3901449FB3
:101D20009001459F300D300D1124669CC001679CC9
:101D3000900D900D1124820F931F0E94A50B082F68
:101D4000609196037091970380919803E52C93011D
:101D5000A601F40109950E94090B462F282F672F31
:101D6000CE010E942E0E2196A7CF6CEA7DE00C9446
:101D7000330E67EC7DE00C94330E64E77CE00C944A
:101D8000330E64EF7DE00C94330EAF92BF92CF928E
:101D9000DF92EF92FF920F931F93CF93DF936C012B
:101DA0007B01FC01C0818DE0C89FC02D11241DE086
:101DB0001C0FB12E113410F030E4B32E6091990352
:101DC000669580919A0390919B030E949B0BA82E8D
:101DD000D0E0CB1578F081E0103408F080E0DF919E
:101DE000CF911F910F91FF90EF90DF90CF90BF9018
:101DF000AF900895FE01EB5DFE4F8081F601918169
:101E0000892311F1CE01880F991F8C599F4FFC0136
:101E1000EE5BFF4F20812052330B8F5B9F4FFC0105
:101E200040814057550B60919603709197038091C4
:101E300098030A2DF70109950E94090B462F282FB8
:101E4000672FCE010E942E0E2196C3CF6FE67DE054
:101E50000C94C50E6DE87DE00C94C50E62E87CE044
:101E60000C94C50E63EE7DE00C94C50EBF92CF922C
:101E7000DF92EF92FF920F931F93CF93DF936C014A
:101E80007B01FC01C0818DE0C89FC02D11241DE0A5
:101E90001C0F012F113408F000E46091990366953E
:101EA000669580919A0390919B030E949B0BB82E9C
:101EB000D0E0C01770F081E0103408F080E0DF91CE
:101EC000CF911F910F91FF90EF90DF90CF90BF9037
:101ED0000895FE01EB5DFE4F8081F601918189231B
:101EE00091F06091960370919703809198032B2D48
:101EF0004C2FF70109950E94090B462F282F672FB9
:101F0000CE010E942E0E2196D4CF64EF7BE00C947C
:101F1000360F6DE17CE00C94360F67E47CE00C94A6
:101F2000360F69E47CE00C94360F62E57CE00C949B
:101F3000360F6BE57CE00C94360F7F928F929F9268
:101F4000AF92BF92CF92DF92EF92FF920F931F93C7
:101F5000CF93DF935C016B01FC01C0818DE0C89FD2
:101F6000C02D11241DE01C0F912E113410F030E40F
:101F7000932E609199036695669580919A0390914E
:101F80009B030E949B0BF82E80E48F0D0E94D50BC3
:101F900090E8892E880E8F2D0E94D50B20E8722E96
:101FA000780ED0E0C91590F081E0103408F080E0A0
:101FB000DF91CF911F910F91FF90EF90DF90CF9025
:101FC000BF90AF909F908F907F900895FE01EB5D42
:101FD000FE4F8081F50191818923A1F060919603E4
:101FE0007091970380919803EF2C0C2F272D482D8B
:101FF000F60109950E94090B462F282F672FCE0165
:102000000E942E0E2196CECF6AEA7CE00C949D0FA2
:1020100067ED7CE00C949D0F65E07DE00C949D0FD6
:10202000BF92CF92DF92EF92FF920F931F93CF93C5
:10203000DF937C01FC01C0818DE0C89FC02D11247D
:102040001DE01C0F012F113408F000E4609196038D
:1020500070919703809198030E94090BD62EC72E8A
:10206000B82ED0E0C01770F081E0103408F080E0A6
:10207000DF91CF911F910F91FF90EF90DF90CF9064
:10208000BF900895FE01EB5DFE4F8081F7019181C5
:10209000892331F02B2D4D2D6C2DCE010E942E0E5B
:1020A0002196E0CF8F929F92AF92BF92CF92DF9214
:1020B000EF92FF920F931F93CF93DF937C01FC016C
:1020C000C0818DE0C89FC02D11241DE01C0F012F81
:1020D000113408F000E4C0909703D0909803D09199
:1020E00096036D2F7C2D8D2D0E94090BB62EA72EE9
:1020F000982E609199036D0F7C2D8D2D0E94090BF8
:10210000D62EC72E882ED0E0C01788F081E010347C
:1021100008F080E0DF91CF911F910F91FF90EF9039
:10212000DF90CF90BF90AF909F908F900895FE0169
:10213000EB5DFE4F9081F7018181892359F0282DB5
:102140004D2D6C2D90FD03C0292D4B2D6A2DCE01F8
:102150000E942E0E2196D8CFBF92CF92DF92EF929F
:10216000FF920F931F93CF93DF937C01FC01C081FB
:102170008DE0C89FC02D11241DE01C0FD12E1134FD
:1021800010F090E4D92EC0909703B090980320915E
:10219000990300E4029F012D1124D0E0CD1570F0C9
:1021A00081E0103408F080E0DF91CF911F910F9112
:1021B000FF90EF90DF90CF90BF900895FE01EB5D10
:1021C000FE4F8081F70191818923B9F0FE01EE0F66
:1021D000FF1FEA55FF4F808182958F7060919603B3
:1021E000809F600D11247C2D8B2D0E94090B462FA2
:1021F000282F672FCE010E942E0E2196CFCFBF929F
:10220000CF92DF92EF92FF920F931F93CF93DF93C2
:102210008C01FC01C0818DE0C89FC02D11245DE0C0
:10222000F52EFC0EDF2CF0E4FF1510F440E4D42E64
:10223000C0909703B09098032091990330E4E32E67
:102240003E2D329F312D1124E32ED0E0CD1578F0B4
:1022500081E03FE33F1508F480E0DF91CF911F91CB
:102260000F91FF90EF90DF90CF90BF900895FE0107
:10227000EB5DFE4F8081F80191818923D9F0FE0149
:10228000EE0FFF1FEB55FF4F6081E69EB00111245A
:1022900095E0759567959A95E1F780919603680F9B
:1022A0007C2D8B2D0E94090B462F282F672FCE01E6
:1022B0000E942E0E2196CACFBF92CF92DF92EF924C
:1022C000FF920F931F93CF93DF938C01FC01C0818A
:1022D0008DE0C89FC02D11249DE0F92EFC0EEF2C3F
:1022E000F0E4FF1510F480E4E82ED0909603D0912E
:1022F0009703C090980360919903669566956695DB
:1023000080919A0390919B030E949B0B0E94D50B96
:10231000805887FD8195880F282F3C2D239F212DE4
:102320001124822F6D2D7D2F0E94090BD62EC72ED2
:10233000B82ED0E0CE1578F081E02FE32F1508F409
:1023400080E0DF91CF911F910F91FF90EF90DF9090
:10235000CF90BF900895FE01EB5DFE4F8081F801A4
:102360009181892331F02B2D4D2D6C2DCE010E94B2
:102370002E0E2196DFCFDF92EF92FF920F931F93E5
:10238000CF93DF938C01FC01EB5DFE4F80816823CE
:1023900081F1D0909703D0919803C0919603EC2ED1
:1023A000F12C0E94A62B282FC7018C549F4F68E662
:1023B00071E00E94402B8E199F0997FD0396959519
:1023C00087959595879523706C2F289F600D112414
:1023D0007D2D8D2F0E94090B462F282F672FC801B6
:1023E000DF91CF911F910F91FF90EF90DF900C94B0
:1023F0002E0EDF91CF911F910F91FF90EF90DF9004
:102400000895DF92EF92FF920F931F93CF93DF9384
:102410008C01FC01C281C11125C06091990320E1AA
:10242000620F08F46FEF80919A0390919B030E94D2
:102430009B0B6AE070E00E942C2B892B51F40E94C8
:10244000A62B60E470E00E94402BF80161810E949D
:10245000BB118C2FDF91CF911F910F91FF90EF90C7
:10246000DF900895C0818DE0C89FC02D11248DE0BC
:10247000D82EDC0E8D2DF0E4FD1508F480E4D0E0BC
:10248000E82EF12CCE15DF0534F0C1E0FFE3FD1599
:1024900000F7C0E0DECFF8016181CE010E94BB11E0
:1024A0002196F0CF1F93CF93DF93EC01FC01EB5DFE
:1024B000FE4F80816823A1F00E94A62B182F0E9456
:1024C000A62B612F782F809198030E94090B462F2D
:1024D000282F672FCE01DF91CF911F910C942E0EE4
:1024E000DF91CF911F910895DF92EF92FF920F93AA
:1024F0001F93CF93DF938C01FC01C281C11125C0D2
:102500006091990320E1620F08F46FEF80919A03C4
:1025100090919B030E949B0B65E070E00E942C2B26
:10252000892B51F40E94A62B60E470E00E94402B9E
:10253000F80161810E9452128C2FDF91CF911F917F
:102540000F91FF90EF90DF900895C0818DE0C89FBC
:10255000C02D11248DE0D82EDC0E8D2DF0E4FD155C
:1025600008F480E4D0E0E82EF12CCE15DF0534F03D
:10257000C1E0FFE3FD1500F7C0E0DECFF8016181A7
:10258000CE010E9452122196F0CFE091D201F0913B
:10259000D301099481E00895089508950E94CC1212
:1025A0000C94CD12CF930E94B027609327027093B2
:1025B00028028093290290932A0230919503C32F19
:1025C000C37019F0C32FC695C695209165012130BF
:1025D000C9F0222349F0223009F4C0C0233009F4A5
:1025E000C6C0CF910C94CE121092660160939A03EC
:1025F00070939B0380939C0390939D0381E0809351
:102600006501EFCF9091690181E0C9130AC0932F52
:10261000937020916A0130E081E09217130609F46B
:1026200080E0817080936801C93168F4EC2FF0E09C
:10263000EE57F34D0C94542B882359F040E060E0A2
:1026400080E00E94C51280E004C086E691E00E940E
:102650001010909166019F5F909366018111C1CF28
:1026600082E080936501809168018111BACFC11128
:10267000B8CF83E0C4CF86E691E00E945210E9CF44
:1026800086E691E00E94AC10E4CF86E691E00E94DD
:10269000FF10DFCF86E691E00E945C11DACF86E67C
:1026A00091E00E94850FD5CF86E691E00E94890FC8
:1026B000D0CF86E691E00E94260FCBCF86E691E050
:1026C0000E942A0FC6CF86E691E00E94B50EC1CFC8
:1026D00086E691E00E94B90EBCCF86E691E00E94AA
:1026E0008D0FB7CF86E691E00E94910FB2CF86E6BC
:1026F00091E00E94950FADCF86E691E00E94990F80
:10270000A8CF86E691E00E94BD0EA3CF86E691E0B9
:102710000E942E0F9ECF86E691E00E94320F99CF45
:1027200086E691E00E94C10E94CF86E691E00E9479
:1027300004108FCF86E691E00E9408108ACF86E6CB
:1027400091E00E940C1085CF86E691E00E94011274
:1027500080CF86E691E00E9474127BCFC09369011E
:10276000832F837080936A010E94290E82CF60912B
:102770009A0370919B0380919C0390919D030E940A
:10278000CB27603171058105910508F42ACF10929D
:10279000650127CFE091CE01F091CF0109950E940C
:1027A0008F26811104C00E942C270E94180E0E94BF
:1027B000080E809195038C7F11F40C94180E0895E7
:1027C000E5E9F3E0808191E089278083109265013B
:1027D0000C94100E80919503982F969596959F5F77
:1027E0009F738370993148F4990F990F892B8093C7
:1027F0009503109265010C94100E8460F8CF8091BF
:102800009503845080939503982F9C7F21F48370C7
:10281000806680939503109265010C94100EE5E993
:10282000F3E08181885F81830C94100EE5E9F3E089
:102830008181885081830C94100EE5E9F3E02281B8
:1028400030E1230F08F42FEF22830C94100EE5E9FA
:10285000F3E0228130E1231B08F420E022830C9472
:10286000100EE5E9F3E0238130E1230F08F42FEFA8
:1028700023830C94100EE5E9F3E0238130E1231B60
:1028800008F420E023830C94100EE5E9F3E02481A2
:1028900030E1230F08F42FEF24830C94100EE5E9A8
:1028A000F3E0248130E1231B08F420E024830C941E
:1028B000100EE5E9F3E0880F880F90819370982B54
:1028C0009083109265010C94100E0895FC01EE0F98
:1028D000FF1FE80FF91FE256FC4F618340832283FC
:1028E0000895EEE9F3E0818360834283339694E0B8
:1028F000EE35F907C1F7089560E470E08EE993E0E2
:102900000C94E514FA01811101C0FB0109940F93A5
:102910001F93CF938C01FB01C281CC2309F453C0D8
:102920000E947C258272F801E25CFC45E431F105ED
:1029300038F4E556F34D0C94542B0E94E013C0E09C
:102940008C2FCF911F910F9108954FEF53E16AEEB5
:1029500073E10E948214F3CF4AEE53E16FEF73E10B
:10296000F8CF46E154E16FE074E1F3CF4FE054E17A
:1029700066E174E1EECF47E254E16DE174E1E9CF45
:102980004DE154E167E274E1E4CF4BE354E161E3EC
:1029900074E1DFCF41E354E16BE374E1DACF4FE45C
:1029A00054E165E474E1D5CF45E454E16FE474E1AA
:1029B000D0CF81E00E945914C2CF85E0FBCF8DE0DB
:1029C000F9CF82E1F7CFC1E0BBCFBB9A48B3477FD5
:1029D00058B35860EFB7F8949B01220F331F260FAE
:1029E000371F280F391F2817390741F4EFBF8FE52C
:1029F00094E00197F1F700C000000895DC016D91AB
:102A0000CD0178E058BB000000C067FF48BB660FEF
:102A1000000000C000C000C048BB00C07A9591F71C
:102A2000E2CF0C94F606AF92BF92CF92DF92EF9274
:102A3000FF920F931F93CF93DF93A8EEB1E026EEA2
:102A400031E08FE2A82E82E0B82E6AEE71E041E01C
:102A500050E00D91802F82958F7090E0FC01C1A90C
:102A60000F707A01002E01C0EE0C0A94EAF7FE2DD9
:102A7000F095CF23FC01C1ABC2A9CE29C2ABE901BD
:102A800019919E01E12FE295EF70F0E0F1A81F701F
:102A90006A01012E01C0CC0C0A94EAF7EC2CE094F8
:102AA000EF20E1AAF2A8FC28F2AAEC0188A990E0A4
:102AB00002C0959587950A95E2F78170E0A9F0E04C
:102AC00002C0F595E7951A95E2F790E0E0FD92E0F7
:102AD000892BF50181935F016A177B0709F0B9CF54
:102AE000DF91CF911F910F91FF90EF90DF90CF90EA
:102AF000BF90AF9008959F92AF92BF92CF92DF9216
:102B0000EF92FF920F931F93CF93DF930FE212E0A8
:102B100088EEC82E81E0D82E96EEE92E91E0F92EAF
:102B20002DE2A22E22E0B22ECBE2D2E0912CD801EF
:102B3000EC91EE0FEE0FED938D01D6012D916D010D
:102B4000A22FA295AF70B0E0D0968C9190E02F703C
:102B500002C0959587952A95E2F781709927D7014C
:102B60004D917D01A42FA295AF70B0E0D0962C912D
:102B700030E04F7002C0359527954A95E2F7A901DC
:102B80004170552720FF02C042E050E0842BE82B23
:102B9000D8011197EC93EF70F0E0EA52FE4F80817C
:102BA000F5019081890F808384303CF088818F5FAC
:102BB000888360E0892D0E941115D5018C918D3F8D
:102BC0003CF488818150888361E0892D0E94111531
:102BD000F5018081837887FF03C081508C6F8F5F00
:102BE000D5018D935D012196B1E09B120CC0DF9160
:102BF000CF911F910F91FF90EF90DF90CF90BF90FA
:102C0000AF909F9008959924939491CFCF92DF92A3
:102C1000EF92FF920F931F93CF93DF936C017B0191
:102C200064E670E088E70E94E51AEC0197FD12C0A7
:102C300010E000E0F601E00FF11F849164E670E01F
:102C40000E94381BEC01892B29F40F5F1F4F0E15D2
:102C50001F0581F70E94B51BCE01DF91CF911F9117
:102C60000F91FF90EF90DF90CF9008950895EEE5DB
:102C7000F4E080E092E0DF019C011D9221503040A1
:102C8000E1F7F0936306E09362068FEF9FEF909376
:102C90005D0280935C0208950E943616809358026C
:102CA00080FD0FC080E8809357020E94D51A6DE026
:102CB00070E089EE93E00E940616892B21F080E0F7
:102CC000089580E2F0CF8091580263E070E081FDCA
:102CD00026C086EE93E00E940616892B81F76DE0F0
:102CE00070E086ED93E00E940616892B41F70E9462
:102CF000B027605A75418F4F9F4F60935E06709367
:102D00005F0680936006909361060E94371681E00B
:102D100080935B0280935A0210925902089583EEC9
:102D200093E0D9CF2091570236E0839FC001112450
:102D3000629F800D911D1124811522E0920714F0ED
:102D400090E080E0825A9B4F9093630680936206E6
:102D500008952091620630916306285534404091D1
:102D60005702642F70E0C9010E942C2B481B46308B
:102D700010F4240F311D211582E0380710F030E0E7
:102D800020E0225A3B4F3093630620936206089559
:102D90001F93CF93DF93162F8A3031F481E0DF91B8
:102DA000CF911F910C9442178D3011F480E0F7CF32
:102DB000C0916206D091630696E0FE01A1E3B2E005
:102DC00001900D929A95E1F7803EC8F086E0FE01F1
:102DD00011928A95E9F711111EC0C0916206D09137
:102DE000630646E050E0BE0181E392E00E94BF2B03
:102DF000892BF9F4DF91CF911F910C94A916F6E07D
:102E00008F9FB00111246A507C4F46E050E0CE0104
:102E10000E94B62BE0CFE0916206F09163069F011D
:102E20002A5F3F4F2E173F07C1F280818095819323
:102E3000F9CFCE55D440CE0125E0969587952A95B9
:102E4000E1F721E030E0A90102C0440F551F8A9547
:102E5000E2F7CA0140915C0250915D02842B952BF0
:102E6000269645E0D695C7954A95E1F702C0220F10
:102E7000331FCA95E2F7822B932B90935D028093C8
:102E80005C02B8CFCF93382FE0916206F0916306D1
:102E9000EE55F44020915702622F70E0CF010E945E
:102EA0002C2B281B822F332369F066E00E94202BF5
:102EB000C82FC15010F4CF91089560E080E20E94C5
:102EC000C816F7CF9F01280F311D2115324018F089
:102ED00080E0F0E0E0E08E0F9F2F911D825A9B4F23
:102EE0009093630680936206E6CF1F93CF93DF93A0
:102EF000EC01162FFE018491811104C0DF91CF9166
:102F00001F910895612F0E94C8162196F3CF0E9449
:102F1000B027605A75418F4F9F4F60935E06709344
:102F20005F06809360069093610680915A0281113A
:102F300008C062E070E084ED93E00E940616892BE1
:102F400019F080915A02089581E080935A02F9CFD6
:102F50002F923F925F926F927F928F929F92AF9249
:102F6000BF92CF92DF92EF92FF920F931F93CF9376
:102F7000DF9320915C0230915D022115310531F023
:102F80008091590261E070E0882399F0DF91CF9140
:102F90001F910F91FF90EF90DF90CF90BF90AF9077
:102FA0009F908F907F906F905F903F902F900895AB
:102FB0008F5F082F10E01B01082E02C0220C331C6B
:102FC0000A94E2F7A10142235323452B89F3909100
:102FD000580290FD44C08295880F807680936D01E1
:102FE0009801369527953695279520937001815E37
:102FF00080936E011092710124E630E047E050E0CA
:103000006BE671E088E70E94631B892B09F0BECF55
:10301000A80125E0440F551F2A95E1F78091580239
:1030200080FD2BC0425A5B4F04E610E020E230E006
:1030300060E488E70E94891B892B09F0A7CF0E94D2
:103040008717E101C095D09580915C0290915D0257
:10305000C823D923D0935D02C0935C0297CF880F19
:10306000880F880F80936D0110927001895F8093A3
:103070006E0183E080937101BFCFE7E3F2E080E26D
:10308000DF011D928A95E9F7AEEEB1E00AEE11E09C
:1030900082EFC82E81E0D82E97E0592E77247394C2
:1030A0008D91E80129918E01240F352F311D225A6F
:1030B0003B4FE82FF0E0E95CFD4F90E080E0652CAD
:1030C000681A872C082E01C0880C0A94EAF7790147
:1030D000A12CE701B9907E01B820662D6A196770AE
:1030E000962E062E000C770BDB2D01C0DD0F9A9477
:1030F000EAF77195619571096770772701C0B694F9
:103100006A95EAF7BD2A6081962E9B289082A39447
:1031100068E0A612DECF019631968830910579F6E7
:10312000CA16DB0609F0BCCF04E610E020E230E06E
:1031300047E352E07DCF80915A02882369F062E034
:1031400070E082ED93E00E940616892B19F08091C1
:103150005A02089510925A0280915A0291E08927EA
:1031600008950F931F9380915B02882301F160E023
:1031700080E00E9492160E949F060E94A8178091EC
:103180005A028823A1F00E94B02700915E06109198
:103190005F062091600630916106601B710B820B07
:1031A000930B97FD04C01F910F910C949B181F91D6
:1031B0000F9108950F931F93CF93DF93C62FD42FB2
:1031C000022FFC0182818823C9F0609360020E9473
:1031D000A42790935F0280935E0280E28C0F883078
:1031E00008F050C0C77081E001C0880FCA95EAF7A7
:1031F000DF91CF911F910F910C94901D109160025F
:10320000161335C080915E0290915F020E94BC2728
:10321000883C910560F5C0E2CD0F1D17B9F080E242
:10322000810F883040F4177081E001C0880F1A9533
:10323000EAF70E94971DC83048F481E09D2F9770EF
:1032400001C0880F9A95EAF70E94901D802F0E9476
:103250007D1DC830B8F4D77081E001C0880FDA95C1
:10326000EAF7DF91CF911F910F910C94971D80E2A7
:103270008C0F883038F4C77081E001C0880FCA9580
:10328000EAF7EFCFDF91CF911F910F9108959C0145
:10329000CB01233F4CE5340731F190F4283DFCE5A8
:1032A0003F07E9F0293D4CE5340769F1273D3C45EE
:1032B00079F426E241EE61EE0E94DA1880E008958A
:1032C000253FFCE53F07B9F090F0263F3C45B9F0BB
:1032D000FC0182818823D1F010926002089527E2D8
:1032E00045EE65EEE9CF26E241EE60EEE5CF27E25E
:1032F00045EE64EEE1CF26E241EE62EEDDCF27E25D
:1033000045EE66EED9CF28E241E0EBCF81E00895AB
:10331000CF93DF93EC01FB018281882309F419C16B
:10332000C230FCE5DF07C0F1C6319CE5D90730F0BB
:103330009E012A5F3C452930310570F50E94A22686
:103340009093690680936806C031ECE5DE0709F4C6
:10335000CFC008F05BC0C8308CE5D80709F4B6C010
:1033600088F5C430ECE5DE0709F4A8C0C0F4C2302B
:103370008CE5D80709F49CC0809168068260C33050
:10338000DC4509F498C080916806909169060E9416
:10339000B0260E94FD1F80E0DF91CF9108958091BB
:1033A00068068061C630ECE5DE0709F484C08091D0
:1033B00068068860C730DC4508F47DC080916806E7
:1033C000806279C0CC308CE5D80709F489C070F4EC
:1033D000809168068C60CA30ECE5DE0709F46BC0AA
:1033E00008F478C0809168068E7F65C0CE308CE589
:1033F000D80709F479C0809168068B7FCF30DC450F
:1034000008F459C0809168068F7E55C0CB3FECE52B
:10341000DE0709F457C030F5C3318CE5D80709F44D
:103420006FC078F4C131ECE5DE0709F465C0C23144
:10343000DC4509F0A8CF0E94FD1F809168068F77B8
:103440003AC0C5318CE5D80709F462C008F476C0EB
:10345000809169068160CA3FDC4509F094CF809372
:10346000690691CFCF3FFCE5DF0709F44DC088F432
:10347000809169068D7FCD3F9CE5D90781F38091CE
:1034800069068E7FCE3FDC4550F3809169068360EC
:10349000E6CFC130FDE5DF0709F459C008F444C0A8
:1034A00080E0C230DD4509F06ECF0E942E276BCF41
:1034B0008091680681608093680665CF8091680678
:1034C0008460F9CF809169068260C9CF80916806D7
:1034D0008064F1CF0E94FD1F809168068068EBCF69
:1034E000809168068D7FE7CF80916806877FE3CF64
:1034F000809168068F7DDFCF809168068F7BDBCF60
:1035000080916806837FD7CF809169068C7FA7CF93
:103510008091680682FB992790F921E0922790FB21
:1035200082F990FB83F9C7CF80916906982F909517
:1035300091708E7F892B90FB81F991CF0E94FD1FA6
:1035400090916806892F97FB87F98058B4CF81E066
:10355000ACCF81E021CFCF93DF93EB0186319C4547
:1035600011F50E947C259A81992399F08A7A91E03D
:1035700009F490E090936102811109C089E20E94F0
:1035800057250E94C82580E0DF91CF91089585E3FB
:10359000F6CF80916102811104C089E20E945E250C
:1035A000F0CF85E3FBCF81E0EFCF11B88CE080B99D
:1035B00085B3836085BB86B7846086BF86B781602C
:1035C00086BF86B7806486BF0895EF92FF920F93FF
:1035D0001F93CF93DF93182FEB0116BE84EA86BFAB
:1035E0000E94A4277C0106B607FE21C081B1887F16
:1035F000883021F081B1887F8031B9F513B984E832
:1036000086BF0E94A4278C0106B607FE23C021B105
:10361000287F90E080E02831B1F081E090E0203414
:1036200011F490E080E09195819591090CC0CF3F15
:10363000DC07C9F20E94A4278E199F098C179D07E9
:1036400090F28EEF9FEFDF91CF911F910F91FF903E
:10365000EF900895CF3FDC07B9F20E94A427801BAA
:10366000910B8C179D0780F2ECCF8FEF9FEFEBCF84
:103670000F931F93CF93DF93EB0183B984E886BF49
:103680000E94A4278C0106B607FE10C021B1287F36
:1036900081E090E0283211F490E080E091958195EE
:1036A0009109DF91CF911F910F910895CF3FDC07D2
:1036B00051F30E94A427801B910B8C179D0718F3D0
:1036C0008EEF9FEFEECFCF92DF92EF92FF920F93AC
:1036D0001F93CF93DF936B018A017901B9010E9497
:1036E000E51AE6010C0D1D1DC017D10759F424E998
:1036F00026BFDF91CF911F910F91FF90EF90DF9048
:10370000CF90089597FDF3CFB70189910E94381BA0
:10371000EBCFCF92DF92EF92FF920F931F93CF9355
:10372000DF93C62F6A017901B8010E94E51A97FD5F
:103730000CC0B8018C2F0E94381BE601EC0CFD1C5C
:10374000CE15DF0511F097FF0BC024E926BFDF91EE
:10375000CF911F910F91FF90EF90DF90CF90089540
:10376000B80189910E94381BEBCF84E986BF089588
:1037700090936702809366020895E0916602F0914B
:103780006702309721F00190F081E02D099480E0EC
:103790000895E0916602F0916702309721F002806F
:1037A000F381E02D0994089520916402309165021F
:1037B0002817390771F09093650280936402E091B5
:1037C0006602F0916702309721F00680F781E02DC4
:1037D00009940895209162023091630228173907F5
:1037E00071F09093630280936202E0916602F0911F
:1037F0006702309721F00084F185E02D0994089547
:1038000084B7806884BF84B7806884BF08950895B2
:1038100008950C94071C08950C940B1C0E94001C26
:103820000E94081C0C94091C81E008950C94141C3F
:103830000E949D270E94E00980E00E944C160E9491
:1038400034280E9413150C940C1C6F927F928F9257
:103850009F92AF92BF92CF92DF92EF92FF920F931F
:103860001F93CF93DF93CDB7DEB72A970FB6F894A7
:10387000DEBF0FBECDBF0E94480A782E0E94161CE4
:10388000882309F477C049E6A42E42E0B42E10E064
:1038900000E0602E802F0E94D2096C01F50181901A
:1038A00091905F018816990609F45EC08091EE023E
:1038B00081FD0E94DB0980E0EE24E394F12C8C244E
:1038C0009D2494012E213F21232B09F447C08E8390
:1038D0006F82CE20DF2081E0CD2809F480E0888748
:1038E0000E94A4278160782F9A8789874E815F8103
:1038F00068858A850E94E01C000F111FF801E759B6
:10390000FD4F80819181E826F926F182E0820E94B4
:103910007B150E94B11871100E9487170E94BD1B71
:10392000909168028917B9F10E94BD1B80936802CB
:103930002A960FB6F894DEBF0FBECDBFDF91CF91B0
:103940001F910F91FF90EF90DF90CF90BF90AF90BD
:103950009F908F907F906F900C9466078F5FEE0C16
:10396000FF1C8D3009F0ADCF0F5F1F4F05301105E3
:1039700009F08FCF8FEF89838A831B820E94A4274F
:103980008160782F9D838C8349815A816B818D81E1
:103990000E94E01CBCCF2A960FB6F894DEBF0FBE83
:1039A000CDBFDF91CF911F910F91FF90EF90DF90EE
:1039B000CF90BF90AF909F908F907F906F90089521
:1039C000CF93DF93CDB7DEB72B970FB6F894DEBF5A
:1039D0000FBECDBF4F83588769877A878B871E823A
:1039E0001D8285E0FE013796DE01119601900D9251
:1039F0008A95E1F749815A816B817C818D819E8115
:103A00002B960FB6F894DEBF0FBECDBFDF91CF91DE
:103A10000C947322FC01808191810C942925CF9311
:103A2000C82F882309F43FC08CEF8C0F813AA0F493
:103A30006C2F80917201909173010E944527882319
:103A400029F08C2F0E945E250E94C8258C2F0E9491
:103A50005725CF910C94C82580E28C0F883048F40C
:103A6000C77081E001C0880FCA95EAF70E947F25E0
:103A7000F0CFEBE5EC0FE33040F4F0E0E05EFD4F1B
:103A8000808190E0CF910C94D41BC85AC73158F470
:103A9000EC2FF0E0EE0FFF1FEE50FE4F8081918182
:103AA000CF910C94EA1BCF910895882329F19CEFC4
:103AB000980F913A20F40E945E250C94C82590E25C
:103AC000980F983050F4877091E001C0990F8A9553
:103AD000EAF7892F0E948525F0CF9BE5980F933058
:103AE00020F490E080E00C94D41B885A873120F4B5
:103AF00090E080E00C94EA1B0895CF93C82F0E94B9
:103B00000F1DC93349F42FEF87EE93E02150804019
:103B10009040E1F700C000008C2FCF910C94551D10
:103B2000882321F00E947F250C94C82508958823BE
:103B300021F00E9485250C94C8250895BF92CF924C
:103B4000DF92EF92FF920F931F93CF93DF936C015D
:103B5000D62FC72FFC01058102950F70128111111C
:103B60000E949C250E947525E82E882391F0112340
:103B7000D1F08C2F807F803421F080E28D0F88304F
:103B800090F082E00E9413260E94752591E0E82EB5
:103B9000E926BC2EB2949FE0B922EB2DF0E0E1556E
:103BA000F34D0C94542BE12CF4CF0C2F0F70C07FED
:103BB00011F00295007F1123A9F0002359F080E253
:103BC0008D0F883010F0D11109C0802F0E947F2501
:103BD0000E94C8258D2F0E940F1D14C0802F0E94A7
:103BE0008F25F6CF8D2F0E94551D002359F080E2BE
:103BF0008D0F883010F0D1112CC0802F0E948525A8
:103C00000E94C8252B2D2850330B2430310520F479
:103C10000E94BD1B0E946607EE2009F493C10E941A
:103C2000712580FD8FC1F60112820E946B250E94D2
:103C3000F723C6010E94C31F0E946B25DF91CF911D
:103C40001F910F91FF90EF90DF90CF90BF900C9459
:103C50001824802F0E949525D3CFFC2FFF70FF2EB4
:103C6000C07FC03219F0F29480EFF822DD2369F0B2
:103C7000D13049F1112391F1002351F1F6018581F1
:103C800080FFA8CF8F70858323C0112381F001119D
:103C900006C00E94AF258F290E94901DB3CF01302E
:103CA000C1F70E94AF258F290E94B525ABCF011126
:103CB00006C00E94BE258F2D0E94971DA3CF013004
:103CC00009F4A0CFF6CF112329F0063008F09ACFDF
:103CD0008F2DE2CF053008F095CFEDCF002359F3BB
:103CE000D93349F4FFEF27EE33E0F1502040304064
:103CF000E1F700C000008D2F0E94551D83CF8C2F4F
:103D000086958695837069F0813009F07BCF8D2F81
:103D10009C2F9370111102C090E080E00E94EA1B7A
:103D200071CF8D2F9C2F9370111102C090E080E015
:103D30000E94D41B67CF8C2F837009F041C01111F2
:103D400061CF4D2F429546954770440F440F0D2F7C
:103D50000F7010E030E020E0042E04C0000F111FAF
:103D6000221F331F0A94D2F760E070E0CB01D4FF2A
:103D70000FC06FE070E080E090E004C0660F771F36
:103D8000881F991F4A95D2F76095709580959095F8
:103D9000C695C695C370602B712B822B932BC230B6
:103DA00049F058F4C13019F00E94A9232BCF0E948A
:103DB000972328CF0E94BB2325CF0E94952322CF93
:103DC0008695112311F08C2F8170882309F41ACF66
:103DD0004D2F429546954770440F440F0D2F0F709D
:103DE00010E030E020E0042E04C0000F111F221F5D
:103DF000331F0A94D2F760E070E0CB01D4FF0FC00C
:103E00006FE070E080E090E004C0660F771F881FCD
:103E1000991F4A95D2F76095709580959095C695B3
:103E2000C695C370602B712B822B932BC23049F047
:103E300058F4C13019F00E946E24E4CE0E945C2434
:103E4000E1CE0E948024DECE0E94D123DBCECF7053
:103E5000112329F08C2F0E94F7238D2F1DCF8D2F3A
:103E60000E94971D8C2F0E941824CCCED23F89F13E
:103E700060F4D03FC9F0D13F29F1112309F442C0C9
:103E80000111A8CE8C2F8F7121C0D33F39F1D43FBF
:103E9000A1F7112369F1CF718C2F0E94F72363E002
:103EA0008C2F0E94FE25AECE112341F0053008F084
:103EB000A9CE8C2F8F710E943B24A4CE063008F02F
:103EC000A1CEF7CF8C2F8F71112369F20E94F723B7
:103ED00099CE8C2F8F711123C9F3C5CF112329F0EF
:103EE0008C2F8F710E94E2238DCE0E94DD238ACE1B
:103EF00081E00E941326023008F484CE82E00E9402
:103F0000132680CE002359F0D93309F0F4CE8FEF79
:103F100097EEE3E081509040E040E1F7EACE8C2F4D
:103F20008F71A1CF4C2F4F706D2FC6010E94C60715
:103F30000E940D2367CE4C2F4F706D2FC6010E943B
:103F4000C90760CEDF91CF911F910F91FF90EF9045
:103F5000DF90CF90BF9008950F931F93CF93DF937F
:103F6000EC01688179818A810E9433258C010E944D
:103F700092240E949423B801CE01DF91CF911F912A
:103F80000F910C949E1DCF93DF93EC018B819C814C
:103F9000892B29F08881998189238F3F59F4DF91FA
:103FA000CF910895CE010E94AC1FCE01DF91CF9139
:103FB0000C944407CE010E947E078111F3CF0E942A
:103FC0007525882361F38A81882349F382E0DF9194
:103FD000CF910C9413260E949C250E94AC250E9430
:103FE000C82590E080E00E94D41B90E080E00C9413
:103FF000EA1B0E9465250C94EB1F0E948C250C94F3
:10400000F91FE92FE295EF70E250EE3070F4F0E026
:10401000E154F34D0C94542B803F19F020F4883E6A
:1040200020F481E00895843FE1F380E00895883E24
:10403000C0F3813FD1F7F5CF93FB882780F908952E
:104040000E9429250C940120CF93DF9300D000D04B
:104050000F92CDB7DEB70F900F900F900F900F908B
:10406000DF91CF910895CF93DF9300D000D000D09F
:10407000CDB7DEB726960FB6F894DEBF0FBECDBF24
:10408000DF91CF9108951F93CF93DF93C091740276
:1040900016E0809175028C1304C0DF91CF911F91BF
:1040A0000895D0E01C9FF0011D9FF00D1124EA58E7
:1040B000FD4F4081518162817381848195810E948D
:1040C00033202196C770E5CF4091A6025091A702F8
:1040D0006091A8027091A9028091AA029091AB020E
:1040E0000C9433201F93CF93DF938091AB02807F9A
:1040F000A9F48091A802882389F080917402C0916C
:1041000075026091A6027091A702A091A902B091D8
:10411000AA02D62FD72316E0C81304C0DF91CF918F
:104120001F91089590E0109711F0DF3F19F4019668
:104130008770F2CF189F9001199F300D1124F9015B
:10414000EA58FD4F41814713F2CF40814613EFCF2C
:1041500042814111ECCF438154814A1B5B0B483CA7
:10416000510528F78091AB028F7080618093AB027C
:10417000F901E558FD4F80818F708061808386EA68
:1041800092E00E94C31FDF91CF911F910C944320B6
:10419000AF92BF92CF92DF92EF92FF920F931F9355
:1041A000CF93DF93CDB7DEB761970FB6F894DEBF3C
:1041B0000FBECDBF8C0185E0F801DE011D96019098
:1041C0000D928A95E1F7F80140815181E28086EAFB
:1041D000C82E82E0D82E6091A9027091AA026115C2
:1041E000710509F461C19091A6022091A702892F5F
:1041F00082238F3F09F458C1A380B480F090A802B5
:10420000F501E61BF70BFF2009F4FCC08091AB021F
:10421000382F307FE83CF10508F0B2C0311179C089
:10422000FE2C251323C0941321C0E1101FC08F70F2
:1042300080618093AB020E946420C6010E94C31F6C
:104240008091AB02F80185838F2D61960FB6F894AB
:10425000DEBF0FBECDBFDF91CF911F910F91FF90B9
:10426000EF90DF90CF90BF90AF900895AB2829F0EA
:10427000842F85238F3F09F033C180E0F82FF17040
:10428000DF2E80FF3CC0809174022091750236E0E1
:10429000821315C04D875E878D859E850E942925D6
:1042A000292F22952F702230F0F0243018F59F70BE
:1042B000F1F0F8019581907FD1F4D12C1EC090E0EF
:1042C000389FF001399FF00D1124EA58FD4F6181AC
:1042D000651306C06081641303C062816E110FC054
:1042E00001968770D5CF9F7011F0882331F3805EDF
:1042F000883018F3C8010E94C31FFD2CA5CFEE2003
:1043000009F4A2CF8091AB0281608093AB02F12CC3
:104310009BCF251306C0941304C0F801EE2009F4C6
:104320008DC04D875E878D859E850E9420208823C5
:1043300019F1EE2009F18091AB02803270F02091EA
:10434000A6023091A70238872F831986BB86AA86DA
:104350008C87CE0107960E94C31F86E0F801A6EA6B
:10436000B2E001900D928A95E1F70E9472200E94BE
:104370006420FF24F39468CFC8010E94C31FF9CFC3
:10438000311113C07A2DB98AA88A6E2D89890E94AD
:10439000242086EA92E00E94C31F86E0F601119273
:1043A0008A95E9F70E946420B2CF25130FC09413B9
:1043B0000DC0E1100BC0F8018583C8010E94C31F26
:1043C00086E0F60111928A95E9F73ECF4D875E8728
:1043D0008D859E850E942020882371F2EE2061F257
:1043E0008091AB02803208F4B8CF2091A6023091C0
:1043F000A7023A8329831B82BD82AC828E83CE01C1
:104400000196A9CFE83CF10508F041C0FE2CEE2052
:1044100009F4B2CF25132AC0941328C08091AB02AF
:1044200080FD1BC0982F907FC1F0F8018583903FDD
:1044300031F0982F907F905F8F70892B8583C80112
:104440000E94C31F86E0F801A6EAB2E001900D9237
:104450008A95E1F70E946420F7CE86E0F801A6EA8B
:10446000B2E001900D928A95E1F7EECE4D875E871E
:104470008D859E850E94202081116FCF8091AB0297
:1044800081608093AB02C8010E94C31FDDCE7A2DEC
:10449000B98AA88A6E2D89890E94242086E0F601B7
:1044A00011928A95E9F7D6CFEE2009F465CF4D87B2
:1044B0005E878D859E850E942020F82E882309F432
:1044C0005BCF86E0F801A6EAB2E001900D928A95F2
:1044D000E1F786EA92E00E940A1D0E947220BACF9C
:1044E00081E08E25CBCE1F93CF93DF93CDB7DEB780
:1044F0002C970FB6F894DEBF0FBECDBF4F83588701
:1045000069877A878B879C87CE0107960E94C8208F
:10451000882369F08A859B85892B39F04F815885DE
:10452000842F85238F3F09F071C016E05FC086E0BD
:10453000FE013796DE01119601900D928A95E1F702
:104540008A859B85892B89F388859F8189238F3F65
:1045500061F32091750230E0C901019687709927B7
:10456000409174024817190671F40E94FD1F1092C1
:1045700075021092740286E0E6EAF2E0DF011D9215
:104580008A95E9F7D2CF96E0929FD001939FB00D24
:104590001124AA58BD4FFE01319601900D929A95B3
:1045A000E1F7809375020E944320BFCF819FC00135
:1045B00011248A589D4F0E94C8208823E9F0E09179
:1045C00074021E9FF0011124EA58FD4F4081518171
:1045D00062817381848195810E943320809174026D
:1045E00090E00196877099278093740280917402FD
:1045F000909175028913DACF2C960FB6F894DEBF2E
:104600000FBECDBFDF91CF911F91089569857A8547
:104610008B859C850E94332088CFEF92FF920F9369
:104620001F93CF93DF938C01892B81F0F12CEE2423
:10463000E394E8012196F8018491843770F4843082
:1046400008F05FC08130B1F08230A1F1DF91CF91ED
:104650001F910F91FF90EF900895853709F44CC09A
:1046600008F43DC09CE7980F903780F78F770E9441
:10467000551D49C00E5F1F4FFE01849190E2980FB7
:10468000983060F48770FE2D01C0FF0F8A95EAF71D
:104690008F2F0E949F250E94C82502C00E940F1DD7
:1046A0008F2D815030F2EFE9FFE03197F1F700C034
:1046B0000000F7CF0E5F1F4FFE01849190E2980F2C
:1046C000983050F48770FE2D01C0FF0F8A95EAF7ED
:1046D0008F2F0E94A525DFCF0E94551DE1CF0E5FD1
:1046E0001F4FFE01C491C150D8F28FE99FE001979E
:1046F000F1F700C00000F7CF0E5F1F4FFE01F490EE
:10470000CFCF0E940F1D8E01CBCF08950C9485232F
:104710000E9486236093DD027093DE028093DF02A5
:104720009093E0020C94EB1F08950C9488230F9350
:104730001F930091DD021091DE022091DF02309183
:10474000E002602B712B822B932B1F910F910C9405
:1047500088230F931F930091DD021091DE022091B8
:10476000DF023091E00260237123822393231F91A3
:104770000F910C9488230F931F930091DD021091E9
:10478000DE022091DF023091E0026027712782274C
:1047900093271F910F910C9488230C9485230C94DC
:1047A000CD230E94CF236093D9027093DA028093C5
:1047B000DB029093DC020C94EB1F60E070E0CB0115
:1047C0000C94D1230F931F9341E050E060E070E020
:1047D0008A019B0104C0000F111F221F331F8A95FD
:1047E000D2F7C901B8011F910F910C94D1230F93F7
:1047F0001F9341E050E060E070E004C0440F551F9B
:10480000661F771F8A95D2F78091D9029091DA02BC
:10481000A091DB02B091DC028A019B01082B192BCD
:104820002A2B3B2BC901B8011F910F910C94D12366
:104830000F931F9341E050E060E070E004C0440F2C
:10484000551F661F771F8A95D2F7CB01BA01609575
:104850007095809590950091D9021091DA0220917F
:10486000DB023091DC0260237123822393231F91AA
:104870000F910C94D1230F931F9341E050E060E01F
:1048800070E004C0440F551F661F771F8A95D2F74A
:104890008091D9029091DA02A091DB02B091DC0202
:1048A0008A019B01082719272A273B27C901B8013C
:1048B0001F910F910C94D1230F931F930091D90254
:1048C0001091DA022091DB023091DC02602B712B17
:1048D000822B932B1F910F910C94D1230F931F9335
:1048E0000091D9021091DA022091DB023091DC02B2
:1048F00060237123822393231F910F910C94D12362
:104900000F931F930091D9021091DA022091DB02DC
:104910003091DC0260277127822793271F910F9126
:104920000C94D12308952DE0929F800D1124982F8F
:10493000977041E001C0440F9A95EAF786958695F5
:10494000869595E0899FF0011124E455FD4F90E094
:1049500080E070E05191DF0111979B01082E02C0A9
:10496000369527950A94E2F721702195252724236F
:1049700025272C9301968530910561F708952DE048
:10498000929F800D1124982F977086958695869515
:1049900025E0829FF0011124E455FD4F50E040E0F6
:1049A00080E0219130E0092E02C0369527950A94C7
:1049B000E2F721703327042E01C0220F0A94EAF790
:1049C000822B4F5F5F4F4530510559F70895BF92D5
:1049D000CF92DF92EF92FF920F931F93CF93DF93CB
:1049E0008C01C090D902D090DA02E090DB02F09006
:1049F000DC028091DD029091DE02A091DF02B09195
:104A0000E002C82AD92AEA2AFB2ACFE1D0E0BC2E4C
:104A1000D701C6010C2E04C0B695A795979587952A
:104A20000A94D2F780FD0EC0219788F7B12C8B2D08
:104A3000DF91CF911F910F91FF90EF90DF90CF907A
:104A4000BF900895B8018C2F0E94E607019761F38B
:104A5000EECFCF93DF93EC010E94E724BE01DF91FC
:104A6000CF910C94E6071F93CF93DF93EB019091C6
:104A70007302992331F0CB01DF91CF911F910C94F8
:104A80002925882379F0CB010E94E724182F682F6D
:104A9000CE010E949324BE01812FDF91CF911F91FF
:104AA0000C94E607CB010E94BF24182FF4CF682F87
:104AB00080917201909173010C947B27682F8091F3
:104AC0007201909173010C947D27809172019091F5
:104AD00073010C947F278091E102859585958595DA
:104AE00008958091E102877008959091E102977096
:104AF00081E009F480E008958091ED02089590919D
:104B0000ED02892B8093ED02089580959091ED023E
:104B100098239093ED0208951092ED0208959091DC
:104B2000EC02892B8093EC02089580959091EC0221
:104B300098239093EC0208951092EC0208959091BE
:104B4000EB02892B8093EB02089580959091EB0204
:104B500098239093EB0208951092EB0208958091B0
:104B6000E202089508950C94B2259091E2029817FC
:104B700021F08093E2020C94B32508958091E20223
:104B8000882329F01092E20280E00C94B325089566
:104B9000E0917201F09173018091ED028083E091C8
:104BA0007201F091730180819091EC02892B8083D6
:104BB000E0917201F091730180819091EB02892B59
:104BC00080839091E202992381F0E0917201F0914B
:104BD00073018081892B8083809172019091730190
:104BE0000E94332781110E94BE258091720190910D
:104BF00073010C94C91B08950C94FB2598E0899FC0
:104C000090011124622B6093E1020E94F7238091AE
:104C1000E1028595859585950C94FC251092E1021D
:104C200080E00C94FC259091E1028095892380938B
:104C3000E102282F277071F4282F082E000C330B67
:104C40009217130639F08595859585950E9418244D
:104C50000C940E260895982F92959F7011F0892F2D
:104C600094E0282F2695269511F09E5F822F869539
:104C700009F09F5F892F0895CF92DF92EF92FF9204
:104C80006C01EE24FF2420E0C114D104E104F104FE
:104C900019F0C701B60120E1C72ED82EE92EFF2456
:104CA000C114D104E104F10419F0285FC701B60171
:104CB0006B017C0154E0F694E794D794C7945A951D
:104CC000D1F7C114D104E104F10419F02C5FC7013C
:104CD000B6016B017C0142E0F694E794D794C79447
:104CE0004A95D1F7C114D104E104F10419F02E5F03
:104CF000C701B6019695879577956795672B682BC1
:104D0000692B09F02F5F822FFF90EF90DF90CF90FB
:104D100008956FEF7FEF90E080E00C94172C90E007
:104D200080E00E94E42B21E08C3E9E4F09F020E0C1
:104D3000822F089582E090E00C94DC2B83E090E0D9
:104D40000C94DC2BCF9384E090E00E94DC2BC82FE6
:104D500081E290E00E94DC2B982F8C2FCF91089558
:104D6000CF93C92F682F84E090E00E94FA2B6C2F1C
:104D700081E290E0CF910C94FA2BAB01BC018FE063
:104D800090E00C940B2CAB01BC0183E190E00C94FF
:104D90000B2C60E070E0CB010C94C32660E070E067
:104DA000CB010E94BD260C94C9266CEE7EEF90E0EC
:104DB00080E00E94172C60E082E090E00E94FA2BD5
:104DC00060E083E090E00E94FA2B1092DD021092E6
:104DD000DE021092DF021092E00260E084E090E0D8
:104DE0000E94FA2B60E081E290E00E94FA2B60E0E2
:104DF00085E090E00E94FA2B60E086E090E00E945F
:104E0000FA2B6FEF87E090E00E94FA2B40E050E031
:104E1000BA0188E090E00E940B2C60E08DE090E009
:104E20000E94FA2B40E050E0BA0188E190E00E9435
:104E30000B2C60E087E190E00E94FA2B40E050E00C
:104E4000BA018CE190E00E940B2C60E080E290E0DF
:104E50000E94FA2B0C94CE260C94D526682F8EE057
:104E600090E00C94FA2B9C012E5F3F4FAC01485F01
:104E70005F4F80E02417350709F40895F9019191F7
:104E80009F019923B9F38F5FF5CF662349F0FC01A9
:104E9000329608962191261729F0E817F907D1F7DD
:104EA00080E0089581E008959C01FC0132969FEF17
:104EB00080E04191461751F09F3F19F4411101C024
:104EC000982F8F5F8630A9F79F3F09F40895290F27
:104ED000311D97FD3A95F90162830895FC013296E0
:104EE00008962191261303C0DF0111971C92E81741
:104EF000F907B9F708950C9454270C946E2702967D
:104F000026E0FC0111922A95E9F708950895089585
:104F1000CF930E9486270E94480A0E948727C0E0FC
:104F20008C2F0E94D209892B31F4CF5FC530C1F795
:104F300080E0CF91089581E0FCCF8BE083BF8AEFC2
:104F40008CBF82E089BF08952FB7F89480916406E2
:104F500090916506A0916606B09167062FBF0895EF
:104F60002FB7F8946091640670916506809166068B
:104F7000909167062FBF08959C014FB7F8948091D8
:104F8000640690916506A0916606B09167064FBFD2
:104F9000821B930B0895CF92DF92EF92FF922FB76F
:104FA000F894C0906406D0906506E0906606F09094
:104FB00067062FBFA7019601261B370B480B590B1D
:104FC000CA01B901FF90EF90DF90CF9008957894D7
:104FD0001F921FB61F9211248F939F93AF93BF937D
:104FE0008091640690916506A0916606B09167066F
:104FF0000196A11DB11D8093640690936506A09350
:105000006606B0936706BF91AF919F918F911F90F5
:105010001FBE1F90189588E198E00FB6F894A895E8
:1050200081BD0FBE91BDA895F894D8E0CEE528E3E8
:10503000299320E0299314BEFFCF08950C9489266C
:105040000E94480A8FE39CE90197F1F700C0000035
:105050000E94480A80E00E94D20980FF04C00E949A
:105060001E280C940B2808950E948F26811102C0DF
:105070000E942C270E949A268093EE020E94A2266C
:1050800090936906809368060E949E26682F70E0C0
:1050900090E080E00C9495230E94A4278C010E944C
:1050A0000E1C0E9432290E94B81B0E940D2B8B9A65
:1050B00080E0815039F58B987894FFEF20E732E05B
:1050C000F15020403040E1F700C000000E94181C61
:1050D000C0E0DCE0809185068823F1F0109285061F
:1050E0000E94A4278C010E941F2A80918B0688238E
:1050F00029F08091750684FD0E94251C0E94E628F7
:10510000C0E0E8CFA895EFE9FFE03197F1F700C0E4
:105110000000CFCFC1E0DECFC8010E94BC270697B8
:1051200010F4CC2301F30E948827C82F882391F321
:10513000F89491B3939A892F8C6081BB82B38D27A9
:1051400082BB8FE7E8E3F1E08150E040F040E1F717
:1051500000C0000082B38D2782BB91BB93987894E6
:10516000B9CF8091800308950895CF93DF9300D045
:105170000F92CDB7DEB79091F102981307C020913E
:10518000EF023091F0022617370791F08093F10279
:105190007093F0026093EF0289837B836A8380912E
:1051A000A20684FF05C063E0CE0101960E941B2A7F
:1051B0000F900F900F90DF91CF910895BC0184E084
:1051C0000C94B528BC0183E00C94B528CF93DF93F1
:1051D000CAE0D0E08091750684FF1AC08091FD027C
:1051E0009091FE02981789F028E0829FC001112457
:1051F00068E081509D4F0E94172A8091FD0290E047
:1052000001968F7099278093FD02DF91CF910895C9
:105210000E941F2A8FE99FE00197F1F700C000006C
:105220002197C1F6F2CFFC01A091FE02B0E09D01F2
:105230002F5F3F4F2F7033278091FD02821771F04F
:1052400083E0AA0FBB1F8A95E1F7A150BD4F98E0FC
:1052500001900D929A95E1F72093FE020E941F2A79
:105260000C94E62884E791E00895FC018081807623
:105270008032D1F48181813041F485EF92E09093C6
:1052800087068093860688E00895823041F48FE790
:1052900093E0909387068093860681E008958A3094
:1052A00029F4838180937F0380E008958930E1F7BA
:1052B000828193818115924069F484819581892B43
:1052C00049F481E08093F402868197819093F30200
:1052D0008093F2028FEF0895FC018091F202909189
:1052E000F302892B61F08091F402813041F49081C6
:1052F000909380031092F3021092F20208958FEFC0
:1053000008950895FC019381933059F130F4913060
:10531000C1F09230F1F080E00895913209F445C077
:105320009232C9F784819581009709F44FC00197A3
:1053300091F785EA99E0909387068093860682E349
:10534000089581E799E0909387068093860682E12D
:10535000089586E399E090938706809386068BE311
:1053600008958281813089F0882339F08230A9F054
:10537000833089F683E899E002C081EA99E090934E
:1053800087068093860684E0089583E999E09093E8
:105390008706809386068CE0089589E899E09093CB
:1053A00087068093860688E008958281882331F0FD
:1053B000813009F0B0CF81E699E002C088E499E03D
:1053C000909387068093860689E0089587ED99E09B
:1053D000909387068093860680E408951F93CF9369
:1053E000DF93E82F792F162FEA01888184FF1CC0F4
:1053F000298188E828272983CE010296DC012E2FF7
:10540000372F512F5E0FF90121912D939F01452FC9
:105410004E1B1416C4F3612F0E9467051C5F18838E
:10542000DF91CF911F9108958AE58883E5CF45E705
:1054300056E00C94EE2942EA56E00C94EE29CF9304
:10544000DF9360918806635067FD12C080918406E7
:10545000CCE0D0E0C81BD109C457D94F8091830656
:10546000803108F054C0CE010E9481291092880634
:1054700080917F0184FF3EC080917E018F3FD1F1FA
:10548000C82F893008F0C8E0982F9C1B90937E01AC
:1054900090916A0628E8922790936A068823E9F09B
:1054A00080918606909187062091820626FFACC0E7
:1054B000FC012C2FABE6B6E034913D9331962150A0
:1054C000D9F79C012F5F3F4F8FEF8C0F820F932FE7
:1054D000911D90938706809386066C2F8BE696E04D
:1054E0000E946705CC5FCC3019F08FEF80937E016E
:1054F000C0937F0184E190B39C7031F48150D9F75F
:105500001092890610928106DF91CF9108958D3215
:1055100009F067C0683009F0A9CF83EC80936A0670
:105520008AE580937F01109282068881807671F0EF
:10553000CE010E9435298F3FC1F4988197FD8E815D
:1055400090E89093820680937E0190CF2A811092FA
:1055500073069981911111C01092740623E736E009
:1055600082E030938706209386069F819111EBCFCE
:105570009E81981740F7892FE6CF953029F4209324
:10558000890623E736E0EDCF963099F49B81913080
:1055900021F4CE010E94822908C09230D1F39330C9
:1055A000C1F39132B1F39232A1F390E49093820669
:1055B000C2CF983079F0993019F420938B06E1CF5F
:1055C0009A3061F09B30E9F69BE4909376069093D5
:1055D000A306D7CF2BE836E081E0C3CF23E736E040
:1055E000FBCF8091820687FF41CFCE010E946C29BC
:1055F0008F3F21F48EE180937F0138CF882309F417
:1056000035CF10927E0132CFDC012C2FEBE6F6E095
:105610003D9131932150E1F754CF85B7886085BF24
:105620008BB780688BBFA5E7B6E08BE411968C93AF
:105630001197E2EAF6E081838AE58C9380830895EE
:10564000991B79E004C0991F961708F0961B881FD4
:105650007A95C9F780950895AA1BBB1B51E107C035
:10566000AA1FBB1FA617B70710F0A61BB70B881FF2
:10567000991F5A95A9F780959095BC01CD01089581
:1056800097FB072E16F4009407D077FD09D00E94EF
:105690002C2B07FC05D03EF4909581959F4F0895E3
:1056A000709561957F4F0895EE0FFF1F0590F4915F
:1056B000E02D09948F929F92AF92BF92CF92DF928A
:1056C000EF92FF92CF93DF93EC01688179818A8119
:1056D0009B81611571058105910521F464E279EDE5
:1056E0008BE597E02DE133EF41E050E00E941D2C67
:1056F00049015A019B01AC01A7EAB1E40E943C2C8C
:105700006B017C01ACEEB4EFA50194010E944A2C20
:10571000DC01CB018C0D9D1DAE1DBF1DB7FF03C06D
:105720000197A109B04888839983AA83BB839F7797
:10573000DF91CF91FF90EF90DF90CF90BF90AF902F
:105740009F908F9008950E945A2B089580E690E0D4
:105750000E945A2B0895B0E0A0E0809360009093DF
:105760006100A0936200B09363000895FB01DC0127
:1057700002C005900D9241505040D8F70895FB01AA
:10578000DC0104C08D910190801921F441505040FA
:10579000C8F7881B990B0895DC01CB01FC01E19946
:1057A000FECF06C0FFBBEEBBE09A31960DB20D9264
:1057B00041505040B8F70895E199FECF9FBB8EBB92
:1057C000E09A99278DB30895A8E1B0E042E050E057
:1057D0000C94CE2BDC01A40FB51F4150504048F073
:1057E000CB01840F951F2E910E94FB2B41505040FE
:1057F000D0F70895262FE199FECF9FBB8EBBE09A8C
:1058000001970DB2021631F02DBB0FB6F894E29A53
:10581000E19A0FBE08950396272F0E94FB2B0E944A
:10582000FA2B252F0E94FB2B242F0C94FB2B019687
:10583000272F0E94FB2B0C94FA2B052E97FB1EF4AE
:1058400000940E94342C57FD07D00E944F2C07FC77
:1058500003D04EF40C94342C5095409530952195FE
:105860003F4F4F4F5F4F089590958095709561958C
:105870007F4F8F4F9F4F08950E94712CA59F900DD1
:10588000B49F900DA49F800D911D11240895B7FF22
:105890000C943C2C0E943C2C821B930B0895A1E29B
:1058A0001A2EAA1BBB1BFD010DC0AA1FBB1FEE1F9A
:1058B000FF1FA217B307E407F50720F0A21BB30BE5
:1058C000E40BF50B661F771F881F991F1A9469F761
:1058D00060957095809590959B01AC01BD01CF01BD
:1058E0000895A29FB001B39FC001A39F700D811DB9
:1058F0001124911DB29F700D811D1124911D0895D9
:10590000F894FFCF1C1325133B13401345134A1380
:105910004F13541359135E13631368136D137213EB
:1059200077137C13811386138B13901395139A139B
:105930009F13A413A9139D14A514AC14B114B61489
:10594000BB14C014C514CA14CF14D414D914DD1454
:10595000DF14E1149F149F149F149F149F14D51DEE
:10596000D51D2D1E2D1E7F1E021E021E021E9B1EF9
:10597000271F361F361F921F021E021E9B1F0C2060
:105980000C201520152017201520152015200C207F
:0A5990000C201C20152015201C20FF
:10599A000100000002030405060708090A0B0C0DA2
:1059AA000E001A191817161514131211100F1C1DB0
:1059BA001E1F202122232425262701343332313089
:1059CA002F2E2D2C2B2A292835363738393A3B3CAD
:1059DA003D3E3F40FF00001300260039004C005FA7
:1059EA0000720085009800AB00BE00D1000000D113
:1059FA0013BE13AB139813851372135F134C133929
:105A0A001326131313001300261326262639264CB1
:105A1A00265F26722685269826AB26BE26D126D153
:105A2A0039BE39AB399839853972395F394C3939C8
:105A3A00392639133900390000004C134C264C39E9
:105A4A004C4C4C5F4C724C854C984CAB4CBE4CD178
:105A5A004C005F135F0104040404040404040404F6
:105A6A0004010104040404040404040404010104F8
:105A7A0004040404040404040401010404040404E2
:105A8A0004040404040401010101010101010101EA
:105A9A0001010100000300FF00FFFF0021007F2237
:105AAA000003E302B1281329B428E228DE28FF5AAA
:105ABA0000FFFFE200E900EA00B500B600B700CD3A
:105ACA00008301CC008A019201940121022302245D
