:100000000C9475020C94BC020C94BC020C94BC02BF
:100010000C944C0B0C94BC020C94BC020C94BC02CF
:100020000C94BC020C94BC020C94821E0C94541FC1
:100030000C9499180C94BC020C94BC020C94BC0255
:100040000C94BC020C94BC020C94BC020C94BC0238
:100050000C94BC020C9401190C94BC020C94BC02CC
:100060000C94BC020C94BC020C94BC020C94BC0218
:100070000C94BC020C94BC020C94BC020C94BC0208
:100080000C94BC020C94BC020C94BC020C94BC02F8
:100090000C94BC020C94BC020C94BC020C94BC02E8
:1000A0000C94BC020C94BC020C94BC02B404B604C4
:1000B000C104B804BA04BC04BE04C004C304C5042B
:1000C000C704D204C904CB04CD04CF04D104D404A2
:1000D000C90EC90EFB0EFB0E390F7B107B107B1077
:1000E000570F7B10FA0FFA0F6B107B107B107410F8
:1000F0000710071007100710071007100710071048
:100100000710071007100710071007100710071037
:10011000181026102D1034103E10081108111A1155
:100120001A1111111A111A111A11081108111611A8
:100130001A111A111611C11FE81FE020E81FE02054
:1001400034205720E020AE20BD20165C1E001F008A
:100150002000210022002B0014001A0008001500C6
:100160001700394204001600070009000A00E100E8
:100170001D001B00060019000500E000E300E2007E
:10018000C25CF35C2C00230024002500260027001D
:100190002A001C0018000C001200130031000B0094
:1001A0000D000E000F003300340011001000360067
:1001B0003700380028002C00F25C5000510052003B
:1001C0004F00165C1E001F002000210022002B00A3
:1001D00014001A000900130005003942040015003C
:1001E000160017000A00E1001D001B0006000700B2
:1001F0001900E000E300E200C25CF35C2C00230085
:1002000024002500260027002A000D000F001800FA
:100210001C00330031000E00110008000C00120019
:10022000340010000B0036003700380028002C0086
:10023000F25C5000510052004F003A003B003C007D
:100240003D003E003F0001004E0052004B00010007
:1002500001000100500051004F00010001000100A9
:100260000100010001000100010001000100010086
:10027000C35C010001004000410042004300440013
:10028000450001004E0052004B0046004A000100AC
:10029000500051004F0049004D00010001000100D5
:1002A0000100010001000100AE00AB00A800AA009F
:1002B000A9003A003B003C003D003E003F00010029
:1002C000C85CC95CC75C005C01000100C65CCA5C1C
:1002D000C55CF45C010001000100010001000100A7
:1002E0000100010001000100C35C010001004000A9
:1002F00041004200430044004500010001000100AC
:100300000100010001000100F05CF15C010001004E
:10031000010001000100C25CC55CC75CC95C010052
:100320000100C45CC65CC85CCA5C44454255473A9F
:1003300020656E61626C65642E0A000A0025303803
:1003400062003A200025303258000A722F632030B4
:10035000313233343536370A000A0025303258201E
:10036000006B6579626F6172645F7265706F727441
:100370003A20000A0025303258006B6579626F61BF
:1003800072645F7365745F6C65643A20005B735DD3
:10039000004B6579626F6172642073746172742EB0
:1003A0000A005B575D005B535D005B525D005B4480
:1003B0005D005B435D0004033000000014035A003D
:1003C000790067006F006D006F00720070006800B8
:1003D00000000C035200470042004B0042000000A6
:1003E0000403090409025B00030100A032090400B0
:1003F0000001030101000921110100012240000751
:1004000005810308000A0904010001030000000936
:1004100021110100012236000705820320000A098C
:100420000402000203000000092111010001222240
:1004300000070583032000010705030320000112C4
:1004400001100100000008EDFE6030010001020310
:10045000010631FF0974A1010975150026FF0095F9
:1004600020750881020976150026FF009520750881
:100470009102C005010980A1018503160100260330
:10048000001A81002A8300751095018100C0050CB7
:100490000901A1018504160100269C021A01002A07
:1004A0009C02751095018100C005010906A1010596
:1004B0000719E029E71500250195087501810295C6
:1004C0000175088101050819012905950575019136
:1004D000029501750391010507190029FF150026F2
:1004E000FF00950675088100C00011241FBECFEFE4
:1004F000DAE0DEBFCDBF04B603FE27C080911B0249
:1005000090911C02A0911D02B0911E028730904B69
:10051000A740B04BD1F410921B0210921C02109213
:100520001D0210921E0214BE84B7877F84BF0FB6CF
:10053000F894A89580916000886180936000109283
:1005400060000FBEE0E0F8E3099511E0A0E0B1E043
:10055000E2EDF2E402C005900D92A634B107D9F79E
:1005600022E0A6E4B1E001C01D92AB31B207E1F791
:100570000E94A31B0C9467210C940000FF93EF933F
:10058000E0914601F0914701309709F00995EF910C
:10059000FF910895FC018591803011F0EFDFFBCFD2
:1005A0000895FF27E0E230E247FF0CC0419597FF36
:1005B00009C0EDE26095709580959095611D711D63
:1005C000811D911D27FF02C0219530E350E2AA272B
:1005D000660F771F881F991FAA1FA41710F0A41B6E
:1005E00063955A95A9F7AA3008F0A95FA05DAF936B
:1005F000F395611571058105910541F7ED3211F40F
:10060000EF93F395F21718F43F93F395FBCF8F9187
:10061000B5DFFA95E1F70895E991F9918591803078
:1006200021F0853219F0AADFF9CF089520E0E8948F
:1006300055915532C1F3503311F4689455915A33A2
:1006400048F4505390F3220F022E220F220F200D58
:10065000250FF4CF0EF4219589919991533619F312
:10066000533729F1533559F1BC0188279927E8946C
:100670005C3621F48991999168945591543639F4F6
:1006800046EF7EF077FF0DC08FEF9FEF0AC0553722
:100690004AE039F0583540E121F0523642E009F0A5
:1006A0000895FF93EF937DDFEF91FF91B7CFFF9315
:1006B000EF93FC0181918030B9F360DFFBCFFF93B2
:1006C000EF9368DFF1CFDF93CF93CDB7DEB72596F9
:1006D000A3DFCF91DF910895811106C0662311F049
:1006E0008EE409C08BE407C0813039F4662311F031
:1006F00082E501C081E50C947E0E0895CF93FB0145
:10070000813F2CE59207A1F020F4803F9C4559F0F1
:1007100021C0823F2CE5920791F0833F9C45D1F4A4
:10072000C28183E00EC0C281CC23A9F080E004C066
:10073000C281CC2381F081E00E94EB0306C0C2811C
:1007400082E0CC2321F00E944315C0E004C00E9447
:10075000641501C0C1E08C2FCF91089581E0089508
:100760000C947E031F93CF93DF9300D000D01F9291
:10077000CDB7DEB749835A836B832091800189818D
:100780009A81211112C0662349F00E943A16182F4F
:10079000682F89819A810E94E11503C00E940D167D
:1007A000182F69817A81812F04C00E943A166981CD
:1007B0007A810F900F900F900F900F90DF91CF9153
:1007C0001F910C948605FC014081518162817381E7
:1007D00084810C94B203CF93DF9361E070E0EB016E
:1007E00002C0CC0FDD1F8A95E2F78C2F0E9496176E
:1007F000BE0180E090E0DF91CF910C94E3140E9461
:100800008317811102C00E9402180E94210A0C94D1
:1008100003080E94380A0C94FF0708950C940D04F5
:100820000C940E0408950E94F6100E9412042FEFFB
:1008300084E39CE0215080409040E1F700C000003C
:100840000C9427190F931F93CF93DF938C010E9471
:10085000E303EC01B8010E94B003882309F44CC102
:10086000C73D8CE5D80709F4AFC0B0F4C531FCE54D
:10087000DF0768F4C2308CE5D80708F053C0C11513
:10088000ECE5DE0701F1C130DC4529F129C1C631B3
:10089000DC4509F4FEC024C1CC3DECE5DE0791F156
:1008A00050F4C83D8CE5D80709F4B1C0C93DDC451A
:1008B00009F4D4C015C1CD3DFCE5DF0751F1CE3DB3
:1008C000DC45C1F00DC1F8018281882309F414C10F
:1008D0000E94130411C1F8018281882309F40CC11C
:1008E0008091F60181608093F6018AE293E00E9494
:1008F000CA0202C1F8018281882309F4FDC00E9466
:100900000218FAC0F8018281882309F4F5C080E05A
:1009100006C0F8018281882309F4EEC082E00E94BB
:10092000491CEAC0F8018281882309F4DEC00E94D4
:100930008317811102C00E9402180E949B1790E049
:1009400090930D0280930C02FE01E350FC45E231CE
:10095000F10530F4EA5AFF4F80910C020C941F21EC
:1009600080910C02816027C0826025C0846023C012
:10097000806121C080621FC080641DC080681BC070
:100980008460886018C08E7F16C08D7F14C08B7FF6
:1009900012C08F7E10C08F7D0EC08F7B0CC08F77F2
:1009A0000AC08B7F877F07C087FB222720F991E051
:1009B000922790FB87F980930C0280910C020E9491
:1009C0009F170E94F61098C0F8018281882351F089
:1009D00010924D010E94CB1890934A0180934901D7
:1009E00082E022C080914D0181110FC080914901A8
:1009F00090914A010E94D7188639910530F486E219
:100A00000E948F0D86E20E94520E82E024C0F801FF
:100A10008281882361F010924E010E94CB1890933E
:100A20004C0180934B0180E20E94860E65C080914C
:100A30004E0181110FC080914B0190914C010E9499
:100A4000D7188639910530F487E20E948F0D87E22E
:100A50000E94520E80E20E948D0E4EC0F8018281EB
:100A60008111D9CF80914E018111F4CF80914B013A
:100A700090914C010E94D7188639910558F780E271
:100A80000E948D0E88E20E948F0D88E20E94520E15
:100A900033C00E94BB16982FF80182812091090172
:100AA00030910A01882379F09A7A81E009F480E094
:100AB00080934801911102C069E201C065E3C90158
:100AC0000E9437180AC080914801811102C069E272
:100AD00001C065E3C9010E9439180E9409170CC0C2
:100AE00081E080934D0180934E01C801DF91CF9149
:100AF0001F910F910C94AE0380E0DF91CF911F9175
:100B00000F91089580E090E0089508952CE3829F6E
:100B1000C0011124FC0126E0729FE00DF11D11249B
:100B2000E60FF11DEE0FFF1FE65BFE4F85919491DE
:100B30000895880F991FFC01E55CFC4F8591949105
:100B40000895CF93DF930E9486050E945D07EC0114
:100B50008115904508F041C0C11580E4D80708F020
:100B600028C1C83ED10510F5C03ED10508F0A1C18D
:100B7000C83AD10578F4C53AD10508F0A2C0C13011
:100B8000D10509F496C108F447C1C430D10508F075
:100B900090C142C1CF3BD10508F49EC0C03CD105F5
:100BA00008F43AC1CE01805C9109F5C0C11590E20C
:100BB000D90758F4C11521E0D20708F07AC1C03F27
:100BC000D10508F429C1D06574C1C11580E3D807E7
:100BD00008F0E5C0CE019F70DEC0C11595E5D907CC
:100BE00008F043C0C11524E5D20708F0F9C0C115CB
:100BF00082E5D80708F5C11591E5D90708F0DCC0F2
:100C0000CE0174E0969587957A95E1F783709C2FD5
:100C1000937021E030E002C0220F331F9A95E2F773
:100C20003C68382BCF70C695C69580E2C89FE0011E
:100C30001124C22BD32B3DC19E01237033278C2F4F
:100C400086958695C115D34508F0BBC0C1E0D0E0BC
:100C500002C0CC0FDD1F2A95E2F720E2829FC0017F
:100C60001124C82BD92BDC6824C1C11529E5D20772
:100C7000A0F4C11588E5D80708F0B7C0C11596E5FE
:100C8000D90708F0C9C08C2F0E94D9078F71C82FCF
:100C9000D0E0DC2FCC27D0620CC1C1152AE5D207E9
:100CA00008F4A8C0CE0190568115904208F0B4C057
:100CB0008D2F8F710E94D907DD27D0628F71D82BBD
:100CC000F8C0C53AD10509F4AAC0C63AD10509F061
:100CD000A9C0C2E8D0E4EDC0C83AD10509F4A5C066
:100CE000C93AD10509F4A4C0CA3AD10509F4A3C090
:100CF000CB3AD10509F4A2C0CC3AD10509F4A1C080
:100D0000CB3BD10509F4A0C0CC3BD10509F49FC071
:100D1000CD3AD10509F49EC0C03BD10509F49DC070
:100D2000CE3AD10509F49CC0CF3AD10509F49BC055
:100D3000C13BD10509F49AC0C23BD10509F499C061
:100D4000C33BD10509F498C0C43BD10509F497C051
:100D5000C53BD10509F496C0C63BD10509F495C041
:100D6000C73BD10509F494C0C83BD10509F493C031
:100D7000C93BD10509F492C0CD3BD10509F491C01E
:100D8000CE3BD10509F490C0CA3BD10509F48FC010
:100D9000C0E0D4E48EC00E949905EC018AC0CE0167
:100DA0009927D3FF03C0EC01D86C83C0EC01D06C51
:100DB00080C0DF70D06A7DC0DC2FCC27C16FD06AC5
:100DC00078C0C1E0D0E002C0CC0FDD1F2A95E2F769
:100DD00020E2829FC0011124C82BD92BDA6869C098
:100DE000DC2FCC27C46FD06A64C0DC2FCC27C06F47
:100DF000D06A5FC08C2F8F700E94D90794E0D6957F
:100E0000C7959A95E1F7CF70D0E0DC2FCC27D06A58
:100E10008F70806EC82B4DC0C0E0D0E04AC0C1E8E2
:100E2000D0E447C0C3E8D0E444C0C2EED4E441C03B
:100E3000C9EED4E43EC0CAEED4E43BC0C5EBD4E472
:100E400038C0C6EBD4E435C0C3EBD4E432C0C4EB45
:100E5000D4E42FC0C7EBD4E42CC0CCECD4E429C03C
:100E6000CDECD4E426C0C3E8D5E423C0CAE8D5E479
:100E700020C0C2E9D5E41DC0C4E9D5E41AC0C1E26E
:100E8000D6E417C0C3E2D6E414C0C4E2D6E411C06D
:100E9000C5E2D6E40EC0C6E2D6E40BC0C7E2D6E493
:100EA00008C0CFE6D4E405C0C0E7D4E402C0CAE27B
:100EB000D6E4CE01DF91CF9108958238910549F1B2
:100EC000B0F48133910509F459C048F48932910591
:100ED00009F44FC08A32910509F455C0089585334D
:100EE000910509F441C08933910599F00895833E35
:100EF000910531F138F4803E910591F0823E9105E3
:100F0000A9F00895863E910501F1873E910539F1DA
:100F1000089520910C0220FD3BC021FD39C00895A9
:100F200080910C0280FF34C089E341C080910C02A3
:100F300082FF30C080910C0284FD2EC083EE37C04A
:100F400080910C0282FD26C0F5CF80910C0283FFB8
:100F500025C080910C0284FD1FC087EE28C08091BF
:100F60000C0283FD1BC0F5CF80910C0285FD18C0DB
:100F700019C080910C0285FD15C012C080910C0231
:100F800086FD12C013C080910C0286FD0FC00CC0FC
:100F900080EE0DC082EE0BC080E009C086EE07C077
:100FA00089E205C085E303C08AE201C081E390E0E5
:100FB000089590910C0292FF0DC0282F28712830BF
:100FC00019F4877F846006C0282F2471243011F41F
:100FD0008B7F886093FF0DC0282F2871283119F46A
:100FE000877E846106C0282F2471243111F48B7E02
:100FF000886194FD877E089508950C94FC070C94F5
:10100000FD070C94FC070C940108E82FF0E0EB5A64
:10101000FE4F80810895CF92DF92EF92FF920F935F
:101020001F93CF93DF938AE493E00E94CA0285E581
:10103000E82E81E0F82EC0E0D0E095E4C92E93E0E0
:10104000D92E0DE313E0DF93CF93DF92CF920E946E
:10105000630382E493E00E94CA02F70181917F0159
:101060000E9471171F928F931F930F930E94630327
:101070008BE393E00E94CA0221968DB79EB7089633
:101080000FB6F8949EBF0FBE8DBFCA30D105D9F6FA
:10109000DF91CF911F910F91FF90EF90DF90CF9054
:1010A0000895CF93DF938091F601836088608093E9
:1010B000F6018091000180910001811102C095E04C
:1010C00001C090E09093070285E0891B809306029F
:1010D000ACE1B1E041E251E061E070E08D91E82FD8
:1010E000E295EF70F0E021A18F70EB0102C0CC0F10
:1010F000DD1F8A95E2F7CE019C2F9095922391A354
:1011000092A1892B82A34A175B0741F7A6E1B1E0C0
:101110004CE151E061E070E08D91E82FE295EF70D5
:10112000F0E021A18F70EB0102C0CC0FDD1F8A958A
:10113000E2F7CE019C2F9095922391A392A1892B47
:1011400082A34A175B0741F7E5E5F1E08FE591E0FF
:1011500011928E179F07E1F785E00E947909DF91D0
:10116000CF910C94FF036F927F928F929F92AF92D8
:10117000BF92CF92DF92EF92FF920F931F93CF9384
:10118000DF932CE1622E21E0722EA0E5B1E035E57F
:10119000C32E31E0D32E20E001E010E05D019C90F1
:1011A0001C92E30189913E01E82FE295EF70F0E097
:1011B00031A18F70A80102C0440F551F8A95E2F734
:1011C000CA01342B31A342A1382F3095432342A3C7
:1011D00050EA5A95F1F796E1E92E91E0F92E40E0B8
:1011E00050E0E70189907E01682D62956F7070E094
:1011F000EB0168A170E0D82DDF7002C0759567958E
:10120000DA95E2F760FD07C0B801042E01C0660F51
:101210000A94EAF702C060E070E07C91672B6C935F
:101220004F5F5F4F46305105E1F691A1392331A35D
:1012300092A1892B82A3119681E0F50190819911E9
:1012400001C080E0282BCA16DB0609F0A7CF609109
:10125000070270E06B5A7E4F45E080E591E00E9406
:101260007A0981E0DF91CF911F910F91FF90EF906C
:10127000DF90CF90BF90AF909F908F907F906F90B6
:101280000895CF930E94B308C82F0E94BA098823FB
:1012900011F18091060290E08B5A9E4F0E94EE0958
:1012A000811114C080914F018F5F80934F01863070
:1012B00078F0E0910602F0E0EB5AFE4F80E090E01B
:1012C0001192019685309105D9F702C010924F0115
:1012D0000E9409040BC08091070290E08B5A9E4F38
:1012E0000E940D0A0E94380A0E94FC078C2FCF91A1
:1012F00008950895FF920F931F93CF93DF938C016E
:10130000F62ED72FC42F222349F081E0809361016C
:101310000E94CB189093600180935F0180916101DE
:101320008823C1F080915F01909160010E94D718DD
:10133000069780F0EF2DFD2FD8014C2F50E0CD0106
:10134000801B910B841795071CF48D918193F7CF27
:1013500010926101DF91CF911F910F91FF9008953D
:101360008EE090E00E94252191E0811101C090E083
:10137000892F089580916201811112C08091D80057
:1013800080618093D8008AE18A95F1F700C080914E
:10139000D90080FD02C082E001C081E0809362013B
:1013A00081E090916201913009F080E008950E94FF
:1013B000B009809300010E94BA0981110C94E209DE
:1013C0000C94E80961E070E081E091E00C94FE0A81
:1013D00061E070E081E091E00C94050BCF93DF9326
:1013E000D82FC92F0E949D0B892B99F4ED2FFC2F2C
:1013F00080E090E0DC01AC59BE4F2C912193019626
:1014000085309105B9F789E691E00E947C0A81E078
:1014100001C080E0DF91CF91089520E030E0FC0131
:101420004191CF01F901EC59FE4F40832F5F3F4FAF
:1014300025303105A1F789E691E00C94770A0C94E8
:101440006C0352985A9A57985F9A89B182FB882701
:1014500080F929B130E0220F232F221F330B232BD9
:1014600011F490E001C092E0892B80936C01089503
:10147000E0916C01EE0FEE0FE0936C0189B182FBFD
:10148000442740F950E029B130E0C901880F892F85
:10149000881F990B009711F082E090E0842B952B28
:1014A0008E2B80936C018F70E82FF0E0EA5DFE4F89
:1014B000908180916A01890F80936A01843024F0C1
:1014C00060E080E00E941F0A80916A018D3F24F451
:1014D00061E080E00E941F0A80916A01837887FFA3
:1014E00003C081508C6F8F5F80936A0108952091B3
:1014F0006C01FC0120830895DC01EC91EF70F0E0B9
:10150000EA5DFE4F908180916B01890F80936B01A2
:10151000843024F060E081E00E941F0A80916B011A
:101520008D3F24F461E081E00E941F0A80916B01ED
:10153000837887FF03C081508C6F8F5F80936B012E
:1015400008958EE14B9B02C08150E1F74B9BFECF8B
:1015500008955B9880E28A95F1F75B9A0895FC0103
:101560002AE02A95F1F728E090E080E031E040E1C0
:101570004A95F1F7880F4B9B02C08160932700C00A
:10158000000040E14A95F1F7215089F720E12A95C2
:10159000F1F729B100C0000030E13A95F1F723FBE3
:1015A000222720F992272081920F90830895EF92AD
:1015B000FF920F931F93CF93DF931F92CDB7DEB7A8
:1015C00019828C017C01E60EF11C0E151F0551F0ED
:1015D0000E94A10ACE0101960E94AF0AF8018193F0
:1015E0008F01F3CF81E09981911180E00F90DF911D
:1015F000CF911F910F91FF90EF90089590936E01FE
:1016000080936D01539A5B9A089590936E01809335
:101610006D0153985B9AEB9AE9E6F0E080818F7355
:1016200080830895615091E001C0990F6A95EAF7AF
:1016300020E031E0992361F0492F482319F05B9AAB
:10164000232701C05B9840E24A95F1F79695F2CFC7
:10165000222311F05B9A01C05B9880E28A95F1F732
:101660005B980895FF920F931F93CF93DF93EC0144
:101670008C01060F111DC017D10741F0F9900E948F
:10168000A90A68E08F2D0E94120BF5CFDF91CF9150
:101690001F910F91FF9008951F920F920FB60F9216
:1016A00011242F933F934F935F936F937F938F9367
:1016B0009F93AF93BF93CF93DF93EF93FF935B9889
:1016C000539AC0916D01D0916E016D81662321F016
:1016D0008E819F810E94320B0E94A90A80E18A9527
:1016E000F1F75B9853985B9A80E18A95F1F76A81EC
:1016F000662351F08B819C810E94D70AE881F98191
:10170000811104C082E003C0E881F98188E0808310
:101710000E94A10AFF91EF91DF91CF91BF91AF910C
:101720009F918F917F916F915F914F913F912F91F9
:101730000F900FBE0F901F901895CF93DF93C0911D
:101740006D01D0916E01F894539A5B9885E08A956B
:10175000F1F7000053985B9A80E28A95F1F74B9B72
:101760000AC0539A5B9AE881F98181E0808378947A
:1017700081E090E02CC06D81662381F08E819F8195
:101780000E94D70A81110AC0539A5B9AE881F981B5
:1017900082E08083789482E090E019C00E94A10AE0
:1017A00080E28A95F1F75B98539A80E18A95F1F788
:1017B0006A81662321F08B819C810E94320B0E94FA
:1017C000A90AE881F9811082789480E090E0DF91A5
:1017D000CF91089590937401809373010895E091DF
:1017E0007301F0917401309721F00190F081E02DA8
:1017F000099480E00895EF92FF920F931F93CF9387
:10180000DF93E0917301F09174013097B1F18C0195
:101810000280F381E02D09958091F60182FF2DC0B1
:1018200080FF04C081E693E00E94CA02E80118E04C
:101830008BE5E82E83E0F82E8091F60180FF0BC047
:1018400088811F928F93FF92EF920E9463030F9003
:101850000F900F900F90115021961111EDCF8091A4
:10186000F60180FF0AC089E593E0DF91CF911F91D7
:101870000F91FF90EF900C94CA02DF91CF911F91CE
:101880000F91FF90EF9008952091710130917201B6
:101890002817390771F09093720180937101E091DC
:1018A0007301F0917401309721F00680F781E02DEB
:1018B0000994089520916F0130917001281739071C
:1018C00071F09093700180936F01E0917301F0913A
:1018D0007401309721F00084F185E02D099408957A
:1018E00085B7806885BF85B7806885BF08950895EE
:1018F0000C94770C0C94780C0C94770C0E94700C60
:101900000E94D7090C947A0C0E94C2180E945108B8
:101910000E944B190C947C0CCF93C82F8091F60138
:1019200082FF1EC080FF04C08AE793E00E94CA02C3
:101930008091F60180FF0CC01F92CF9385E793E062
:101940009F938F930E9463030F900F900F900F90BF
:101950008091F60180FF04C083E793E00E94CA02F1
:101960008C2FCF910C941004BF92CF92DF92EF9204
:10197000FF920F931F93CF93DF93CDB7DEB72A97D4
:101980000FB6F894DEBF0FBECDBF0E9441090E9482
:10199000BA09811111C08FEF89838A831B820E944B
:1019A000CB188160782F9D838C8349815A816B810C
:1019B0008D810E945B0D54C086E7C82E81E0D82E31
:1019C00000E010E0B02E802F0E940508E82EF601FE
:1019D00021916F01F82EF22631F40F5F1F4F0A306C
:1019E000110581F7D8CF8091F60181FD0E940B0887
:1019F00080E090E02F2D30E0482FB901082E02C082
:101A0000759567950A94E2F760FF25C08E83BF82C3
:101A100081E090E06C0102C0CC0CDD1C4A95E2F73D
:101A20002E2D30E02C213D21232B09F480E08887E6
:101A30000E94CB188160782F9A8789874E815F81B9
:101A400068858A850E945B0DF801EA58FE4F808107
:101A50008C25808305C001968630910569F6BDCF3F
:101A60000E94EF0B909175018917A9F00E94EF0B6E
:101A7000809375012A960FB6F894DEBF0FBECDBFD6
:101A8000DF91CF911F910F91FF90EF90DF90CF905A
:101A9000BF900C948C0C2A960FB6F894DEBF0FBE44
:101AA000CDBFDF91CF911F910F91FF90EF90DF900D
:101AB000CF90BF900895CF93DF93CDB7DEB72B972C
:101AC0000FB6F894DEBF0FBECDBF4F83588769872E
:101AD0007A878B87DE01119686E0FD0111928A9547
:101AE000E9F785E0FE01379601900D928A95E1F7BE
:101AF00049815A816B817C818D819E810E94A613D0
:101B00002B960FB6F894DEBF0FBECDBFDF91CF91FD
:101B10000895FC01808191810E947C16089588239C
:101B200009F4BFC0682F8CEF860F813A38F480919A
:101B3000090190910A010E9437180CC080E2860FBB
:101B4000883050F4677081E001C0880F6A95EAF729
:101B50000E94BE160C9409178BE5860F833070F433
:101B6000653A29F0663A31F083E890E005C081E8F3
:101B700090E002C082E890E00C94440C88E5860F67
:101B8000873108F08EC0683A09F445C0693A09F413
:101B900045C06A3A09F445C06B3A09F445C06C3A4D
:101BA00009F445C06B3B09F445C06C3B09F445C0E2
:101BB0006D3A09F445C0603B09F445C06E3A09F43A
:101BC00045C06F3A09F445C0613B09F445C0623B2A
:101BD00009F445C0633B09F445C0643B09F445C0C2
:101BE000653B09F445C0663B09F445C0673B09F411
:101BF00045C0683B09F445C0693B09F445C06D3BED
:101C000009F445C06E3B09F445C06A3B09F445C080
:101C100080E090E044C082EE90E041C089EE90E028
:101C20003EC08AEE90E03BC085EB90E038C086EB8A
:101C300090E035C083EB90E032C084EB90E02FC0A1
:101C400087EB90E02CC08CEC90E029C08DEC90E00C
:101C500026C083E891E023C08AE891E020C082E9B1
:101C600091E01DC084E991E01AC081E292E017C0C2
:101C700083E292E014C084E292E011C085E292E037
:101C80000EC086E292E00BC087E292E008C08FE6C9
:101C900090E005C080E790E002C08AE292E00C94F8
:101CA0005A0C0895882349F1682F8CEF860F813AEA
:101CB00038F48091090190910A010E9439180CC0F2
:101CC00080E2860F883050F4677081E001C0880F91
:101CD0006A95EAF70E94C4160C9409178BE5860FE3
:101CE000833020F480E090E00C94440C685A673113
:101CF00020F480E090E00C945A0C0895CF93C82F04
:101D00000E948F0D8C2FCF910C94520E882321F0BE
:101D10000E94BE160C9409170895882321F00E9492
:101D2000C4160C94091708958F929F92AF92BF9298
:101D3000DF92EF92FF920F931F93CF93DF937C017B
:101D4000D62FC72FFC01058102950F70128111114A
:101D50000E94DB160E94B416882379F0112369F0E3
:101D600080E28D0F883048F082E00E9453170E9475
:101D7000B41691E0D82ED92601C0D12CBC2EB29435
:101D80008FE0B8228B2D90E0FC01E859FF4F0C94B6
:101D90001F218C2F807FCF70882311F0C295C07FC8
:101DA000112399F0CC2309F481C180E28D0F883092
:101DB00010F0D11104C08C2F0E94BE1603C08C2FCE
:101DC0000E94CE160E94091771C18D2F0E94520EDB
:101DD000CC2309F490C180E28D0F883010F0D1112E
:101DE00004C08C2F0E94C41603C08C2F0E94D416EE
:101DF0000E94091780C18C2F807FCF70803211F034
:101E0000C295C07FDD2319F0D130C9F022C0112363
:101E100071F0002341F0013031F40E94EE168C2B5A
:101E20000E94F61668C10E94EE168C2BF8C00023A3
:101E300019F0013009F45FC10E94FF1618C0112388
:101E400021F0063008F057C10EC0053008F053C12C
:101E50000EC0112351F0002331F0F701858180FF7E
:101E600025C18F7085838C2FDAC0011130C18C2F72
:101E7000DCC08C2F86958695837019F0813061F0D7
:101E80003AC1112321F08D2F9C2F937002C080E066
:101E900090E00E94440C3CC1112321F08D2F9C2F17
:101EA000937002C080E090E00E945A0C31C18C2FE8
:101EB000837009F04CC0111127C12D2F2295269552
:101EC0002770220F220F6D2F6F70862F90E0A0E0F9
:101ED000B0E04C015D01022E04C0880C991CAA1CC4
:101EE000BB1C0A94D2F7D4FF12C08FE090E0A0E0B0
:101EF000B0E004C0880F991FAA1FBB1F2A95D2F714
:101F0000BC01CD01609570958095909503C060E00F
:101F100070E0CB01C695C695C370C23051F080F415
:101F2000682979298A299B29C13071F00E94F71408
:101F3000EBC0682979298A299B290E940915E4C0E8
:101F40000E94F714C501B4010E94E514DDC01123FD
:101F500019F08C2F817001C08695882309F4D4C0B4
:101F60002D2F229526952770220F220F6D2F6F702F
:101F7000862F90E0A0E0B0E04C015D01022E04C08D
:101F8000880C991CAA1CBB1C0A94D2F7D4FF12C05F
:101F90008FE090E0A0E0B0E004C0880F991FAA1F76
:101FA000BB1F2A95D2F7BC01CD0160957095809535
:101FB000909503C060E070E0CB01C695C695C370F4
:101FC000C23051F080F4682979298A299B29C130CF
:101FD00071F00E94BC1598C0682979298A299B292B
:101FE0000E94CE1591C00E94BC15C501B4010E948B
:101FF000AA158AC08D2F90E0FC01E05EF109E53161
:10200000F10508F04FC0E858FF4F0C941F21DF7016
:102010008C2F8F71112331F00E9443158D2F0E9458
:10202000860E69C00E9464158D2F0E948D0E63C0BC
:10203000112341F0053008F05EC08C2F8F710E9493
:10204000891559C0063008F056C0F7CF112339F072
:102050008C2F8F710E9443154EC01123C9F38C2F12
:102060008F710E94641547C0112329F08C2F8F7146
:102070000E942E1540C00E9429153DC0112349F031
:10208000CF718C2F0E94431563E08C2F0E943E1766
:1020900032C081E00E945317023068F182E00E9452
:1020A000531729C0112331F0002391F28D2F0E9484
:1020B0008F0D21C0002399F2D93349F4FFEF27EEA9
:1020C00083E0F15020408040E1F700C000008D2FF8
:1020D0000E94520E10C04C2F4F706D2FC7010E94EE
:1020E00082050E94541414C04C2F4F706D2FC701ED
:1020F0000E9485050DC098E0B91631F0B91640F080
:1021000086EF8B0D823020F40E94EF0B0E941004AA
:10211000DD20E1F00E94B01680FD18C0F7011282A8
:102120000E94AA160E944315C7010E94B2100E9485
:10213000AA16DF91CF911F910F91FF90EF90DF9042
:10214000BF90AF909F908F900C946415DF91CF91CA
:102150001F910F91FF90EF90DF90BF90AF909F90F5
:102160008F9008950F931F93CF93DF93EC01988185
:1021700089812B813C81232B31F08F3F31F481E029
:102180009F3F19F403C081E001C080E080FD13C0CF
:10219000CE010E942204882371F0688179818A81AE
:1021A0000E9487168C010E94E0150E94D114B8018C
:1021B000CE010E94940EDF91CF911F910F9108954F
:1021C0000E94DB160E94EB160E94091780E090E047
:1021D0000E94440C80E090E00C945A0C809109011C
:1021E00090910A010E943B180C94E0100E94CB16BB
:1021F0000C94EE10E92FE295EF704E2F50E0FA01AB
:102200003297EE30F105B0F4E357FF4F0C941F21E5
:10221000803F91F018F4803E68F40EC0843F51F482
:102220000BC0803E48F0813F29F406C093FB88270D
:1022300080F9089580E0089581E008950E947C1659
:102240000E94FA100895CF93DF9300D000D01F9220
:10225000CDB7DEB70F900F900F900F900F90DF91DA
:10226000CF910895CF93DF9300D000D000D0CDB7A9
:10227000DEB726960FB6F894DEBF0FBECDBFDF9156
:10228000CF9108951F93CF93DF93C091810116E002
:1022900080918201C81799F0D0E01C9FF0011D9F2A
:1022A000F00D1124ED57FE4F408151816281738101
:1022B000848195810E9432112196C770E9CFDF9108
:1022C000CF911F9108954091B3015091B401609155
:1022D000B5017091B6018091B7019091B8010C944D
:1022E0003211CF938091B80182958F7009F05FC051
:1022F0008091B501882309F45AC080918101B09181
:1023000082017091B301A091B4014091B601509146
:10231000B70191E07F3F09F090E0692FC6E08B178D
:1023200009F445C04115510521F0AF3F21F020E0EF
:1023300003C021E001C0262F90E020FD35C0C89FDA
:10234000F001C99FF00D1124ED57FE4F21812A1392
:102350002BC02081271328C02281211125C0238171
:1023600034812417350710F421503109241B350B13
:1023700026393105C8F42091B8012F7020612093CF
:10238000B80126E0289FF001299FF00D1124E8579D
:10239000FE4F80818F708061808383EB91E00E948B
:1023A000B210CF910C94421101968770B8CFCF91A3
:1023B0000895AF92BF92CF92DF92EF92FF920F9368
:1023C0001F93CF93DF93CDB7DEB761970FB6F89425
:1023D000DEBF0FBECDBF7C0185E0F701DE011D969B
:1023E00001900D928A95E1F7D7014C9111965C917D
:1023F000119712960C913091B3016091B4018091C4
:10240000B6019091B701009731F06F3F31F421E0B0
:102410003F3F19F403C021E001C020E0B22FB170AA
:10242000BB2E20FD40C1F701C380D480A090B50130
:10243000AA2009F4F6C02091B801C816D90628F0E0
:10244000D601A81BB90BCD0104C0809590958C0DC9
:102450009D1D11E08639910580F010E0207F09F084
:10246000A6C07C2DD98AC88A602F89890E94231131
:1024700083EB91E00E94B2100EC1822F807F09F0A1
:1024800053C0561314C0431312C0102F01110FC0B4
:102490002F7020612093B8010E94631183EB91E0BB
:1024A0000E94B2108091B801F70185833DC1CD280B
:1024B00031F05F3F31F481E04F3F19F403C081E018
:1024C00001C080E080FD03C081E0802702C080E081
:1024D00090E0182F117080FF1CC080918101209125
:1024E000820136E0821709F4FCC090E0389FF001C9
:1024F000399FF00D1124ED57FE4F6181561306C030
:102500006081461303C06281061303C00196877081
:10251000E9CF102F002309F407C18091B801816031
:102520008093B80110E000C1561314C0431312C0C9
:10253000011110C08091B801F7018583C7010E9485
:10254000B21086E0F701A3EBB1E001900D928A95FD
:10255000E1F7C4C04D875E878D859E850E941E1160
:10256000882379F1002369F12091B801822F8295A7
:102570008F7090E0029774F08091B3019091B40154
:1025800098878F831986DB86CA862C87CE010796AB
:102590000E94B21086E0F701A3EBB1E001900D922A
:1025A0008A95E1F70E9471110E9463110DC05617C0
:1025B00069F04D875E878D859E850E941E11811171
:1025C00019C0C7010E94B21011E0AEC04313F1CF91
:1025D0000111EFCF8091B801F7018583C7010E94F7
:1025E000B21086E0E3EBF1E0DF011D928A95E9F796
:1025F0001A2D9AC0002329F32091B801822F8295C9
:102600008F7090E0029734F28091B3019091B40101
:102610009A8389831B82DD82CC822E83CE01019630
:10262000B7CFC816D90628F0F601E81BF90BCF0181
:1026300004C0809590958C0D9D1D8639910548F0BC
:1026400010E07C2DD98AC88A602F89890E942311C5
:1026500022C0102F002309F4B4CF56130BC043132C
:1026600009C086E0F701A3EBB1E001900D928A95D5
:10267000E1F75AC04D875E878D859E850E941E11A9
:10268000811188CF8091B80181608093B801C70122
:102690000E94B21049C0E3EBF1E086E0DF011D9239
:1026A0008A95E9F71BC0002309F48BCF4D875E871D
:1026B0008D859E850E941E11182F882309F481CFD5
:1026C00086E0F701A3EBB1E001900D928A95E1F766
:1026D00083EB91E00E94890D0E9471110E946311A9
:1026E00023C04D875E878D859E850E947C16292F8D
:1026F00022952F70223028F49F7039F0811105C087
:102700000BC0243028F49F7049F4805E883020F09C
:10271000C7010E94B210B12E1B2D06C0D70115961D
:102720009C91907F91F7F8CF812F61960FB6F89426
:10273000DEBF0FBECDBFDF91CF911F910F91FF90F4
:10274000EF90DF90CF90BF90AF9008951F93CF93FD
:10275000DF93CDB7DEB72C970FB6F894DEBF0FBE70
:10276000CDBF4F83588769877A878B879C87CE0137
:1027700007960E94D9118823D1F09F8188852A85E8
:102780003B85232B31F08F3F31F481E09F3F19F4DB
:1027900003C081E001C080E080FD47C04F815885C3
:1027A00069857A858B859C850E9432113EC086E0C2
:1027B000FE013796DE01119601900D928A95E1F7A0
:1027C000FF81E8856A857B856115710531F0EF3FF2
:1027D00031F481E0FF3F19F403C081E001C080E0E3
:1027E00080FD23C02091820130E0C90101968770ED
:1027F00099274091810150E084179507F1F1F98301
:10280000EA837D836C8396E0929FD001939FB00D05
:102810001124AD57BE4FFE01319601900D929A954D
:10282000E1F7809382010E94421116E080918101BC
:1028300090918201891771F1189FC00111248D5761
:102840009E4F0E94D911882329F1E09181011E9F9A
:10285000F0011124ED57FE4F408151816281738157
:10286000848195810E9432118091810190E00196CE
:102870008770992780938101D9CF0E94F61010921A
:10288000820110928101E3EBF1E086E0DF011D920D
:102890008A95E9F72C960FB6F894DEBF0FBECDBF30
:1028A000DF91CF911F910895EF92FF920F931F93A5
:1028B000CF93DF938C01892B09F46CC0F12CEE24AB
:1028C000E394E8012196F8018491843740F4843040
:1028D00008F051C0813081F0823019F15BC085373A
:1028E00009F444C0A8F19CE7980F903708F052C053
:1028F0008F770E94520E41C00E5F1F4FFE018491E0
:1029000090E2980F983050F48770FE2D01C0FF0FB1
:102910008A95EAF78F2F0E94DE1614C00E948F0D51
:102920002DC00E5F1F4FFE01849190E2980F9830EA
:1029300060F48770FE2D01C0FF0F8A95EAF78F2F94
:102940000E94E4160E94091719C00E94520E16C078
:102950000E5F1F4FFE01C491CC2381F08FE99FE0F1
:102960000197F1F700C00000C150F6CF0E5F1F4F76
:10297000FE01F49003C00E948F0D8E018F2D8823DD
:1029800009F49FCFEFE9FFE03197F1F700C00000B5
:102990008150F5CFDF91CF911F910F91FF90EF9074
:1029A0000895089508950C94D2140C94D3140E94A1
:1029B000D5146093E5017093E6018093E70190934D
:1029C000E8010C94E0100C94D7140F931F9300911E
:1029D000E5011091E6012091E7013091E801602BBB
:1029E000712B822B932B1F910F910C94D7140F9363
:1029F0001F930091E5011091E6012091E7013091CC
:102A0000E80160237123822393231F910F910C947B
:102A1000D7140F931F930091E5011091E6012091C7
:102A2000E7013091E80160277127822793271F91E2
:102A30000F910C94D7140C94D2140E941B15609320
:102A4000E1017093E2018093E3019093E4010C941F
:102A5000E01060E070E0CB010C941D150F931F9304
:102A600041E050E060E070E08A019B0104C0000F8B
:102A7000111F221F331F8A95D2F7C901B8011F9178
:102A80000F910C941D150F931F9341E050E060E0EF
:102A900070E004C0440F551F661F771F8A95D2F758
:102AA0008091E1019091E201A091E301B091E401F4
:102AB0008A019B01082B192B2A2B3B2BC901B8013A
:102AC0001F910F910C941D150F931F9341E050E03F
:102AD00060E070E004C0440F551F661F771F8A95A1
:102AE000D2F740955095609570958091E101909155
:102AF000E201A091E301B091E4018A019B01082366
:102B000019232A233B23C901B8011F910F910C946B
:102B10001D150F931F9341E050E060E070E004C08A
:102B2000440F551F661F771F8A95D2F78091E101E8
:102B30009091E201A091E301B091E4018A019B012F
:102B4000082719272A273B27C901B8011F910F9190
:102B50000C941D150F931F930091E1011091E20158
:102B60002091E3013091E401602B712B822B932B98
:102B70001F910F910C941D150F931F930091E1016C
:102B80001091E2012091E3013091E401602371236F
:102B9000822393231F910F910C941D150F931F9364
:102BA0000091E1011091E2012091E3013091E401F3
:102BB00060277127822793271F910F910C941D1571
:102BC0000895292F220F920F990F890FE82FE6956C
:102BD000E695E695877051E001C0550F8A95EAF7B2
:102BE00085E0E89FF0011124E754FE4F20E030E03B
:102BF00070E04081CB01022E02C0969587950A9421
:102C0000E2F78170819584278523842781932F5F44
:102C10003F4F2530310569F70895292F220F920F74
:102C2000990F890F682F669566956695982F97700E
:102C300085E0689FB001112440E050E080E0FB0196
:102C4000E40FF51FE754FE4F208130E0092E02C04B
:102C5000369527950A94E2F721703327042E01C098
:102C6000220F0A94EAF7822B4F5F5F4F45305105E0
:102C700031F70895BF92CF92DF92EF92FF920F93B8
:102C80001F93CF93DF938C01C090E101D090E201BC
:102C9000E090E301F090E4018091E5019091E6017C
:102CA000A091E701B091E801C82AD92AEA2AFB2AB3
:102CB000CFE1D0E0D701C6010C2E04C0B695A79590
:102CC000979587950A94D2F780FD04C0219790F7D5
:102CD000B12C07C0BC2EB8018C2F0E94A105019712
:102CE000A9F38B2DDF91CF911F910F91FF90EF9062
:102CF000DF90CF90BF900895CF93DF93EC010E94B7
:102D00003A16BE010E94A105DF91CF9108951F934D
:102D1000CF93DF93EB0190918001992321F0CB01B8
:102D20000E947C1613C0882349F0CB010E943A16FA
:102D3000182F682FCE010E94E11504C0CB010E941C
:102D40000D16182FBE01812F0E94A105DF91CF9192
:102D50001F9108958091E901859585958595089540
:102D60008091E901877008959091E901977081E061
:102D700009F480E008958091F50108959091F5019E
:102D8000892B8093F501089580959091F501892311
:102D90008093F50108951092F50108959091F40142
:102DA000892B8093F401089580959091F4018923F3
:102DB0008093F40108951092F40108959091F30125
:102DC000892B8093F301089580959091F3018923D5
:102DD0008093F30108951092F30108958091EA0120
:102DE000089508950C94F1160C94F2169091EA014E
:102DF000981721F08093EA010C94F41608958091BD
:102E0000EA01882329F01092EA0180E00C94F4167C
:102E10000895E0910901F0910A018091F501808304
:102E2000E0910901F0910A0190818091F401892BD0
:102E30008083E0910901F0910A0190818091F30172
:102E4000892B80838091EA01882381F0E091090138
:102E5000F0910A019081892B8083809109019091E2
:102E60000A010E94041881110E94FF168091090135
:102E700090910A010C94FB0B0C94F11698E0899F39
:102E800090011124262B2093E9010E944315809183
:102E9000E9018595859585950C943C171092E9017B
:102EA00080E00C943C172091E90180958223809367
:102EB000E901982F977079F430E0482F082E000C24
:102EC000550B2417350739F08595859585950E9412
:102ED00064150C944E170895909347018093460112
:102EE00008958295982F937344E0949F9001112444
:102EF0008C7C86958695282B822F8575880F2A7A5B
:102F00002695822B089580E090E00E942D2121E0FB
:102F10008D3E9E4F09F020E0822F089582E090E0E0
:102F20000C94252183E090E00C942521682F83E008
:102F300090E00C94332184E090E00C942521682FDC
:102F400084E090E00C943321AB01BC018FE090E071
:102F50000C944521AB01BC0183E190E00C94452128
:102F600060E070E0CB010C94AA1760E070E0CB0148
:102F70000E94A4170C94B0176DEE7EEF80E090E0F5
:102F80000E94512160E082E090E00E94332160E0E5
:102F900083E090E00E9433211092E5011092E60157
:102FA0001092E7011092E80160E084E090E00E9456
:102FB000332160E085E090E00E94332160E086E00C
:102FC00090E00E9433216FEF87E090E00E94332170
:102FD00040E050E0BA0188E090E00E94452160E0C6
:102FE0008DE090E00E94332140E050E0BA0188E19A
:102FF00090E00E94452160E087E190E00E9433214B
:103000000C94B5170C94BC17FC01329697E080E045
:10301000915029F021912223D9F38F5FF9CF0895A0
:103020009C01FC0132969FEF80E04191461789F0A8
:103030009F3F19F4411101C0982F8F5F8630A9F787
:103040009F3F39F0F901E90FF11D97FDFA95628371
:10305000089508959C012A5F3F4FFC014281461369
:1030600001C01282019682179307B9F708950C9454
:1030700010180C942A18029626E0FC0111922A9549
:10308000E9F7089508950C9442180C944218CF93D0
:103090000E9445180E9441090E944318C0E08C2FED
:1030A0000E940508811104C0CF5FCA30C1F701C07A
:1030B00081E0CF9108950C9442180C945B180E9403
:1030C0005D1880911202843049F11092F70120E4DA
:1030D00088E190E00FB6F894A895809360000FBE49
:1030E0002093600080E00E9410040E945D1883B766
:1030F000817F846083BF83B7816083BF7894889524
:1031000083B78E7F83BF0FB6F894A8958091600037
:10311000886180936000109260000FBE08950C9447
:1031200042180E94F6100E94EF0B0E9410040C94AB
:103130008F181F920F920FB60F9211248F939F93A7
:10314000AF93BF938091F701811113C08091080262
:1031500090910902A0910A02B0910B024196A11D23
:10316000B11D8093080290930902A0930A02B093C4
:103170000B02BF91AF919F918F910F900FBE0F9057
:103180001F90189582E084BD93E095BD9AEF97BD9E
:1031900080936E0008952FB7F89480910802909163
:1031A0000902A0910A02B0910B022FBF0895CF929D
:1031B000DF92EF92FF920F931F932FB7F8944091F5
:1031C00008025091090260910A0270910B022FBF10
:1031D0006A017B01EE24FF248C0120E030E0C01660
:1031E000D106E206F30610F4415051099A01281B5A
:1031F000390BC9011F910F91FF90EF90DF90CF9095
:10320000089578941F920F920FB60F9211248F9306
:103210009F93AF93BF938091080290910902A09170
:103220000A02B0910B020196A11DB11D8093080204
:1032300090930902A0930A02B0930B02BF91AF9141
:103240009F918F910F900FBE0F901F90189581E066
:103250008093E00080E28093D8001092C9008FE153
:103260009EE40197F1F700C0000087E090EBDC01DD
:1032700080931B0290931C02A0931D02B0931E0228
:103280009CE088E10FB6F894A895809360000FBE8B
:1032900090936000FFCF0E948317811102C00E94AB
:1032A00002180E948E178093F6010E949B1790E0EF
:1032B00090930D0280930C020E949217682F70E089
:1032C00080E090E00C94E314809103020895089547
:1032D0009FB7F8941092FA019FBF90911202943018
:1032E00009F057C09091E9009F703091EC00232FB6
:1032F000217030FD20E8922B23E02093E9002091FB
:10330000EB0020FF43C02091EE0027FF3FC020913B
:10331000F801222321F02091E80025FF37C0109208
:10332000F80126E03091E80035FD15C03091120219
:10333000343061F53091EB0035FD28C0215021F487
:1033400081E08093F80122C0EFE9FFE03197F1F7C7
:1033500000C00000E7CF8093F1008091E80085FD78
:103360000AC08091E80080FFFCCF8091E8008E7752
:103370008093E80006C08FB7F89421E02093FA010B
:103380008FBF9F709093E90080E008959F709093A5
:10339000E9008FEF08950F931F93CF93DF9300D031
:1033A0001F92CDB7DEB78C010E94591C823011F0FC
:1033B000843021F584E089831B830A8382E0809333
:1033C000E9008FEF9091E800815095FD06C095EDE2
:1033D0009A95F1F700008111F5CF8091E80085FF03
:1033E0000DC040E050E063E070E0CE0101960E9425
:1033F000761C8091E8008E778093E8000F900F9004
:103400000F90DF91CF911F910F910895CF93DF938C
:1034100000D01F92CDB7DEB720911202243031F5D3
:1034200023E02983805891099B838A8382E08093DB
:10343000E9008FEF9091E800815095FD06C095ED71
:103440009A95F1F700008111F5CF8091E80085FF92
:103450000DC040E050E063E070E0CE0101960E94B4
:10346000761C8091E8008E778093E8000F900F9093
:103470000F90DF91CF910895CF93DF93EC010E94DD
:10348000591C823011F0843039F581E08093E900D5
:103490008FEF9091E800815095FD06C095ED9A95CB
:1034A000F1F700008111F5CF8091E80085FF14C08D
:1034B00040E050E068E070E0CE010E94761C809110
:1034C000E8008E778093E80088E0FE01ABEFB1E082
:1034D00001900D928A95E1F7DF91CF91089582EBEB
:1034E00093E00E94CA0280911102811109C00E94DA
:1034F000071E0E94641E8091E20084608093E200B7
:1035000008958EEA93E00E94CA0210921102089573
:103510008AEA93E00C94CA0286EA93E00C94CA0209
:1035200082EA93E00E94CA020C9491182091F9015A
:103530002F5F822F62E30E941321992319F02093B9
:10354000F90108951092F9018091FA01882371F12F
:1035500080911202843041F58091E9008F702091B2
:10356000EC00922F917020FD90E8892B93E09093CE
:10357000E9009091EB0090FF14C09091EE0097FF4E
:1035800010C09091E80095FF03C01092F100F9CFB0
:103590009091E80090FF05C09091E8009E7790938D
:1035A000E8008F708093E9001092FA01089542E0DC
:1035B00061EC81E00E94801D42E261EC82E00E94A9
:1035C000801D42E261EC83E00C94801D8091140226
:1035D000833009F460C030F4813071F0823009F436
:1035E00099C008958A3009F485C08B3009F46BC006
:1035F000893009F0A7C020C080911302813A09F0F8
:10360000A1C08091E800877F8093E8008091170235
:1036100090911802892B21F468E08BEF91E003C0B0
:1036200060E080E090E070E00E94C11C8091E800C2
:103630008B778093E800089580911302813209F01E
:1036400081C08091170290911802029708F07AC009
:103650008091E800877F8093E8008091E80082FDF8
:1036600005C0809112028111F8CF6CC02091F30047
:103670008091F20090E0922B029729F48091F10062
:103680008B7F813021F48091F1008093030280913F
:10369000E8008B7753C080911302813A09F052C041
:1036A0008091170290911802892B09F04BC08091EC
:1036B000E800877F8093E8008091E80080FFFCCFDE
:1036C0008091150136C0809113028132D9F5809125
:1036D000170290911802892BA9F58091E800877F45
:1036E0008093E8000E94B51D80911502809315011A
:1036F0000C94F61080911302813221F58091E8003C
:10370000877F8093E8000E94B51D80911602809308
:103710000402089580911302813AA1F48091E80097
:10372000877F8093E8008091E80080FFFCCF809144
:1037300004028093F1008091E8008E778093E80086
:103740000C94B51D089584B7877F84BF0FB6F89495
:10375000A89580916000886180936000109260005D
:103760000FBE80E880936100109261000E947E0C81
:103770000E94071E0E94641E8091E2008460809374
:10378000E20088E699E10E946C1778940E94F82084
:103790000E94840C8BE091E00E94EA0B81E993E0A7
:1037A0000E94CA0280911202853089F48DE893E06C
:1037B0000E94CA020E945F1880911002882391F330
:1037C0000E944718882371F30E94601CEBCF0E946F
:1037D000B40CE8CF0C94EC1B292F33272330310590
:1037E000C9F060F42130310581F02230310509F053
:1037F00047C08BE590E024EE33E046C0213231052E
:1038000011F12232310561F13BC082E190E02FE3FA
:1038100034E03AC099278130910561F040F0823060
:10382000910559F0039761F5E6EBF3E008C0E0EE8F
:10383000F3E005C0E2EDF3E002C0ECEBF3E08491CD
:1038400090E09F0121C063307105D0F4660F771FAF
:10385000FB01E15CFE4F2081318189E090E014C0E2
:103860006330710568F4FB01EE0FFF1FE75CFE4F4C
:1038700020813181FB01EA5CFE4F808190E004C031
:1038800080E090E020E030E0FA0131832083089569
:103890000895CF93C82F0E94481CC0930502CF9172
:1038A000089580911202843011F081E0089582E041
:1038B000089580910502811102C00C94511C089555
:1038C00080E189BD82E189BD09B400FEFDCF809110
:1038D000D8008F7D8093D8008091E0008260809333
:1038E000E0008091E00081FDFCCF0895CF92DF924F
:1038F000EF92FF920F931F93CF93DF93EC018B0115
:103900007A010E94D41D811133C0E114F10439F011
:10391000F70180819181081B190BC80FD91FC12C99
:10392000D12C0115110519F18091E80085FD16C013
:103930008091E8008E778093E800E114F10449F06B
:10394000F70180819181C80ED91ED182C08285E0A5
:103950000FC00E94D41D882321F30AC0899180934F
:10396000F10001501109FFEFCF1ADF0ADACF80E032
:10397000DF91CF911F910F91FF90EF90DF90CF904B
:1039800008952091190230911A022617370748F03E
:103990006115710539F42091E8002E772093E80035
:1039A00001C0B901FC0120E06115710579F1809138
:1039B00012028823F1F18530F1F18091E80083FD56
:1039C0003CC08091E80082FD2EC08091E80080FF1D
:1039D000EBCF2091F3008091F20090E0922B6115E3
:1039E000710551F08830910538F421912093F10050
:1039F000615071090196F3CF21E0089709F020E0AA
:103A00008091E8008E778093E800CECF2111CFCF50
:103A10000AC080911202882361F0853061F08091A4
:103A2000E80083FD0AC08091E80082FFF2CF80E0C9
:103A3000089582E0089583E0089581E0089520913B
:103A4000190230911A022617370748F061157105DF
:103A500039F42091E8002E772093E80001C0B901E5
:103A6000FC0120E06115710591F18091120288231B
:103A700009F440C0853009F43FC08091E80083FD1F
:103A80003DC08091E80082FD2FC08091E80080FF5A
:103A9000E9CF2091F3008091F20090E0922B611524
:103AA000710559F08830910540F424912093F1007C
:103AB0003196615071090196F2CF21E0089709F023
:103AC00020E08091E8008E778093E800CBCF211131
:103AD000CCCF0AC080911202882361F0853061F05A
:103AE0008091E80083FD0AC08091E80082FFF2CF58
:103AF00080E0089582E0089583E0089581E00895CC
:103B0000982F973068F59093E900981739F07091E5
:103B1000EC002091ED005091F00003C0242F762F8F
:103B200050E021FD02C09F5FECCF3091EB003E7F63
:103B30003093EB003091ED003D7F3093ED003091FC
:103B4000EB0031603093EB007093EC002093ED00BC
:103B50005093F0002091EE0027FDE5CF80E008951E
:103B60008F708093E90081E008958091130287FFB0
:103B700011C08091E80082FD05C080911202811180
:103B8000F8CF11C08091E8008B770BC080911202B2
:103B9000882349F08091E80080FFF8CF8091E80009
:103BA0008E778093E80008952091E4003091E5003D
:103BB00095E64091EC00842F817040FF23C08091F6
:103BC000E80080FD1DC080911202882399F08530A5
:103BD00099F08091EB0085FD11C04091E400509177
:103BE000E5002417350729F3915011F09A01E1CF30
:103BF00084E0089582E0089583E0089581E00895C7
:103C000080E008954091E80042FFDDCF08950E94D2
:103C1000751E0E947D1EE0EEF0E080818160808351
:103C2000E8EDF0E080818F77808319BCA7EDB0E0EC
:103C30008C918E7F8C9380818F7E80831092110275
:103C400008950F931F93CF93DF930E94751E0E94D8
:103C50007D1EC8EDD0E088818F7788838881806859
:103C6000888388818F7D888319BC109212021092FC
:103C70000E021092100210920F0200EE10E0F801F6
:103C800080818B7F808388818160888342E060E0CF
:103C900080E00E94801DE1EEF0E080818E7F8083D5
:103CA000E2EEF0E0808181608083808188608083A3
:103CB000F80180818E7F8083888180618883DF9195
:103CC000CF911F910F910895E8EDF0E080818F7EF4
:103CD0008083E7EDF0E080818160808384E082BFB3
:103CE00081E0809311020C94211EE8EDF0E08081C8
:103CF0008E7F80831092E20008951092DA00109275
:103D0000E10008951F920F920FB60F9211242F9386
:103D10003F934F935F936F937F938F939F93AF9353
:103D2000BF93EF93FF938091E10082FF0BC08091DE
:103D3000E20082FF07C08091E1008B7F8093E10069
:103D40000E94961A8091DA0080FF1FC08091D800EF
:103D500080FF1BC08091DA008E7F8093DA00809113
:103D6000D90080FF0DC080E189BD82E189BD09B421
:103D700000FEFDCF81E0809312020E946F1A05C001
:103D800019BC109212020E94811A8091E10080FFFA
:103D900019C08091E20080FF15C08091E2008E7F03
:103DA0008093E2008091E20080618093E200809144
:103DB000D80080628093D80019BC85E080931202FD
:103DC0000E948C1A8091E10084FF30C08091E20053
:103DD00084FF2CC080E189BD82E189BD09B400FE69
:103DE000FDCF8091D8008F7D8093D8008091E10035
:103DF0008F7E8093E1008091E2008F7E8093E200CD
:103E00008091E20081608093E20080910E0288231D
:103E100011F084E007C08091E30087FD02C081E0DB
:103E200001C083E0809312020E94901A8091E10009
:103E300083FF29C08091E20083FF25C08091E100CB
:103E4000877F8093E10082E08093120210920E023D
:103E50008091E1008E7F8093E1008091E2008E7F6F
:103E60008093E2008091E20080618093E20042E072
:103E700060E080E00E94801D8091F0008860809367
:103E8000F0000E94881AFF91EF91BF91AF919F912E
:103E90008F917F916F915F914F913F912F910F90F3
:103EA0000FBE0F901F9018951F920F920FB60F9292
:103EB00011242F933F934F935F936F937F938F932F
:103EC0009F93AF93BF93CF93DF93EF93FF93C091F3
:103ED000E900CF708091EC00D82FD17080FDD0E840
:103EE0001092E9008091F000877F8093F000789431
:103EF0000E94981F1092E9008091F00088608093E2
:103F0000F000CD2BCF70C093E900FF91EF91DF91CE
:103F1000CF91BF91AF919F918F917F916F915F9161
:103F20004F913F912F910F900FBE0F901F901895BA
:103F30001F93CF93DF93CDB7DEB7AA970FB6F89450
:103F4000DEBF0FBECDBFE3E1F2E08091F1008193CF
:103F500022E0EB31F207C9F70E94E61A8091E800EF
:103F600083FF2EC18091130290911402492F50E0DB
:103F70004A30510508F024C1FA01E556FF4F0C9470
:103F80001F21803821F0823809F01AC108C08091C1
:103F90000F0290911002992389F082600FC08091E6
:103FA00017028F70873008F00BC18093E900809171
:103FB000EB0085FB882780F91092E9009091E800DA
:103FC000977F9093E8008093F1001092F100D1C0A8
:103FD000282F2D7F09F0F4C0882319F0823061F07A
:103FE000EFC080911502813009F0EAC0933009F0EA
:103FF00080E0809310022EC08091150281112AC0AA
:10400000809117028F702FEF280F263008F0D8C04C
:104010008093E9002091EB0020FF1CC0933021F435
:104020008091EB00806214C09091EB0090619093BE
:10403000EB0021E030E0A90102C0440F551F8A9532
:10404000E2F74093EA001092EA008091EB0088606A
:104050008093EB001092E9008091E800877F8093C5
:10406000E8000E94B51DACC08111AAC010911502D4
:104070001F778091E3008078812B8093E30080910B
:10408000E800877F8093E8000E94B51D8091E800DA
:1040900080FFFCCF8091E30080688093E3001111E2
:1040A00002C082E001C083E08093120289C0805880
:1040B000823008F085C080911502909116028C3DE7
:1040C00053E0950779F583E08A838AE289834FB7C5
:1040D000F894DE01139620E03EE051E2E32FF0E099
:1040E00050935700E49120FF03C0E295EF703F5FCB
:1040F000EF708E2F90E0EA3010F0C79601C0C096A6
:104100008D939D932F5F243149F74FBF8091E80035
:10411000877F8093E8006AE270E0CE0101960E94FA
:10412000C11C16C06091170270911802AE014F5F5A
:104130005F4F0E94EA1BBC01892B09F441C090919A
:10414000E800977F9093E80089819A810E941F1D63
:104150008091E8008B778093E80032C0803881F549
:104160008091E800877F8093E80080910E02809321
:10417000F1008091E8008E7772CF811121C080918B
:1041800015029091160299270297D4F48091E800C5
:10419000877F8093E8008091150280930E020E9431
:1041A000B51D80910E02811106C08091E30087FD4C
:1041B00002C081E001C084E0809312020E94D71AFD
:1041C0008091E80083FF0AC08091E800877F809398
:1041D000E8008091EB0080628093EB00AA960FB616
:1041E000F894DEBF0FBECDBFDF91CF911F91089530
:1041F000CF93809112028823A1F0C091E900CF7083
:104200009091EC00892F817090FD80E8C82B10926E
:10421000E9008091E80083FD0E94981FCF70C09351
:10422000E900CF910895991B79E004C0991F961772
:1042300008F0961B881F7A95C9F780950895EE0FB0
:10424000FF1F0590F491E02D0994F999FECF92BDDE
:1042500081BDF89A992780B50895A8E1B0E042E0C1
:1042600050E00C945921262FF999FECF92BD81BDC3
:10427000F89A019700B4021639F01FBA20BD0FB6A4
:10428000F894FA9AF99A0FBE08950396272F0E9480
:1042900034210E943321252F0E943421242F0C9495
:1042A00034210196272F0E9434210C943321DC0104
:1042B000CB01FC01F999FECF06C0F2BDE1BDF89A31
:1042C000319600B40D9241505040B8F70895F894DB
:0242D000FFCF1E
:1042D200016301006401066401EB0164193C1A6781
:1042E20019061ACB1901F4F667663694F1F5F7351B
:1042F20034000000000000FF0100010000FFFF0089
:1043020000010001FF00403622A90473045104F6A3
:06431200030F0428040063
:00000001FF
