:100000000C9494040C94DB040C94DB040C94DB043B
:100010000C949B160C94DB040C94DB040C94DB0412
:100020000C94DB040C94DB040C94D5290C94A72AC3
:100030000C94EA230C94DB040C94DB040C94DB0496
:100040000C94DB040C94DB040C94DB040C94DB04B4
:100050000C94DB040C9452240C94DB040C94DB040D
:100060000C94DB040C94DB040C94DB040C94DB0494
:100070000C94DB040C94DB040C94DB040C94DB0484
:100080000C94DB040C94DB040C94DB040C94DB0474
:100090000C94DB040C94DB040C94DB040C94DB0464
:1000A0000C94DB040C94DB040C94DB04E207E407FF
:1000B000EF07E607E807EA07EC07EE07F107F307A3
:1000C000F5070008F707F907FB07FD07FF07020818
:1000D0001A1A1A1A4C1A4C1A8A1ACC1BCC1BCC1B93
:1000E000A81ACC1B4B1B4B1BBC1BCC1BCC1BC51B16
:1000F000581B581B581B581B581B581B581B581B68
:10010000581B581B581B581B581B581B581B581B57
:10011000691B771B7E1B851B8F1B591C591C6B1C75
:100120006B1C621C6B1C6B1C6B1C591C591C671CC8
:100130006B1C6B1C671C142B3B2B332C3B2B332C65
:10014000872BAA2B332C012C102C07634236B79B2C
:10015000D8A71A39685618AEBAAB558C1D3CB7CC27
:100160005763BD6DEDFD753EF6177231BF0000009F
:10017000803F05A84CCDB2D44EB93836A9020C50F8
:10018000B9918688083CA6AAAA2ABE000000803F32
:10019000165C1E001F002000210022002B0014000E
:1001A0001A00080015001700394204001600070065
:1001B00009000A00E1001D001B00060019000500EF
:1001C000E000E300E200C25CF35C2C0023002400AA
:1001D0002500260027002A001C0018000C00120031
:1001E000130031000B000D000E000F00330034002F
:1001F0001100100036003700380028002C00F25C97
:100200005000510052004F00165C1E001F002000DD
:10021000210022002B0014001A0009001300050021
:10022000394204001500160017000A00E1001D0005
:100230001B00060007001900E000E300E200C25CBA
:10024000F35C2C00230024002500260027002A0050
:100250000D000F0018001C00330031000E001100CB
:1002600008000C001200340010000B0036003700AC
:10027000380028002C00F25C5000510052004F0062
:100280003A003B003C003D003E003F0001004E00B4
:1002900052004B00010001000100500051004F00CE
:1002A0000100010001000100010001000100010046
:1002B000010001000100C35C010001004000410099
:1002C000420043004400450001004E0052004B0034
:1002D00046004A000100500051004F0049004D0007
:1002E0000100010001000100010001000100AE0059
:1002F000AB00A800AA00A9003A003B003C003D006A
:100300003E003F000100C85CC95CC75C005C0100A6
:100310000100C65CCA5CC55CF45C01000100010020
:100320000100010001000100010001000100C35CA7
:10033000010001004000410042004300440045002C
:100340000100010001000100010001000100F05C5A
:10035000F15C01000100010001000100C25CC55C0C
:10036000C75CC95C01000100C45CC65CC85CCA5CB7
:1003700044454255473A20656E61626C65642E0AB9
:10038000000A0025303862003A200025303258003B
:100390000A722F632030313233343536370A007217
:1003A00067626C696768742074696D65722064693E
:1003B0007361626C652E0A007267626C69676874AB
:1003C0002074696D657220656E61626C65642E0AC9
:1003D000007267626C696768742073657420687363
:1003E00076205B4E4F454550524F4D5D3A20257566
:1003F0002C25752C25750A007267626C6967687414
:100400002073657420687376205B454550524F4DCC
:100410005D3A2025752C25752C25750A00726762BA
:100420006C69676874207261696E626F77207365AA
:1004300074206873763A2025752C25752C25642C3C
:1004400025750A007267626C696768742064697355
:1004500061626C65205B454550524F4D5D3A20729C
:1004600067626C696768745F636F6E6669672E6543
:100470006E61626C65203D2025750A007267626CB2
:100480006967687420656E61626C65205B454550E4
:10049000524F4D5D3A207267626C696768745F63A2
:1004A0006F6E6669672E656E61626C65203D202502
:1004B000750A007267626C6967687420746F676799
:1004C0006C65205B454550524F4D5D3A2072676226
:1004D0006C696768745F636F6E6669672E656E61CD
:1004E000626C65203D2025750A007267626C696741
:1004F0006874206D6F6465205B4E4F454550524FC8
:100500004D5D3A2025750A007267626C69676874F0
:10051000206D6F6465205B454550524F4D5D3A201C
:1005200025750A007267626C696768745F696E6935
:1005300074207267626C696768745F636F6E666966
:10054000672E6D6F6465203D20302E2057726974D0
:10055000652064656661756C742076616C75657381
:1005600020746F20454550524F4D2E0A007267622D
:100570006C696768745F696E6974206565636F6E26
:10058000666967206973206E6F7420656E61626CA6
:1005900065642E0A007267626C696768745F696ED1
:1005A0006974207374617274210A007267626C69E5
:1005B0006768745F696E69742063616C6C65642E32
:1005C0000A007267626C696768745F636F6E666960
:1005D000672E7370656564203D2025640A0072678C
:1005E000626C696768745F636F6E6669672E7661B7
:1005F0006C203D2025640A007267626C696768742C
:100600005F636F6E6669672E736174203D20256499
:100610000A007267626C696768745F636F6E66690F
:10062000672E687565203D2025640A007267686C36
:10063000696768745F636F6E6669672E6D6F646566
:10064000203D2025640A007267626C696768745FE8
:10065000636F6E6669672E656E61626C65203D2012
:1006600025640A007267626C696768745F636F6E05
:10067000666967206570726F6D0A0000047F3F1F16
:10068000643214643214783C1E1E140A056801F0AA
:1006900000B40078005A00000000000001010101D0
:1006A000010101010102020202020202020203032D
:1006B00003030303030304040404040405050505FC
:1006C00005060606060607070707080808080909B9
:1006D000090A0A0A0A0B0B0B0C0C0C0D0D0D0E0E61
:1006E0000F0F0F10101111111212131314141515EE
:1006F00016161717181819191A1A1B1C1C1D1D1E5F
:100700001F1F2020212222232425252627272829B0
:100710002A2B2B2C2D2E2F2F3031323334353636D9
:100720003738393A3B3C3D3E3F40414243444647DF
:1007300048494A4B4C4D4F50515253555657585AB1
:100740005B5C5E5F606263646667696A6C6D6E7055
:100750007173747678797B7C7E8081838486888AC5
:100760008B8D8F91929496989A9B9D9FA1A3A5A7FC
:10077000A9ABADAFB1B3B5B7B9BBBDBFC1C4C6C8F6
:10078000CACCCFD1D3D6D8DADCDFE1E4E6E8EBEDB2
:10079000F0F2F5F7FAFCFF0A002530325820006B22
:1007A0006579626F6172645F7265706F72743A200E
:1007B000000A0025303258006B6579626F617264FF
:1007C0005F7365745F6C65643A20005B735D004B1A
:1007D0006579626F6172642073746172742E0A00AD
:1007E0005B575D005B535D005B525D005B445D00E9
:1007F0005B435D0004033000000014035A007900DD
:1008000067006F006D006F007200700068000000EC
:100810000C035200470042004B004200000004035A
:10082000090409025B00030100A0FA0904000001A9
:100830000301010009211101000122400007058187
:100840000308000A09040100010300000009211146
:100850000100012236000705820320000A09040274
:1008600000020300000009211101000122220007FB
:100870000583032000010705030320000112011076
:100880000100000008EDFE603001000102030106D6
:1008900031FF0974A1010975150026FF0095207527
:1008A0000881020976150026FF009520750891023F
:1008B000C005010980A10185031601002603001A65
:1008C00081002A8300751095018100C0050C090183
:1008D000A1018504160100269C021A01002A9C022F
:1008E000751095018100C005010906A101050719D0
:1008F000E029E7150025019508750181029501752C
:1009000008810105081901290595057501910295D0
:1009100001750391010507190029FF150026FF0045
:10092000950675088100C00011241FBECFEFDAE0E4
:10093000DEBFCDBF04B603FE27C08091B9029091FF
:10094000BA02A091BB02B091BC028730904BA74085
:10095000B04BD1F41092B9021092BA021092BB02BD
:100960001092BC0214BE84B7877F84BF0FB6F89480
:10097000A89580916000886180936000109260006B
:100980000FBEE0E0F8E3099511E0A0E0B1E0E0E897
:10099000F0E602C005900D92A837B107D9F722E022
:1009A000A8E7B1E001C01D92A93BB207E1F70E94A0
:1009B000F4260C943E300C940000FF93EF93E091EA
:1009C0007801F0917901309709F00995EF91FF9145
:1009D0000895FC018591803011F0EFDFFBCF089581
:1009E000FF27E0E230E247FF0CC0419597FF09C0C6
:1009F000EDE26095709580959095611D711D811D4A
:100A0000911D27FF02C0219530E350E2AA27660F0F
:100A1000771F881F991FAA1FA41710F0A41B6395A6
:100A20005A95A9F7AA3008F0A95FA05DAF93F39596
:100A3000611571058105910541F7ED3211F4EF93D0
:100A4000F395F21718F43F93F395FBCF8F91B5DF31
:100A5000FA95E1F70895E991F9918591803021F0B7
:100A6000853219F0AADFF9CF089520E0E894559176
:100A70005532C1F3503311F4689455915A3348F408
:100A8000505390F3220F022E220F220F200D250F1C
:100A9000F4CF0EF4219589919991533619F3533778
:100AA00029F1533559F1BC0188279927E8945C3620
:100AB00021F48991999168945591543639F446EF0F
:100AC0007EF077FF0DC08FEF9FEF0AC055374AE0E9
:100AD00039F0583540E121F0523642E009F00895EE
:100AE000FF93EF937DDFEF91FF91B7CFFF93EF93EC
:100AF000FC0181918030B9F360DFFBCFFF93EF936E
:100B000068DFF1CFDF93CF93CDB7DEB72596A3DFB4
:100B1000CF91DF910895811106C0662311F08EE414
:100B200009C08BE407C0813039F4662311F082E5F7
:100B300001C081E50C94CF190895CF93FB01823F4A
:100B40002CE59207E9F040F4803F2CE5920761F034
:100B5000813F9C4571F02AC0833F2CE59207C1F08C
:100B6000843F9C45D9F022C0C281CC2301F180E0B2
:100B700004C0C281CC23D9F081E00E94170606C0D0
:100B8000C28182E0CC2339F00E949420C0E00FC0E3
:100B9000C28183E0F7CF0E94B52009C0C281CC2377
:100BA00029F00E940E0E0E94DA1301C0C1E08C2FC2
:100BB000CF91089581E008950C949D051F93CF93E4
:100BC000DF9300D000D01F92CDB7DEB749835A83A0
:100BD0006B832091BF0189819A81211112C0662304
:100BE00049F00E948B21182F682F89819A810E94D9
:100BF000322103C00E945E21182F69817A81812FE2
:100C000004C00E948B2169817A810F900F900F9010
:100C10000F900F90DF91CF911F910C94B408FC01BD
:100C2000408151816281738184810C94DE05CF9370
:100C3000DF9361E070E0EB0102C0CC0FDD1F8A950D
:100C4000E2F78C2F0E94E722BE0180E090E0DF9166
:100C5000CF910C9434200E94D422811102C00E94B2
:100C600053230E9472150C94310B0E9488150C942A
:100C70002D0B08950C9439060C943A0608950E94A1
:100C8000471C0E943E062FEF84E39CE021508040E9
:100C90009040E1F700C000000C9478240F931F935C
:100CA000CF93DF938C010E940F06EC01B8010E94E4
:100CB000DC05882309F44EC2CC3C8CE5D80709F446
:100CC000DEC0E8F5C43CECE5DE0709F4A8C0F8F4A2
:100CD000C5318CE5D80778F4C2309CE5D90708F017
:100CE0004FC1C115ECE5DE0709F467C0C130DC4532
:100CF00009F46BC023C2C23C8CE5D80709F47CC060
:100D000008F081C0C631DC4509F4F1C117C2F80111
:100D10008281C83CFCE5DF0709F49CC040F4C63C76
:100D2000ECE5DE0709F48CC008F485C08EC0CA3C2F
:100D30009CE5D90709F498C008F491C09AC0C43D55
:100D4000FCE5DF0709F4F5C0C0F4F8018281C03D7D
:100D5000FCE5DF0709F4BCC040F4CE3CECE5DE075F
:100D600009F49AC008F493C0A5C0C23D9CE5D90718
:100D700009F4CCC008F4BCC0D7C0C93DFCE5DF070E
:100D800009F49AC160F4C73D9CE5D90709F44AC14A
:100D900008F06BC1C53DDC4509F4DBC0CFC1CD3DDA
:100DA0008CE5D80709F4E3C0CE3D9CE5D907E1F016
:100DB000CC3DDC4509F0C2C1D3C0F8018281882353
:100DC00009F4C8C10E943F06C5C1F8018281882389
:100DD00009F4C0C18091350281608093350280E7BB
:100DE00093E00E94E904B6C1F8018281882309F4E6
:100DF000B1C10E945323AEC1F80182818111AAC101
:100E00000E948914A7C1F8018281882309F4A2C134
:100E10000E940C22827261F00E94D4139BC1F801DF
:100E20008281882309F496C10E940C228272A1F368
:100E30000E94C6138FC181118DC10E94F0108AC11A
:100E4000811188C10E94131185C1811183C10E9443
:100E5000331180C181117EC10E9453117BC1811168
:100E600079C10E94731176C1811174C10E949311DE
:100E700071C1882309F46EC10E94AE0E6BC1F801E6
:100E80008281882309F466C10E94C30E63C188234E
:100E900009F460C181E029C0882309F45BC10E9484
:100EA000A50E823028F00E94A50E853008F4C0CF30
:100EB00082E01BC0882309F44DC10E94A50E863034
:100EC00028F00E94A50E883008F4B2CF86E00DC04D
:100ED000882309F43FC10E94A50E893028F00E94A2
:100EE000A50E8E3008F4A4CF89E00E94D71332C13A
:100EF000882309F42FC10E94A50E8F3028F00E948C
:100F0000A50E843108F494CF8FE0EFCF882309F445
:100F100021C10E94A50E853128F00E94A50E8731BF
:100F200008F486CF85E1E1CF882309F413C188E175
:100F3000DCCFF8018281882309F40CC10E94A50E40
:100F4000893128F00E94A50E823208F471CF89E120
:100F5000CCCFF8018281882309F4FCC083E2C5CF9D
:100F6000F8018281882309F4F5C080E006C0F80109
:100F70008281882309F4EEC082E00E949C27EAC0A7
:100F8000F8018281882309F4DEC00E94D4228111F5
:100F900002C00E9453230E94EC2290E09093AB0287
:100FA0008093AA02FE01E350FC45E231F10530F4E2
:100FB000EA5AFF4F8091AA020C94E32F8091AA0273
:100FC000816027C0826025C0846023C0806121C009
:100FD00080621FC080641DC080681BC08460886000
:100FE00018C08E7F16C08D7F14C08B7F12C08F7E7D
:100FF00010C08F7D0EC08F7B0CC08F770AC08B7F97
:10100000877F07C087FB222720F991E0922790FB7A
:1010100087F98093AA028091AA020E94F0220E947E
:10102000471C98C0F8018281882351F010927F01FB
:101030000E941C2490937C0180937B0182E022C05B
:1010400080917F0181110FC080917B0190917C0183
:101050000E9428248639910530F486E20E94E01827
:1010600086E20E94A31982E024C0F80182818823CD
:1010700061F0109280010E941C2490937E01809365
:101080007D0180E20E94D71965C0809180018111A5
:101090000FC080917D0190917E010E9428248639A5
:1010A000910530F487E20E94E01887E20E94A319BC
:1010B00080E20E94DE194EC0F80182818111D9CFF1
:1010C000809180018111F4CF80917D0190917E010A
:1010D0000E9428248639910558F780E20E94DE1983
:1010E00088E20E94E01888E20E94A31933C00E949F
:1010F0000C22982FF801828120911701309118015C
:10110000882379F09A7A81E009F480E080937A016B
:10111000911102C069E201C065E3C9010E94882300
:101120000AC080917A01811102C069E201C065E3C1
:10113000C9010E948A230E945A220CC081E0809338
:101140007F0180938001C801DF91CF911F910F91A2
:101150000C94DA0580E0DF91CF911F910F910895F3
:1011600080E090E0089508952CE3829FC00111244F
:10117000FC0126E0729FE00DF11D1124E60FF11D28
:10118000EE0FFF1FE057FE4F859194910895880F51
:10119000991FFC01EF57FC4F859194910895CF93CF
:1011A000DF930E94B4080E948B0AEC0181159045E0
:1011B00008F041C0C11580E4D80708F028C1C83E36
:1011C000D10510F5C03ED10508F0A1C1C83AD1053E
:1011D00078F4C53AD10508F0A2C0C130D10509F4B0
:1011E00096C108F447C1C430D10508F090C142C18E
:1011F000CF3BD10508F49EC0C03CD10508F43AC1EC
:10120000CE01805C9109F5C0C11590E2D90758F470
:10121000C11521E0D20708F07AC1C03FD10508F41A
:1012200029C1D06574C1C11580E3D80708F0E5C0B5
:10123000CE019F70DEC0C11595E5D90708F043C007
:10124000C11524E5D20708F0F9C0C11582E5D80719
:1012500008F5C11591E5D90708F0DCC0CE0174E0AE
:10126000969587957A95E1F783709C2F937021E08E
:1012700030E002C0220F331F9A95E2F73C68382B0A
:10128000CF70C695C69580E2C89FE0011124C22B9D
:10129000D32B3DC19E01237033278C2F86958695D5
:1012A000C115D34508F0BBC0C1E0D0E002C0CC0FEF
:1012B000DD1F2A95E2F720E2829FC0011124C82B8E
:1012C000D92BDC6824C1C11529E5D207A0F4C115CA
:1012D00088E5D80708F0B7C0C11596E5D90708F02A
:1012E000C9C08C2F0E94070B8F71C82FD0E0DC2F54
:1012F000CC27D0620CC1C1152AE5D20708F4A8C0DA
:10130000CE0190568115904208F0B4C08D2F8F7198
:101310000E94070BDD27D0628F71D82BF8C0C53A29
:10132000D10509F4AAC0C63AD10509F0A9C0C2E89E
:10133000D0E4EDC0C83AD10509F4A5C0C93AD10539
:1013400009F4A4C0CA3AD10509F4A3C0CB3AD10527
:1013500009F4A2C0CC3AD10509F4A1C0CB3BD10518
:1013600009F4A0C0CC3BD10509F49FC0CD3AD1050A
:1013700009F49EC0C03BD10509F49DC0CE3AD10509
:1013800009F49CC0CF3AD10509F49BC0C13BD105FB
:1013900009F49AC0C23BD10509F499C0C33BD105F9
:1013A00009F498C0C43BD10509F497C0C53BD105E9
:1013B00009F496C0C63BD10509F495C0C73BD105D9
:1013C00009F494C0C83BD10509F493C0C93BD105C9
:1013D00009F492C0CD3BD10509F491C0CE3BD105B3
:1013E00009F490C0CA3BD10509F48FC0C0E0D4E431
:1013F0008EC00E94C708EC018AC0CE019927D3FF96
:1014000003C0EC01D86C83C0EC01D06C80C0DF70ED
:10141000D06A7DC0DC2FCC27C16FD06A78C0C1E014
:10142000D0E002C0CC0FDD1F2A95E2F720E2829FB8
:10143000C0011124C82BD92BDA6869C0DC2FCC2756
:10144000C46FD06A64C0DC2FCC27C06FD06A5FC085
:101450008C2F8F700E94070B94E0D695C7959A95B4
:10146000E1F7CF70D0E0DC2FCC27D06A8F70806E90
:10147000C82B4DC0C0E0D0E04AC0C1E8D0E447C0AE
:10148000C3E8D0E444C0C2EED4E441C0C9EED4E421
:101490003EC0CAEED4E43BC0C5EBD4E438C0C6EBD2
:1014A000D4E435C0C3EBD4E432C0C4EBD4E42FC0E1
:1014B000C7EBD4E42CC0CCECD4E429C0CDECD4E40C
:1014C00026C0C3E8D5E423C0CAE8D5E420C0C2E9F9
:1014D000D5E41DC0C4E9D5E41AC0C1E2D6E417C002
:1014E000C3E2D6E414C0C4E2D6E411C0C5E2D6E437
:1014F0000EC0C6E2D6E40BC0C7E2D6E408C0CFE611
:10150000D4E405C0C0E7D4E402C0CAE2D6E4CE0108
:10151000DF91CF9108958238910549F1B0F481337C
:10152000910509F459C048F48932910509F44FC076
:101530008A32910509F455C008958533910509F45F
:1015400041C08933910599F00895833E910531F1A9
:1015500038F4803E910591F0823E9105A9F00895FE
:10156000863E910501F1873E910539F1089520915C
:10157000AA0220FD3BC021FD39C008958091AA0236
:1015800080FF34C089E341C08091AA0282FF30C04D
:101590008091AA0284FD2EC083EE37C08091AA02FA
:1015A00082FD26C0F5CF8091AA0283FF25C08091DD
:1015B000AA0284FD1FC087EE28C08091AA0283FD85
:1015C0001BC0F5CF8091AA0285FD18C019C080917B
:1015D000AA0285FD15C012C08091AA0286FD12C024
:1015E00013C08091AA0286FD0FC00CC080EE0DC012
:1015F00082EE0BC080E009C086EE07C089E205C01C
:1016000085E303C08AE201C081E390E008959091F0
:10161000AA0292FF0DC0282F2871283019F4877F65
:10162000846006C0282F2471243011F48B7F8860D9
:1016300093FF0DC0282F2871283119F4877E84610B
:1016400006C0282F2471243111F48B7E886194FD0B
:10165000877E089508950C942A0B0C942B0B0C9400
:101660002A0B0C942F0BE82FF0E0E957FE4F8081F6
:101670000895CF92DF92EF92FF920F931F93CF9333
:10168000DF9380E993E00E94E90487E8E82E81E097
:10169000F82EC0E0D0E09BE8C92E93E0D92E03E8F5
:1016A00013E0DF93CF93DF92CF920E94820588E808
:1016B00093E00E94E904F70181917F010E94C22218
:1016C0001F928F931F930F930E94820581E893E0EE
:1016D0000E94E90421968DB79EB708960FB6F8943C
:1016E0009EBF0FBE8DBFCA30D105D9F6DF91CF9115
:1016F0001F910F91FF90EF90DF90CF900895CF93BF
:10170000DF938091350283608860809335028091F9
:10171000000180910001811102C095E001C090E0BC
:101720009093460285E0891B80934502AAE2B1E0CE
:101730004FE251E061E070E08D91E82FE295EF70AB
:10174000F0E021A18F70EB0102C0CC0FDD1F8A9564
:10175000E2F7CE019C2F9095922391A392A1892B21
:1017600082A34A175B0741F7A4E2B1E04AE251E0E5
:1017700061E070E08D91E82FE295EF70F0E021A13B
:101780008F70EB0102C0CC0FDD1F8A95E2F7CE010E
:101790009C2F9095922391A392A1892B82A34A1703
:1017A0005B0741F7E7E8F1E081E991E011928E17DC
:1017B0009F07E1F785E00E94A70CDF91CF910C9481
:1017C0002B066F927F928F929F92AF92BF92CF9291
:1017D000DF92EF92FF920F931F93CF93DF932AE252
:1017E000622E21E0722EA2E8B1E037E8C32E31E08C
:1017F000D32E20E001E010E05D019C901C92E301FB
:1018000089913E01E82FE295EF70F0E031A18F70F1
:10181000A80102C0440F551F8A95E2F7CA01342B74
:1018200031A342A1382F3095432342A350EA5A9561
:10183000F1F794E2E92E91E0F92E40E050E0E70163
:1018400089907E01682D62956F7070E0EB0168A150
:1018500070E0D82DDF7002C075956795DA95E2F7D4
:1018600060FD07C0B801042E01C0660F0A94EAF7B4
:1018700002C060E070E07C91672B6C934F5F5F4F1C
:1018800046305105E1F691A1392331A392A1892B6C
:1018900082A3119681E0F5019081991101C080E049
:1018A000282BCA16DB0609F0A7CF6091460270E02C
:1018B00069577E4F45E082E891E00E94A80C81E0E4
:1018C000DF91CF911F910F91FF90EF90DF90CF901C
:1018D000BF90AF909F908F907F906F900895CF931F
:1018E0000E94E10BC82F0E94E80C882311F180911F
:1018F000450290E089579E4F0E941C0D811114C033
:10190000809181018F5F80938101863078F0E09132
:101910004502F0E0E957FE4F80E090E01192019619
:1019200085309105D9F702C0109281010E943506D9
:101930000BC08091460290E089579E4F0E943B0D5C
:101940000E9488150E942A0B8C2FCF91089508952C
:10195000FF920F931F93CF93DF938C01F62ED72F17
:10196000C42F222349F081E0809393010E941C241C
:101970009093920180939101809193018823C1F00B
:1019800080919101909192010E942824069780F005
:10199000EF2DFD2FD8014C2F50E0CD01801B910B76
:1019A000841795071CF48D918193F7CF10929301C2
:1019B000DF91CF911F910F91FF9008958EE090E0FD
:1019C0000E94F62F91E0811101C090E0892F0895C7
:1019D00080919401811112C08091D8008061809320
:1019E000D8008AE18A95F1F700C08091D90080FD86
:1019F00002C082E001C081E08093940181E0909177
:101A00009401913009F080E008950E94DE0C8093EB
:101A100000010E94E80C81110C94100D0C94160D1D
:101A200061E070E081E091E00C944D1661E070E0BF
:101A300081E091E00C945416CF93DF93D82FC92FF7
:101A40000E94EC16892B99F4ED2FFC2F80E090E09A
:101A5000DC01AA56BE4F2C91219301968530910549
:101A6000B9F78BE991E00E94CB1581E001C080E0DD
:101A7000DF91CF91089520E030E0FC014191CF014A
:101A8000F901EA56FE4F40832F5F3F4F2530310565
:101A9000A1F78BE991E00C94C6150895EF92FF929F
:101AA0000F931F93CF93DF93E901662309F44BC093
:101AB000242F30E0EFEFF0E0E61BF109B901E69FDB
:101AC0009001E79F300DF69F300D1124232F8B01DD
:101AD000031B11095CE3E52EF12CB7010E94BB2F1B
:101AE000FB01BC01069FC001079F900D169F900D42
:101AF0001124B7010E94BB2FE230F105B1F040F490
:101B0000309779F0319711F5832F242F461B21C090
:101B1000E430F105A1F068F03597C1F4842F861BFD
:101B200018C0832F262F230F14C0862F830FE42F76
:101B300003C0E42FE61B842F432F2E2F0AC0842FCF
:101B4000462F430F06C0842F242F03C080E020E0DF
:101B500040E0E42FF0E0E956F94F4491E22FF0E045
:101B6000E956F94F9491E82FF0E0E956F94FE491E6
:101B700049839883EA83DF91CF911F910F91FF9062
:101B8000EF90089580914702282F26952F7330E01B
:101B90002115310519F48178826005C0253231059F
:101BA00024F0817888648093470230914702432F64
:101BB000441F4427441F20914802522F550F852F60
:101BC000842B27FB992790F9893641E094077CF014
:101BD00068E671E00E94CF2F80FB37F9309347020F
:101BE00086952078822B90FB87F980934802089590
:101BF00088E090E00C94FE2FCF92DF92EF92FF925C
:101C00006B017C010E94C20DB701A60188E090E043
:101C1000FF90EF90DF90CF900C941C30E7E4F2E05F
:101C200083E08083109248028FEF82838383148243
:101C300060817181828193810C94FC0D80913502C9
:101C400080FF08C084E696E09F938F930E948205F0
:101C50000F900F908091350280FF0FC08091470256
:101C600081701F928F9387E496E09F938F930E94D9
:101C700082050F900F900F900F908091350280FF9A
:101C800010C08091470286958F731F928F938CE2CC
:101C900096E09F938F930E9482050F900F900F9074
:101CA0000F908091350280FF19C080914702881FF4
:101CB0008827881F90914802292F220F822B97FB9B
:101CC000992790F99F938F9382E196E09F938F934A
:101CD0000E9482050F900F900F900F908091350217
:101CE00080FF0EC0809149021F928F9388EF95E08C
:101CF0009F938F930E9482050F900F900F900F90EB
:101D00008091350280FF0EC080914A021F928F930E
:101D10008EED95E09F938F930E9482050F900F9018
:101D20000F900F908091350280FF0EC080914B0282
:101D30001F928F9382EC95E09F938F930E94820570
:101D40000F900F900F900F9008958091470280FFA1
:101D500003C086958F73089580E0089580914B02AB
:101D600090E001968430910514F083E090E0809338
:101D70004B02609147027091480280914902909114
:101D80004A020C94FC0D80914B0290E0019797FF62
:101D900002C080E090E08430910514F083E090E090
:101DA00080934B02609147027091480280914902F2
:101DB00090914A020C94FC0D80919F0123E0829F38
:101DC000C0011124845B9D4F60910B0170E0209154
:101DD000470220FD0AC0ECE4F2E011821082128278
:101DE000339622E0E63AF207C1F70C946D15909114
:101DF000470290FF0CC0ECE4F2E0818360834283F1
:101E0000339692E0E63AF907C1F70C94DC0E089598
:101E1000CF93DF9300D01F92CDB7DEB7209147025A
:101E200020FF0AC09E012F5F3F4F0E944E0D4B8145
:101E300069818A810E94F70E0F900F900F90DF91B9
:101E4000CF910895CF93DF93EC016C8170E080E037
:101E500090E00E94B02D20E030E04FE753E40E9474
:101E6000D32C2BED3FE049E450E40E94D92E0E9490
:101E7000462F0E944D2D2BE43AE34EE25FE30E9491
:101E8000662C20EF3BEF48ED52E40E94D92E0E94D1
:101E90007F2D462FE7E4F2E08081881F8827881F86
:101EA00090914802292F220F97FB992790F9628180
:101EB000822B0E94080F8C8190E001968C83DF9129
:101EC000CF910895CF93DF93EC01E7E4F2E04381F3
:101ED00062818C819D810E94080F8C819D81019679
:101EE00068E671E00E94CF2F9D838C83DF91CF91B4
:101EF00008950F931F93CF93DF9300D01F92CDB718
:101F0000DEB78C0180919C0181110CC09E012F5F76
:101F10003F4F4FEF6FEF80E090E00E944E0D8A81BF
:101F200080939C01F8018481813051F028F0823047
:101F300061F440919C010AC080919C0140E007C07F
:101F400060919C0140E080E003C040E080E060E000
:101F50000E94F70EF801848190E0019663E070E042
:101F60000E94CF2F84830F900F900F90DF91CF911D
:101F70001F910F9108952F923F924F925F926F920F
:101F80007F928F929F92AF92BF92CF92DF92EF9209
:101F9000FF920F931F93CF93DF93CDB7DEB72797B1
:101FA0000FB6F894DEBF0FBECDBF8C01462E542E67
:101FB0002F838091470280FFE1C0E82FE695EF7301
:101FC000AE2FB0E0AC5CBE4F9C919093A701282F40
:101FD0002E77223061F49E012F5F3F4FC8010E948F
:101FE0004E0D4B8169818A810E94F70E7AC0923032
:101FF00019F450904A0275C0963069F4881F8827FA
:10200000881F90914802292F220F022F082B97FB3F
:10201000112710F966C0993089F3993109F061C030
:10202000E951E0FD03C021E02C8302C08FEF8C83D7
:10203000E695F0E0EE0FFF1FE357F94F859094907F
:10204000C4016EE170E00E94BB2F9C81692E990F44
:102050007708669DC001679D900D769D900D1124B7
:102060009E838D83580198E9A91A9EEFB90A9CE4D2
:10207000C92E92E0D92EE12CF12CC50168E671E061
:102080000E94BB2F1C018091350280FF14C09F92DB
:102090008F927F922C812F933F922F92FF92EF92FB
:1020A0008DE194E09F938F930E9482050FB6F89480
:1020B000DEBF0FBECDBF9601452D642DC1010E942C
:1020C0004E0D9FEFE91AF90A8D819E81A80EB91E67
:1020D00093E0C90ED11C2EE1E216F10471F60E94C4
:1020E000DC0E8091470200FB87F9809347028091C4
:1020F00048028078902F9695892B10FB87F9809362
:1021000048024092490250924A028F81882321F16D
:1021100060914702709148028091490290914A0271
:102120000E94FC0D80914A021F928F938091490278
:102130001F928F9380914702881F8827881F909154
:102140004802292F220F822B97FB992790F99F9302
:102150008F9388EF93E009C01F925F921F924F9276
:1021600011701F930F9381ED93E09F938F930E94C3
:1021700082050FB6F894DEBF0FBECDBF27960FB60F
:10218000F894DEBF0FBECDBFDF91CF911F910F91AD
:10219000FF90EF90DF90CF90BF90AF909F908F9087
:1021A0007F906F905F904F903F902F900895282FD1
:1021B000E7E4F2E03081331F3327331F40914802B8
:1021C000542F550F852F832B47FB992790F90A969B
:1021D00068E671E00E94CF2F438162810C94BB0FAF
:1021E00081E00C94D710282F30914702331F3327FA
:1021F000331F40914802542F550F852F832B47FBE7
:10220000992790F98A3091051CF4825A9E4F05C097
:102210000A9768E671E00E94CF2F40914A026091D0
:1022200049020C94BB0F81E00C94F31060914902B9
:10223000262F30E02F3E310514F46F5E01C06FEFA2
:1022400030914702331F3327331F90914802592F93
:10225000550F97FB992790F9282F40914A02852F17
:10226000832B0C94BB0F81E00C94161160914902F2
:10227000262F30E02131310514F0615101C060E0BA
:1022800030914702331F3327331F90914802592F53
:10229000550F97FB992790F9282F40914A02852FD7
:1022A000832B0C94BB0F81E00C94361140914A02B1
:1022B000242F30E02F3E310514F44F5E01C04FEF64
:1022C00030914702331F3327331F90914802592F13
:1022D000550F97FB992790F9282F60914902852F78
:1022E000832B0C94BB0F81E00C94561140914A0251
:1022F000242F30E02131310514F0415101C040E07C
:1023000030914702331F3327331F90914802592FD2
:10231000550F97FB992790F9282F60914902852F37
:10232000832B0C94BB0F81E00C94761120E00C946D
:10233000BB0FCF92DF92EF92FF920F931F93CF9339
:10234000DF93EC018CE4E82E82E0F82E00E010E050
:1023500098E6C92EDD24D3948C819D81800F911F36
:10236000B6010E94CF2F970140914A026091490225
:102370000E944E0D045F1F4F83E0E80EF11C0836EB
:1023800081E0180749F70E94DC0E2A818C819D812B
:1023900020FF05C00196B8010E94CF2F07C0181674
:1023A00019061CF087E691E001C001979D838C839C
:1023B000DF91CF911F910F91FF90EF90DF90CF9021
:1023C0000895CF92DF92EF92FF920F931F93CF93D6
:1023D000DF93FC01828180FF03C0DD24DA9402C018
:1023E000DD24D3940CE412E0C0E0D0E0F8011182C7
:1023F0001082128294E0E92EF12CC12C80919E0172
:102400008C0D87FD825E082E000C990BC817D9072A
:10241000E9F480914A028E9DA0018F9D500D1124F8
:10242000559547955595479580914702881F882770
:10243000881F90914802592F550F97FB992790F9C3
:10244000980160914902852B0E944E0DCD0CF1E060
:10245000EF1AF10899F621960D5F1F4FCE31D10585
:1024600029F60E94DC0E80919E0191E0D91206C0EF
:10247000811102C08DE107C0815005C090E0019636
:10248000BE010E94CF2F80939E01DF91CF911F91BB
:102490000F91FF90EF90DF90CF9008950F931F93CF
:1024A000CF93DF93CCE4D2E0FE011182108212823E
:1024B000339682E0E63AF807C1F700E010E0809139
:1024C0009D01082E000C990B08171907ECF080915C
:1024D0000A01082E000C990B80179107ACF080912F
:1024E0004702881F8827881F90914802592F550F4F
:1024F00097FB992790F99E0140914A026091490209
:10250000852B0E944E0D03C0198218821A820F5F1C
:102510001F4F23960E31110591F60E94DC0E80911B
:10252000090190919D01980F90939D0120910A01BE
:10253000280F20930A01121614F49D311CF0819586
:1025400080930901DF91CF911F910F910895EF9230
:10255000FF920F931F93CF93DF93EC018C819D81AA
:102560000196817099279D838C838CE4E82E82E00C
:10257000F82E10E008E7212F26958C819D81820F8F
:10258000911D81709927970140914A0260914902FB
:10259000FC010E9FC0010F9F900D11240E944E0D53
:1025A0001F5FF3E0EF0EF11C1E3129F7DF91CF9191
:1025B0001F910F91FF90EF900C94DC0EEF92FF9221
:1025C0000F931F93CF93DF937C01CCE4D2E000E024
:1025D00010E0F701248180914702909148020F306A
:1025E00011051CF4222379F002C021110CC0881FB0
:1025F0008827881F592F550F97FB992790F99E011F
:1026000040914A020AC0881F8827881F592F550FFA
:1026100097FB992790F99E0140E060914902852B34
:102620000E944E0D0F5F1F4F23960E31110589F644
:102630000E94DC0EF701848190E001968170992759
:102640008483DF91CF911F910F91FF90EF900895B8
:102650006091470266956F7370E04BE050E08CE04C
:1026600091E00E94E92F892B19F481E08093A80161
:102670000E941C249093A1018093A00180913502B7
:1026800080FF08C088EB93E09F938F930E948205A0
:102690000F900F9008951092A8018091350280FF4D
:1026A00008C08FE993E09F938F930E9482050F905B
:1026B0000F9008959091470290FF5BC0917881112F
:1026C00002C0926007C0853210F0986403C08F7317
:1026D000880F982B90934702662399F060914702E8
:1026E000709148028091490290914A020E94FC0D2B
:1026F0008091470286958F731F928F9388E095E0B3
:1027000008C08091470286958F731F928F938AEE3F
:1027100094E09F938F930E9482050F900F900F90EB
:102720000F906091470266956F7370E04BE050E048
:102730008CE091E00E94E92F892B19F00E944B1345
:1027400002C00E94281381E08093A3018091470278
:10275000881F8827881F90914802292F220F97FBF6
:10276000992790F940914A0260914902822B0C947A
:1027700096110895682F9091470296959F7381E076
:10278000890F853208F081E00C945A1381E00C9493
:10279000BA13682F9091470296959F738FEF890F18
:1027A00009F484E20C945A1381E00C94C91361E09B
:1027B0000C945A13CF93DF93C7E4D2E088818160F1
:1027C00088831F9281E08F938CE794E09F938F938F
:1027D0000E9482050F900F900F900F908881869530
:1027E0008F73DF91CF910C94D71360E00C945A1340
:1027F0008091A601811162C0809135028160809331
:1028000035028BEA95E09F938F930E948205809119
:1028100035020F900F9080FF08C085E995E09F93E7
:102820008F930E9482050F900F900E94D4228111F5
:1028300010C08091350280FF08C08DE695E09F931F
:102840008F930E9482050F900F900E9453230E9445
:102850000E0E0E94F80D6093470270934802809319
:10286000490290934A026E77C1F48091350280FF4D
:1028700008C084E295E09F938F930E9482050F9099
:102880000F900E940E0E0E94F80D60934702709305
:1028900048028093490290934A020E94C20D0E940E
:1028A0001E0E1092A8018091470280FF04C08695F9
:1028B0008F730E94F51381E08093A6010895CF9352
:1028C000DF93C7E4D2E088818E7F88836881798135
:1028D0008A819B810E94FC0D888181701F928F9359
:1028E00084E494E09F938F930E9482050E944B138F
:1028F0002FEF80E792E0215080409040E1F700C048
:1029000000000F900F900F900F90DF91CF910C94DB
:10291000DC0E80914702809581701F928F9383EB2C
:1029200094E09F938F930E948205809147020F90BD
:102930000F900F900F9080FD0C945F140C94DA139D
:102940000F931F93CF93DF938091A801882309F4FD
:102950008DC08091A701E0914702E695EF73E81BD7
:10296000E093A201823049F4F0E0E757F94FE49197
:10297000CE2FD0E002E21FE049C0863049F4F0E0FB
:10298000EA57F94FE491CE2FD0E002E61FE03EC0B7
:10299000893051F4E695F0E0ED57F94FE491CE2FF0
:1029A000D0E009E911E132C08F3051F4E695F0E052
:1029B000E058F94FE491CE2FD0E001EE11E126C0AE
:1029C000853149F4F0E0E358F94FE491CE2FD0E09F
:1029D0000EE412E11BC0883181F0833239F4EBE759
:1029E000F6E0C591D49109E71FE010C0843251F49C
:1029F000C4EFD1E00EED12E109C0C8EED3E007EA62
:102A000012E104C0C0EDD7E00DE41DE08091A30108
:102A1000882389F01092A3010E941C249E01209516
:102A20003095820F931F9093A1018093A001109283
:102A3000A5011092A4018091A0019091A1010E9492
:102A400028248C179D0790F0E091A001F091A1013E
:102A5000CE0FDF1FD093A101C093A00180EA91E0C7
:102A6000F801DF91CF911F910F910994DF91CF91E0
:102A70001F910F91089525B1342F3095232335B13F
:102A8000432B3FB7F894FC01680F791FE617F7074F
:102A900089F0819198E045B9000000C087FF25B911
:102AA000880F000000C000C000C025B900C09A9582
:102AB00091F7ECCF3FBF089524B1242B24B99B019B
:102AC000220F331F620F731F0E943B1587EC90E0AB
:102AD0000197F1F700C00000089540E80C945C15E0
:102AE0000C948B055098589A57985F9A89B1282F63
:102AF000217089B190E0880F892F881F990B892B4D
:102B000011F480E001C082E0822B8093AB01089534
:102B1000E091AB01EE0FEE0FE093AB0189B1482FCE
:102B2000417050E029B130E0C901880F892F881F1A
:102B3000990B009711F082E090E0842B952B8E2B5F
:102B40008093AB018F70E82FF0E0E75AFE4F908141
:102B50008091A901890F8093A901843024F060E05D
:102B600080E00E9470158091A9018D3F24F461E0FE
:102B700080E00E9470158091A901837887FF03C0CF
:102B800081508C6F8F5F8093A90108952091AB01D4
:102B9000FC0120830895DC01EC91EF70F0E0E75A2E
:102BA000FE4F90818091AA01890F8093AA01843001
:102BB00024F060E081E00E9470158091AA018D3FB1
:102BC00024F461E081E00E9470158091AA0183786D
:102BD00087FF03C081508C6F8F5F8093AA01089597
:102BE0008EE14B9B02C08150E1F74B9BFECF0895D5
:102BF0005B9880E28A95F1F75B9A0895FC012AE0E0
:102C00002A95F1F728E090E080E031E040E14A9534
:102C1000F1F7880F4B9B02C08160932700C0000032
:102C200040E14A95F1F7215089F720E12A95F1F723
:102C300029B100C0000030E13A95F1F723FB2227CB
:102C400020F992272081920F90830895EF92FF92AE
:102C50000F931F93CF93DF931F92CDB7DEB71982E7
:102C60008C017C01E60EF11C0E151F0551F00E942F
:102C7000F015CE0101960E94FE15F80181938F0197
:102C8000F3CF81E09981911180E00F90DF91CF9196
:102C90001F910F91FF90EF9008959093AD01809355
:102CA000AC01539A5B9A08959093AD018093AC0167
:102CB00053985B9AEB9AE9E6F0E080818F7380830A
:102CC0000895615091E001C0990F6A95EAF720E0FC
:102CD00031E0992361F0492F482319F05B9A2327AB
:102CE00001C05B9840E24A95F1F79695F2CF222316
:102CF00011F05B9A01C05B9880E28A95F1F75B98CE
:102D00000895FF920F931F93CF93DF93EC018C01F3
:102D1000060F111DC017D10741F0F9900E94F81558
:102D200068E08F2D0E946116F5CFDF91CF911F9142
:102D30000F91FF9008951F920F920FB60F921124DA
:102D40002F933F934F935F936F937F938F939F93B3
:102D5000AF93BF93CF93DF93EF93FF935B98539A17
:102D6000C091AC01D091AD016D81662321F08E81BF
:102D70009F810E9481160E94F81580E18A95F1F7E3
:102D80005B9853985B9A80E18A95F1F76A81662394
:102D900051F08B819C810E942616E881F981811176
:102DA00004C082E003C0E881F98188E080830E944A
:102DB000F015FF91EF91DF91CF91BF91AF919F916E
:102DC0008F917F916F915F914F913F912F910F90D4
:102DD0000FBE0F901F901895CF93DF93C091AC0159
:102DE000D091AD01F894539A5B9885E08A95F1F7FC
:102DF000000053985B9A80E28A95F1F74B9B0AC0DA
:102E0000539A5B9AE881F98181E08083789481E02C
:102E100090E02CC06D81662381F08E819F810E949D
:102E2000261681110AC0539A5B9AE881F98182E0E3
:102E30008083789482E090E019C00E94F01580E2CF
:102E40008A95F1F75B98539A80E18A95F1F76A8148
:102E5000662321F08B819C810E9481160E94F815C7
:102E6000E881F9811082789480E090E0DF91CF9141
:102E700008959093B3018093B2010895E091B20157
:102E8000F091B301309721F00190F081E02D099489
:102E900080E00895EF92FF920F931F93CF93DF93FB
:102EA000E091B201F091B3013097B1F18C01028051
:102EB000F381E02D09958091350282FF2DC080FFBE
:102EC00004C08FE997E00E94E904E80118E089E96D
:102ED000E82E87E0F82E8091350280FF0BC08881B4
:102EE0001F928F93FF92EF920E9482050F900F9096
:102EF0000F900F90115021961111EDCF8091350256
:102F000080FF0AC087E997E0DF91CF911F910F9171
:102F1000FF90EF900C94E904DF91CF911F910F91F6
:102F2000FF90EF9008952091B0013091B1012817E2
:102F3000390771F09093B1018093B001E091B20133
:102F4000F091B301309721F00680F781E02D0994CC
:102F500008952091AE013091AF012817390771F023
:102F60009093AF018093AE01E091B201F091B30173
:102F7000309721F00084F185E02D0994089585B7FC
:102F8000806885BF85B7806885BF089508950C94D3
:102F9000C6170C94C7170C94C6170E94BF170E943F
:102FA000050D0C94C9170E9413240E947F0B0E94E8
:102FB0009C240E94F8130C94CB17CF93C82F8091B8
:102FC000350282FF1EC080FF04C088EB97E00E949C
:102FD000E9048091350280FF0CC01F92CF9383EBF0
:102FE00097E09F938F930E9482050F900F900F9010
:102FF0000F908091350280FF04C081EB97E00E9422
:10300000E9048C2FCF910C943C06BF92CF92DF92B3
:10301000EF92FF920F931F93CF93DF93CDB7DEB75D
:103020002A970FB6F894DEBF0FBECDBF0E946F0C7B
:103030000E94E80C811111C08FEF89838A831B8263
:103040000E941C248160782F9D838C8349815A8142
:103050006B818D810E94AC1854C085EBC82E81E035
:10306000D82E00E010E0B02E802F0E94330BE82E07
:10307000F60121916F01F82EF22631F40F5F1F4FF8
:103080000A30110581F7D8CF8091350281FD0E9469
:10309000390B80E090E02F2D30E0482FB901082E49
:1030A00002C0759567950A94E2F760FF25C08E838C
:1030B000BF8281E090E06C0102C0CC0CDD1C4A951F
:1030C000E2F72E2D30E02C213D21232B09F480E066
:1030D00088870E941C248160782F9A8789874E8177
:1030E0005F8168858A850E94AC18F801EB54FE4F19
:1030F00080818C25808305C001968630910569F614
:10310000BDCF0E943E179091B4018917A9F00E948B
:103110003E178093B4012A960FB6F894DEBF0FBE17
:10312000CDBFDF91CF911F910F91FF90EF90DF9076
:10313000CF90BF900C94DD172A960FB6F894DEBF9F
:103140000FBECDBFDF91CF911F910F91FF90EF90F8
:10315000DF90CF90BF900895CF93DF93CDB7DEB7C8
:103160002B970FB6F894DEBF0FBECDBF4F835887A5
:1031700069877A878B87DE01119686E0FD011192BF
:103180008A95E9F785E0FE01379601900D928A95C0
:10319000E1F749815A816B817C818D819E810E94FA
:1031A000F71E2B960FB6F894DEBF0FBECDBFDF9192
:1031B000CF910895FC01808191810E94CD210895D5
:1031C000882309F4BFC0682F8CEF860F813A38F44A
:1031D00080911701909118010E9488230CC080E211
:1031E000860F883050F4677081E001C0880F6A95BF
:1031F000EAF70E940F220C945A228BE5860F833047
:1032000070F4653A29F0663A31F083E890E005C041
:1032100081E890E002C082E890E00C94931788E582
:10322000860F873108F08EC0683A09F445C0693AC4
:1032300009F445C06A3A09F445C06B3A09F445C03F
:103240006C3A09F445C06B3B09F445C06C3B09F48A
:1032500045C06D3A09F445C0603B09F445C06E3A7B
:1032600009F445C06F3A09F445C0613B09F445C013
:10327000623B09F445C0633B09F445C0643B09F473
:1032800045C0653B09F445C0663B09F445C0673B52
:1032900009F445C0683B09F445C0693B09F445C0E1
:1032A0006D3B09F445C06E3B09F445C06A3B09F427
:1032B00045C080E090E044C082EE90E041C089EEDD
:1032C00090E03EC08AEE90E03BC085EB90E038C0D5
:1032D00086EB90E035C083EB90E032C084EB90E069
:1032E0002FC087EB90E02CC08CEC90E029C08DECD7
:1032F00090E026C083E891E023C08AE891E020C0F6
:1033000082E991E01DC084E991E01AC081E292E077
:1033100017C083E292E014C084E292E011C085E21B
:1033200092E00EC086E292E00BC087E292E008C015
:103330008FE690E005C080E790E002C08AE292E06C
:103340000C94A9170895882349F1682F8CEF860FF4
:10335000813A38F480911701909118010E948A23D4
:103360000CC080E2860F883050F4677081E001C0A5
:10337000880F6A95EAF70E9415220C945A228BE571
:10338000860F833020F480E090E00C949317685A05
:10339000673120F480E090E00C94A9170895CF9352
:1033A000C82F0E94E0188C2FCF910C94A31988236A
:1033B00021F00E940F220C945A220895882321F0B4
:1033C0000E9415220C945A2208958F929F92AF92D8
:1033D000BF92DF92EF92FF920F931F93CF93DF93F1
:1033E0007C01D62FC72FFC01058102950F70128139
:1033F00011110E942C220E940522882379F01123AA
:1034000069F080E28D0F883048F082E00E94A422AB
:103410000E94052291E0D82ED92601C0D12CBC2EC5
:10342000B2948FE0B8228B2D90E0FC01E859FF4F59
:103430000C94E32F8C2F807FCF70882311F0C295DE
:10344000C07F112399F0CC2309F481C180E28D0F54
:10345000883010F0D11104C08C2F0E940F2203C0BD
:103460008C2F0E941F220E945A2271C18D2F0E9410
:10347000A319CC2309F490C180E28D0F883010F09D
:10348000D11104C08C2F0E94152203C08C2F0E94E2
:1034900025220E945A2280C18C2F807FCF708032DB
:1034A00011F0C295C07FDD2319F0D130C9F022C0E0
:1034B000112371F0002341F0013031F40E943F22CA
:1034C0008C2B0E94472268C10E943F228C2BF8C09F
:1034D000002319F0013009F45FC10E94502218C086
:1034E000112321F0063008F057C10EC0053008F056
:1034F00053C10EC0112351F0002331F0F701858133
:1035000080FF25C18F7085838C2FDAC0011130C1F7
:103510008C2FDCC08C2F86958695837019F08130B6
:1035200061F03AC1112321F08D2F9C2F937002C0BE
:1035300080E090E00E9493173CC1112321F08D2F71
:103540009C2F937002C080E090E00E94A91731C1C7
:103550008C2F837009F04CC0111127C12D2F22959B
:1035600026952770220F220F6D2F6F70862F90E007
:10357000A0E0B0E04C015D01022E04C0880C991C53
:10358000AA1CBB1C0A94D2F7D4FF12C08FE090E0B3
:10359000A0E0B0E004C0880F991FAA1FBB1F2A95A6
:1035A000D2F7BC01CD01609570958095909503C0D0
:1035B00060E070E0CB01C695C695C370C23051F093
:1035C00080F4682979298A299B29C13071F00E94E9
:1035D0004820EBC0682979298A299B290E945A2012
:1035E000E4C00E944820C501B4010E943620DDC01D
:1035F000112319F08C2F817001C08695882309F45E
:10360000D4C02D2F229526952770220F220F6D2FC3
:103610006F70862F90E0A0E0B0E04C015D01022EBB
:1036200004C0880C991CAA1CBB1C0A94D2F7D4FFB6
:1036300012C08FE090E0A0E0B0E004C0880F991FB6
:10364000AA1FBB1F2A95D2F7BC01CD0160957095CA
:103650008095909503C060E070E0CB01C695C6955B
:10366000C370C23051F080F4682979298A299B29D6
:10367000C13071F00E940D2198C0682979298A29EA
:103680009B290E941F2191C00E940D21C501B401F8
:103690000E94FB208AC08D2F90E0FC01E05EF109C2
:1036A000E531F10508F04FC0E858FF4F0C94E32FC7
:1036B000DF708C2F8F71112331F00E9494208D2F99
:1036C0000E94D71969C00E94B5208D2F0E94DE1973
:1036D00063C0112341F0053008F05EC08C2F8F715C
:1036E0000E94DA2059C0063008F056C0F7CF1123E7
:1036F00039F08C2F8F710E9494204EC01123C9F392
:103700008C2F8F710E94B52047C0112329F08C2F78
:103710008F710E947F2040C00E947A203DC01123FB
:1037200049F0CF718C2F0E94942063E08C2F0E946F
:103730008F2232C081E00E94A422023068F182E030
:103740000E94A42229C0112331F0002391F28D2F71
:103750000E94E01821C0002399F2D93349F4FFEF09
:1037600027EE83E0F15020408040E1F700C00000E8
:103770008D2F0E94A31910C04C2F4F706D2FC701C1
:103780000E94B0080E94A51F14C04C2F4F706D2FCF
:10379000C7010E94B3080DC098E0B91631F0B91600
:1037A00040F086EF8B0D823020F40E943E170E947D
:1037B0003C06DD20E1F00E94012280FD18C0F701E7
:1037C00012820E94FB210E949420C7010E94031CC8
:1037D0000E94FB21DF91CF911F910F91FF90EF90FD
:1037E000DF90BF90AF909F908F900C94B520DF91A9
:1037F000CF911F910F91FF90EF90DF90BF90AF900E
:103800009F908F9008950F931F93CF93DF93EC01B8
:10381000988189812B813C81232B31F08F3F31F4BA
:1038200081E09F3F19F403C081E001C080E080FD8A
:1038300013C0CE010E944E06882371F06881798101
:103840008A810E94D8218C010E9431210E9422206D
:10385000B801CE010E94E519DF91CF911F910F9120
:1038600008950E942C220E943C220E945A2280E04D
:1038700090E00E94931780E090E00C94A91780914B
:103880001701909118010E948C230C94311C0E9406
:103890001C220C943F1CE92FE295EF704E2F50E054
:1038A000FA013297EE30F105B0F4E357FF4F0C9474
:1038B000E32F803F91F018F4803E68F40EC0843FFF
:1038C00051F40BC0803E48F0813F29F406C093FBC1
:1038D000882780F9089580E0089581E008950E9486
:1038E000CD210E944B1C0895CF93DF9300D000D0D0
:1038F0001F92CDB7DEB70F900F900F900F900F90E3
:10390000DF91CF910895CF93DF9300D000D000D006
:10391000CDB7DEB726960FB6F894DEBF0FBECDBF8B
:10392000DF91CF9108951F93CF93DF93C091C00192
:1039300016E08091C101C81799F0D0E01C9FF001FA
:103940001D9FF00D1124EE53FE4F40815181628185
:103950007381848195810E94831C2196C770E9CF71
:10396000DF91CF911F9108954091F2015091F301A1
:103970006091F4017091F5018091F6019091F70149
:103980000C94831CCF938091F70182958F7009F07E
:103990005FC08091F401882309F45AC08091C0016E
:1039A000B091C1017091F201A091F3014091F50134
:1039B0005091F60191E07F3F09F090E0692FC6E059
:1039C0008B1709F445C04115510521F0AF3F21F097
:1039D00020E003C021E001C0262F90E020FD35C08B
:1039E000C89FF001C99FF00D1124EE53FE4F2181B5
:1039F0002A132BC02081271328C02281211125C022
:103A0000238134812417350710F421503109241BF8
:103A1000350B26393105C8F42091F7012F7020614C
:103A20002093F70126E0289FF001299FF00D112433
:103A3000E953FE4F80818F708061808382EF91E037
:103A40000E94031CCF910C94931C01968770B8CFF1
:103A5000CF910895AF92BF92CF92DF92EF92FF92F3
:103A60000F931F93CF93DF93CDB7DEB761970FB658
:103A7000F894DEBF0FBECDBF7C0185E0F701DE010B
:103A80001D9601900D928A95E1F7D7014C91119600
:103A90005C91119712960C913091F2016091F301B3
:103AA0008091F5019091F601009731F06F3F31F46C
:103AB00021E03F3F19F403C021E001C020E0B22F14
:103AC000B170BB2E20FD40C1F701C380D480A0900F
:103AD000F401AA2009F4F6C02091F701C816D9060E
:103AE00028F0D601A81BB90BCD0104C08095909594
:103AF0008C0D9D1D11E08639910580F010E0207F2E
:103B000009F0A6C07C2DD98AC88A602F89890E94B5
:103B1000741C82EF91E00E94031C0EC1822F807FF3
:103B200009F053C0561314C0431312C0102F0111D3
:103B30000FC02F7020612093F7010E94B41C82EF08
:103B400091E00E94031C8091F701F70185833DC13C
:103B5000CD2831F05F3F31F481E04F3F19F403C0CD
:103B600081E001C080E080FD03C081E0802702C0C9
:103B700080E090E0182F117080FF1CC08091C00180
:103B80002091C10136E0821709F4FCC090E0389F13
:103B9000F001399FF00D1124EE53FE4F6181561351
:103BA00006C06081461303C06281061303C00196FC
:103BB0008770E9CF102F002309F407C18091F70126
:103BC00081608093F70110E000C1561314C04313C5
:103BD00012C0011110C08091F701F7018583C70160
:103BE0000E94031C86E0F701A2EFB1E001900D9264
:103BF0008A95E1F7C4C04D875E878D859E850E94BA
:103C00006F1C882379F1002369F12091F701822F3D
:103C100082958F7090E0029774F08091F2019091FC
:103C2000F30198878F831986DB86CA862C87CE019D
:103C300007960E94031C86E0F701A2EFB1E0019015
:103C40000D928A95E1F70E94C21C0E94B41C0DC01F
:103C5000561769F04D875E878D859E850E946F1C83
:103C6000811119C0C7010E94031C11E0AEC04313AB
:103C7000F1CF0111EFCF8091F701F7018583C701E3
:103C80000E94031C86E0E2EFF1E0DF011D928A95BD
:103C9000E9F71A2D9AC0002329F32091F701822F0A
:103CA00082958F7090E0029734F28091F2019091AA
:103CB000F3019A8389831B82DD82CC822E83CE011D
:103CC0000196B7CFC816D90628F0F601E81BF90B04
:103CD000CF0104C0809590958C0D9D1D863991056E
:103CE00048F010E07C2DD98AC88A602F89890E940B
:103CF000741C22C0102F002309F4B4CF56130BC03C
:103D0000431309C086E0F701A2EFB1E001900D92E4
:103D10008A95E1F75AC04D875E878D859E850E9402
:103D20006F1C811188CF8091F70181608093F7012A
:103D3000C7010E94031C49C0E2EFF1E086E0DF0109
:103D40001D928A95E9F71BC0002309F48BCF4D879C
:103D50005E878D859E850E946F1C182F882309F42D
:103D600081CF86E0F701A2EFB1E001900D928A9534
:103D7000E1F782EF91E00E94DA180E94C21C0E94D3
:103D8000B41C23C04D875E878D859E850E94CD2102
:103D9000292F22952F70223028F49F7039F081113D
:103DA00005C00BC0243028F49F7049F4805E883031
:103DB00020F0C7010E94031CB12E1B2D06C0D701A5
:103DC00015969C91907F91F7F8CF812F61960FB651
:103DD000F894DEBF0FBECDBFDF91CF911F910F9141
:103DE000FF90EF90DF90CF90BF90AF9008951F931A
:103DF000CF93DF93CDB7DEB72C970FB6F894DEBF25
:103E00000FBECDBF4F83588769877A878B879C8782
:103E1000CE0107960E942A1D8823D1F09F818885B4
:103E20002A853B85232B31F08F3F31F481E09F3F82
:103E300019F403C081E001C080E080FD47C04F81DC
:103E4000588569857A858B859C850E94831C3EC038
:103E500086E0FE013796DE01119601900D928A955B
:103E6000E1F7FF81E8856A857B856115710531F091
:103E7000EF3F31F481E0FF3F19F403C081E001C05E
:103E800080E080FD23C02091C10130E0C90101968E
:103E9000877099274091C00150E084179507F1F190
:103EA000F983EA837D836C8396E0929FD001939F90
:103EB000B00D1124AE53BE4FFE01319601900D920C
:103EC0009A95E1F78093C1010E94931C16E08091BE
:103ED000C0019091C101891771F1189FC00111248F
:103EE0008E539E4F0E942A1D882329F1E091C00124
:103EF0001E9FF0011124EE53FE4F408151816281DB
:103F00007381848195810E94831C8091C00190E01F
:103F10000196877099278093C001D9CF0E94471CD2
:103F20001092C1011092C001E2EFF1E086E0DF01E2
:103F30001D928A95E9F72C960FB6F894DEBF0FBE56
:103F4000CDBFDF91CF911F910895EF92FF920F9314
:103F50001F93CF93DF938C01892B09F46CC0F12C54
:103F6000EE24E394E8012196F8018491843740F42B
:103F7000843008F051C0813081F0823019F15BC08B
:103F8000853709F444C0A8F19CE7980F903708F0F2
:103F900052C08F770E94A31941C00E5F1F4FFE01D0
:103FA000849190E2980F983050F48770FE2D01C0F4
:103FB000FF0F8A95EAF78F2F0E942F2214C00E94CC
:103FC000E0182DC00E5F1F4FFE01849190E2980F04
:103FD000983060F48770FE2D01C0FF0F8A95EAF7D4
:103FE0008F2F0E9435220E945A2219C00E94A319C5
:103FF00016C00E5F1F4FFE01C491CC2381F08FE9E4
:104000009FE00197F1F700C00000C150F6CF0E5FAE
:104010001F4FFE01F49003C00E94E0188E018F2D07
:10402000882309F49FCFEFE9FFE03197F1F700C053
:1040300000008150F5CFDF91CF911F910F91FF903C
:10404000EF900895089508950C9423200C94242053
:104050000E942620609324027093250280932602FA
:10406000909327020C94311C0C9428200F931F93DB
:1040700000912402109125022091260230912702FE
:10408000602B712B822B932B1F910F910C94282066
:104090000F931F9300912402109125022091260274
:1040A0003091270260237123822393231F910F9164
:1040B0000C9428200F931F93009124021091250245
:1040C00020912602309127026027712782279327AB
:1040D0001F910F910C9428200C9423200E946C2097
:1040E0006093200270932102809322029093230216
:1040F0000C94311C60E070E0CB010C946E200F93A7
:104100001F9341E050E060E070E08A019B0104C031
:10411000000F111F221F331F8A95D2F7C901B80162
:104120001F910F910C946E200F931F9341E050E06C
:1041300060E070E004C0440F551F661F771F8A952A
:10414000D2F78091200290912102A0912202B09199
:1041500023028A019B01082B192B2A2B3B2BC90117
:10416000B8011F910F910C946E200F931F9341E0A3
:1041700050E060E070E004C0440F551F661F771FD9
:104180008A95D2F740955095609570958091200260
:1041900090912102A0912202B09123028A019B01F9
:1041A000082319232A233B23C901B8011F910F912A
:1041B0000C946E200F931F9341E050E060E070E09C
:1041C00004C0440F551F661F771F8A95D2F7809150
:1041D000200290912102A0912202B09123028A0133
:1041E0009B01082719272A273B27C901B8011F91DE
:1041F0000F910C946E200F931F9300912002109149
:1042000021022091220230912302602B712B822BFC
:10421000932B1F910F910C946E200F931F9300917D
:10422000200210912102209122023091230260236A
:104230007123822393231F910F910C946E200F936F
:104240001F930091200210912102209122023091AF
:10425000230260277127822793271F910F910C94C7
:104260006E200895292F220F920F990F890FE82FA2
:10427000E695E695E695877051E001C0550F8A9561
:10428000EAF785E0E89FF0011124E850FE4F20E0B6
:1042900030E070E04081CB01022E02C096958795F8
:1042A0000A94E2F78170819584278523842781937E
:1042B0002F5F3F4F2530310569F70895292F220FD1
:1042C000920F990F890F682F669566956695982FBE
:1042D000977085E0689FB001112440E050E080E0D5
:1042E000FB01E40FF51FE850FE4F208130E0092E5E
:1042F00002C0369527950A94E2F721703327042EE1
:1043000001C0220F0A94EAF7822B4F5F5F4F4530BE
:10431000510531F70895BF92CF92DF92EF92FF924D
:104320000F931F93CF93DF938C01C0902002D09006
:104330002102E0902202F0902302809124029091C9
:104340002502A0912602B0912702C82AD92AEA2A7A
:10435000FB2ACFE1D0E0D701C6010C2E04C0B695F0
:10436000A795979587950A94D2F780FD04C0219769
:1043700090F7B12C07C0BC2EB8018C2F0E94CF083B
:104380000197A9F38B2DDF91CF911F910F91FF9092
:10439000EF90DF90CF90BF900895CF93DF93EC0123
:1043A0000E948B21BE010E94CF08DF91CF9108951A
:1043B0001F93CF93DF93EB019091BF01992321F0DD
:1043C000CB010E94CD2113C0882349F0CB010E946C
:1043D0008B21182F682FCE010E94322104C0CB01FF
:1043E0000E945E21182FBE01812F0E94CF08DF910D
:1043F000CF911F9108958091280285958595859587
:1044000008958091280287700895909128029770EE
:1044100081E009F480E0089580913402089590913C
:104420003402892B80933402089580959091340250
:104430008923809334020895109234020895909154
:104440003302892B80933302089580959091330233
:104450008923809333020895109233020895909136
:104460003202892B80933202089580959091320216
:104470008923809332020895109232020895809128
:104480002902089508950C9442220C94432290919D
:104490002902981721F0809329020C94452208954F
:1044A00080912902882329F01092290280E00C943F
:1044B00045220895E0911701F0911801809134028E
:1044C0008083E0911701F09118019081809133026F
:1044D000892B8083E0911701F091180190818091E0
:1044E0003202892B808380912902882381F0E09118
:1044F0001701F09118019081892B80838091170119
:10450000909118010E94552381110E9450228091A0
:104510001701909118010C944A170C94422298E0CC
:10452000899F90011124262B209328020E94942019
:10453000809128028595859585950C948D22109201
:10454000280280E00C948D222091280280958223FD
:1045500080932802982F977079F430E0482F082E26
:10456000000C550B2417350739F0859585958595F1
:104570000E94B5200C949F22089590937901809316
:10458000780108958295982F937344E0949F900149
:1045900011248C7C86958695282B822F8575880F13
:1045A0002A7A2695822B089580E090E00E940430BC
:1045B00021E08D3E9E4F09F020E0822F089582E099
:1045C00090E00C94F62F83E090E00C94F62F682F87
:1045D00083E090E00C940A3084E090E00C94F62F95
:1045E000682F84E090E00C940A30AB01BC018FE0AE
:1045F00090E00C941C30AB01BC0183E190E00C9482
:104600001C3060E070E0CB010C94FB2260E070E0B5
:10461000CB010E94F5220C9401236DEE7EEF80E029
:1046200090E00E94283060E082E090E00E940A3032
:1046300060E083E090E00E940A3010922402109221
:104640002502109226021092270260E084E090E09A
:104650000E940A3060E085E090E00E940A3060E04D
:1046600086E090E00E940A306FEF87E090E00E94C1
:104670000A3040E050E0BA0188E090E00E941C302F
:1046800060E08DE090E00E940A3040E050E0BA0126
:1046900088E190E00E941C3060E087E190E00E9499
:1046A0000A300C9406230C940D23FC01329697E0FB
:1046B00080E0915029F021912223D9F38F5FF9CF27
:1046C00008959C01FC0132969FEF80E041914617CE
:1046D00089F09F3F19F4411101C0982F8F5F8630F8
:1046E000A9F79F3F39F0F901E90FF11D97FDFA9500
:1046F0006283089508959C012A5F3F4FFC01428127
:10470000461301C01282019682179307B9F70895E4
:104710000C9461230C947B23029626E0FC011192F9
:104720002A95E9F7089508950C9493230C94932304
:10473000CF930E9496230E946F0C0E949423C0E0A6
:104740008C2F0E94330B811104C0CF5FCA30C1F798
:1047500001C081E0CF9108950C9493230C94AC2375
:104760000E94AE238091B002843049F1109236024B
:1047700020E488E190E00FB6F894A895809360005B
:104780000FBE2093600080E00E943C060E94AE2392
:1047900083B7817F846083BF83B7816083BF789450
:1047A000889583B78E7F83BF0FB6F894A8958091C4
:1047B0006000886180936000109260000FBE0895D1
:1047C0000C9493230E94471C0E943E170E943C06B3
:1047D0000C94E0231F920F920FB60F9211248F9327
:1047E0009F93AF93BF9380913602811113C0809144
:1047F000A6029091A702A091A802B091A9024196A9
:10480000A11DB11D8093A6029093A702A093A802B8
:10481000B093A902BF91AF919F918F910F900FBE5E
:104820000F901F90189582E084BD93E095BD9AEF9C
:1048300097BD80936E0008952FB7F8948091A602DB
:104840009091A702A091A802B091A9022FBF08954C
:10485000CF92DF92EF92FF920F931F932FB7F894AE
:104860004091A6025091A7026091A8027091A902FE
:104870002FBF6A017B01EE24FF248C0120E030E091
:10488000C016D106E206F30610F4415051099A0110
:10489000281B390BC9011F910F91FF90EF90DF90FA
:1048A000CF90089578941F920F920FB60F92112413
:1048B0008F939F93AF93BF938091A6029091A7028D
:1048C000A091A802B091A9020196A11DB11D8093EB
:1048D000A6029093A702A093A802B093A902BF9149
:1048E000AF919F918F910F900FBE0F901F901895D1
:1048F00081E08093E00080E28093D8001092C900AC
:104900008FE19EE40197F1F700C0000087E090EB93
:10491000DC018093B9029093BA02A093BB02B093DA
:10492000BC029CE088E10FB6F894A89580936000E3
:104930000FBE90936000FFCF0E94D422811102C06D
:104940000E9453230E94DF22809335020E94EC22B2
:1049500090E09093AB028093AA020E94E322682F1A
:1049600070E080E090E00C94342080914202089541
:1049700008959FB7F894109239029FBF9091B002AA
:10498000943009F057C09091E9009F703091EC008D
:10499000232F217030FD20E8922B23E02093E900A3
:1049A0002091EB0020FF43C02091EE0027FF3FC085
:1049B00020913702222321F02091E80025FF37C003
:1049C0001092370226E03091E80035FD15C0309195
:1049D000B002343061F53091EB0035FD28C0215034
:1049E00021F481E08093370222C0EFE9FFE03197A4
:1049F000F1F700C00000E7CF8093F1008091E8005C
:104A000085FD0AC08091E80080FFFCCF8091E8001E
:104A10008E778093E80006C08FB7F89421E020934A
:104A200039028FBF9F709093E90080E008959F70D6
:104A30009093E9008FEF08950F931F93CF93DF9327
:104A400000D01F92CDB7DEB78C010E94AC27823018
:104A500011F0843021F584E089831B830A8382E08E
:104A60008093E9008FEF9091E800815095FD06C09A
:104A700095ED9A95F1F700008111F5CF8091E8004E
:104A800085FF0DC040E050E063E070E0CE0101968C
:104A90000E94C9278091E8008E778093E8000F90EC
:104AA0000F900F90DF91CF911F910F910895CF93A9
:104AB000DF9300D01F92CDB7DEB72091B002243033
:104AC00031F523E02983805891099B838A8382E012
:104AD0008093E9008FEF9091E800815095FD06C02A
:104AE00095ED9A95F1F700008111F5CF8091E800DE
:104AF00085FF0DC040E050E063E070E0CE0101961C
:104B00000E94C9278091E8008E778093E8000F907B
:104B10000F900F90DF91CF910895CF93DF93EC0129
:104B20000E94AC27823011F0843039F581E0809307
:104B3000E9008FEF9091E800815095FD06C095ED5A
:104B40009A95F1F700008111F5CF8091E80085FF7B
:104B500014C040E050E068E070E0CE010E94C92738
:104B60008091E8008E778093E80088E0FE01AAE358
:104B7000B2E001900D928A95E1F7DF91CF9108950F
:104B800080EF97E00E94E9048091AF02811109C093
:104B90000E945A290E94B7298091E2008460809384
:104BA000E20008958CEE97E00E94E9041092AF02B3
:104BB000089588EE97E00C94E90484EE97E00C9455
:104BC000E90480EE97E00E94E9040C94E22320912E
:104BD00038022F5F822F62E30E94AF2F992319F0D2
:104BE0002093380208951092380280913902882368
:104BF00071F18091B002843041F58091E9008F70AD
:104C00002091EC00922F917020FD90E8892B93E089
:104C10009093E9009091EB0090FF14C09091EE000A
:104C200097FF10C09091E80095FF03C01092F1002B
:104C3000F9CF9091E80090FF05C09091E8009E7731
:104C40009093E8008F708093E900109239020895E4
:104C500042E061EC81E00E94D32842E261EC82E014
:104C60000E94D32842E261EC83E00C94D328809127
:104C7000B202833009F460C030F4813071F08230C8
:104C800009F499C008958A3009F485C08B3009F47D
:104C90006BC0893009F0A7C020C08091B102813A71
:104CA00009F0A1C08091E800877F8093E80080919F
:104CB000B5029091B602892B21F468E08AE392E074
:104CC00003C060E080E090E070E00E9414288091D2
:104CD000E8008B778093E80008958091B1028132DB
:104CE00009F081C08091B5029091B602029708F058
:104CF0007AC08091E800877F8093E8008091E80087
:104D000082FD05C08091B0028111F8CF6CC0209166
:104D1000F3008091F20090E0922B029729F48091A9
:104D2000F1008B7F813021F48091F1008093420269
:104D30008091E8008B7753C08091B102813A09F0ED
:104D400052C08091B5029091B602892B09F04BC0F8
:104D50008091E800877F8093E8008091E80080FFE1
:104D6000FCCF8091230136C08091B1028132D9F508
:104D70008091B5029091B602892BA9F58091E80047
:104D8000877F8093E8000E9408298091B302809376
:104D900023010C94471C8091B102813221F580914E
:104DA000E800877F8093E8000E9408298091B40280
:104DB0008093430208958091B102813AA1F48091D9
:104DC000E800877F8093E8008091E80080FFFCCFB7
:104DD000809143028093F1008091E8008E77809368
:104DE000E8000C940829089584B7877F84BF0FB624
:104DF000F894A8958091600088618093600010927B
:104E000060000FBE80E880936100109261000E94F4
:104E1000CD170E945A290E94B7298091E200846030
:104E20008093E20089EB94E20E94BD2278940E9474
:104E30004B2C0E94D31789E191E00E9439178FEC27
:104E400097E00E94E9048091B002853089F48BECF0
:104E500097E00E94E9040E94B0238091AE0288236B
:104E600091F30E949823882371F30E94B327EBCF1C
:104E70000E9405180E94A014E6CF0C943F27292F0A
:104E8000332723303105C9F060F42130310581F03A
:104E90002230310509F047C08BE590E022E238E08E
:104EA00046C02132310511F12232310561F13BC09A
:104EB00082E190E02DE738E03AC0992781309105F2
:104EC00061F040F08230910559F0039761F5E4EF0D
:104ED000F7E008C0EEE1F8E005C0E0E1F8E002C06C
:104EE000EAEFF7E0849190E09F0121C06330710503
:104EF000D0F4660F771FFB01EE58FE4F2081318101
:104F000089E090E014C06330710568F4FB01EE0F96
:104F1000FF1FE459FE4F20813181FB01E759FE4F0D
:104F2000808190E004C080E090E020E030E0FA0171
:104F30003183208308950895CF93C82F0E949B2723
:104F4000C0934402CF9108958091B002843011F053
:104F500081E0089582E0089580914402811102C0A9
:104F60000C94A427089580E189BD82E189BD09B42C
:104F700000FEFDCF8091D8008F7D8093D800809176
:104F8000E00082608093E0008091E00081FDFCCF32
:104F90000895CF92DF92EF92FF920F931F93CF93DA
:104FA000DF93EC018B017A010E942729811133C024
:104FB000E114F10439F0F70180819181081B190B8C
:104FC000C80FD91FC12CD12C0115110519F18091E1
:104FD000E80085FD16C08091E8008E778093E80098
:104FE000E114F10449F0F70180819181C80ED91EC6
:104FF000D182C08285E00FC00E942729882321F337
:105000000AC089918093F10001501109FFEFCF1A76
:10501000DF0ADACF80E0DF91CF911F910F91FF90EF
:10502000EF90DF90CF9008952091B7023091B802B1
:105030002617370748F06115710539F42091E8000B
:105040002E772093E80001C0B901FC0120E0611532
:10505000710579F18091B0028823F1F18530F1F189
:105060008091E80083FD3CC08091E80082FD2EC065
:105070008091E80080FFEBCF2091F3008091F20057
:1050800090E0922B6115710551F08830910538F44C
:1050900021912093F100615071090196F3CF21E035
:1050A000089709F020E08091E8008E778093E8006F
:1050B000CECF2111CFCF0AC08091B002882361F0FA
:1050C000853061F08091E80083FD0AC08091E8009E
:1050D00082FFF2CF80E0089582E0089583E0089592
:1050E00081E008952091B7023091B8022617370762
:1050F00048F06115710539F42091E8002E7720936E
:10510000E80001C0B901FC0120E06115710591F1D1
:105110008091B002882309F440C0853009F43FC073
:105120008091E80083FD3DC08091E80082FD2FC0A2
:105130008091E80080FFE9CF2091F3008091F20098
:1051400090E0922B6115710559F08830910540F47B
:1051500024912093F1003196615071090196F2CFAC
:1051600021E0089709F020E08091E8008E77809395
:10517000E800CBCF2111CCCF0AC08091B0028823A8
:1051800061F0853061F08091E80083FD0AC0809174
:10519000E80082FFF2CF80E0089582E0089583E086
:1051A000089581E00895982F973068F59093E9006D
:1051B000981739F07091EC002091ED005091F000BB
:1051C00003C0242F762F50E021FD02C09F5FECCF5B
:1051D0003091EB003E7F3093EB003091ED003D7F4E
:1051E0003093ED003091EB0031603093EB00709321
:1051F000EC002093ED005093F0002091EE0027FD8D
:10520000E5CF80E008958F708093E90081E00895F4
:105210008091B10287FF11C08091E80082FD05C036
:105220008091B0028111F8CF11C08091E8008B7796
:105230000BC08091B002882349F08091E80080FF84
:10524000F8CF8091E8008E778093E8000895209150
:10525000E4003091E50095E64091EC00842F8170E8
:1052600040FF23C08091E80080FD1DC08091B00206
:10527000882399F0853099F08091EB0085FD11C06D
:105280004091E4005091E5002417350729F391502F
:1052900011F09A01E1CF84E0089582E0089583E05F
:1052A000089581E0089580E008954091E80042FF6C
:1052B000DDCF08950E94C8290E94D029E0EEF0E0D9
:1052C000808181608083E8EDF0E080818F7780834A
:1052D00019BCA7EDB0E08C918E7F8C9380818F7E7E
:1052E00080831092AF0208950F931F93CF93DF93A3
:1052F0000E94C8290E94D029C8EDD0E088818F770C
:10530000888388818068888388818F7D888319BCA1
:105310001092B0021092AC021092AE021092AD0246
:1053200000EE10E0F80180818B7F808388818160AE
:10533000888342E060E080E00E94D328E1EEF0E064
:1053400080818E7F8083E2EEF0E0808181608083C7
:10535000808188608083F80180818E7F808388814E
:1053600080618883DF91CF911F910F910895E8EDBF
:10537000F0E080818F7E8083E7EDF0E080818160C6
:10538000808384E082BF81E08093AF020C94742913
:10539000E8EDF0E080818E7F80831092E200089536
:1053A0001092DA001092E10008951F920F920FB64A
:1053B0000F9211242F933F934F935F936F937F939B
:1053C0008F939F93AF93BF93EF93FF938091E100EF
:1053D00082FF0BC08091E20082FF07C08091E10054
:1053E0008B7F8093E1000E94E7258091DA0080FFA7
:1053F0001FC08091D80080FF1BC08091DA008E7F93
:105400008093DA008091D90080FF0DC080E189BDD2
:1054100082E189BD09B400FEFDCF81E08093B00236
:105420000E94C02505C019BC1092B0020E94D2256E
:105430008091E10080FF19C08091E20080FF15C0DB
:105440008091E2008E7F8093E2008091E200806193
:105450008093E2008091D80080628093D80019BCCC
:1054600085E08093B0020E94DD258091E10084FFF9
:1054700030C08091E20084FF2CC080E189BD82E1D0
:1054800089BD09B400FEFDCF8091D8008F7D809347
:10549000D8008091E1008F7E8093E1008091E2004E
:1054A0008F7E8093E2008091E20081608093E20031
:1054B0008091AC02882311F084E007C08091E30062
:1054C00087FD02C081E001C083E08093B0020E94AA
:1054D000E1258091E10083FF29C08091E20083FFF4
:1054E00025C08091E100877F8093E10082E0809376
:1054F000B0021092AC028091E1008E7F8093E100B7
:105500008091E2008E7F8093E2008091E2008061D2
:105510008093E20042E060E080E00E94D328809126
:10552000F00088608093F0000E94D925FF91EF91F0
:10553000BF91AF919F918F917F916F915F914F91AB
:105540003F912F910F900FBE0F901F9018951F92B3
:105550000F920FB60F9211242F933F934F935F93A7
:105560006F937F938F939F93AF93BF93CF93DF936B
:10557000EF93FF93C091E900CF708091EC00D82F9A
:10558000D17080FDD0E81092E9008091F000877F13
:105590008093F00078940E94EB2A1092E9008091A9
:1055A000F00088608093F000CD2BCF70C093E900AD
:1055B000FF91EF91DF91CF91BF91AF919F918F912B
:1055C0007F916F915F914F913F912F910F900FBEFF
:1055D0000F901F9018951F93CF93DF93CDB7DEB731
:1055E000AA970FB6F894DEBF0FBECDBFE1EBF2E095
:1055F0008091F100819322E0E93BF207C9F70E9414
:1056000037268091E80083FF2EC18091B1029091EE
:10561000B202492F50E04A30510508F024C1FA0186
:10562000E556FF4F0C94E32F803821F0823809F0C3
:105630001AC108C08091AD029091AE02992389F001
:1056400082600FC08091B5028F70873008F00BC167
:105650008093E9008091EB0085FB882780F9109208
:10566000E9009091E800977F9093E8008093F10023
:105670001092F100D1C0282F2D7F09F0F4C08823AB
:1056800019F0823061F0EFC08091B302813009F0EF
:10569000EAC0933009F080E08093AE022EC0809182
:1056A000B30281112AC08091B5028F702FEF280FAD
:1056B000263008F0D8C08093E9002091EB0020FF4D
:1056C0001CC0933021F48091EB00806214C0909153
:1056D000EB0090619093EB0021E030E0A90102C063
:1056E000440F551F8A95E2F74093EA001092EA00B2
:1056F0008091EB0088608093EB001092E90080912C
:10570000E800877F8093E8000E940829ACC08111DF
:10571000AAC01091B3021F778091E3008078812B9B
:105720008093E3008091E800877F8093E8000E94E7
:1057300008298091E80080FFFCCF8091E300806819
:105740008093E300111102C082E001C083E08093E6
:10575000B00289C08058823008F085C08091B302C1
:105760009091B4028C3D53E0950779F583E08A83EC
:105770008AE289834FB7F894DE01139620E03EE079
:1057800051E2E32FF0E050935700E49120FF03C073
:10579000E295EF703F5FEF708E2F90E0EA3010F0EF
:1057A000C79601C0C0968D939D932F5F243149F712
:1057B0004FBF8091E800877F8093E8006AE270E045
:1057C000CE0101960E94142816C06091B502709116
:1057D000B602AE014F5F5F4F0E943D27BC01892B8F
:1057E00009F441C09091E800977F9093E800898187
:1057F0009A810E9472288091E8008B778093E8005C
:1058000032C0803881F58091E800877F8093E8007E
:105810008091AC028093F1008091E8008E7772CF86
:10582000811121C08091B3029091B402992702970F
:10583000D4F48091E800877F8093E8008091B302E0
:105840008093AC020E9408298091AC02811106C0AD
:105850008091E30087FD02C081E001C084E0809375
:10586000B0020E9428268091E80083FF0AC0809140
:10587000E800877F8093E8008091EB00806280934E
:10588000EB00AA960FB6F894DEBF0FBECDBFDF9136
:10589000CF911F910895CF938091B0028823A1F0FA
:1058A000C091E900CF709091EC00892F817090FD3C
:1058B00080E8C82B1092E9008091E80083FD0E94E7
:1058C000EB2ACF70C093E900CF9108955058BB27C1
:1058D000AA270E947E2C0C94292E0E941B2E38F0A1
:1058E0000E94222E20F039F49F3F19F426F40C94E4
:1058F000F12D0EF4E095E7FB0C94EB2DE92F0E94BF
:105900003A2E58F3BA17620773078407950720F0F9
:1059100079F4A6F50C945C2E0EF4E0950B2EBA2FBC
:10592000A02D0B01B90190010C01CA01A0011124A5
:10593000FF27591B99F0593F50F4503E68F11A1651
:10594000F040A22F232F342F4427585FF3CF4695E2
:1059500037952795A795F0405395C9F77EF41F1604
:10596000BA0B620B730B840BBAF09150A1F0FF0FCE
:10597000BB1F661F771F881FC2F70EC0BA0F621FBA
:10598000731F841F48F4879577956795B795F795AA
:105990009E3F08F0B0CF9395880F08F09927EE0F3F
:1059A0009795879508950E94E72C0C94292E0E94C4
:1059B000222E58F00E941B2E40F029F45F3F29F060
:1059C0000C94EB2D51110C945D2E0C94F12D0E9432
:1059D0003A2E68F39923B1F3552391F3951B550B98
:1059E000BB27AA2762177307840738F09F5F5F4FB2
:1059F000220F331F441FAA1FA9F335D00E2E3AF0F1
:105A0000E0E832D091505040E695001CCAF72BD008
:105A1000FE2F29D0660F771F881FBB1F2617370759
:105A20004807AB07B0E809F0BB0B802DBF01FF278B
:105A300093585F4F3AF09E3F510578F00C94EB2D50
:105A40000C945D2E5F3FE4F3983ED4F386957795F2
:105A50006795B795F7959F5FC9F7880F911D969544
:105A6000879597F90895E1E0660F771F881FBB1FA0
:105A7000621773078407BA0720F0621B730B840B4D
:105A8000BA0BEE1F88F7E095089529F416F00C94F0
:105A9000EB2D0C945C2E0C94F12D0E94422EA8F359
:105AA0009638A0F707F80F92E8942BE33AEA48EB10
:105AB0005FE70E94EF2E0F920F920F924DB75EB7E5
:105AC0000F920E94A52EEAE4F1E00E94F42D4F917E
:105AD0005F91EF91FF91E595EE1FFF1F49F0FE5793
